{
	"simpleVotingContract/SimpleVotingContract.sol": {
		"SimpleVotingContract": {
			"abi": [
				{
					"inputs": [],
					"stateMutability": "nonpayable",
					"type": "constructor"
				},
				{
					"anonymous": false,
					"inputs": [
						{
							"indexed": true,
							"internalType": "address",
							"name": "voter",
							"type": "address"
						},
						{
							"indexed": false,
							"internalType": "string",
							"name": "message",
							"type": "string"
						}
					],
					"name": "Voted",
					"type": "event"
				},
				{
					"inputs": [],
					"name": "ATK_PDP",
					"outputs": [
						{
							"internalType": "uint256",
							"name": "",
							"type": "uint256"
						}
					],
					"stateMutability": "nonpayable",
					"type": "function"
				},
				{
					"inputs": [],
					"name": "BAT_APC",
					"outputs": [
						{
							"internalType": "uint256",
							"name": "",
							"type": "uint256"
						}
					],
					"stateMutability": "nonpayable",
					"type": "function"
				},
				{
					"inputs": [],
					"name": "OBI_LP",
					"outputs": [
						{
							"internalType": "uint256",
							"name": "",
							"type": "uint256"
						}
					],
					"stateMutability": "nonpayable",
					"type": "function"
				},
				{
					"inputs": [],
					"name": "check_votes",
					"outputs": [
						{
							"components": [
								{
									"internalType": "string",
									"name": "name",
									"type": "string"
								},
								{
									"internalType": "uint256",
									"name": "votes",
									"type": "uint256"
								}
							],
							"internalType": "struct SimpleVotingContract.Politician[]",
							"name": "",
							"type": "tuple[]"
						}
					],
					"stateMutability": "view",
					"type": "function"
				}
			],
			"devdoc": {
				"kind": "dev",
				"methods": {},
				"version": 1
			},
			"evm": {
				"assembly": "    /* \"simpleVotingContract/SimpleVotingContract.sol\":61:1584  contract SimpleVotingContract {... */\n  mstore(0x40, 0x80)\n    /* \"simpleVotingContract/SimpleVotingContract.sol\":377:585  constructor(){... */\n  callvalue\n  dup1\n  iszero\n  tag_1\n  jumpi\n  0x00\n  dup1\n  revert\ntag_1:\n  pop\n    /* \"simpleVotingContract/SimpleVotingContract.sol\":407:408  0 */\n  0x00\n    /* \"simpleVotingContract/SimpleVotingContract.sol\":401:404  OBI */\n  dup1\n    /* \"simpleVotingContract/SimpleVotingContract.sol\":401:408  OBI = 0 */\n  dup2\n  swap1\n  sstore\n  pop\n    /* \"simpleVotingContract/SimpleVotingContract.sol\":425:426  1 */\n  0x01\n    /* \"simpleVotingContract/SimpleVotingContract.sol\":419:422  BAT */\n  dup1\n    /* \"simpleVotingContract/SimpleVotingContract.sol\":419:426  BAT = 1 */\n  dup2\n  swap1\n  sstore\n  pop\n    /* \"simpleVotingContract/SimpleVotingContract.sol\":443:444  2 */\n  0x02\n    /* \"simpleVotingContract/SimpleVotingContract.sol\":437:440  ATK */\n  dup1\n    /* \"simpleVotingContract/SimpleVotingContract.sol\":437:444  ATK = 2 */\n  dup2\n  swap1\n  sstore\n  pop\n    /* \"simpleVotingContract/SimpleVotingContract.sol\":470:489  Politician(\"OBI\",0) */\n  mload(0x40)\n  dup1\n  0x40\n  add\n  0x40\n  mstore\n  dup1\n  mload(0x40)\n  dup1\n  0x40\n  add\n  0x40\n  mstore\n  dup1\n  0x03\n  dup2\n  mstore\n  0x20\n  add\n  0x4f42490000000000000000000000000000000000000000000000000000000000\n  dup2\n  mstore\n  pop\n  dup2\n  mstore\n  0x20\n  add\n    /* \"simpleVotingContract/SimpleVotingContract.sol\":487:488  0 */\n  0x00\n    /* \"simpleVotingContract/SimpleVotingContract.sol\":470:489  Politician(\"OBI\",0) */\n  dup2\n  mstore\n  pop\n    /* \"simpleVotingContract/SimpleVotingContract.sol\":457:462  votes */\n  0x04\n    /* \"simpleVotingContract/SimpleVotingContract.sol\":457:467  votes[OBI] */\n  0x00\n    /* \"simpleVotingContract/SimpleVotingContract.sol\":463:466  OBI */\n  dup1\n  sload\n    /* \"simpleVotingContract/SimpleVotingContract.sol\":457:467  votes[OBI] */\n  dup2\n  mstore\n  0x20\n  add\n  swap1\n  dup2\n  mstore\n  0x20\n  add\n  0x00\n  keccak256\n    /* \"simpleVotingContract/SimpleVotingContract.sol\":457:489  votes[OBI] = Politician(\"OBI\",0) */\n  0x00\n  dup3\n  add\n  mload\n  dup2\n  0x00\n  add\n  swap1\n  dup2\n  tag_4\n  swap2\n  swap1\n  tag_5\n  jump\t// in\ntag_4:\n  pop\n  0x20\n  dup3\n  add\n  mload\n  dup2\n  0x01\n  add\n  sstore\n  swap1\n  pop\n  pop\n    /* \"simpleVotingContract/SimpleVotingContract.sol\":513:532  Politician(\"BAT\",0) */\n  mload(0x40)\n  dup1\n  0x40\n  add\n  0x40\n  mstore\n  dup1\n  mload(0x40)\n  dup1\n  0x40\n  add\n  0x40\n  mstore\n  dup1\n  0x03\n  dup2\n  mstore\n  0x20\n  add\n  0x4241540000000000000000000000000000000000000000000000000000000000\n  dup2\n  mstore\n  pop\n  dup2\n  mstore\n  0x20\n  add\n    /* \"simpleVotingContract/SimpleVotingContract.sol\":530:531  0 */\n  0x00\n    /* \"simpleVotingContract/SimpleVotingContract.sol\":513:532  Politician(\"BAT\",0) */\n  dup2\n  mstore\n  pop\n    /* \"simpleVotingContract/SimpleVotingContract.sol\":500:505  votes */\n  0x04\n    /* \"simpleVotingContract/SimpleVotingContract.sol\":500:510  votes[BAT] */\n  0x00\n    /* \"simpleVotingContract/SimpleVotingContract.sol\":506:509  BAT */\n  sload(0x01)\n    /* \"simpleVotingContract/SimpleVotingContract.sol\":500:510  votes[BAT] */\n  dup2\n  mstore\n  0x20\n  add\n  swap1\n  dup2\n  mstore\n  0x20\n  add\n  0x00\n  keccak256\n    /* \"simpleVotingContract/SimpleVotingContract.sol\":500:532  votes[BAT] = Politician(\"BAT\",0) */\n  0x00\n  dup3\n  add\n  mload\n  dup2\n  0x00\n  add\n  swap1\n  dup2\n  tag_6\n  swap2\n  swap1\n  tag_5\n  jump\t// in\ntag_6:\n  pop\n  0x20\n  dup3\n  add\n  mload\n  dup2\n  0x01\n  add\n  sstore\n  swap1\n  pop\n  pop\n    /* \"simpleVotingContract/SimpleVotingContract.sol\":556:575  Politician(\"ATK\",0) */\n  mload(0x40)\n  dup1\n  0x40\n  add\n  0x40\n  mstore\n  dup1\n  mload(0x40)\n  dup1\n  0x40\n  add\n  0x40\n  mstore\n  dup1\n  0x03\n  dup2\n  mstore\n  0x20\n  add\n  0x41544b0000000000000000000000000000000000000000000000000000000000\n  dup2\n  mstore\n  pop\n  dup2\n  mstore\n  0x20\n  add\n    /* \"simpleVotingContract/SimpleVotingContract.sol\":573:574  0 */\n  0x00\n    /* \"simpleVotingContract/SimpleVotingContract.sol\":556:575  Politician(\"ATK\",0) */\n  dup2\n  mstore\n  pop\n    /* \"simpleVotingContract/SimpleVotingContract.sol\":543:548  votes */\n  0x04\n    /* \"simpleVotingContract/SimpleVotingContract.sol\":543:553  votes[ATK] */\n  0x00\n    /* \"simpleVotingContract/SimpleVotingContract.sol\":549:552  ATK */\n  sload(0x02)\n    /* \"simpleVotingContract/SimpleVotingContract.sol\":543:553  votes[ATK] */\n  dup2\n  mstore\n  0x20\n  add\n  swap1\n  dup2\n  mstore\n  0x20\n  add\n  0x00\n  keccak256\n    /* \"simpleVotingContract/SimpleVotingContract.sol\":543:575  votes[ATK] = Politician(\"ATK\",0) */\n  0x00\n  dup3\n  add\n  mload\n  dup2\n  0x00\n  add\n  swap1\n  dup2\n  tag_7\n  swap2\n  swap1\n  tag_5\n  jump\t// in\ntag_7:\n  pop\n  0x20\n  dup3\n  add\n  mload\n  dup2\n  0x01\n  add\n  sstore\n  swap1\n  pop\n  pop\n    /* \"simpleVotingContract/SimpleVotingContract.sol\":61:1584  contract SimpleVotingContract {... */\n  jump(tag_8)\n    /* \"#utility.yul\":7:106   */\ntag_9:\n    /* \"#utility.yul\":59:65   */\n  0x00\n    /* \"#utility.yul\":93:98   */\n  dup2\n    /* \"#utility.yul\":87:99   */\n  mload\n    /* \"#utility.yul\":77:99   */\n  swap1\n  pop\n    /* \"#utility.yul\":7:106   */\n  swap2\n  swap1\n  pop\n  jump\t// out\n    /* \"#utility.yul\":112:292   */\ntag_10:\n    /* \"#utility.yul\":160:237   */\n  0x4e487b7100000000000000000000000000000000000000000000000000000000\n    /* \"#utility.yul\":157:158   */\n  0x00\n    /* \"#utility.yul\":150:238   */\n  mstore\n    /* \"#utility.yul\":257:261   */\n  0x41\n    /* \"#utility.yul\":254:255   */\n  0x04\n    /* \"#utility.yul\":247:262   */\n  mstore\n    /* \"#utility.yul\":281:285   */\n  0x24\n    /* \"#utility.yul\":278:279   */\n  0x00\n    /* \"#utility.yul\":271:286   */\n  revert\n    /* \"#utility.yul\":298:478   */\ntag_11:\n    /* \"#utility.yul\":346:423   */\n  0x4e487b7100000000000000000000000000000000000000000000000000000000\n    /* \"#utility.yul\":343:344   */\n  0x00\n    /* \"#utility.yul\":336:424   */\n  mstore\n    /* \"#utility.yul\":443:447   */\n  0x22\n    /* \"#utility.yul\":440:441   */\n  0x04\n    /* \"#utility.yul\":433:448   */\n  mstore\n    /* \"#utility.yul\":467:471   */\n  0x24\n    /* \"#utility.yul\":464:465   */\n  0x00\n    /* \"#utility.yul\":457:472   */\n  revert\n    /* \"#utility.yul\":484:804   */\ntag_12:\n    /* \"#utility.yul\":528:534   */\n  0x00\n    /* \"#utility.yul\":565:566   */\n  0x02\n    /* \"#utility.yul\":559:563   */\n  dup3\n    /* \"#utility.yul\":555:567   */\n  div\n    /* \"#utility.yul\":545:567   */\n  swap1\n  pop\n    /* \"#utility.yul\":612:613   */\n  0x01\n    /* \"#utility.yul\":606:610   */\n  dup3\n    /* \"#utility.yul\":602:614   */\n  and\n    /* \"#utility.yul\":633:651   */\n  dup1\n    /* \"#utility.yul\":623:704   */\n  tag_34\n  jumpi\n    /* \"#utility.yul\":689:693   */\n  0x7f\n    /* \"#utility.yul\":681:687   */\n  dup3\n    /* \"#utility.yul\":677:694   */\n  and\n    /* \"#utility.yul\":667:694   */\n  swap2\n  pop\n    /* \"#utility.yul\":623:704   */\ntag_34:\n    /* \"#utility.yul\":751:753   */\n  0x20\n    /* \"#utility.yul\":743:749   */\n  dup3\n    /* \"#utility.yul\":740:754   */\n  lt\n    /* \"#utility.yul\":720:738   */\n  dup2\n    /* \"#utility.yul\":717:755   */\n  sub\n    /* \"#utility.yul\":714:798   */\n  tag_35\n  jumpi\n    /* \"#utility.yul\":770:788   */\n  tag_36\n  tag_11\n  jump\t// in\ntag_36:\n    /* \"#utility.yul\":714:798   */\ntag_35:\n    /* \"#utility.yul\":535:804   */\n  pop\n    /* \"#utility.yul\":484:804   */\n  swap2\n  swap1\n  pop\n  jump\t// out\n    /* \"#utility.yul\":810:951   */\ntag_13:\n    /* \"#utility.yul\":859:863   */\n  0x00\n    /* \"#utility.yul\":882:885   */\n  dup2\n    /* \"#utility.yul\":874:885   */\n  swap1\n  pop\n    /* \"#utility.yul\":905:908   */\n  dup2\n    /* \"#utility.yul\":902:903   */\n  0x00\n    /* \"#utility.yul\":895:909   */\n  mstore\n    /* \"#utility.yul\":939:943   */\n  0x20\n    /* \"#utility.yul\":936:937   */\n  0x00\n    /* \"#utility.yul\":926:944   */\n  keccak256\n    /* \"#utility.yul\":918:944   */\n  swap1\n  pop\n    /* \"#utility.yul\":810:951   */\n  swap2\n  swap1\n  pop\n  jump\t// out\n    /* \"#utility.yul\":957:1050   */\ntag_14:\n    /* \"#utility.yul\":994:1000   */\n  0x00\n    /* \"#utility.yul\":1041:1043   */\n  0x20\n    /* \"#utility.yul\":1036:1038   */\n  0x1f\n    /* \"#utility.yul\":1029:1034   */\n  dup4\n    /* \"#utility.yul\":1025:1039   */\n  add\n    /* \"#utility.yul\":1021:1044   */\n  div\n    /* \"#utility.yul\":1011:1044   */\n  swap1\n  pop\n    /* \"#utility.yul\":957:1050   */\n  swap2\n  swap1\n  pop\n  jump\t// out\n    /* \"#utility.yul\":1056:1163   */\ntag_15:\n    /* \"#utility.yul\":1100:1108   */\n  0x00\n    /* \"#utility.yul\":1150:1155   */\n  dup3\n    /* \"#utility.yul\":1144:1148   */\n  dup3\n    /* \"#utility.yul\":1140:1156   */\n  shl\n    /* \"#utility.yul\":1119:1156   */\n  swap1\n  pop\n    /* \"#utility.yul\":1056:1163   */\n  swap3\n  swap2\n  pop\n  pop\n  jump\t// out\n    /* \"#utility.yul\":1169:1562   */\ntag_16:\n    /* \"#utility.yul\":1238:1244   */\n  0x00\n    /* \"#utility.yul\":1288:1289   */\n  0x08\n    /* \"#utility.yul\":1276:1286   */\n  dup4\n    /* \"#utility.yul\":1272:1290   */\n  mul\n    /* \"#utility.yul\":1311:1408   */\n  tag_41\n    /* \"#utility.yul\":1341:1407   */\n  0xffffffffffffffffffffffffffffffffffffffffffffffffffffffffffffffff\n    /* \"#utility.yul\":1330:1339   */\n  dup3\n    /* \"#utility.yul\":1311:1408   */\n  tag_15\n  jump\t// in\ntag_41:\n    /* \"#utility.yul\":1429:1468   */\n  tag_42\n    /* \"#utility.yul\":1459:1467   */\n  dup7\n    /* \"#utility.yul\":1448:1457   */\n  dup4\n    /* \"#utility.yul\":1429:1468   */\n  tag_15\n  jump\t// in\ntag_42:\n    /* \"#utility.yul\":1417:1468   */\n  swap6\n  pop\n    /* \"#utility.yul\":1501:1505   */\n  dup1\n    /* \"#utility.yul\":1497:1506   */\n  not\n    /* \"#utility.yul\":1490:1495   */\n  dup5\n    /* \"#utility.yul\":1486:1507   */\n  and\n    /* \"#utility.yul\":1477:1507   */\n  swap4\n  pop\n    /* \"#utility.yul\":1550:1554   */\n  dup1\n    /* \"#utility.yul\":1540:1548   */\n  dup7\n    /* \"#utility.yul\":1536:1555   */\n  and\n    /* \"#utility.yul\":1529:1534   */\n  dup5\n    /* \"#utility.yul\":1526:1556   */\n  or\n    /* \"#utility.yul\":1516:1556   */\n  swap3\n  pop\n    /* \"#utility.yul\":1245:1562   */\n  pop\n  pop\n    /* \"#utility.yul\":1169:1562   */\n  swap4\n  swap3\n  pop\n  pop\n  pop\n  jump\t// out\n    /* \"#utility.yul\":1568:1645   */\ntag_17:\n    /* \"#utility.yul\":1605:1612   */\n  0x00\n    /* \"#utility.yul\":1634:1639   */\n  dup2\n    /* \"#utility.yul\":1623:1639   */\n  swap1\n  pop\n    /* \"#utility.yul\":1568:1645   */\n  swap2\n  swap1\n  pop\n  jump\t// out\n    /* \"#utility.yul\":1651:1711   */\ntag_18:\n    /* \"#utility.yul\":1679:1682   */\n  0x00\n    /* \"#utility.yul\":1700:1705   */\n  dup2\n    /* \"#utility.yul\":1693:1705   */\n  swap1\n  pop\n    /* \"#utility.yul\":1651:1711   */\n  swap2\n  swap1\n  pop\n  jump\t// out\n    /* \"#utility.yul\":1717:1859   */\ntag_19:\n    /* \"#utility.yul\":1767:1776   */\n  0x00\n    /* \"#utility.yul\":1800:1853   */\n  tag_46\n    /* \"#utility.yul\":1818:1852   */\n  tag_47\n    /* \"#utility.yul\":1827:1851   */\n  tag_48\n    /* \"#utility.yul\":1845:1850   */\n  dup5\n    /* \"#utility.yul\":1827:1851   */\n  tag_17\n  jump\t// in\ntag_48:\n    /* \"#utility.yul\":1818:1852   */\n  tag_18\n  jump\t// in\ntag_47:\n    /* \"#utility.yul\":1800:1853   */\n  tag_17\n  jump\t// in\ntag_46:\n    /* \"#utility.yul\":1787:1853   */\n  swap1\n  pop\n    /* \"#utility.yul\":1717:1859   */\n  swap2\n  swap1\n  pop\n  jump\t// out\n    /* \"#utility.yul\":1865:1940   */\ntag_20:\n    /* \"#utility.yul\":1908:1911   */\n  0x00\n    /* \"#utility.yul\":1929:1934   */\n  dup2\n    /* \"#utility.yul\":1922:1934   */\n  swap1\n  pop\n    /* \"#utility.yul\":1865:1940   */\n  swap2\n  swap1\n  pop\n  jump\t// out\n    /* \"#utility.yul\":1946:2215   */\ntag_21:\n    /* \"#utility.yul\":2056:2095   */\n  tag_51\n    /* \"#utility.yul\":2087:2094   */\n  dup4\n    /* \"#utility.yul\":2056:2095   */\n  tag_19\n  jump\t// in\ntag_51:\n    /* \"#utility.yul\":2117:2208   */\n  tag_52\n    /* \"#utility.yul\":2166:2207   */\n  tag_53\n    /* \"#utility.yul\":2190:2206   */\n  dup3\n    /* \"#utility.yul\":2166:2207   */\n  tag_20\n  jump\t// in\ntag_53:\n    /* \"#utility.yul\":2158:2164   */\n  dup5\n    /* \"#utility.yul\":2151:2155   */\n  dup5\n    /* \"#utility.yul\":2145:2156   */\n  sload\n    /* \"#utility.yul\":2117:2208   */\n  tag_16\n  jump\t// in\ntag_52:\n    /* \"#utility.yul\":2111:2115   */\n  dup3\n    /* \"#utility.yul\":2104:2209   */\n  sstore\n    /* \"#utility.yul\":2022:2215   */\n  pop\n    /* \"#utility.yul\":1946:2215   */\n  pop\n  pop\n  pop\n  jump\t// out\n    /* \"#utility.yul\":2221:2294   */\ntag_22:\n    /* \"#utility.yul\":2266:2269   */\n  0x00\n    /* \"#utility.yul\":2221:2294   */\n  swap1\n  jump\t// out\n    /* \"#utility.yul\":2300:2489   */\ntag_23:\n    /* \"#utility.yul\":2377:2409   */\n  tag_56\n  tag_22\n  jump\t// in\ntag_56:\n    /* \"#utility.yul\":2418:2483   */\n  tag_57\n    /* \"#utility.yul\":2476:2482   */\n  dup2\n    /* \"#utility.yul\":2468:2474   */\n  dup5\n    /* \"#utility.yul\":2462:2466   */\n  dup5\n    /* \"#utility.yul\":2418:2483   */\n  tag_21\n  jump\t// in\ntag_57:\n    /* \"#utility.yul\":2353:2489   */\n  pop\n    /* \"#utility.yul\":2300:2489   */\n  pop\n  pop\n  jump\t// out\n    /* \"#utility.yul\":2495:2681   */\ntag_24:\n    /* \"#utility.yul\":2555:2675   */\ntag_59:\n    /* \"#utility.yul\":2572:2575   */\n  dup2\n    /* \"#utility.yul\":2565:2570   */\n  dup2\n    /* \"#utility.yul\":2562:2576   */\n  lt\n    /* \"#utility.yul\":2555:2675   */\n  iszero\n  tag_61\n  jumpi\n    /* \"#utility.yul\":2626:2665   */\n  tag_62\n    /* \"#utility.yul\":2663:2664   */\n  0x00\n    /* \"#utility.yul\":2656:2661   */\n  dup3\n    /* \"#utility.yul\":2626:2665   */\n  tag_23\n  jump\t// in\ntag_62:\n    /* \"#utility.yul\":2599:2600   */\n  0x01\n    /* \"#utility.yul\":2592:2597   */\n  dup2\n    /* \"#utility.yul\":2588:2601   */\n  add\n    /* \"#utility.yul\":2579:2601   */\n  swap1\n  pop\n    /* \"#utility.yul\":2555:2675   */\n  jump(tag_59)\ntag_61:\n    /* \"#utility.yul\":2495:2681   */\n  pop\n  pop\n  jump\t// out\n    /* \"#utility.yul\":2687:3230   */\ntag_25:\n    /* \"#utility.yul\":2788:2790   */\n  0x1f\n    /* \"#utility.yul\":2783:2786   */\n  dup3\n    /* \"#utility.yul\":2780:2791   */\n  gt\n    /* \"#utility.yul\":2777:3223   */\n  iszero\n  tag_64\n  jumpi\n    /* \"#utility.yul\":2822:2860   */\n  tag_65\n    /* \"#utility.yul\":2854:2859   */\n  dup2\n    /* \"#utility.yul\":2822:2860   */\n  tag_13\n  jump\t// in\ntag_65:\n    /* \"#utility.yul\":2906:2935   */\n  tag_66\n    /* \"#utility.yul\":2924:2934   */\n  dup5\n    /* \"#utility.yul\":2906:2935   */\n  tag_14\n  jump\t// in\ntag_66:\n    /* \"#utility.yul\":2896:2904   */\n  dup2\n    /* \"#utility.yul\":2892:2936   */\n  add\n    /* \"#utility.yul\":3089:3091   */\n  0x20\n    /* \"#utility.yul\":3077:3087   */\n  dup6\n    /* \"#utility.yul\":3074:3092   */\n  lt\n    /* \"#utility.yul\":3071:3120   */\n  iszero\n  tag_67\n  jumpi\n    /* \"#utility.yul\":3110:3118   */\n  dup2\n    /* \"#utility.yul\":3095:3118   */\n  swap1\n  pop\n    /* \"#utility.yul\":3071:3120   */\ntag_67:\n    /* \"#utility.yul\":3133:3213   */\n  tag_68\n    /* \"#utility.yul\":3189:3211   */\n  tag_69\n    /* \"#utility.yul\":3207:3210   */\n  dup6\n    /* \"#utility.yul\":3189:3211   */\n  tag_14\n  jump\t// in\ntag_69:\n    /* \"#utility.yul\":3179:3187   */\n  dup4\n    /* \"#utility.yul\":3175:3212   */\n  add\n    /* \"#utility.yul\":3162:3173   */\n  dup3\n    /* \"#utility.yul\":3133:3213   */\n  tag_24\n  jump\t// in\ntag_68:\n    /* \"#utility.yul\":2792:3223   */\n  pop\n  pop\n    /* \"#utility.yul\":2777:3223   */\ntag_64:\n    /* \"#utility.yul\":2687:3230   */\n  pop\n  pop\n  pop\n  jump\t// out\n    /* \"#utility.yul\":3236:3353   */\ntag_26:\n    /* \"#utility.yul\":3290:3298   */\n  0x00\n    /* \"#utility.yul\":3340:3345   */\n  dup3\n    /* \"#utility.yul\":3334:3338   */\n  dup3\n    /* \"#utility.yul\":3330:3346   */\n  shr\n    /* \"#utility.yul\":3309:3346   */\n  swap1\n  pop\n    /* \"#utility.yul\":3236:3353   */\n  swap3\n  swap2\n  pop\n  pop\n  jump\t// out\n    /* \"#utility.yul\":3359:3528   */\ntag_27:\n    /* \"#utility.yul\":3403:3409   */\n  0x00\n    /* \"#utility.yul\":3436:3487   */\n  tag_72\n    /* \"#utility.yul\":3484:3485   */\n  0x00\n    /* \"#utility.yul\":3480:3486   */\n  not\n    /* \"#utility.yul\":3472:3477   */\n  dup5\n    /* \"#utility.yul\":3469:3470   */\n  0x08\n    /* \"#utility.yul\":3465:3478   */\n  mul\n    /* \"#utility.yul\":3436:3487   */\n  tag_26\n  jump\t// in\ntag_72:\n    /* \"#utility.yul\":3432:3488   */\n  not\n    /* \"#utility.yul\":3517:3521   */\n  dup1\n    /* \"#utility.yul\":3511:3515   */\n  dup4\n    /* \"#utility.yul\":3507:3522   */\n  and\n    /* \"#utility.yul\":3497:3522   */\n  swap2\n  pop\n    /* \"#utility.yul\":3410:3528   */\n  pop\n    /* \"#utility.yul\":3359:3528   */\n  swap3\n  swap2\n  pop\n  pop\n  jump\t// out\n    /* \"#utility.yul\":3533:3828   */\ntag_28:\n    /* \"#utility.yul\":3609:3613   */\n  0x00\n    /* \"#utility.yul\":3755:3784   */\n  tag_74\n    /* \"#utility.yul\":3780:3783   */\n  dup4\n    /* \"#utility.yul\":3774:3778   */\n  dup4\n    /* \"#utility.yul\":3755:3784   */\n  tag_27\n  jump\t// in\ntag_74:\n    /* \"#utility.yul\":3747:3784   */\n  swap2\n  pop\n    /* \"#utility.yul\":3817:3820   */\n  dup3\n    /* \"#utility.yul\":3814:3815   */\n  0x02\n    /* \"#utility.yul\":3810:3821   */\n  mul\n    /* \"#utility.yul\":3804:3808   */\n  dup3\n    /* \"#utility.yul\":3801:3822   */\n  or\n    /* \"#utility.yul\":3793:3822   */\n  swap1\n  pop\n    /* \"#utility.yul\":3533:3828   */\n  swap3\n  swap2\n  pop\n  pop\n  jump\t// out\n    /* \"#utility.yul\":3833:5228   */\ntag_5:\n    /* \"#utility.yul\":3950:3987   */\n  tag_76\n    /* \"#utility.yul\":3983:3986   */\n  dup3\n    /* \"#utility.yul\":3950:3987   */\n  tag_9\n  jump\t// in\ntag_76:\n    /* \"#utility.yul\":4052:4070   */\n  0xffffffffffffffff\n    /* \"#utility.yul\":4044:4050   */\n  dup2\n    /* \"#utility.yul\":4041:4071   */\n  gt\n    /* \"#utility.yul\":4038:4094   */\n  iszero\n  tag_77\n  jumpi\n    /* \"#utility.yul\":4074:4092   */\n  tag_78\n  tag_10\n  jump\t// in\ntag_78:\n    /* \"#utility.yul\":4038:4094   */\ntag_77:\n    /* \"#utility.yul\":4118:4156   */\n  tag_79\n    /* \"#utility.yul\":4150:4154   */\n  dup3\n    /* \"#utility.yul\":4144:4155   */\n  sload\n    /* \"#utility.yul\":4118:4156   */\n  tag_12\n  jump\t// in\ntag_79:\n    /* \"#utility.yul\":4203:4270   */\n  tag_80\n    /* \"#utility.yul\":4263:4269   */\n  dup3\n    /* \"#utility.yul\":4255:4261   */\n  dup3\n    /* \"#utility.yul\":4249:4253   */\n  dup6\n    /* \"#utility.yul\":4203:4270   */\n  tag_25\n  jump\t// in\ntag_80:\n    /* \"#utility.yul\":4297:4298   */\n  0x00\n    /* \"#utility.yul\":4321:4325   */\n  0x20\n    /* \"#utility.yul\":4308:4325   */\n  swap1\n  pop\n    /* \"#utility.yul\":4353:4355   */\n  0x1f\n    /* \"#utility.yul\":4345:4351   */\n  dup4\n    /* \"#utility.yul\":4342:4356   */\n  gt\n    /* \"#utility.yul\":4370:4371   */\n  0x01\n    /* \"#utility.yul\":4365:4983   */\n  dup2\n  eq\n  tag_82\n  jumpi\n    /* \"#utility.yul\":5027:5028   */\n  0x00\n    /* \"#utility.yul\":5044:5050   */\n  dup5\n    /* \"#utility.yul\":5041:5118   */\n  iszero\n  tag_83\n  jumpi\n    /* \"#utility.yul\":5093:5102   */\n  dup3\n    /* \"#utility.yul\":5088:5091   */\n  dup8\n    /* \"#utility.yul\":5084:5103   */\n  add\n    /* \"#utility.yul\":5078:5104   */\n  mload\n    /* \"#utility.yul\":5069:5104   */\n  swap1\n  pop\n    /* \"#utility.yul\":5041:5118   */\ntag_83:\n    /* \"#utility.yul\":5144:5211   */\n  tag_84\n    /* \"#utility.yul\":5204:5210   */\n  dup6\n    /* \"#utility.yul\":5197:5202   */\n  dup3\n    /* \"#utility.yul\":5144:5211   */\n  tag_28\n  jump\t// in\ntag_84:\n    /* \"#utility.yul\":5138:5142   */\n  dup7\n    /* \"#utility.yul\":5131:5212   */\n  sstore\n    /* \"#utility.yul\":5000:5222   */\n  pop\n    /* \"#utility.yul\":4335:5222   */\n  jump(tag_81)\n    /* \"#utility.yul\":4365:4983   */\ntag_82:\n    /* \"#utility.yul\":4417:4421   */\n  0x1f\n    /* \"#utility.yul\":4413:4422   */\n  not\n    /* \"#utility.yul\":4405:4411   */\n  dup5\n    /* \"#utility.yul\":4401:4423   */\n  and\n    /* \"#utility.yul\":4451:4488   */\n  tag_85\n    /* \"#utility.yul\":4483:4487   */\n  dup7\n    /* \"#utility.yul\":4451:4488   */\n  tag_13\n  jump\t// in\ntag_85:\n    /* \"#utility.yul\":4510:4511   */\n  0x00\n    /* \"#utility.yul\":4524:4732   */\ntag_86:\n    /* \"#utility.yul\":4538:4545   */\n  dup3\n    /* \"#utility.yul\":4535:4536   */\n  dup2\n    /* \"#utility.yul\":4532:4546   */\n  lt\n    /* \"#utility.yul\":4524:4732   */\n  iszero\n  tag_88\n  jumpi\n    /* \"#utility.yul\":4617:4626   */\n  dup5\n    /* \"#utility.yul\":4612:4615   */\n  dup10\n    /* \"#utility.yul\":4608:4627   */\n  add\n    /* \"#utility.yul\":4602:4628   */\n  mload\n    /* \"#utility.yul\":4594:4600   */\n  dup3\n    /* \"#utility.yul\":4587:4629   */\n  sstore\n    /* \"#utility.yul\":4668:4669   */\n  0x01\n    /* \"#utility.yul\":4660:4666   */\n  dup3\n    /* \"#utility.yul\":4656:4670   */\n  add\n    /* \"#utility.yul\":4646:4670   */\n  swap2\n  pop\n    /* \"#utility.yul\":4715:4717   */\n  0x20\n    /* \"#utility.yul\":4704:4713   */\n  dup6\n    /* \"#utility.yul\":4700:4718   */\n  add\n    /* \"#utility.yul\":4687:4718   */\n  swap5\n  pop\n    /* \"#utility.yul\":4561:4565   */\n  0x20\n    /* \"#utility.yul\":4558:4559   */\n  dup2\n    /* \"#utility.yul\":4554:4566   */\n  add\n    /* \"#utility.yul\":4549:4566   */\n  swap1\n  pop\n    /* \"#utility.yul\":4524:4732   */\n  jump(tag_86)\ntag_88:\n    /* \"#utility.yul\":4760:4766   */\n  dup7\n    /* \"#utility.yul\":4751:4758   */\n  dup4\n    /* \"#utility.yul\":4748:4767   */\n  lt\n    /* \"#utility.yul\":4745:4924   */\n  iszero\n  tag_89\n  jumpi\n    /* \"#utility.yul\":4818:4827   */\n  dup5\n    /* \"#utility.yul\":4813:4816   */\n  dup10\n    /* \"#utility.yul\":4809:4828   */\n  add\n    /* \"#utility.yul\":4803:4829   */\n  mload\n    /* \"#utility.yul\":4861:4909   */\n  tag_90\n    /* \"#utility.yul\":4903:4907   */\n  0x1f\n    /* \"#utility.yul\":4895:4901   */\n  dup10\n    /* \"#utility.yul\":4891:4908   */\n  and\n    /* \"#utility.yul\":4880:4889   */\n  dup3\n    /* \"#utility.yul\":4861:4909   */\n  tag_27\n  jump\t// in\ntag_90:\n    /* \"#utility.yul\":4853:4859   */\n  dup4\n    /* \"#utility.yul\":4846:4910   */\n  sstore\n    /* \"#utility.yul\":4768:4924   */\n  pop\n    /* \"#utility.yul\":4745:4924   */\ntag_89:\n    /* \"#utility.yul\":4970:4971   */\n  0x01\n    /* \"#utility.yul\":4966:4967   */\n  0x02\n    /* \"#utility.yul\":4958:4964   */\n  dup9\n    /* \"#utility.yul\":4954:4968   */\n  mul\n    /* \"#utility.yul\":4950:4972   */\n  add\n    /* \"#utility.yul\":4944:4948   */\n  dup9\n    /* \"#utility.yul\":4937:4973   */\n  sstore\n    /* \"#utility.yul\":4372:4983   */\n  pop\n  pop\n  pop\n    /* \"#utility.yul\":4335:5222   */\ntag_81:\n  pop\n    /* \"#utility.yul\":3925:5228   */\n  pop\n  pop\n  pop\n    /* \"#utility.yul\":3833:5228   */\n  pop\n  pop\n  jump\t// out\n    /* \"simpleVotingContract/SimpleVotingContract.sol\":61:1584  contract SimpleVotingContract {... */\ntag_8:\n  dataSize(sub_0)\n  dup1\n  dataOffset(sub_0)\n  0x00\n  codecopy\n  0x00\n  return\nstop\n\nsub_0: assembly {\n        /* \"simpleVotingContract/SimpleVotingContract.sol\":61:1584  contract SimpleVotingContract {... */\n      mstore(0x40, 0x80)\n      callvalue\n      dup1\n      iszero\n      tag_1\n      jumpi\n      0x00\n      dup1\n      revert\n    tag_1:\n      pop\n      jumpi(tag_2, lt(calldatasize, 0x04))\n      shr(0xe0, calldataload(0x00))\n      dup1\n      0x210c572a\n      eq\n      tag_3\n      jumpi\n      dup1\n      0x5a6e5574\n      eq\n      tag_4\n      jumpi\n      dup1\n      0x5edfb754\n      eq\n      tag_5\n      jumpi\n      dup1\n      0x8010d1d7\n      eq\n      tag_6\n      jumpi\n    tag_2:\n      0x00\n      dup1\n      revert\n        /* \"simpleVotingContract/SimpleVotingContract.sol\":1074:1190  function BAT_APC() public returns(uint256){... */\n    tag_3:\n      tag_7\n      tag_8\n      jump\t// in\n    tag_7:\n      mload(0x40)\n      tag_9\n      swap2\n      swap1\n      tag_10\n      jump\t// in\n    tag_9:\n      mload(0x40)\n      dup1\n      swap2\n      sub\n      swap1\n      return\n        /* \"simpleVotingContract/SimpleVotingContract.sol\":1198:1314  function ATK_PDP() public returns(uint256){... */\n    tag_4:\n      tag_11\n      tag_12\n      jump\t// in\n    tag_11:\n      mload(0x40)\n      tag_13\n      swap2\n      swap1\n      tag_10\n      jump\t// in\n    tag_13:\n      mload(0x40)\n      dup1\n      swap2\n      sub\n      swap1\n      return\n        /* \"simpleVotingContract/SimpleVotingContract.sol\":1322:1581  function check_votes() public view returns (Politician[] memory){... */\n    tag_5:\n      tag_14\n      tag_15\n      jump\t// in\n    tag_14:\n      mload(0x40)\n      tag_16\n      swap2\n      swap1\n      tag_17\n      jump\t// in\n    tag_16:\n      mload(0x40)\n      dup1\n      swap2\n      sub\n      swap1\n      return\n        /* \"simpleVotingContract/SimpleVotingContract.sol\":950:1066  function OBI_LP() public returns(uint256) {... */\n    tag_6:\n      tag_18\n      tag_19\n      jump\t// in\n    tag_18:\n      mload(0x40)\n      tag_20\n      swap2\n      swap1\n      tag_10\n      jump\t// in\n    tag_20:\n      mload(0x40)\n      dup1\n      swap2\n      sub\n      swap1\n      return\n        /* \"simpleVotingContract/SimpleVotingContract.sol\":1074:1190  function BAT_APC() public returns(uint256){... */\n    tag_8:\n        /* \"simpleVotingContract/SimpleVotingContract.sol\":1108:1115  uint256 */\n      0x00\n        /* \"simpleVotingContract/SimpleVotingContract.sol\":1127:1148  vote(msg.sender, BAT) */\n      tag_22\n        /* \"simpleVotingContract/SimpleVotingContract.sol\":1132:1142  msg.sender */\n      caller\n        /* \"simpleVotingContract/SimpleVotingContract.sol\":1144:1147  BAT */\n      sload(0x01)\n        /* \"simpleVotingContract/SimpleVotingContract.sol\":1127:1131  vote */\n      tag_23\n        /* \"simpleVotingContract/SimpleVotingContract.sol\":1127:1148  vote(msg.sender, BAT) */\n      jump\t// in\n    tag_22:\n        /* \"simpleVotingContract/SimpleVotingContract.sol\":1166:1171  votes */\n      0x04\n        /* \"simpleVotingContract/SimpleVotingContract.sol\":1166:1176  votes[BAT] */\n      0x00\n        /* \"simpleVotingContract/SimpleVotingContract.sol\":1172:1175  BAT */\n      sload(0x01)\n        /* \"simpleVotingContract/SimpleVotingContract.sol\":1166:1176  votes[BAT] */\n      dup2\n      mstore\n      0x20\n      add\n      swap1\n      dup2\n      mstore\n      0x20\n      add\n      0x00\n      keccak256\n        /* \"simpleVotingContract/SimpleVotingContract.sol\":1166:1182  votes[BAT].votes */\n      0x01\n      add\n      sload\n        /* \"simpleVotingContract/SimpleVotingContract.sol\":1159:1182  return votes[BAT].votes */\n      swap1\n      pop\n        /* \"simpleVotingContract/SimpleVotingContract.sol\":1074:1190  function BAT_APC() public returns(uint256){... */\n      swap1\n      jump\t// out\n        /* \"simpleVotingContract/SimpleVotingContract.sol\":1198:1314  function ATK_PDP() public returns(uint256){... */\n    tag_12:\n        /* \"simpleVotingContract/SimpleVotingContract.sol\":1232:1239  uint256 */\n      0x00\n        /* \"simpleVotingContract/SimpleVotingContract.sol\":1251:1272  vote(msg.sender, ATK) */\n      tag_25\n        /* \"simpleVotingContract/SimpleVotingContract.sol\":1256:1266  msg.sender */\n      caller\n        /* \"simpleVotingContract/SimpleVotingContract.sol\":1268:1271  ATK */\n      sload(0x02)\n        /* \"simpleVotingContract/SimpleVotingContract.sol\":1251:1255  vote */\n      tag_23\n        /* \"simpleVotingContract/SimpleVotingContract.sol\":1251:1272  vote(msg.sender, ATK) */\n      jump\t// in\n    tag_25:\n        /* \"simpleVotingContract/SimpleVotingContract.sol\":1290:1295  votes */\n      0x04\n        /* \"simpleVotingContract/SimpleVotingContract.sol\":1290:1300  votes[ATK] */\n      0x00\n        /* \"simpleVotingContract/SimpleVotingContract.sol\":1296:1299  ATK */\n      sload(0x02)\n        /* \"simpleVotingContract/SimpleVotingContract.sol\":1290:1300  votes[ATK] */\n      dup2\n      mstore\n      0x20\n      add\n      swap1\n      dup2\n      mstore\n      0x20\n      add\n      0x00\n      keccak256\n        /* \"simpleVotingContract/SimpleVotingContract.sol\":1290:1306  votes[ATK].votes */\n      0x01\n      add\n      sload\n        /* \"simpleVotingContract/SimpleVotingContract.sol\":1283:1306  return votes[ATK].votes */\n      swap1\n      pop\n        /* \"simpleVotingContract/SimpleVotingContract.sol\":1198:1314  function ATK_PDP() public returns(uint256){... */\n      swap1\n      jump\t// out\n        /* \"simpleVotingContract/SimpleVotingContract.sol\":1322:1581  function check_votes() public view returns (Politician[] memory){... */\n    tag_15:\n        /* \"simpleVotingContract/SimpleVotingContract.sol\":1366:1385  Politician[] memory */\n      0x60\n        /* \"simpleVotingContract/SimpleVotingContract.sol\":1397:1428  Politician[] memory politicians */\n      0x00\n        /* \"simpleVotingContract/SimpleVotingContract.sol\":1448:1449  3 */\n      0x03\n        /* \"simpleVotingContract/SimpleVotingContract.sol\":1431:1450  new Politician[](3) */\n      0xffffffffffffffff\n      dup2\n      gt\n      iszero\n      tag_27\n      jumpi\n      tag_28\n      tag_29\n      jump\t// in\n    tag_28:\n    tag_27:\n      mload(0x40)\n      swap1\n      dup1\n      dup3\n      mstore\n      dup1\n      0x20\n      mul\n      0x20\n      add\n      dup3\n      add\n      0x40\n      mstore\n      dup1\n      iszero\n      tag_30\n      jumpi\n      dup2\n      0x20\n      add\n    tag_31:\n      tag_32\n      tag_33\n      jump\t// in\n    tag_32:\n      dup2\n      mstore\n      0x20\n      add\n      swap1\n      0x01\n      swap1\n      sub\n      swap1\n      dup2\n      tag_31\n      jumpi\n      swap1\n      pop\n    tag_30:\n      pop\n        /* \"simpleVotingContract/SimpleVotingContract.sol\":1397:1450  Politician[] memory politicians = new Politician[](3) */\n      swap1\n      pop\n        /* \"simpleVotingContract/SimpleVotingContract.sol\":1466:1475  uint256 i */\n      0x00\n        /* \"simpleVotingContract/SimpleVotingContract.sol\":1461:1545  for (uint256 i = 0; i < 3 ; i++){... */\n    tag_34:\n        /* \"simpleVotingContract/SimpleVotingContract.sol\":1485:1486  3 */\n      0x03\n        /* \"simpleVotingContract/SimpleVotingContract.sol\":1481:1482  i */\n      dup2\n        /* \"simpleVotingContract/SimpleVotingContract.sol\":1481:1486  i < 3 */\n      lt\n        /* \"simpleVotingContract/SimpleVotingContract.sol\":1461:1545  for (uint256 i = 0; i < 3 ; i++){... */\n      iszero\n      tag_35\n      jumpi\n        /* \"simpleVotingContract/SimpleVotingContract.sol\":1525:1530  votes */\n      0x04\n        /* \"simpleVotingContract/SimpleVotingContract.sol\":1525:1533  votes[i] */\n      0x00\n        /* \"simpleVotingContract/SimpleVotingContract.sol\":1531:1532  i */\n      dup3\n        /* \"simpleVotingContract/SimpleVotingContract.sol\":1525:1533  votes[i] */\n      dup2\n      mstore\n      0x20\n      add\n      swap1\n      dup2\n      mstore\n      0x20\n      add\n      0x00\n      keccak256\n        /* \"simpleVotingContract/SimpleVotingContract.sol\":1508:1533  politicians[i] = votes[i] */\n      mload(0x40)\n      dup1\n      0x40\n      add\n      0x40\n      mstore\n      swap1\n      dup2\n      0x00\n      dup3\n      add\n      dup1\n      sload\n      tag_37\n      swap1\n      tag_38\n      jump\t// in\n    tag_37:\n      dup1\n      0x1f\n      add\n      0x20\n      dup1\n      swap2\n      div\n      mul\n      0x20\n      add\n      mload(0x40)\n      swap1\n      dup2\n      add\n      0x40\n      mstore\n      dup1\n      swap3\n      swap2\n      swap1\n      dup2\n      dup2\n      mstore\n      0x20\n      add\n      dup3\n      dup1\n      sload\n      tag_39\n      swap1\n      tag_38\n      jump\t// in\n    tag_39:\n      dup1\n      iszero\n      tag_40\n      jumpi\n      dup1\n      0x1f\n      lt\n      tag_41\n      jumpi\n      0x0100\n      dup1\n      dup4\n      sload\n      div\n      mul\n      dup4\n      mstore\n      swap2\n      0x20\n      add\n      swap2\n      jump(tag_40)\n    tag_41:\n      dup3\n      add\n      swap2\n      swap1\n      0x00\n      mstore\n      keccak256(0x00, 0x20)\n      swap1\n    tag_42:\n      dup2\n      sload\n      dup2\n      mstore\n      swap1\n      0x01\n      add\n      swap1\n      0x20\n      add\n      dup1\n      dup4\n      gt\n      tag_42\n      jumpi\n      dup3\n      swap1\n      sub\n      0x1f\n      and\n      dup3\n      add\n      swap2\n    tag_40:\n      pop\n      pop\n      pop\n      pop\n      pop\n      dup2\n      mstore\n      0x20\n      add\n      0x01\n      dup3\n      add\n      sload\n      dup2\n      mstore\n      pop\n      pop\n        /* \"simpleVotingContract/SimpleVotingContract.sol\":1508:1519  politicians */\n      dup3\n        /* \"simpleVotingContract/SimpleVotingContract.sol\":1520:1521  i */\n      dup3\n        /* \"simpleVotingContract/SimpleVotingContract.sol\":1508:1522  politicians[i] */\n      dup2\n      mload\n      dup2\n      lt\n      tag_43\n      jumpi\n      tag_44\n      tag_45\n      jump\t// in\n    tag_44:\n    tag_43:\n      0x20\n      mul\n      0x20\n      add\n      add\n        /* \"simpleVotingContract/SimpleVotingContract.sol\":1508:1533  politicians[i] = votes[i] */\n      dup2\n      swap1\n      mstore\n      pop\n        /* \"simpleVotingContract/SimpleVotingContract.sol\":1489:1492  i++ */\n      dup1\n      dup1\n      0x01\n      add\n      swap2\n      pop\n      pop\n        /* \"simpleVotingContract/SimpleVotingContract.sol\":1461:1545  for (uint256 i = 0; i < 3 ; i++){... */\n      jump(tag_34)\n    tag_35:\n      pop\n        /* \"simpleVotingContract/SimpleVotingContract.sol\":1562:1573  politicians */\n      dup1\n        /* \"simpleVotingContract/SimpleVotingContract.sol\":1555:1573  return politicians */\n      swap2\n      pop\n      pop\n        /* \"simpleVotingContract/SimpleVotingContract.sol\":1322:1581  function check_votes() public view returns (Politician[] memory){... */\n      swap1\n      jump\t// out\n        /* \"simpleVotingContract/SimpleVotingContract.sol\":950:1066  function OBI_LP() public returns(uint256) {... */\n    tag_19:\n        /* \"simpleVotingContract/SimpleVotingContract.sol\":983:990  uint256 */\n      0x00\n        /* \"simpleVotingContract/SimpleVotingContract.sol\":1003:1024  vote(msg.sender, OBI) */\n      tag_47\n        /* \"simpleVotingContract/SimpleVotingContract.sol\":1008:1018  msg.sender */\n      caller\n        /* \"simpleVotingContract/SimpleVotingContract.sol\":1020:1023  OBI */\n      sload(0x00)\n        /* \"simpleVotingContract/SimpleVotingContract.sol\":1003:1007  vote */\n      tag_23\n        /* \"simpleVotingContract/SimpleVotingContract.sol\":1003:1024  vote(msg.sender, OBI) */\n      jump\t// in\n    tag_47:\n        /* \"simpleVotingContract/SimpleVotingContract.sol\":1042:1047  votes */\n      0x04\n        /* \"simpleVotingContract/SimpleVotingContract.sol\":1042:1052  votes[OBI] */\n      0x00\n        /* \"simpleVotingContract/SimpleVotingContract.sol\":1048:1051  OBI */\n      dup1\n      sload\n        /* \"simpleVotingContract/SimpleVotingContract.sol\":1042:1052  votes[OBI] */\n      dup2\n      mstore\n      0x20\n      add\n      swap1\n      dup2\n      mstore\n      0x20\n      add\n      0x00\n      keccak256\n        /* \"simpleVotingContract/SimpleVotingContract.sol\":1042:1058  votes[OBI].votes */\n      0x01\n      add\n      sload\n        /* \"simpleVotingContract/SimpleVotingContract.sol\":1035:1058  return votes[OBI].votes */\n      swap1\n      pop\n        /* \"simpleVotingContract/SimpleVotingContract.sol\":950:1066  function OBI_LP() public returns(uint256) {... */\n      swap1\n      jump\t// out\n        /* \"simpleVotingContract/SimpleVotingContract.sol\":593:942  function vote(address _address, uint256 politician_id) internal  {... */\n    tag_23:\n        /* \"simpleVotingContract/SimpleVotingContract.sol\":673:681  register */\n      0x03\n        /* \"simpleVotingContract/SimpleVotingContract.sol\":673:691  register[_address] */\n      0x00\n        /* \"simpleVotingContract/SimpleVotingContract.sol\":682:690  _address */\n      dup4\n        /* \"simpleVotingContract/SimpleVotingContract.sol\":673:691  register[_address] */\n      0xffffffffffffffffffffffffffffffffffffffff\n      and\n      0xffffffffffffffffffffffffffffffffffffffff\n      and\n      dup2\n      mstore\n      0x20\n      add\n      swap1\n      dup2\n      mstore\n      0x20\n      add\n      0x00\n      keccak256\n      0x00\n      swap1\n      sload\n      swap1\n      0x0100\n      exp\n      swap1\n      div\n      0xff\n      and\n        /* \"simpleVotingContract/SimpleVotingContract.sol\":669:935  if (register[_address]) {... */\n      iszero\n      tag_49\n      jumpi\n        /* \"simpleVotingContract/SimpleVotingContract.sol\":719:727  _address */\n      dup2\n        /* \"simpleVotingContract/SimpleVotingContract.sol\":713:762  Voted(_address, \"This address has already voted\") */\n      0xffffffffffffffffffffffffffffffffffffffff\n      and\n      0xcb6783276e8a4347387036bbfea000268f0a4b1f8c46ac79980609f2af8d2acd\n      mload(0x40)\n      tag_50\n      swap1\n      tag_51\n      jump\t// in\n    tag_50:\n      mload(0x40)\n      dup1\n      swap2\n      sub\n      swap1\n      log2\n        /* \"simpleVotingContract/SimpleVotingContract.sol\":669:935  if (register[_address]) {... */\n      jump(tag_52)\n    tag_49:\n        /* \"simpleVotingContract/SimpleVotingContract.sol\":816:820  true */\n      0x01\n        /* \"simpleVotingContract/SimpleVotingContract.sol\":795:803  register */\n      0x03\n        /* \"simpleVotingContract/SimpleVotingContract.sol\":795:813  register[_address] */\n      0x00\n        /* \"simpleVotingContract/SimpleVotingContract.sol\":804:812  _address */\n      dup5\n        /* \"simpleVotingContract/SimpleVotingContract.sol\":795:813  register[_address] */\n      0xffffffffffffffffffffffffffffffffffffffff\n      and\n      0xffffffffffffffffffffffffffffffffffffffff\n      and\n      dup2\n      mstore\n      0x20\n      add\n      swap1\n      dup2\n      mstore\n      0x20\n      add\n      0x00\n      keccak256\n      0x00\n        /* \"simpleVotingContract/SimpleVotingContract.sol\":795:820  register[_address] = true */\n      0x0100\n      exp\n      dup2\n      sload\n      dup2\n      0xff\n      mul\n      not\n      and\n      swap1\n      dup4\n      iszero\n      iszero\n      mul\n      or\n      swap1\n      sstore\n      pop\n        /* \"simpleVotingContract/SimpleVotingContract.sol\":865:866  1 */\n      0x01\n        /* \"simpleVotingContract/SimpleVotingContract.sol\":835:840  votes */\n      0x04\n        /* \"simpleVotingContract/SimpleVotingContract.sol\":835:855  votes[politician_id] */\n      0x00\n        /* \"simpleVotingContract/SimpleVotingContract.sol\":841:854  politician_id */\n      dup4\n        /* \"simpleVotingContract/SimpleVotingContract.sol\":835:855  votes[politician_id] */\n      dup2\n      mstore\n      0x20\n      add\n      swap1\n      dup2\n      mstore\n      0x20\n      add\n      0x00\n      keccak256\n        /* \"simpleVotingContract/SimpleVotingContract.sol\":835:861  votes[politician_id].votes */\n      0x01\n      add\n      0x00\n        /* \"simpleVotingContract/SimpleVotingContract.sol\":835:866  votes[politician_id].votes += 1 */\n      dup3\n      dup3\n      sload\n      tag_53\n      swap2\n      swap1\n      tag_54\n      jump\t// in\n    tag_53:\n      swap3\n      pop\n      pop\n      dup2\n      swap1\n      sstore\n      pop\n        /* \"simpleVotingContract/SimpleVotingContract.sol\":892:900  _address */\n      dup2\n        /* \"simpleVotingContract/SimpleVotingContract.sol\":886:923  Voted(_address, \"Voted successfully\") */\n      0xffffffffffffffffffffffffffffffffffffffff\n      and\n      0xcb6783276e8a4347387036bbfea000268f0a4b1f8c46ac79980609f2af8d2acd\n      mload(0x40)\n      tag_55\n      swap1\n      tag_56\n      jump\t// in\n    tag_55:\n      mload(0x40)\n      dup1\n      swap2\n      sub\n      swap1\n      log2\n        /* \"simpleVotingContract/SimpleVotingContract.sol\":669:935  if (register[_address]) {... */\n    tag_52:\n        /* \"simpleVotingContract/SimpleVotingContract.sol\":593:942  function vote(address _address, uint256 politician_id) internal  {... */\n      pop\n      pop\n      jump\t// out\n    tag_33:\n      mload(0x40)\n      dup1\n      0x40\n      add\n      0x40\n      mstore\n      dup1\n      0x60\n      dup2\n      mstore\n      0x20\n      add\n      0x00\n      dup2\n      mstore\n      pop\n      swap1\n      jump\t// out\n        /* \"#utility.yul\":7:84   */\n    tag_57:\n        /* \"#utility.yul\":44:51   */\n      0x00\n        /* \"#utility.yul\":73:78   */\n      dup2\n        /* \"#utility.yul\":62:78   */\n      swap1\n      pop\n        /* \"#utility.yul\":7:84   */\n      swap2\n      swap1\n      pop\n      jump\t// out\n        /* \"#utility.yul\":90:208   */\n    tag_58:\n        /* \"#utility.yul\":177:201   */\n      tag_82\n        /* \"#utility.yul\":195:200   */\n      dup2\n        /* \"#utility.yul\":177:201   */\n      tag_57\n      jump\t// in\n    tag_82:\n        /* \"#utility.yul\":172:175   */\n      dup3\n        /* \"#utility.yul\":165:202   */\n      mstore\n        /* \"#utility.yul\":90:208   */\n      pop\n      pop\n      jump\t// out\n        /* \"#utility.yul\":214:436   */\n    tag_10:\n        /* \"#utility.yul\":307:311   */\n      0x00\n        /* \"#utility.yul\":345:347   */\n      0x20\n        /* \"#utility.yul\":334:343   */\n      dup3\n        /* \"#utility.yul\":330:348   */\n      add\n        /* \"#utility.yul\":322:348   */\n      swap1\n      pop\n        /* \"#utility.yul\":358:429   */\n      tag_84\n        /* \"#utility.yul\":426:427   */\n      0x00\n        /* \"#utility.yul\":415:424   */\n      dup4\n        /* \"#utility.yul\":411:428   */\n      add\n        /* \"#utility.yul\":402:408   */\n      dup5\n        /* \"#utility.yul\":358:429   */\n      tag_58\n      jump\t// in\n    tag_84:\n        /* \"#utility.yul\":214:436   */\n      swap3\n      swap2\n      pop\n      pop\n      jump\t// out\n        /* \"#utility.yul\":442:582   */\n    tag_59:\n        /* \"#utility.yul\":535:541   */\n      0x00\n        /* \"#utility.yul\":569:574   */\n      dup2\n        /* \"#utility.yul\":563:575   */\n      mload\n        /* \"#utility.yul\":553:575   */\n      swap1\n      pop\n        /* \"#utility.yul\":442:582   */\n      swap2\n      swap1\n      pop\n      jump\t// out\n        /* \"#utility.yul\":588:798   */\n    tag_60:\n        /* \"#utility.yul\":713:724   */\n      0x00\n        /* \"#utility.yul\":747:753   */\n      dup3\n        /* \"#utility.yul\":742:745   */\n      dup3\n        /* \"#utility.yul\":735:754   */\n      mstore\n        /* \"#utility.yul\":787:791   */\n      0x20\n        /* \"#utility.yul\":782:785   */\n      dup3\n        /* \"#utility.yul\":778:792   */\n      add\n        /* \"#utility.yul\":763:792   */\n      swap1\n      pop\n        /* \"#utility.yul\":588:798   */\n      swap3\n      swap2\n      pop\n      pop\n      jump\t// out\n        /* \"#utility.yul\":804:962   */\n    tag_61:\n        /* \"#utility.yul\":897:901   */\n      0x00\n        /* \"#utility.yul\":920:923   */\n      dup2\n        /* \"#utility.yul\":912:923   */\n      swap1\n      pop\n        /* \"#utility.yul\":950:954   */\n      0x20\n        /* \"#utility.yul\":945:948   */\n      dup3\n        /* \"#utility.yul\":941:955   */\n      add\n        /* \"#utility.yul\":933:955   */\n      swap1\n      pop\n        /* \"#utility.yul\":804:962   */\n      swap2\n      swap1\n      pop\n      jump\t// out\n        /* \"#utility.yul\":968:1067   */\n    tag_62:\n        /* \"#utility.yul\":1020:1026   */\n      0x00\n        /* \"#utility.yul\":1054:1059   */\n      dup2\n        /* \"#utility.yul\":1048:1060   */\n      mload\n        /* \"#utility.yul\":1038:1060   */\n      swap1\n      pop\n        /* \"#utility.yul\":968:1067   */\n      swap2\n      swap1\n      pop\n      jump\t// out\n        /* \"#utility.yul\":1073:1232   */\n    tag_63:\n        /* \"#utility.yul\":1147:1158   */\n      0x00\n        /* \"#utility.yul\":1181:1187   */\n      dup3\n        /* \"#utility.yul\":1176:1179   */\n      dup3\n        /* \"#utility.yul\":1169:1188   */\n      mstore\n        /* \"#utility.yul\":1221:1225   */\n      0x20\n        /* \"#utility.yul\":1216:1219   */\n      dup3\n        /* \"#utility.yul\":1212:1226   */\n      add\n        /* \"#utility.yul\":1197:1226   */\n      swap1\n      pop\n        /* \"#utility.yul\":1073:1232   */\n      swap3\n      swap2\n      pop\n      pop\n      jump\t// out\n        /* \"#utility.yul\":1238:1377   */\n    tag_64:\n        /* \"#utility.yul\":1327:1333   */\n      dup3\n        /* \"#utility.yul\":1322:1325   */\n      dup2\n        /* \"#utility.yul\":1317:1320   */\n      dup4\n        /* \"#utility.yul\":1311:1334   */\n      mcopy\n        /* \"#utility.yul\":1368:1369   */\n      0x00\n        /* \"#utility.yul\":1359:1365   */\n      dup4\n        /* \"#utility.yul\":1354:1357   */\n      dup4\n        /* \"#utility.yul\":1350:1366   */\n      add\n        /* \"#utility.yul\":1343:1370   */\n      mstore\n        /* \"#utility.yul\":1238:1377   */\n      pop\n      pop\n      pop\n      jump\t// out\n        /* \"#utility.yul\":1383:1485   */\n    tag_65:\n        /* \"#utility.yul\":1424:1430   */\n      0x00\n        /* \"#utility.yul\":1475:1477   */\n      0x1f\n        /* \"#utility.yul\":1471:1478   */\n      not\n        /* \"#utility.yul\":1466:1468   */\n      0x1f\n        /* \"#utility.yul\":1459:1464   */\n      dup4\n        /* \"#utility.yul\":1455:1469   */\n      add\n        /* \"#utility.yul\":1451:1479   */\n      and\n        /* \"#utility.yul\":1441:1479   */\n      swap1\n      pop\n        /* \"#utility.yul\":1383:1485   */\n      swap2\n      swap1\n      pop\n      jump\t// out\n        /* \"#utility.yul\":1491:1848   */\n    tag_66:\n        /* \"#utility.yul\":1569:1572   */\n      0x00\n        /* \"#utility.yul\":1597:1636   */\n      tag_93\n        /* \"#utility.yul\":1630:1635   */\n      dup3\n        /* \"#utility.yul\":1597:1636   */\n      tag_62\n      jump\t// in\n    tag_93:\n        /* \"#utility.yul\":1652:1713   */\n      tag_94\n        /* \"#utility.yul\":1706:1712   */\n      dup2\n        /* \"#utility.yul\":1701:1704   */\n      dup6\n        /* \"#utility.yul\":1652:1713   */\n      tag_63\n      jump\t// in\n    tag_94:\n        /* \"#utility.yul\":1645:1713   */\n      swap4\n      pop\n        /* \"#utility.yul\":1722:1787   */\n      tag_95\n        /* \"#utility.yul\":1780:1786   */\n      dup2\n        /* \"#utility.yul\":1775:1778   */\n      dup6\n        /* \"#utility.yul\":1768:1772   */\n      0x20\n        /* \"#utility.yul\":1761:1766   */\n      dup7\n        /* \"#utility.yul\":1757:1773   */\n      add\n        /* \"#utility.yul\":1722:1787   */\n      tag_64\n      jump\t// in\n    tag_95:\n        /* \"#utility.yul\":1812:1841   */\n      tag_96\n        /* \"#utility.yul\":1834:1840   */\n      dup2\n        /* \"#utility.yul\":1812:1841   */\n      tag_65\n      jump\t// in\n    tag_96:\n        /* \"#utility.yul\":1807:1810   */\n      dup5\n        /* \"#utility.yul\":1803:1842   */\n      add\n        /* \"#utility.yul\":1796:1842   */\n      swap2\n      pop\n        /* \"#utility.yul\":1573:1848   */\n      pop\n        /* \"#utility.yul\":1491:1848   */\n      swap3\n      swap2\n      pop\n      pop\n      jump\t// out\n        /* \"#utility.yul\":1854:1962   */\n    tag_67:\n        /* \"#utility.yul\":1931:1955   */\n      tag_98\n        /* \"#utility.yul\":1949:1954   */\n      dup2\n        /* \"#utility.yul\":1931:1955   */\n      tag_57\n      jump\t// in\n    tag_98:\n        /* \"#utility.yul\":1926:1929   */\n      dup3\n        /* \"#utility.yul\":1919:1956   */\n      mstore\n        /* \"#utility.yul\":1854:1962   */\n      pop\n      pop\n      jump\t// out\n        /* \"#utility.yul\":2056:2655   */\n    tag_68:\n        /* \"#utility.yul\":2167:2170   */\n      0x00\n        /* \"#utility.yul\":2203:2207   */\n      0x40\n        /* \"#utility.yul\":2198:2201   */\n      dup4\n        /* \"#utility.yul\":2194:2208   */\n      add\n        /* \"#utility.yul\":2290:2294   */\n      0x00\n        /* \"#utility.yul\":2283:2288   */\n      dup4\n        /* \"#utility.yul\":2279:2295   */\n      add\n        /* \"#utility.yul\":2273:2296   */\n      mload\n        /* \"#utility.yul\":2343:2346   */\n      dup5\n        /* \"#utility.yul\":2337:2341   */\n      dup3\n        /* \"#utility.yul\":2333:2347   */\n      sub\n        /* \"#utility.yul\":2326:2330   */\n      0x00\n        /* \"#utility.yul\":2321:2324   */\n      dup7\n        /* \"#utility.yul\":2317:2331   */\n      add\n        /* \"#utility.yul\":2310:2348   */\n      mstore\n        /* \"#utility.yul\":2369:2442   */\n      tag_100\n        /* \"#utility.yul\":2437:2441   */\n      dup3\n        /* \"#utility.yul\":2423:2435   */\n      dup3\n        /* \"#utility.yul\":2369:2442   */\n      tag_66\n      jump\t// in\n    tag_100:\n        /* \"#utility.yul\":2361:2442   */\n      swap2\n      pop\n        /* \"#utility.yul\":2218:2453   */\n      pop\n        /* \"#utility.yul\":2536:2540   */\n      0x20\n        /* \"#utility.yul\":2529:2534   */\n      dup4\n        /* \"#utility.yul\":2525:2541   */\n      add\n        /* \"#utility.yul\":2519:2542   */\n      mload\n        /* \"#utility.yul\":2555:2618   */\n      tag_101\n        /* \"#utility.yul\":2612:2616   */\n      0x20\n        /* \"#utility.yul\":2607:2610   */\n      dup7\n        /* \"#utility.yul\":2603:2617   */\n      add\n        /* \"#utility.yul\":2589:2601   */\n      dup3\n        /* \"#utility.yul\":2555:2618   */\n      tag_67\n      jump\t// in\n    tag_101:\n        /* \"#utility.yul\":2463:2628   */\n      pop\n        /* \"#utility.yul\":2645:2649   */\n      dup1\n        /* \"#utility.yul\":2638:2649   */\n      swap2\n      pop\n        /* \"#utility.yul\":2172:2655   */\n      pop\n        /* \"#utility.yul\":2056:2655   */\n      swap3\n      swap2\n      pop\n      pop\n      jump\t// out\n        /* \"#utility.yul\":2661:2921   */\n    tag_69:\n        /* \"#utility.yul\":2782:2792   */\n      0x00\n        /* \"#utility.yul\":2817:2915   */\n      tag_103\n        /* \"#utility.yul\":2911:2914   */\n      dup4\n        /* \"#utility.yul\":2903:2909   */\n      dup4\n        /* \"#utility.yul\":2817:2915   */\n      tag_68\n      jump\t// in\n    tag_103:\n        /* \"#utility.yul\":2803:2915   */\n      swap1\n      pop\n        /* \"#utility.yul\":2661:2921   */\n      swap3\n      swap2\n      pop\n      pop\n      jump\t// out\n        /* \"#utility.yul\":2927:3066   */\n    tag_70:\n        /* \"#utility.yul\":3023:3027   */\n      0x00\n        /* \"#utility.yul\":3055:3059   */\n      0x20\n        /* \"#utility.yul\":3050:3053   */\n      dup3\n        /* \"#utility.yul\":3046:3060   */\n      add\n        /* \"#utility.yul\":3038:3060   */\n      swap1\n      pop\n        /* \"#utility.yul\":2927:3066   */\n      swap2\n      swap1\n      pop\n      jump\t// out\n        /* \"#utility.yul\":3164:4283   */\n    tag_71:\n        /* \"#utility.yul\":3335:3338   */\n      0x00\n        /* \"#utility.yul\":3364:3444   */\n      tag_106\n        /* \"#utility.yul\":3438:3443   */\n      dup3\n        /* \"#utility.yul\":3364:3444   */\n      tag_59\n      jump\t// in\n    tag_106:\n        /* \"#utility.yul\":3460:3572   */\n      tag_107\n        /* \"#utility.yul\":3565:3571   */\n      dup2\n        /* \"#utility.yul\":3560:3563   */\n      dup6\n        /* \"#utility.yul\":3460:3572   */\n      tag_60\n      jump\t// in\n    tag_107:\n        /* \"#utility.yul\":3453:3572   */\n      swap4\n      pop\n        /* \"#utility.yul\":3598:3601   */\n      dup4\n        /* \"#utility.yul\":3643:3647   */\n      0x20\n        /* \"#utility.yul\":3635:3641   */\n      dup3\n        /* \"#utility.yul\":3631:3648   */\n      mul\n        /* \"#utility.yul\":3626:3629   */\n      dup6\n        /* \"#utility.yul\":3622:3649   */\n      add\n        /* \"#utility.yul\":3673:3755   */\n      tag_108\n        /* \"#utility.yul\":3749:3754   */\n      dup6\n        /* \"#utility.yul\":3673:3755   */\n      tag_61\n      jump\t// in\n    tag_108:\n        /* \"#utility.yul\":3778:3785   */\n      dup1\n        /* \"#utility.yul\":3809:3810   */\n      0x00\n        /* \"#utility.yul\":3794:4238   */\n    tag_109:\n        /* \"#utility.yul\":3819:3825   */\n      dup6\n        /* \"#utility.yul\":3816:3817   */\n      dup2\n        /* \"#utility.yul\":3813:3826   */\n      lt\n        /* \"#utility.yul\":3794:4238   */\n      iszero\n      tag_111\n      jumpi\n        /* \"#utility.yul\":3890:3899   */\n      dup5\n        /* \"#utility.yul\":3884:3888   */\n      dup5\n        /* \"#utility.yul\":3880:3900   */\n      sub\n        /* \"#utility.yul\":3875:3878   */\n      dup10\n        /* \"#utility.yul\":3868:3901   */\n      mstore\n        /* \"#utility.yul\":3941:3947   */\n      dup2\n        /* \"#utility.yul\":3935:3948   */\n      mload\n        /* \"#utility.yul\":3969:4085   */\n      tag_112\n        /* \"#utility.yul\":4080:4084   */\n      dup6\n        /* \"#utility.yul\":4065:4078   */\n      dup3\n        /* \"#utility.yul\":3969:4085   */\n      tag_69\n      jump\t// in\n    tag_112:\n        /* \"#utility.yul\":3961:4085   */\n      swap5\n      pop\n        /* \"#utility.yul\":4108:4194   */\n      tag_113\n        /* \"#utility.yul\":4187:4193   */\n      dup4\n        /* \"#utility.yul\":4108:4194   */\n      tag_70\n      jump\t// in\n    tag_113:\n        /* \"#utility.yul\":4098:4194   */\n      swap3\n      pop\n        /* \"#utility.yul\":4223:4227   */\n      0x20\n        /* \"#utility.yul\":4218:4221   */\n      dup11\n        /* \"#utility.yul\":4214:4228   */\n      add\n        /* \"#utility.yul\":4207:4228   */\n      swap10\n      pop\n        /* \"#utility.yul\":3854:4238   */\n      pop\n        /* \"#utility.yul\":3841:3842   */\n      0x01\n        /* \"#utility.yul\":3838:3839   */\n      dup2\n        /* \"#utility.yul\":3834:3843   */\n      add\n        /* \"#utility.yul\":3829:3843   */\n      swap1\n      pop\n        /* \"#utility.yul\":3794:4238   */\n      jump(tag_109)\n    tag_111:\n        /* \"#utility.yul\":3798:3812   */\n      pop\n        /* \"#utility.yul\":4254:4258   */\n      dup3\n        /* \"#utility.yul\":4247:4258   */\n      swap8\n      pop\n        /* \"#utility.yul\":4274:4277   */\n      dup8\n        /* \"#utility.yul\":4267:4277   */\n      swap6\n      pop\n        /* \"#utility.yul\":3340:4283   */\n      pop\n      pop\n      pop\n      pop\n      pop\n        /* \"#utility.yul\":3164:4283   */\n      swap3\n      swap2\n      pop\n      pop\n      jump\t// out\n        /* \"#utility.yul\":4289:4766   */\n    tag_17:\n        /* \"#utility.yul\":4484:4488   */\n      0x00\n        /* \"#utility.yul\":4522:4524   */\n      0x20\n        /* \"#utility.yul\":4511:4520   */\n      dup3\n        /* \"#utility.yul\":4507:4525   */\n      add\n        /* \"#utility.yul\":4499:4525   */\n      swap1\n      pop\n        /* \"#utility.yul\":4571:4580   */\n      dup2\n        /* \"#utility.yul\":4565:4569   */\n      dup2\n        /* \"#utility.yul\":4561:4581   */\n      sub\n        /* \"#utility.yul\":4557:4558   */\n      0x00\n        /* \"#utility.yul\":4546:4555   */\n      dup4\n        /* \"#utility.yul\":4542:4559   */\n      add\n        /* \"#utility.yul\":4535:4582   */\n      mstore\n        /* \"#utility.yul\":4599:4759   */\n      tag_115\n        /* \"#utility.yul\":4754:4758   */\n      dup2\n        /* \"#utility.yul\":4745:4751   */\n      dup5\n        /* \"#utility.yul\":4599:4759   */\n      tag_71\n      jump\t// in\n    tag_115:\n        /* \"#utility.yul\":4591:4759   */\n      swap1\n      pop\n        /* \"#utility.yul\":4289:4766   */\n      swap3\n      swap2\n      pop\n      pop\n      jump\t// out\n        /* \"#utility.yul\":4772:4952   */\n    tag_29:\n        /* \"#utility.yul\":4820:4897   */\n      0x4e487b7100000000000000000000000000000000000000000000000000000000\n        /* \"#utility.yul\":4817:4818   */\n      0x00\n        /* \"#utility.yul\":4810:4898   */\n      mstore\n        /* \"#utility.yul\":4917:4921   */\n      0x41\n        /* \"#utility.yul\":4914:4915   */\n      0x04\n        /* \"#utility.yul\":4907:4922   */\n      mstore\n        /* \"#utility.yul\":4941:4945   */\n      0x24\n        /* \"#utility.yul\":4938:4939   */\n      0x00\n        /* \"#utility.yul\":4931:4946   */\n      revert\n        /* \"#utility.yul\":4958:5138   */\n    tag_72:\n        /* \"#utility.yul\":5006:5083   */\n      0x4e487b7100000000000000000000000000000000000000000000000000000000\n        /* \"#utility.yul\":5003:5004   */\n      0x00\n        /* \"#utility.yul\":4996:5084   */\n      mstore\n        /* \"#utility.yul\":5103:5107   */\n      0x22\n        /* \"#utility.yul\":5100:5101   */\n      0x04\n        /* \"#utility.yul\":5093:5108   */\n      mstore\n        /* \"#utility.yul\":5127:5131   */\n      0x24\n        /* \"#utility.yul\":5124:5125   */\n      0x00\n        /* \"#utility.yul\":5117:5132   */\n      revert\n        /* \"#utility.yul\":5144:5464   */\n    tag_38:\n        /* \"#utility.yul\":5188:5194   */\n      0x00\n        /* \"#utility.yul\":5225:5226   */\n      0x02\n        /* \"#utility.yul\":5219:5223   */\n      dup3\n        /* \"#utility.yul\":5215:5227   */\n      div\n        /* \"#utility.yul\":5205:5227   */\n      swap1\n      pop\n        /* \"#utility.yul\":5272:5273   */\n      0x01\n        /* \"#utility.yul\":5266:5270   */\n      dup3\n        /* \"#utility.yul\":5262:5274   */\n      and\n        /* \"#utility.yul\":5293:5311   */\n      dup1\n        /* \"#utility.yul\":5283:5364   */\n      tag_119\n      jumpi\n        /* \"#utility.yul\":5349:5353   */\n      0x7f\n        /* \"#utility.yul\":5341:5347   */\n      dup3\n        /* \"#utility.yul\":5337:5354   */\n      and\n        /* \"#utility.yul\":5327:5354   */\n      swap2\n      pop\n        /* \"#utility.yul\":5283:5364   */\n    tag_119:\n        /* \"#utility.yul\":5411:5413   */\n      0x20\n        /* \"#utility.yul\":5403:5409   */\n      dup3\n        /* \"#utility.yul\":5400:5414   */\n      lt\n        /* \"#utility.yul\":5380:5398   */\n      dup2\n        /* \"#utility.yul\":5377:5415   */\n      sub\n        /* \"#utility.yul\":5374:5458   */\n      tag_120\n      jumpi\n        /* \"#utility.yul\":5430:5448   */\n      tag_121\n      tag_72\n      jump\t// in\n    tag_121:\n        /* \"#utility.yul\":5374:5458   */\n    tag_120:\n        /* \"#utility.yul\":5195:5464   */\n      pop\n        /* \"#utility.yul\":5144:5464   */\n      swap2\n      swap1\n      pop\n      jump\t// out\n        /* \"#utility.yul\":5470:5650   */\n    tag_45:\n        /* \"#utility.yul\":5518:5595   */\n      0x4e487b7100000000000000000000000000000000000000000000000000000000\n        /* \"#utility.yul\":5515:5516   */\n      0x00\n        /* \"#utility.yul\":5508:5596   */\n      mstore\n        /* \"#utility.yul\":5615:5619   */\n      0x32\n        /* \"#utility.yul\":5612:5613   */\n      0x04\n        /* \"#utility.yul\":5605:5620   */\n      mstore\n        /* \"#utility.yul\":5639:5643   */\n      0x24\n        /* \"#utility.yul\":5636:5637   */\n      0x00\n        /* \"#utility.yul\":5629:5644   */\n      revert\n        /* \"#utility.yul\":5656:5825   */\n    tag_73:\n        /* \"#utility.yul\":5740:5751   */\n      0x00\n        /* \"#utility.yul\":5774:5780   */\n      dup3\n        /* \"#utility.yul\":5769:5772   */\n      dup3\n        /* \"#utility.yul\":5762:5781   */\n      mstore\n        /* \"#utility.yul\":5814:5818   */\n      0x20\n        /* \"#utility.yul\":5809:5812   */\n      dup3\n        /* \"#utility.yul\":5805:5819   */\n      add\n        /* \"#utility.yul\":5790:5819   */\n      swap1\n      pop\n        /* \"#utility.yul\":5656:5825   */\n      swap3\n      swap2\n      pop\n      pop\n      jump\t// out\n        /* \"#utility.yul\":5831:6011   */\n    tag_74:\n        /* \"#utility.yul\":5971:6003   */\n      0x5468697320616464726573732068617320616c726561647920766f7465640000\n        /* \"#utility.yul\":5967:5968   */\n      0x00\n        /* \"#utility.yul\":5959:5965   */\n      dup3\n        /* \"#utility.yul\":5955:5969   */\n      add\n        /* \"#utility.yul\":5948:6004   */\n      mstore\n        /* \"#utility.yul\":5831:6011   */\n      pop\n      jump\t// out\n        /* \"#utility.yul\":6017:6383   */\n    tag_75:\n        /* \"#utility.yul\":6159:6162   */\n      0x00\n        /* \"#utility.yul\":6180:6247   */\n      tag_126\n        /* \"#utility.yul\":6244:6246   */\n      0x1e\n        /* \"#utility.yul\":6239:6242   */\n      dup4\n        /* \"#utility.yul\":6180:6247   */\n      tag_73\n      jump\t// in\n    tag_126:\n        /* \"#utility.yul\":6173:6247   */\n      swap2\n      pop\n        /* \"#utility.yul\":6256:6349   */\n      tag_127\n        /* \"#utility.yul\":6345:6348   */\n      dup3\n        /* \"#utility.yul\":6256:6349   */\n      tag_74\n      jump\t// in\n    tag_127:\n        /* \"#utility.yul\":6374:6376   */\n      0x20\n        /* \"#utility.yul\":6369:6372   */\n      dup3\n        /* \"#utility.yul\":6365:6377   */\n      add\n        /* \"#utility.yul\":6358:6377   */\n      swap1\n      pop\n        /* \"#utility.yul\":6017:6383   */\n      swap2\n      swap1\n      pop\n      jump\t// out\n        /* \"#utility.yul\":6389:6808   */\n    tag_51:\n        /* \"#utility.yul\":6555:6559   */\n      0x00\n        /* \"#utility.yul\":6593:6595   */\n      0x20\n        /* \"#utility.yul\":6582:6591   */\n      dup3\n        /* \"#utility.yul\":6578:6596   */\n      add\n        /* \"#utility.yul\":6570:6596   */\n      swap1\n      pop\n        /* \"#utility.yul\":6642:6651   */\n      dup2\n        /* \"#utility.yul\":6636:6640   */\n      dup2\n        /* \"#utility.yul\":6632:6652   */\n      sub\n        /* \"#utility.yul\":6628:6629   */\n      0x00\n        /* \"#utility.yul\":6617:6626   */\n      dup4\n        /* \"#utility.yul\":6613:6630   */\n      add\n        /* \"#utility.yul\":6606:6653   */\n      mstore\n        /* \"#utility.yul\":6670:6801   */\n      tag_129\n        /* \"#utility.yul\":6796:6800   */\n      dup2\n        /* \"#utility.yul\":6670:6801   */\n      tag_75\n      jump\t// in\n    tag_129:\n        /* \"#utility.yul\":6662:6801   */\n      swap1\n      pop\n        /* \"#utility.yul\":6389:6808   */\n      swap2\n      swap1\n      pop\n      jump\t// out\n        /* \"#utility.yul\":6814:6994   */\n    tag_76:\n        /* \"#utility.yul\":6862:6939   */\n      0x4e487b7100000000000000000000000000000000000000000000000000000000\n        /* \"#utility.yul\":6859:6860   */\n      0x00\n        /* \"#utility.yul\":6852:6940   */\n      mstore\n        /* \"#utility.yul\":6959:6963   */\n      0x11\n        /* \"#utility.yul\":6956:6957   */\n      0x04\n        /* \"#utility.yul\":6949:6964   */\n      mstore\n        /* \"#utility.yul\":6983:6987   */\n      0x24\n        /* \"#utility.yul\":6980:6981   */\n      0x00\n        /* \"#utility.yul\":6973:6988   */\n      revert\n        /* \"#utility.yul\":7000:7191   */\n    tag_54:\n        /* \"#utility.yul\":7040:7043   */\n      0x00\n        /* \"#utility.yul\":7059:7079   */\n      tag_132\n        /* \"#utility.yul\":7077:7078   */\n      dup3\n        /* \"#utility.yul\":7059:7079   */\n      tag_57\n      jump\t// in\n    tag_132:\n        /* \"#utility.yul\":7054:7079   */\n      swap2\n      pop\n        /* \"#utility.yul\":7093:7113   */\n      tag_133\n        /* \"#utility.yul\":7111:7112   */\n      dup4\n        /* \"#utility.yul\":7093:7113   */\n      tag_57\n      jump\t// in\n    tag_133:\n        /* \"#utility.yul\":7088:7113   */\n      swap3\n      pop\n        /* \"#utility.yul\":7136:7137   */\n      dup3\n        /* \"#utility.yul\":7133:7134   */\n      dup3\n        /* \"#utility.yul\":7129:7138   */\n      add\n        /* \"#utility.yul\":7122:7138   */\n      swap1\n      pop\n        /* \"#utility.yul\":7157:7160   */\n      dup1\n        /* \"#utility.yul\":7154:7155   */\n      dup3\n        /* \"#utility.yul\":7151:7161   */\n      gt\n        /* \"#utility.yul\":7148:7184   */\n      iszero\n      tag_134\n      jumpi\n        /* \"#utility.yul\":7164:7182   */\n      tag_135\n      tag_76\n      jump\t// in\n    tag_135:\n        /* \"#utility.yul\":7148:7184   */\n    tag_134:\n        /* \"#utility.yul\":7000:7191   */\n      swap3\n      swap2\n      pop\n      pop\n      jump\t// out\n        /* \"#utility.yul\":7197:7365   */\n    tag_77:\n        /* \"#utility.yul\":7337:7357   */\n      0x566f746564207375636365737366756c6c790000000000000000000000000000\n        /* \"#utility.yul\":7333:7334   */\n      0x00\n        /* \"#utility.yul\":7325:7331   */\n      dup3\n        /* \"#utility.yul\":7321:7335   */\n      add\n        /* \"#utility.yul\":7314:7358   */\n      mstore\n        /* \"#utility.yul\":7197:7365   */\n      pop\n      jump\t// out\n        /* \"#utility.yul\":7371:7737   */\n    tag_78:\n        /* \"#utility.yul\":7513:7516   */\n      0x00\n        /* \"#utility.yul\":7534:7601   */\n      tag_138\n        /* \"#utility.yul\":7598:7600   */\n      0x12\n        /* \"#utility.yul\":7593:7596   */\n      dup4\n        /* \"#utility.yul\":7534:7601   */\n      tag_73\n      jump\t// in\n    tag_138:\n        /* \"#utility.yul\":7527:7601   */\n      swap2\n      pop\n        /* \"#utility.yul\":7610:7703   */\n      tag_139\n        /* \"#utility.yul\":7699:7702   */\n      dup3\n        /* \"#utility.yul\":7610:7703   */\n      tag_77\n      jump\t// in\n    tag_139:\n        /* \"#utility.yul\":7728:7730   */\n      0x20\n        /* \"#utility.yul\":7723:7726   */\n      dup3\n        /* \"#utility.yul\":7719:7731   */\n      add\n        /* \"#utility.yul\":7712:7731   */\n      swap1\n      pop\n        /* \"#utility.yul\":7371:7737   */\n      swap2\n      swap1\n      pop\n      jump\t// out\n        /* \"#utility.yul\":7743:8162   */\n    tag_56:\n        /* \"#utility.yul\":7909:7913   */\n      0x00\n        /* \"#utility.yul\":7947:7949   */\n      0x20\n        /* \"#utility.yul\":7936:7945   */\n      dup3\n        /* \"#utility.yul\":7932:7950   */\n      add\n        /* \"#utility.yul\":7924:7950   */\n      swap1\n      pop\n        /* \"#utility.yul\":7996:8005   */\n      dup2\n        /* \"#utility.yul\":7990:7994   */\n      dup2\n        /* \"#utility.yul\":7986:8006   */\n      sub\n        /* \"#utility.yul\":7982:7983   */\n      0x00\n        /* \"#utility.yul\":7971:7980   */\n      dup4\n        /* \"#utility.yul\":7967:7984   */\n      add\n        /* \"#utility.yul\":7960:8007   */\n      mstore\n        /* \"#utility.yul\":8024:8155   */\n      tag_141\n        /* \"#utility.yul\":8150:8154   */\n      dup2\n        /* \"#utility.yul\":8024:8155   */\n      tag_78\n      jump\t// in\n    tag_141:\n        /* \"#utility.yul\":8016:8155   */\n      swap1\n      pop\n        /* \"#utility.yul\":7743:8162   */\n      swap2\n      swap1\n      pop\n      jump\t// out\n\n    auxdata: 0xa26469706673582212200c1a61fd26b1db7d8f0218f91dbfd76ebbad8d2420b3a039ee2892f76d46e8a864736f6c634300081a0033\n}\n",
				"bytecode": {
					"linkReferences": {},
					"object": "608060405234801561000f575f80fd5b505f8081905550600180819055506002808190555060405180604001604052806040518060400160405280600381526020017f4f4249000000000000000000000000000000000000000000000000000000000081525081526020015f81525060045f805481526020019081526020015f205f820151815f01908161009391906103dc565b506020820151816001015590505060405180604001604052806040518060400160405280600381526020017f424154000000000000000000000000000000000000000000000000000000000081525081526020015f81525060045f60015481526020019081526020015f205f820151815f01908161011191906103dc565b506020820151816001015590505060405180604001604052806040518060400160405280600381526020017f41544b000000000000000000000000000000000000000000000000000000000081525081526020015f81525060045f60025481526020019081526020015f205f820151815f01908161018f91906103dc565b50602082015181600101559050506104ab565b5f81519050919050565b7f4e487b71000000000000000000000000000000000000000000000000000000005f52604160045260245ffd5b7f4e487b71000000000000000000000000000000000000000000000000000000005f52602260045260245ffd5b5f600282049050600182168061021d57607f821691505b6020821081036102305761022f6101d9565b5b50919050565b5f819050815f5260205f209050919050565b5f6020601f8301049050919050565b5f82821b905092915050565b5f600883026102927fffffffffffffffffffffffffffffffffffffffffffffffffffffffffffffffff82610257565b61029c8683610257565b95508019841693508086168417925050509392505050565b5f819050919050565b5f819050919050565b5f6102e06102db6102d6846102b4565b6102bd565b6102b4565b9050919050565b5f819050919050565b6102f9836102c6565b61030d610305826102e7565b848454610263565b825550505050565b5f90565b610321610315565b61032c8184846102f0565b505050565b5b8181101561034f576103445f82610319565b600181019050610332565b5050565b601f8211156103945761036581610236565b61036e84610248565b8101602085101561037d578190505b61039161038985610248565b830182610331565b50505b505050565b5f82821c905092915050565b5f6103b45f1984600802610399565b1980831691505092915050565b5f6103cc83836103a5565b9150826002028217905092915050565b6103e5826101a2565b67ffffffffffffffff8111156103fe576103fd6101ac565b5b6104088254610206565b610413828285610353565b5f60209050601f831160018114610444575f8415610432578287015190505b61043c85826103c1565b8655506104a3565b601f19841661045286610236565b5f5b8281101561047957848901518255600182019150602085019450602081019050610454565b868310156104965784890151610492601f8916826103a5565b8355505b6001600288020188555050505b505050505050565b610808806104b85f395ff3fe608060405234801561000f575f80fd5b506004361061004a575f3560e01c8063210c572a1461004e5780635a6e55741461006c5780635edfb7541461008a5780638010d1d7146100a8575b5f80fd5b6100566100c6565b604051610063919061042e565b60405180910390f35b6100746100ef565b604051610081919061042e565b60405180910390f35b610092610118565b60405161009f91906105bb565b60405180910390f35b6100b0610265565b6040516100bd919061042e565b60405180910390f35b5f6100d33360015461028c565b60045f60015481526020019081526020015f2060010154905090565b5f6100fc3360025461028c565b60045f60025481526020019081526020015f2060010154905090565b60605f600367ffffffffffffffff811115610136576101356105db565b5b60405190808252806020026020018201604052801561016f57816020015b61015c6103fd565b8152602001906001900390816101545790505b5090505f5b600381101561025d5760045f8281526020019081526020015f206040518060400160405290815f820180546101a890610635565b80601f01602080910402602001604051908101604052809291908181526020018280546101d490610635565b801561021f5780601f106101f65761010080835404028352916020019161021f565b820191905f5260205f20905b81548152906001019060200180831161020257829003601f168201915b5050505050815260200160018201548152505082828151811061024557610244610665565b5b60200260200101819052508080600101915050610174565b508091505090565b5f610271335f5461028c565b60045f805481526020019081526020015f2060010154905090565b60035f8373ffffffffffffffffffffffffffffffffffffffff1673ffffffffffffffffffffffffffffffffffffffff1681526020019081526020015f205f9054906101000a900460ff161561032c578173ffffffffffffffffffffffffffffffffffffffff167fcb6783276e8a4347387036bbfea000268f0a4b1f8c46ac79980609f2af8d2acd60405161031f906106ec565b60405180910390a26103f9565b600160035f8473ffffffffffffffffffffffffffffffffffffffff1673ffffffffffffffffffffffffffffffffffffffff1681526020019081526020015f205f6101000a81548160ff021916908315150217905550600160045f8381526020019081526020015f206001015f8282546103a59190610737565b925050819055508173ffffffffffffffffffffffffffffffffffffffff167fcb6783276e8a4347387036bbfea000268f0a4b1f8c46ac79980609f2af8d2acd6040516103f0906107b4565b60405180910390a25b5050565b6040518060400160405280606081526020015f81525090565b5f819050919050565b61042881610416565b82525050565b5f6020820190506104415f83018461041f565b92915050565b5f81519050919050565b5f82825260208201905092915050565b5f819050602082019050919050565b5f81519050919050565b5f82825260208201905092915050565b8281835e5f83830152505050565b5f601f19601f8301169050919050565b5f6104b282610470565b6104bc818561047a565b93506104cc81856020860161048a565b6104d581610498565b840191505092915050565b6104e981610416565b82525050565b5f604083015f8301518482035f86015261050982826104a8565b915050602083015161051e60208601826104e0565b508091505092915050565b5f61053483836104ef565b905092915050565b5f602082019050919050565b5f61055282610447565b61055c8185610451565b93508360208202850161056e85610461565b805f5b858110156105a9578484038952815161058a8582610529565b94506105958361053c565b925060208a01995050600181019050610571565b50829750879550505050505092915050565b5f6020820190508181035f8301526105d38184610548565b905092915050565b7f4e487b71000000000000000000000000000000000000000000000000000000005f52604160045260245ffd5b7f4e487b71000000000000000000000000000000000000000000000000000000005f52602260045260245ffd5b5f600282049050600182168061064c57607f821691505b60208210810361065f5761065e610608565b5b50919050565b7f4e487b71000000000000000000000000000000000000000000000000000000005f52603260045260245ffd5b5f82825260208201905092915050565b7f5468697320616464726573732068617320616c726561647920766f74656400005f82015250565b5f6106d6601e83610692565b91506106e1826106a2565b602082019050919050565b5f6020820190508181035f830152610703816106ca565b9050919050565b7f4e487b71000000000000000000000000000000000000000000000000000000005f52601160045260245ffd5b5f61074182610416565b915061074c83610416565b92508282019050808211156107645761076361070a565b5b92915050565b7f566f746564207375636365737366756c6c7900000000000000000000000000005f82015250565b5f61079e601283610692565b91506107a98261076a565b602082019050919050565b5f6020820190508181035f8301526107cb81610792565b905091905056fea26469706673582212200c1a61fd26b1db7d8f0218f91dbfd76ebbad8d2420b3a039ee2892f76d46e8a864736f6c634300081a0033",
					"opcodes": "PUSH1 0x80 PUSH1 0x40 MSTORE CALLVALUE DUP1 ISZERO PUSH2 0xF JUMPI PUSH0 DUP1 REVERT JUMPDEST POP PUSH0 DUP1 DUP2 SWAP1 SSTORE POP PUSH1 0x1 DUP1 DUP2 SWAP1 SSTORE POP PUSH1 0x2 DUP1 DUP2 SWAP1 SSTORE POP PUSH1 0x40 MLOAD DUP1 PUSH1 0x40 ADD PUSH1 0x40 MSTORE DUP1 PUSH1 0x40 MLOAD DUP1 PUSH1 0x40 ADD PUSH1 0x40 MSTORE DUP1 PUSH1 0x3 DUP2 MSTORE PUSH1 0x20 ADD PUSH32 0x4F42490000000000000000000000000000000000000000000000000000000000 DUP2 MSTORE POP DUP2 MSTORE PUSH1 0x20 ADD PUSH0 DUP2 MSTORE POP PUSH1 0x4 PUSH0 DUP1 SLOAD DUP2 MSTORE PUSH1 0x20 ADD SWAP1 DUP2 MSTORE PUSH1 0x20 ADD PUSH0 KECCAK256 PUSH0 DUP3 ADD MLOAD DUP2 PUSH0 ADD SWAP1 DUP2 PUSH2 0x93 SWAP2 SWAP1 PUSH2 0x3DC JUMP JUMPDEST POP PUSH1 0x20 DUP3 ADD MLOAD DUP2 PUSH1 0x1 ADD SSTORE SWAP1 POP POP PUSH1 0x40 MLOAD DUP1 PUSH1 0x40 ADD PUSH1 0x40 MSTORE DUP1 PUSH1 0x40 MLOAD DUP1 PUSH1 0x40 ADD PUSH1 0x40 MSTORE DUP1 PUSH1 0x3 DUP2 MSTORE PUSH1 0x20 ADD PUSH32 0x4241540000000000000000000000000000000000000000000000000000000000 DUP2 MSTORE POP DUP2 MSTORE PUSH1 0x20 ADD PUSH0 DUP2 MSTORE POP PUSH1 0x4 PUSH0 PUSH1 0x1 SLOAD DUP2 MSTORE PUSH1 0x20 ADD SWAP1 DUP2 MSTORE PUSH1 0x20 ADD PUSH0 KECCAK256 PUSH0 DUP3 ADD MLOAD DUP2 PUSH0 ADD SWAP1 DUP2 PUSH2 0x111 SWAP2 SWAP1 PUSH2 0x3DC JUMP JUMPDEST POP PUSH1 0x20 DUP3 ADD MLOAD DUP2 PUSH1 0x1 ADD SSTORE SWAP1 POP POP PUSH1 0x40 MLOAD DUP1 PUSH1 0x40 ADD PUSH1 0x40 MSTORE DUP1 PUSH1 0x40 MLOAD DUP1 PUSH1 0x40 ADD PUSH1 0x40 MSTORE DUP1 PUSH1 0x3 DUP2 MSTORE PUSH1 0x20 ADD PUSH32 0x41544B0000000000000000000000000000000000000000000000000000000000 DUP2 MSTORE POP DUP2 MSTORE PUSH1 0x20 ADD PUSH0 DUP2 MSTORE POP PUSH1 0x4 PUSH0 PUSH1 0x2 SLOAD DUP2 MSTORE PUSH1 0x20 ADD SWAP1 DUP2 MSTORE PUSH1 0x20 ADD PUSH0 KECCAK256 PUSH0 DUP3 ADD MLOAD DUP2 PUSH0 ADD SWAP1 DUP2 PUSH2 0x18F SWAP2 SWAP1 PUSH2 0x3DC JUMP JUMPDEST POP PUSH1 0x20 DUP3 ADD MLOAD DUP2 PUSH1 0x1 ADD SSTORE SWAP1 POP POP PUSH2 0x4AB JUMP JUMPDEST PUSH0 DUP2 MLOAD SWAP1 POP SWAP2 SWAP1 POP JUMP JUMPDEST PUSH32 0x4E487B7100000000000000000000000000000000000000000000000000000000 PUSH0 MSTORE PUSH1 0x41 PUSH1 0x4 MSTORE PUSH1 0x24 PUSH0 REVERT JUMPDEST PUSH32 0x4E487B7100000000000000000000000000000000000000000000000000000000 PUSH0 MSTORE PUSH1 0x22 PUSH1 0x4 MSTORE PUSH1 0x24 PUSH0 REVERT JUMPDEST PUSH0 PUSH1 0x2 DUP3 DIV SWAP1 POP PUSH1 0x1 DUP3 AND DUP1 PUSH2 0x21D JUMPI PUSH1 0x7F DUP3 AND SWAP2 POP JUMPDEST PUSH1 0x20 DUP3 LT DUP2 SUB PUSH2 0x230 JUMPI PUSH2 0x22F PUSH2 0x1D9 JUMP JUMPDEST JUMPDEST POP SWAP2 SWAP1 POP JUMP JUMPDEST PUSH0 DUP2 SWAP1 POP DUP2 PUSH0 MSTORE PUSH1 0x20 PUSH0 KECCAK256 SWAP1 POP SWAP2 SWAP1 POP JUMP JUMPDEST PUSH0 PUSH1 0x20 PUSH1 0x1F DUP4 ADD DIV SWAP1 POP SWAP2 SWAP1 POP JUMP JUMPDEST PUSH0 DUP3 DUP3 SHL SWAP1 POP SWAP3 SWAP2 POP POP JUMP JUMPDEST PUSH0 PUSH1 0x8 DUP4 MUL PUSH2 0x292 PUSH32 0xFFFFFFFFFFFFFFFFFFFFFFFFFFFFFFFFFFFFFFFFFFFFFFFFFFFFFFFFFFFFFFFF DUP3 PUSH2 0x257 JUMP JUMPDEST PUSH2 0x29C DUP7 DUP4 PUSH2 0x257 JUMP JUMPDEST SWAP6 POP DUP1 NOT DUP5 AND SWAP4 POP DUP1 DUP7 AND DUP5 OR SWAP3 POP POP POP SWAP4 SWAP3 POP POP POP JUMP JUMPDEST PUSH0 DUP2 SWAP1 POP SWAP2 SWAP1 POP JUMP JUMPDEST PUSH0 DUP2 SWAP1 POP SWAP2 SWAP1 POP JUMP JUMPDEST PUSH0 PUSH2 0x2E0 PUSH2 0x2DB PUSH2 0x2D6 DUP5 PUSH2 0x2B4 JUMP JUMPDEST PUSH2 0x2BD JUMP JUMPDEST PUSH2 0x2B4 JUMP JUMPDEST SWAP1 POP SWAP2 SWAP1 POP JUMP JUMPDEST PUSH0 DUP2 SWAP1 POP SWAP2 SWAP1 POP JUMP JUMPDEST PUSH2 0x2F9 DUP4 PUSH2 0x2C6 JUMP JUMPDEST PUSH2 0x30D PUSH2 0x305 DUP3 PUSH2 0x2E7 JUMP JUMPDEST DUP5 DUP5 SLOAD PUSH2 0x263 JUMP JUMPDEST DUP3 SSTORE POP POP POP POP JUMP JUMPDEST PUSH0 SWAP1 JUMP JUMPDEST PUSH2 0x321 PUSH2 0x315 JUMP JUMPDEST PUSH2 0x32C DUP2 DUP5 DUP5 PUSH2 0x2F0 JUMP JUMPDEST POP POP POP JUMP JUMPDEST JUMPDEST DUP2 DUP2 LT ISZERO PUSH2 0x34F JUMPI PUSH2 0x344 PUSH0 DUP3 PUSH2 0x319 JUMP JUMPDEST PUSH1 0x1 DUP2 ADD SWAP1 POP PUSH2 0x332 JUMP JUMPDEST POP POP JUMP JUMPDEST PUSH1 0x1F DUP3 GT ISZERO PUSH2 0x394 JUMPI PUSH2 0x365 DUP2 PUSH2 0x236 JUMP JUMPDEST PUSH2 0x36E DUP5 PUSH2 0x248 JUMP JUMPDEST DUP2 ADD PUSH1 0x20 DUP6 LT ISZERO PUSH2 0x37D JUMPI DUP2 SWAP1 POP JUMPDEST PUSH2 0x391 PUSH2 0x389 DUP6 PUSH2 0x248 JUMP JUMPDEST DUP4 ADD DUP3 PUSH2 0x331 JUMP JUMPDEST POP POP JUMPDEST POP POP POP JUMP JUMPDEST PUSH0 DUP3 DUP3 SHR SWAP1 POP SWAP3 SWAP2 POP POP JUMP JUMPDEST PUSH0 PUSH2 0x3B4 PUSH0 NOT DUP5 PUSH1 0x8 MUL PUSH2 0x399 JUMP JUMPDEST NOT DUP1 DUP4 AND SWAP2 POP POP SWAP3 SWAP2 POP POP JUMP JUMPDEST PUSH0 PUSH2 0x3CC DUP4 DUP4 PUSH2 0x3A5 JUMP JUMPDEST SWAP2 POP DUP3 PUSH1 0x2 MUL DUP3 OR SWAP1 POP SWAP3 SWAP2 POP POP JUMP JUMPDEST PUSH2 0x3E5 DUP3 PUSH2 0x1A2 JUMP JUMPDEST PUSH8 0xFFFFFFFFFFFFFFFF DUP2 GT ISZERO PUSH2 0x3FE JUMPI PUSH2 0x3FD PUSH2 0x1AC JUMP JUMPDEST JUMPDEST PUSH2 0x408 DUP3 SLOAD PUSH2 0x206 JUMP JUMPDEST PUSH2 0x413 DUP3 DUP3 DUP6 PUSH2 0x353 JUMP JUMPDEST PUSH0 PUSH1 0x20 SWAP1 POP PUSH1 0x1F DUP4 GT PUSH1 0x1 DUP2 EQ PUSH2 0x444 JUMPI PUSH0 DUP5 ISZERO PUSH2 0x432 JUMPI DUP3 DUP8 ADD MLOAD SWAP1 POP JUMPDEST PUSH2 0x43C DUP6 DUP3 PUSH2 0x3C1 JUMP JUMPDEST DUP7 SSTORE POP PUSH2 0x4A3 JUMP JUMPDEST PUSH1 0x1F NOT DUP5 AND PUSH2 0x452 DUP7 PUSH2 0x236 JUMP JUMPDEST PUSH0 JUMPDEST DUP3 DUP2 LT ISZERO PUSH2 0x479 JUMPI DUP5 DUP10 ADD MLOAD DUP3 SSTORE PUSH1 0x1 DUP3 ADD SWAP2 POP PUSH1 0x20 DUP6 ADD SWAP5 POP PUSH1 0x20 DUP2 ADD SWAP1 POP PUSH2 0x454 JUMP JUMPDEST DUP7 DUP4 LT ISZERO PUSH2 0x496 JUMPI DUP5 DUP10 ADD MLOAD PUSH2 0x492 PUSH1 0x1F DUP10 AND DUP3 PUSH2 0x3A5 JUMP JUMPDEST DUP4 SSTORE POP JUMPDEST PUSH1 0x1 PUSH1 0x2 DUP9 MUL ADD DUP9 SSTORE POP POP POP JUMPDEST POP POP POP POP POP POP JUMP JUMPDEST PUSH2 0x808 DUP1 PUSH2 0x4B8 PUSH0 CODECOPY PUSH0 RETURN INVALID PUSH1 0x80 PUSH1 0x40 MSTORE CALLVALUE DUP1 ISZERO PUSH2 0xF JUMPI PUSH0 DUP1 REVERT JUMPDEST POP PUSH1 0x4 CALLDATASIZE LT PUSH2 0x4A JUMPI PUSH0 CALLDATALOAD PUSH1 0xE0 SHR DUP1 PUSH4 0x210C572A EQ PUSH2 0x4E JUMPI DUP1 PUSH4 0x5A6E5574 EQ PUSH2 0x6C JUMPI DUP1 PUSH4 0x5EDFB754 EQ PUSH2 0x8A JUMPI DUP1 PUSH4 0x8010D1D7 EQ PUSH2 0xA8 JUMPI JUMPDEST PUSH0 DUP1 REVERT JUMPDEST PUSH2 0x56 PUSH2 0xC6 JUMP JUMPDEST PUSH1 0x40 MLOAD PUSH2 0x63 SWAP2 SWAP1 PUSH2 0x42E JUMP JUMPDEST PUSH1 0x40 MLOAD DUP1 SWAP2 SUB SWAP1 RETURN JUMPDEST PUSH2 0x74 PUSH2 0xEF JUMP JUMPDEST PUSH1 0x40 MLOAD PUSH2 0x81 SWAP2 SWAP1 PUSH2 0x42E JUMP JUMPDEST PUSH1 0x40 MLOAD DUP1 SWAP2 SUB SWAP1 RETURN JUMPDEST PUSH2 0x92 PUSH2 0x118 JUMP JUMPDEST PUSH1 0x40 MLOAD PUSH2 0x9F SWAP2 SWAP1 PUSH2 0x5BB JUMP JUMPDEST PUSH1 0x40 MLOAD DUP1 SWAP2 SUB SWAP1 RETURN JUMPDEST PUSH2 0xB0 PUSH2 0x265 JUMP JUMPDEST PUSH1 0x40 MLOAD PUSH2 0xBD SWAP2 SWAP1 PUSH2 0x42E JUMP JUMPDEST PUSH1 0x40 MLOAD DUP1 SWAP2 SUB SWAP1 RETURN JUMPDEST PUSH0 PUSH2 0xD3 CALLER PUSH1 0x1 SLOAD PUSH2 0x28C JUMP JUMPDEST PUSH1 0x4 PUSH0 PUSH1 0x1 SLOAD DUP2 MSTORE PUSH1 0x20 ADD SWAP1 DUP2 MSTORE PUSH1 0x20 ADD PUSH0 KECCAK256 PUSH1 0x1 ADD SLOAD SWAP1 POP SWAP1 JUMP JUMPDEST PUSH0 PUSH2 0xFC CALLER PUSH1 0x2 SLOAD PUSH2 0x28C JUMP JUMPDEST PUSH1 0x4 PUSH0 PUSH1 0x2 SLOAD DUP2 MSTORE PUSH1 0x20 ADD SWAP1 DUP2 MSTORE PUSH1 0x20 ADD PUSH0 KECCAK256 PUSH1 0x1 ADD SLOAD SWAP1 POP SWAP1 JUMP JUMPDEST PUSH1 0x60 PUSH0 PUSH1 0x3 PUSH8 0xFFFFFFFFFFFFFFFF DUP2 GT ISZERO PUSH2 0x136 JUMPI PUSH2 0x135 PUSH2 0x5DB JUMP JUMPDEST JUMPDEST PUSH1 0x40 MLOAD SWAP1 DUP1 DUP3 MSTORE DUP1 PUSH1 0x20 MUL PUSH1 0x20 ADD DUP3 ADD PUSH1 0x40 MSTORE DUP1 ISZERO PUSH2 0x16F JUMPI DUP2 PUSH1 0x20 ADD JUMPDEST PUSH2 0x15C PUSH2 0x3FD JUMP JUMPDEST DUP2 MSTORE PUSH1 0x20 ADD SWAP1 PUSH1 0x1 SWAP1 SUB SWAP1 DUP2 PUSH2 0x154 JUMPI SWAP1 POP JUMPDEST POP SWAP1 POP PUSH0 JUMPDEST PUSH1 0x3 DUP2 LT ISZERO PUSH2 0x25D JUMPI PUSH1 0x4 PUSH0 DUP3 DUP2 MSTORE PUSH1 0x20 ADD SWAP1 DUP2 MSTORE PUSH1 0x20 ADD PUSH0 KECCAK256 PUSH1 0x40 MLOAD DUP1 PUSH1 0x40 ADD PUSH1 0x40 MSTORE SWAP1 DUP2 PUSH0 DUP3 ADD DUP1 SLOAD PUSH2 0x1A8 SWAP1 PUSH2 0x635 JUMP JUMPDEST DUP1 PUSH1 0x1F ADD PUSH1 0x20 DUP1 SWAP2 DIV MUL PUSH1 0x20 ADD PUSH1 0x40 MLOAD SWAP1 DUP2 ADD PUSH1 0x40 MSTORE DUP1 SWAP3 SWAP2 SWAP1 DUP2 DUP2 MSTORE PUSH1 0x20 ADD DUP3 DUP1 SLOAD PUSH2 0x1D4 SWAP1 PUSH2 0x635 JUMP JUMPDEST DUP1 ISZERO PUSH2 0x21F JUMPI DUP1 PUSH1 0x1F LT PUSH2 0x1F6 JUMPI PUSH2 0x100 DUP1 DUP4 SLOAD DIV MUL DUP4 MSTORE SWAP2 PUSH1 0x20 ADD SWAP2 PUSH2 0x21F JUMP JUMPDEST DUP3 ADD SWAP2 SWAP1 PUSH0 MSTORE PUSH1 0x20 PUSH0 KECCAK256 SWAP1 JUMPDEST DUP2 SLOAD DUP2 MSTORE SWAP1 PUSH1 0x1 ADD SWAP1 PUSH1 0x20 ADD DUP1 DUP4 GT PUSH2 0x202 JUMPI DUP3 SWAP1 SUB PUSH1 0x1F AND DUP3 ADD SWAP2 JUMPDEST POP POP POP POP POP DUP2 MSTORE PUSH1 0x20 ADD PUSH1 0x1 DUP3 ADD SLOAD DUP2 MSTORE POP POP DUP3 DUP3 DUP2 MLOAD DUP2 LT PUSH2 0x245 JUMPI PUSH2 0x244 PUSH2 0x665 JUMP JUMPDEST JUMPDEST PUSH1 0x20 MUL PUSH1 0x20 ADD ADD DUP2 SWAP1 MSTORE POP DUP1 DUP1 PUSH1 0x1 ADD SWAP2 POP POP PUSH2 0x174 JUMP JUMPDEST POP DUP1 SWAP2 POP POP SWAP1 JUMP JUMPDEST PUSH0 PUSH2 0x271 CALLER PUSH0 SLOAD PUSH2 0x28C JUMP JUMPDEST PUSH1 0x4 PUSH0 DUP1 SLOAD DUP2 MSTORE PUSH1 0x20 ADD SWAP1 DUP2 MSTORE PUSH1 0x20 ADD PUSH0 KECCAK256 PUSH1 0x1 ADD SLOAD SWAP1 POP SWAP1 JUMP JUMPDEST PUSH1 0x3 PUSH0 DUP4 PUSH20 0xFFFFFFFFFFFFFFFFFFFFFFFFFFFFFFFFFFFFFFFF AND PUSH20 0xFFFFFFFFFFFFFFFFFFFFFFFFFFFFFFFFFFFFFFFF AND DUP2 MSTORE PUSH1 0x20 ADD SWAP1 DUP2 MSTORE PUSH1 0x20 ADD PUSH0 KECCAK256 PUSH0 SWAP1 SLOAD SWAP1 PUSH2 0x100 EXP SWAP1 DIV PUSH1 0xFF AND ISZERO PUSH2 0x32C JUMPI DUP2 PUSH20 0xFFFFFFFFFFFFFFFFFFFFFFFFFFFFFFFFFFFFFFFF AND PUSH32 0xCB6783276E8A4347387036BBFEA000268F0A4B1F8C46AC79980609F2AF8D2ACD PUSH1 0x40 MLOAD PUSH2 0x31F SWAP1 PUSH2 0x6EC JUMP JUMPDEST PUSH1 0x40 MLOAD DUP1 SWAP2 SUB SWAP1 LOG2 PUSH2 0x3F9 JUMP JUMPDEST PUSH1 0x1 PUSH1 0x3 PUSH0 DUP5 PUSH20 0xFFFFFFFFFFFFFFFFFFFFFFFFFFFFFFFFFFFFFFFF AND PUSH20 0xFFFFFFFFFFFFFFFFFFFFFFFFFFFFFFFFFFFFFFFF AND DUP2 MSTORE PUSH1 0x20 ADD SWAP1 DUP2 MSTORE PUSH1 0x20 ADD PUSH0 KECCAK256 PUSH0 PUSH2 0x100 EXP DUP2 SLOAD DUP2 PUSH1 0xFF MUL NOT AND SWAP1 DUP4 ISZERO ISZERO MUL OR SWAP1 SSTORE POP PUSH1 0x1 PUSH1 0x4 PUSH0 DUP4 DUP2 MSTORE PUSH1 0x20 ADD SWAP1 DUP2 MSTORE PUSH1 0x20 ADD PUSH0 KECCAK256 PUSH1 0x1 ADD PUSH0 DUP3 DUP3 SLOAD PUSH2 0x3A5 SWAP2 SWAP1 PUSH2 0x737 JUMP JUMPDEST SWAP3 POP POP DUP2 SWAP1 SSTORE POP DUP2 PUSH20 0xFFFFFFFFFFFFFFFFFFFFFFFFFFFFFFFFFFFFFFFF AND PUSH32 0xCB6783276E8A4347387036BBFEA000268F0A4B1F8C46AC79980609F2AF8D2ACD PUSH1 0x40 MLOAD PUSH2 0x3F0 SWAP1 PUSH2 0x7B4 JUMP JUMPDEST PUSH1 0x40 MLOAD DUP1 SWAP2 SUB SWAP1 LOG2 JUMPDEST POP POP JUMP JUMPDEST PUSH1 0x40 MLOAD DUP1 PUSH1 0x40 ADD PUSH1 0x40 MSTORE DUP1 PUSH1 0x60 DUP2 MSTORE PUSH1 0x20 ADD PUSH0 DUP2 MSTORE POP SWAP1 JUMP JUMPDEST PUSH0 DUP2 SWAP1 POP SWAP2 SWAP1 POP JUMP JUMPDEST PUSH2 0x428 DUP2 PUSH2 0x416 JUMP JUMPDEST DUP3 MSTORE POP POP JUMP JUMPDEST PUSH0 PUSH1 0x20 DUP3 ADD SWAP1 POP PUSH2 0x441 PUSH0 DUP4 ADD DUP5 PUSH2 0x41F JUMP JUMPDEST SWAP3 SWAP2 POP POP JUMP JUMPDEST PUSH0 DUP2 MLOAD SWAP1 POP SWAP2 SWAP1 POP JUMP JUMPDEST PUSH0 DUP3 DUP3 MSTORE PUSH1 0x20 DUP3 ADD SWAP1 POP SWAP3 SWAP2 POP POP JUMP JUMPDEST PUSH0 DUP2 SWAP1 POP PUSH1 0x20 DUP3 ADD SWAP1 POP SWAP2 SWAP1 POP JUMP JUMPDEST PUSH0 DUP2 MLOAD SWAP1 POP SWAP2 SWAP1 POP JUMP JUMPDEST PUSH0 DUP3 DUP3 MSTORE PUSH1 0x20 DUP3 ADD SWAP1 POP SWAP3 SWAP2 POP POP JUMP JUMPDEST DUP3 DUP2 DUP4 MCOPY PUSH0 DUP4 DUP4 ADD MSTORE POP POP POP JUMP JUMPDEST PUSH0 PUSH1 0x1F NOT PUSH1 0x1F DUP4 ADD AND SWAP1 POP SWAP2 SWAP1 POP JUMP JUMPDEST PUSH0 PUSH2 0x4B2 DUP3 PUSH2 0x470 JUMP JUMPDEST PUSH2 0x4BC DUP2 DUP6 PUSH2 0x47A JUMP JUMPDEST SWAP4 POP PUSH2 0x4CC DUP2 DUP6 PUSH1 0x20 DUP7 ADD PUSH2 0x48A JUMP JUMPDEST PUSH2 0x4D5 DUP2 PUSH2 0x498 JUMP JUMPDEST DUP5 ADD SWAP2 POP POP SWAP3 SWAP2 POP POP JUMP JUMPDEST PUSH2 0x4E9 DUP2 PUSH2 0x416 JUMP JUMPDEST DUP3 MSTORE POP POP JUMP JUMPDEST PUSH0 PUSH1 0x40 DUP4 ADD PUSH0 DUP4 ADD MLOAD DUP5 DUP3 SUB PUSH0 DUP7 ADD MSTORE PUSH2 0x509 DUP3 DUP3 PUSH2 0x4A8 JUMP JUMPDEST SWAP2 POP POP PUSH1 0x20 DUP4 ADD MLOAD PUSH2 0x51E PUSH1 0x20 DUP7 ADD DUP3 PUSH2 0x4E0 JUMP JUMPDEST POP DUP1 SWAP2 POP POP SWAP3 SWAP2 POP POP JUMP JUMPDEST PUSH0 PUSH2 0x534 DUP4 DUP4 PUSH2 0x4EF JUMP JUMPDEST SWAP1 POP SWAP3 SWAP2 POP POP JUMP JUMPDEST PUSH0 PUSH1 0x20 DUP3 ADD SWAP1 POP SWAP2 SWAP1 POP JUMP JUMPDEST PUSH0 PUSH2 0x552 DUP3 PUSH2 0x447 JUMP JUMPDEST PUSH2 0x55C DUP2 DUP6 PUSH2 0x451 JUMP JUMPDEST SWAP4 POP DUP4 PUSH1 0x20 DUP3 MUL DUP6 ADD PUSH2 0x56E DUP6 PUSH2 0x461 JUMP JUMPDEST DUP1 PUSH0 JUMPDEST DUP6 DUP2 LT ISZERO PUSH2 0x5A9 JUMPI DUP5 DUP5 SUB DUP10 MSTORE DUP2 MLOAD PUSH2 0x58A DUP6 DUP3 PUSH2 0x529 JUMP JUMPDEST SWAP5 POP PUSH2 0x595 DUP4 PUSH2 0x53C JUMP JUMPDEST SWAP3 POP PUSH1 0x20 DUP11 ADD SWAP10 POP POP PUSH1 0x1 DUP2 ADD SWAP1 POP PUSH2 0x571 JUMP JUMPDEST POP DUP3 SWAP8 POP DUP8 SWAP6 POP POP POP POP POP POP SWAP3 SWAP2 POP POP JUMP JUMPDEST PUSH0 PUSH1 0x20 DUP3 ADD SWAP1 POP DUP2 DUP2 SUB PUSH0 DUP4 ADD MSTORE PUSH2 0x5D3 DUP2 DUP5 PUSH2 0x548 JUMP JUMPDEST SWAP1 POP SWAP3 SWAP2 POP POP JUMP JUMPDEST PUSH32 0x4E487B7100000000000000000000000000000000000000000000000000000000 PUSH0 MSTORE PUSH1 0x41 PUSH1 0x4 MSTORE PUSH1 0x24 PUSH0 REVERT JUMPDEST PUSH32 0x4E487B7100000000000000000000000000000000000000000000000000000000 PUSH0 MSTORE PUSH1 0x22 PUSH1 0x4 MSTORE PUSH1 0x24 PUSH0 REVERT JUMPDEST PUSH0 PUSH1 0x2 DUP3 DIV SWAP1 POP PUSH1 0x1 DUP3 AND DUP1 PUSH2 0x64C JUMPI PUSH1 0x7F DUP3 AND SWAP2 POP JUMPDEST PUSH1 0x20 DUP3 LT DUP2 SUB PUSH2 0x65F JUMPI PUSH2 0x65E PUSH2 0x608 JUMP JUMPDEST JUMPDEST POP SWAP2 SWAP1 POP JUMP JUMPDEST PUSH32 0x4E487B7100000000000000000000000000000000000000000000000000000000 PUSH0 MSTORE PUSH1 0x32 PUSH1 0x4 MSTORE PUSH1 0x24 PUSH0 REVERT JUMPDEST PUSH0 DUP3 DUP3 MSTORE PUSH1 0x20 DUP3 ADD SWAP1 POP SWAP3 SWAP2 POP POP JUMP JUMPDEST PUSH32 0x5468697320616464726573732068617320616C726561647920766F7465640000 PUSH0 DUP3 ADD MSTORE POP JUMP JUMPDEST PUSH0 PUSH2 0x6D6 PUSH1 0x1E DUP4 PUSH2 0x692 JUMP JUMPDEST SWAP2 POP PUSH2 0x6E1 DUP3 PUSH2 0x6A2 JUMP JUMPDEST PUSH1 0x20 DUP3 ADD SWAP1 POP SWAP2 SWAP1 POP JUMP JUMPDEST PUSH0 PUSH1 0x20 DUP3 ADD SWAP1 POP DUP2 DUP2 SUB PUSH0 DUP4 ADD MSTORE PUSH2 0x703 DUP2 PUSH2 0x6CA JUMP JUMPDEST SWAP1 POP SWAP2 SWAP1 POP JUMP JUMPDEST PUSH32 0x4E487B7100000000000000000000000000000000000000000000000000000000 PUSH0 MSTORE PUSH1 0x11 PUSH1 0x4 MSTORE PUSH1 0x24 PUSH0 REVERT JUMPDEST PUSH0 PUSH2 0x741 DUP3 PUSH2 0x416 JUMP JUMPDEST SWAP2 POP PUSH2 0x74C DUP4 PUSH2 0x416 JUMP JUMPDEST SWAP3 POP DUP3 DUP3 ADD SWAP1 POP DUP1 DUP3 GT ISZERO PUSH2 0x764 JUMPI PUSH2 0x763 PUSH2 0x70A JUMP JUMPDEST JUMPDEST SWAP3 SWAP2 POP POP JUMP JUMPDEST PUSH32 0x566F746564207375636365737366756C6C790000000000000000000000000000 PUSH0 DUP3 ADD MSTORE POP JUMP JUMPDEST PUSH0 PUSH2 0x79E PUSH1 0x12 DUP4 PUSH2 0x692 JUMP JUMPDEST SWAP2 POP PUSH2 0x7A9 DUP3 PUSH2 0x76A JUMP JUMPDEST PUSH1 0x20 DUP3 ADD SWAP1 POP SWAP2 SWAP1 POP JUMP JUMPDEST PUSH0 PUSH1 0x20 DUP3 ADD SWAP1 POP DUP2 DUP2 SUB PUSH0 DUP4 ADD MSTORE PUSH2 0x7CB DUP2 PUSH2 0x792 JUMP JUMPDEST SWAP1 POP SWAP2 SWAP1 POP JUMP INVALID LOG2 PUSH5 0x6970667358 0x22 SLT KECCAK256 0xC BYTE PUSH2 0xFD26 0xB1 0xDB PUSH30 0x8F0218F91DBFD76EBBAD8D2420B3A039EE2892F76D46E8A864736F6C6343 STOP ADDMOD BYTE STOP CALLER "
				},
				"gasEstimates": {
					"creation": {
						"codeDepositCost": "411200",
						"executionCost": "infinite",
						"totalCost": "infinite"
					},
					"external": {
						"ATK_PDP()": "infinite",
						"BAT_APC()": "infinite",
						"OBI_LP()": "infinite",
						"check_votes()": "infinite"
					},
					"internal": {
						"vote(address,uint256)": "infinite"
					}
				},
				"methodIdentifiers": {
					"ATK_PDP()": "5a6e5574",
					"BAT_APC()": "210c572a",
					"OBI_LP()": "8010d1d7",
					"check_votes()": "5edfb754"
				}
			},
			"storageLayout": {
				"storage": [
					{
						"astId": 3,
						"contract": "simpleVotingContract/SimpleVotingContract.sol:SimpleVotingContract",
						"label": "OBI",
						"offset": 0,
						"slot": "0",
						"type": "t_uint256"
					},
					{
						"astId": 5,
						"contract": "simpleVotingContract/SimpleVotingContract.sol:SimpleVotingContract",
						"label": "BAT",
						"offset": 0,
						"slot": "1",
						"type": "t_uint256"
					},
					{
						"astId": 7,
						"contract": "simpleVotingContract/SimpleVotingContract.sol:SimpleVotingContract",
						"label": "ATK",
						"offset": 0,
						"slot": "2",
						"type": "t_uint256"
					},
					{
						"astId": 11,
						"contract": "simpleVotingContract/SimpleVotingContract.sol:SimpleVotingContract",
						"label": "register",
						"offset": 0,
						"slot": "3",
						"type": "t_mapping(t_address,t_bool)"
					},
					{
						"astId": 21,
						"contract": "simpleVotingContract/SimpleVotingContract.sol:SimpleVotingContract",
						"label": "votes",
						"offset": 0,
						"slot": "4",
						"type": "t_mapping(t_uint256,t_struct(Politician)16_storage)"
					}
				],
				"types": {
					"t_address": {
						"encoding": "inplace",
						"label": "address",
						"numberOfBytes": "20"
					},
					"t_bool": {
						"encoding": "inplace",
						"label": "bool",
						"numberOfBytes": "1"
					},
					"t_mapping(t_address,t_bool)": {
						"encoding": "mapping",
						"key": "t_address",
						"label": "mapping(address => bool)",
						"numberOfBytes": "32",
						"value": "t_bool"
					},
					"t_mapping(t_uint256,t_struct(Politician)16_storage)": {
						"encoding": "mapping",
						"key": "t_uint256",
						"label": "mapping(uint256 => struct SimpleVotingContract.Politician)",
						"numberOfBytes": "32",
						"value": "t_struct(Politician)16_storage"
					},
					"t_string_storage": {
						"encoding": "bytes",
						"label": "string",
						"numberOfBytes": "32"
					},
					"t_struct(Politician)16_storage": {
						"encoding": "inplace",
						"label": "struct SimpleVotingContract.Politician",
						"members": [
							{
								"astId": 13,
								"contract": "simpleVotingContract/SimpleVotingContract.sol:SimpleVotingContract",
								"label": "name",
								"offset": 0,
								"slot": "0",
								"type": "t_string_storage"
							},
							{
								"astId": 15,
								"contract": "simpleVotingContract/SimpleVotingContract.sol:SimpleVotingContract",
								"label": "votes",
								"offset": 0,
								"slot": "1",
								"type": "t_uint256"
							}
						],
						"numberOfBytes": "64"
					},
					"t_uint256": {
						"encoding": "inplace",
						"label": "uint256",
						"numberOfBytes": "32"
					}
				}
			},
			"userdoc": {
				"kind": "user",
				"methods": {},
				"version": 1
			}
		}
	}
}