{
	"data": {
		"bytecode": {
			"linkReferences": {},
			"object": "6080604052348015600e575f80fd5b5061063b8061001c5f395ff3fe608060405234801561000f575f80fd5b5060043610610029575f3560e01c8063d8e79ae31461002d575b5f80fd5b610047600480360381019061004291906102c0565b61005e565b60405161005592919061036a565b60405180910390f35b5f60605f61006b846101ac565b90505f8412156100d0575f60028561008391906103c5565b036100ac57836040518060600160405280603581526020016104e66035913992509250506101a7565b8360405180606001604052806034815260200161051b6034913992509250506101a7565b5f841315610187575f6002856100e691906103c5565b0361013957801561011557836040518060600160405280602c81526020016105da602c913992509250506101a7565b836040518060600160405280603e815260200161059c603e913992509250506101a7565b801561016357836040518060600160405280602b8152602001610571602b913992509250506101a7565b836040518060600160405280603c81526020016104aa603c913992509250506101a7565b8360405180606001604052806022815260200161054f6022913992509250505b915091565b5f60028212156101be575f9050610284565b6001821380156101cf575060058213155b1561023957600282036101e55760019050610284565b5f600290505b82811215610230575f818461020091906103c5565b0315610230576001836102139190610422565b8103610223576001915050610284565b80806001019150506101eb565b505f9050610284565b5f600290505b6005811361027f575f818461025491906103c5565b031561027f576005810361026c576001915050610284565b808061027790610462565b91505061023f565b505f90505b919050565b5f80fd5b5f819050919050565b61029f8161028d565b81146102a9575f80fd5b50565b5f813590506102ba81610296565b92915050565b5f602082840312156102d5576102d4610289565b5b5f6102e2848285016102ac565b91505092915050565b6102f48161028d565b82525050565b5f81519050919050565b5f82825260208201905092915050565b8281835e5f83830152505050565b5f601f19601f8301169050919050565b5f61033c826102fa565b6103468185610304565b9350610356818560208601610314565b61035f81610322565b840191505092915050565b5f60408201905061037d5f8301856102eb565b818103602083015261038f8184610332565b90509392505050565b7f4e487b71000000000000000000000000000000000000000000000000000000005f52601260045260245ffd5b5f6103cf8261028d565b91506103da8361028d565b9250826103ea576103e9610398565b5b828207905092915050565b7f4e487b71000000000000000000000000000000000000000000000000000000005f52601160045260245ffd5b5f61042c8261028d565b91506104378361028d565b925082820390508181125f8412168282135f85121516171561045c5761045b6103f5565b5b92915050565b5f61046c8261028d565b91507f7fffffffffffffffffffffffffffffffffffffffffffffffffffffffffffffff820361049e5761049d6103f5565b5b60018201905091905056fe54686973206973206e756d62657220697320706f7369746976652f6f6464206e756d62657220616e64206e6f742061207072696d65206e756d626572546869732069732061206e656761746976652f6576656e206e756d62657220616e64206e6f742061207072696d65206e756d626572546869732069732061206e656761746976652f6f6464206e756d62657220616e64206e6f742061207072696d65206e756d62657254686973206973206e756d6265722069732061206e65757472616c206e756d62657254686973206973206e756d62657220697320706f7369746976652f6f64642f7072696d65206e756d62657254686973206973206e756d62657220697320706f7369746976652f6576656e206e756d62657220616e64206e6f742061207072696d65206e756d6265722054686973206973206e756d62657220697320706f7369746976652f6576656e2f7072696d65206e756d626572a264697066735822122048ab79c05f30dec24b58ee7f948a6fe8e3eac7b9577dfb5ef33be35eee9b32de64736f6c634300081a0033",
			"opcodes": "PUSH1 0x80 PUSH1 0x40 MSTORE CALLVALUE DUP1 ISZERO PUSH1 0xE JUMPI PUSH0 DUP1 REVERT JUMPDEST POP PUSH2 0x63B DUP1 PUSH2 0x1C PUSH0 CODECOPY PUSH0 RETURN INVALID PUSH1 0x80 PUSH1 0x40 MSTORE CALLVALUE DUP1 ISZERO PUSH2 0xF JUMPI PUSH0 DUP1 REVERT JUMPDEST POP PUSH1 0x4 CALLDATASIZE LT PUSH2 0x29 JUMPI PUSH0 CALLDATALOAD PUSH1 0xE0 SHR DUP1 PUSH4 0xD8E79AE3 EQ PUSH2 0x2D JUMPI JUMPDEST PUSH0 DUP1 REVERT JUMPDEST PUSH2 0x47 PUSH1 0x4 DUP1 CALLDATASIZE SUB DUP2 ADD SWAP1 PUSH2 0x42 SWAP2 SWAP1 PUSH2 0x2C0 JUMP JUMPDEST PUSH2 0x5E JUMP JUMPDEST PUSH1 0x40 MLOAD PUSH2 0x55 SWAP3 SWAP2 SWAP1 PUSH2 0x36A JUMP JUMPDEST PUSH1 0x40 MLOAD DUP1 SWAP2 SUB SWAP1 RETURN JUMPDEST PUSH0 PUSH1 0x60 PUSH0 PUSH2 0x6B DUP5 PUSH2 0x1AC JUMP JUMPDEST SWAP1 POP PUSH0 DUP5 SLT ISZERO PUSH2 0xD0 JUMPI PUSH0 PUSH1 0x2 DUP6 PUSH2 0x83 SWAP2 SWAP1 PUSH2 0x3C5 JUMP JUMPDEST SUB PUSH2 0xAC JUMPI DUP4 PUSH1 0x40 MLOAD DUP1 PUSH1 0x60 ADD PUSH1 0x40 MSTORE DUP1 PUSH1 0x35 DUP2 MSTORE PUSH1 0x20 ADD PUSH2 0x4E6 PUSH1 0x35 SWAP2 CODECOPY SWAP3 POP SWAP3 POP POP PUSH2 0x1A7 JUMP JUMPDEST DUP4 PUSH1 0x40 MLOAD DUP1 PUSH1 0x60 ADD PUSH1 0x40 MSTORE DUP1 PUSH1 0x34 DUP2 MSTORE PUSH1 0x20 ADD PUSH2 0x51B PUSH1 0x34 SWAP2 CODECOPY SWAP3 POP SWAP3 POP POP PUSH2 0x1A7 JUMP JUMPDEST PUSH0 DUP5 SGT ISZERO PUSH2 0x187 JUMPI PUSH0 PUSH1 0x2 DUP6 PUSH2 0xE6 SWAP2 SWAP1 PUSH2 0x3C5 JUMP JUMPDEST SUB PUSH2 0x139 JUMPI DUP1 ISZERO PUSH2 0x115 JUMPI DUP4 PUSH1 0x40 MLOAD DUP1 PUSH1 0x60 ADD PUSH1 0x40 MSTORE DUP1 PUSH1 0x2C DUP2 MSTORE PUSH1 0x20 ADD PUSH2 0x5DA PUSH1 0x2C SWAP2 CODECOPY SWAP3 POP SWAP3 POP POP PUSH2 0x1A7 JUMP JUMPDEST DUP4 PUSH1 0x40 MLOAD DUP1 PUSH1 0x60 ADD PUSH1 0x40 MSTORE DUP1 PUSH1 0x3E DUP2 MSTORE PUSH1 0x20 ADD PUSH2 0x59C PUSH1 0x3E SWAP2 CODECOPY SWAP3 POP SWAP3 POP POP PUSH2 0x1A7 JUMP JUMPDEST DUP1 ISZERO PUSH2 0x163 JUMPI DUP4 PUSH1 0x40 MLOAD DUP1 PUSH1 0x60 ADD PUSH1 0x40 MSTORE DUP1 PUSH1 0x2B DUP2 MSTORE PUSH1 0x20 ADD PUSH2 0x571 PUSH1 0x2B SWAP2 CODECOPY SWAP3 POP SWAP3 POP POP PUSH2 0x1A7 JUMP JUMPDEST DUP4 PUSH1 0x40 MLOAD DUP1 PUSH1 0x60 ADD PUSH1 0x40 MSTORE DUP1 PUSH1 0x3C DUP2 MSTORE PUSH1 0x20 ADD PUSH2 0x4AA PUSH1 0x3C SWAP2 CODECOPY SWAP3 POP SWAP3 POP POP PUSH2 0x1A7 JUMP JUMPDEST DUP4 PUSH1 0x40 MLOAD DUP1 PUSH1 0x60 ADD PUSH1 0x40 MSTORE DUP1 PUSH1 0x22 DUP2 MSTORE PUSH1 0x20 ADD PUSH2 0x54F PUSH1 0x22 SWAP2 CODECOPY SWAP3 POP SWAP3 POP POP JUMPDEST SWAP2 POP SWAP2 JUMP JUMPDEST PUSH0 PUSH1 0x2 DUP3 SLT ISZERO PUSH2 0x1BE JUMPI PUSH0 SWAP1 POP PUSH2 0x284 JUMP JUMPDEST PUSH1 0x1 DUP3 SGT DUP1 ISZERO PUSH2 0x1CF JUMPI POP PUSH1 0x5 DUP3 SGT ISZERO JUMPDEST ISZERO PUSH2 0x239 JUMPI PUSH1 0x2 DUP3 SUB PUSH2 0x1E5 JUMPI PUSH1 0x1 SWAP1 POP PUSH2 0x284 JUMP JUMPDEST PUSH0 PUSH1 0x2 SWAP1 POP JUMPDEST DUP3 DUP2 SLT ISZERO PUSH2 0x230 JUMPI PUSH0 DUP2 DUP5 PUSH2 0x200 SWAP2 SWAP1 PUSH2 0x3C5 JUMP JUMPDEST SUB ISZERO PUSH2 0x230 JUMPI PUSH1 0x1 DUP4 PUSH2 0x213 SWAP2 SWAP1 PUSH2 0x422 JUMP JUMPDEST DUP2 SUB PUSH2 0x223 JUMPI PUSH1 0x1 SWAP2 POP POP PUSH2 0x284 JUMP JUMPDEST DUP1 DUP1 PUSH1 0x1 ADD SWAP2 POP POP PUSH2 0x1EB JUMP JUMPDEST POP PUSH0 SWAP1 POP PUSH2 0x284 JUMP JUMPDEST PUSH0 PUSH1 0x2 SWAP1 POP JUMPDEST PUSH1 0x5 DUP2 SGT PUSH2 0x27F JUMPI PUSH0 DUP2 DUP5 PUSH2 0x254 SWAP2 SWAP1 PUSH2 0x3C5 JUMP JUMPDEST SUB ISZERO PUSH2 0x27F JUMPI PUSH1 0x5 DUP2 SUB PUSH2 0x26C JUMPI PUSH1 0x1 SWAP2 POP POP PUSH2 0x284 JUMP JUMPDEST DUP1 DUP1 PUSH2 0x277 SWAP1 PUSH2 0x462 JUMP JUMPDEST SWAP2 POP POP PUSH2 0x23F JUMP JUMPDEST POP PUSH0 SWAP1 POP JUMPDEST SWAP2 SWAP1 POP JUMP JUMPDEST PUSH0 DUP1 REVERT JUMPDEST PUSH0 DUP2 SWAP1 POP SWAP2 SWAP1 POP JUMP JUMPDEST PUSH2 0x29F DUP2 PUSH2 0x28D JUMP JUMPDEST DUP2 EQ PUSH2 0x2A9 JUMPI PUSH0 DUP1 REVERT JUMPDEST POP JUMP JUMPDEST PUSH0 DUP2 CALLDATALOAD SWAP1 POP PUSH2 0x2BA DUP2 PUSH2 0x296 JUMP JUMPDEST SWAP3 SWAP2 POP POP JUMP JUMPDEST PUSH0 PUSH1 0x20 DUP3 DUP5 SUB SLT ISZERO PUSH2 0x2D5 JUMPI PUSH2 0x2D4 PUSH2 0x289 JUMP JUMPDEST JUMPDEST PUSH0 PUSH2 0x2E2 DUP5 DUP3 DUP6 ADD PUSH2 0x2AC JUMP JUMPDEST SWAP2 POP POP SWAP3 SWAP2 POP POP JUMP JUMPDEST PUSH2 0x2F4 DUP2 PUSH2 0x28D JUMP JUMPDEST DUP3 MSTORE POP POP JUMP JUMPDEST PUSH0 DUP2 MLOAD SWAP1 POP SWAP2 SWAP1 POP JUMP JUMPDEST PUSH0 DUP3 DUP3 MSTORE PUSH1 0x20 DUP3 ADD SWAP1 POP SWAP3 SWAP2 POP POP JUMP JUMPDEST DUP3 DUP2 DUP4 MCOPY PUSH0 DUP4 DUP4 ADD MSTORE POP POP POP JUMP JUMPDEST PUSH0 PUSH1 0x1F NOT PUSH1 0x1F DUP4 ADD AND SWAP1 POP SWAP2 SWAP1 POP JUMP JUMPDEST PUSH0 PUSH2 0x33C DUP3 PUSH2 0x2FA JUMP JUMPDEST PUSH2 0x346 DUP2 DUP6 PUSH2 0x304 JUMP JUMPDEST SWAP4 POP PUSH2 0x356 DUP2 DUP6 PUSH1 0x20 DUP7 ADD PUSH2 0x314 JUMP JUMPDEST PUSH2 0x35F DUP2 PUSH2 0x322 JUMP JUMPDEST DUP5 ADD SWAP2 POP POP SWAP3 SWAP2 POP POP JUMP JUMPDEST PUSH0 PUSH1 0x40 DUP3 ADD SWAP1 POP PUSH2 0x37D PUSH0 DUP4 ADD DUP6 PUSH2 0x2EB JUMP JUMPDEST DUP2 DUP2 SUB PUSH1 0x20 DUP4 ADD MSTORE PUSH2 0x38F DUP2 DUP5 PUSH2 0x332 JUMP JUMPDEST SWAP1 POP SWAP4 SWAP3 POP POP POP JUMP JUMPDEST PUSH32 0x4E487B7100000000000000000000000000000000000000000000000000000000 PUSH0 MSTORE PUSH1 0x12 PUSH1 0x4 MSTORE PUSH1 0x24 PUSH0 REVERT JUMPDEST PUSH0 PUSH2 0x3CF DUP3 PUSH2 0x28D JUMP JUMPDEST SWAP2 POP PUSH2 0x3DA DUP4 PUSH2 0x28D JUMP JUMPDEST SWAP3 POP DUP3 PUSH2 0x3EA JUMPI PUSH2 0x3E9 PUSH2 0x398 JUMP JUMPDEST JUMPDEST DUP3 DUP3 SMOD SWAP1 POP SWAP3 SWAP2 POP POP JUMP JUMPDEST PUSH32 0x4E487B7100000000000000000000000000000000000000000000000000000000 PUSH0 MSTORE PUSH1 0x11 PUSH1 0x4 MSTORE PUSH1 0x24 PUSH0 REVERT JUMPDEST PUSH0 PUSH2 0x42C DUP3 PUSH2 0x28D JUMP JUMPDEST SWAP2 POP PUSH2 0x437 DUP4 PUSH2 0x28D JUMP JUMPDEST SWAP3 POP DUP3 DUP3 SUB SWAP1 POP DUP2 DUP2 SLT PUSH0 DUP5 SLT AND DUP3 DUP3 SGT PUSH0 DUP6 SLT ISZERO AND OR ISZERO PUSH2 0x45C JUMPI PUSH2 0x45B PUSH2 0x3F5 JUMP JUMPDEST JUMPDEST SWAP3 SWAP2 POP POP JUMP JUMPDEST PUSH0 PUSH2 0x46C DUP3 PUSH2 0x28D JUMP JUMPDEST SWAP2 POP PUSH32 0x7FFFFFFFFFFFFFFFFFFFFFFFFFFFFFFFFFFFFFFFFFFFFFFFFFFFFFFFFFFFFFFF DUP3 SUB PUSH2 0x49E JUMPI PUSH2 0x49D PUSH2 0x3F5 JUMP JUMPDEST JUMPDEST PUSH1 0x1 DUP3 ADD SWAP1 POP SWAP2 SWAP1 POP JUMP INVALID SLOAD PUSH9 0x6973206973206E756D PUSH3 0x657220 PUSH10 0x7320706F736974697665 0x2F PUSH16 0x6464206E756D62657220616E64206E6F PUSH21 0x2061207072696D65206E756D626572546869732069 PUSH20 0x2061206E656761746976652F6576656E206E756D PUSH3 0x657220 PUSH2 0x6E64 KECCAK256 PUSH15 0x6F742061207072696D65206E756D62 PUSH6 0x725468697320 PUSH10 0x732061206E6567617469 PUSH23 0x652F6F6464206E756D62657220616E64206E6F74206120 PUSH17 0x72696D65206E756D626572546869732069 PUSH20 0x206E756D6265722069732061206E65757472616C KECCAK256 PUSH15 0x756D62657254686973206973206E75 PUSH14 0x62657220697320706F7369746976 PUSH6 0x2F6F64642F70 PUSH19 0x696D65206E756D62657254686973206973206E PUSH22 0x6D62657220697320706F7369746976652F6576656E20 PUSH15 0x756D62657220616E64206E6F742061 KECCAK256 PUSH17 0x72696D65206E756D626572205468697320 PUSH10 0x73206E756D6265722069 PUSH20 0x20706F7369746976652F6576656E2F7072696D65 KECCAK256 PUSH15 0x756D626572A2646970667358221220 BASEFEE 0xAB PUSH26 0xC05F30DEC24B58EE7F948A6FE8E3EAC7B9577DFB5EF33BE35EEE SWAP12 ORIGIN 0xDE PUSH5 0x736F6C6343 STOP ADDMOD BYTE STOP CALLER "
		},
		"gasEstimates": {
			"creation": {
				"codeDepositCost": "319000",
				"executionCost": "353",
				"totalCost": "319353"
			},
			"external": {
				"check_num(int256)": "infinite"
			},
			"internal": {
				"check_prime(int256)": "infinite"
			}
		},
		"methodIdentifiers": {
			"check_num(int256)": "d8e79ae3"
		}
	},
	"abi": [
		{
			"inputs": [
				{
					"internalType": "int256",
					"name": "input_num",
					"type": "int256"
				}
			],
			"name": "check_num",
			"outputs": [
				{
					"internalType": "int256",
					"name": "",
					"type": "int256"
				},
				{
					"internalType": "string",
					"name": "",
					"type": "string"
				}
			],
			"stateMutability": "pure",
			"type": "function"
		}
	]
}