{
	"basicArithmeticOperation/basicArithmeticOperation.sol": {
		"BasicArithmeticOperation": {
			"abi": [
				{
					"inputs": [],
					"name": "add",
					"outputs": [
						{
							"internalType": "int256",
							"name": "",
							"type": "int256"
						}
					],
					"stateMutability": "view",
					"type": "function"
				},
				{
					"inputs": [],
					"name": "division",
					"outputs": [
						{
							"internalType": "int256",
							"name": "",
							"type": "int256"
						}
					],
					"stateMutability": "view",
					"type": "function"
				},
				{
					"inputs": [
						{
							"internalType": "int256",
							"name": "num_1",
							"type": "int256"
						},
						{
							"internalType": "int256",
							"name": "num_2",
							"type": "int256"
						}
					],
					"name": "inputs",
					"outputs": [],
					"stateMutability": "nonpayable",
					"type": "function"
				},
				{
					"inputs": [],
					"name": "multipy",
					"outputs": [
						{
							"internalType": "int256",
							"name": "",
							"type": "int256"
						}
					],
					"stateMutability": "view",
					"type": "function"
				},
				{
					"inputs": [],
					"name": "num1",
					"outputs": [
						{
							"internalType": "int256",
							"name": "",
							"type": "int256"
						}
					],
					"stateMutability": "view",
					"type": "function"
				},
				{
					"inputs": [],
					"name": "num2",
					"outputs": [
						{
							"internalType": "int256",
							"name": "",
							"type": "int256"
						}
					],
					"stateMutability": "view",
					"type": "function"
				},
				{
					"inputs": [],
					"name": "subtract",
					"outputs": [
						{
							"internalType": "int256",
							"name": "",
							"type": "int256"
						}
					],
					"stateMutability": "view",
					"type": "function"
				}
			],
			"devdoc": {
				"kind": "dev",
				"methods": {},
				"version": 1
			},
			"evm": {
				"assembly": "    /* \"basicArithmeticOperation/basicArithmeticOperation.sol\":61:648  contract BasicArithmeticOperation {... */\n  mstore(0x40, 0x80)\n  callvalue\n  dup1\n  iszero\n  tag_1\n  jumpi\n  0x00\n  dup1\n  revert\ntag_1:\n  pop\n  dataSize(sub_0)\n  dup1\n  dataOffset(sub_0)\n  0x00\n  codecopy\n  0x00\n  return\nstop\n\nsub_0: assembly {\n        /* \"basicArithmeticOperation/basicArithmeticOperation.sol\":61:648  contract BasicArithmeticOperation {... */\n      mstore(0x40, 0x80)\n      callvalue\n      dup1\n      iszero\n      tag_1\n      jumpi\n      0x00\n      dup1\n      revert\n    tag_1:\n      pop\n      jumpi(tag_2, lt(calldatasize, 0x04))\n      shr(0xe0, calldataload(0x00))\n      dup1\n      0x3b9eac4b\n      gt\n      tag_10\n      jumpi\n      dup1\n      0x3b9eac4b\n      eq\n      tag_6\n      jumpi\n      dup1\n      0x4026896b\n      eq\n      tag_7\n      jumpi\n      dup1\n      0x4f2be91f\n      eq\n      tag_8\n      jumpi\n      dup1\n      0x6deebae3\n      eq\n      tag_9\n      jumpi\n      jump(tag_2)\n    tag_10:\n      dup1\n      0x09c425e8\n      eq\n      tag_3\n      jumpi\n      dup1\n      0x15d4266c\n      eq\n      tag_4\n      jumpi\n      dup1\n      0x3205f5fc\n      eq\n      tag_5\n      jumpi\n    tag_2:\n      0x00\n      dup1\n      revert\n        /* \"basicArithmeticOperation/basicArithmeticOperation.sol\":154:259  function inputs(int256 num_1, int256 num_2) public {... */\n    tag_3:\n      tag_11\n      0x04\n      dup1\n      calldatasize\n      sub\n      dup2\n      add\n      swap1\n      tag_12\n      swap2\n      swap1\n      tag_13\n      jump\t// in\n    tag_12:\n      tag_14\n      jump\t// in\n    tag_11:\n      stop\n        /* \"basicArithmeticOperation/basicArithmeticOperation.sol\":127:145  int256 public num2 */\n    tag_4:\n      tag_15\n      tag_16\n      jump\t// in\n    tag_15:\n      mload(0x40)\n      tag_17\n      swap2\n      swap1\n      tag_18\n      jump\t// in\n    tag_17:\n      mload(0x40)\n      dup1\n      swap2\n      sub\n      swap1\n      return\n        /* \"basicArithmeticOperation/basicArithmeticOperation.sol\":562:645  function division() public view returns (int256){... */\n    tag_5:\n      tag_19\n      tag_20\n      jump\t// in\n    tag_19:\n      mload(0x40)\n      tag_21\n      swap2\n      swap1\n      tag_18\n      jump\t// in\n    tag_21:\n      mload(0x40)\n      dup1\n      swap2\n      sub\n      swap1\n      return\n        /* \"basicArithmeticOperation/basicArithmeticOperation.sol\":102:120  int256 public num1 */\n    tag_6:\n      tag_22\n      tag_23\n      jump\t// in\n    tag_22:\n      mload(0x40)\n      tag_24\n      swap2\n      swap1\n      tag_18\n      jump\t// in\n    tag_24:\n      mload(0x40)\n      dup1\n      swap2\n      sub\n      swap1\n      return\n        /* \"basicArithmeticOperation/basicArithmeticOperation.sol\":471:554  function multipy() public view returns(int256){... */\n    tag_7:\n      tag_25\n      tag_26\n      jump\t// in\n    tag_25:\n      mload(0x40)\n      tag_27\n      swap2\n      swap1\n      tag_18\n      jump\t// in\n    tag_27:\n      mload(0x40)\n      dup1\n      swap2\n      sub\n      swap1\n      return\n        /* \"basicArithmeticOperation/basicArithmeticOperation.sol\":267:347  function add() public view returns(int256){... */\n    tag_8:\n      tag_28\n      tag_29\n      jump\t// in\n    tag_28:\n      mload(0x40)\n      tag_30\n      swap2\n      swap1\n      tag_18\n      jump\t// in\n    tag_30:\n      mload(0x40)\n      dup1\n      swap2\n      sub\n      swap1\n      return\n        /* \"basicArithmeticOperation/basicArithmeticOperation.sol\":355:463  function subtract() public view returns (int256){... */\n    tag_9:\n      tag_31\n      tag_32\n      jump\t// in\n    tag_31:\n      mload(0x40)\n      tag_33\n      swap2\n      swap1\n      tag_18\n      jump\t// in\n    tag_33:\n      mload(0x40)\n      dup1\n      swap2\n      sub\n      swap1\n      return\n        /* \"basicArithmeticOperation/basicArithmeticOperation.sol\":154:259  function inputs(int256 num_1, int256 num_2) public {... */\n    tag_14:\n        /* \"basicArithmeticOperation/basicArithmeticOperation.sol\":223:228  num_1 */\n      dup2\n        /* \"basicArithmeticOperation/basicArithmeticOperation.sol\":216:220  num1 */\n      0x00\n        /* \"basicArithmeticOperation/basicArithmeticOperation.sol\":216:228  num1 = num_1 */\n      dup2\n      swap1\n      sstore\n      pop\n        /* \"basicArithmeticOperation/basicArithmeticOperation.sol\":246:251  num_2 */\n      dup1\n        /* \"basicArithmeticOperation/basicArithmeticOperation.sol\":239:243  num2 */\n      0x01\n        /* \"basicArithmeticOperation/basicArithmeticOperation.sol\":239:251  num2 = num_2 */\n      dup2\n      swap1\n      sstore\n      pop\n        /* \"basicArithmeticOperation/basicArithmeticOperation.sol\":154:259  function inputs(int256 num_1, int256 num_2) public {... */\n      pop\n      pop\n      jump\t// out\n        /* \"basicArithmeticOperation/basicArithmeticOperation.sol\":127:145  int256 public num2 */\n    tag_16:\n      sload(0x01)\n      dup2\n      jump\t// out\n        /* \"basicArithmeticOperation/basicArithmeticOperation.sol\":562:645  function division() public view returns (int256){... */\n    tag_20:\n        /* \"basicArithmeticOperation/basicArithmeticOperation.sol\":603:609  int256 */\n      0x00\n        /* \"basicArithmeticOperation/basicArithmeticOperation.sol\":633:637  num2 */\n      sload(0x01)\n        /* \"basicArithmeticOperation/basicArithmeticOperation.sol\":628:632  num1 */\n      sload(0x00)\n        /* \"basicArithmeticOperation/basicArithmeticOperation.sol\":628:637  num1/num2 */\n      tag_36\n      swap2\n      swap1\n      tag_37\n      jump\t// in\n    tag_36:\n        /* \"basicArithmeticOperation/basicArithmeticOperation.sol\":621:637  return num1/num2 */\n      swap1\n      pop\n        /* \"basicArithmeticOperation/basicArithmeticOperation.sol\":562:645  function division() public view returns (int256){... */\n      swap1\n      jump\t// out\n        /* \"basicArithmeticOperation/basicArithmeticOperation.sol\":102:120  int256 public num1 */\n    tag_23:\n      sload(0x00)\n      dup2\n      jump\t// out\n        /* \"basicArithmeticOperation/basicArithmeticOperation.sol\":471:554  function multipy() public view returns(int256){... */\n    tag_26:\n        /* \"basicArithmeticOperation/basicArithmeticOperation.sol\":510:516  int256 */\n      0x00\n        /* \"basicArithmeticOperation/basicArithmeticOperation.sol\":542:546  num2 */\n      sload(0x01)\n        /* \"basicArithmeticOperation/basicArithmeticOperation.sol\":535:539  num1 */\n      sload(0x00)\n        /* \"basicArithmeticOperation/basicArithmeticOperation.sol\":535:546  num1 * num2 */\n      tag_39\n      swap2\n      swap1\n      tag_40\n      jump\t// in\n    tag_39:\n        /* \"basicArithmeticOperation/basicArithmeticOperation.sol\":528:546  return num1 * num2 */\n      swap1\n      pop\n        /* \"basicArithmeticOperation/basicArithmeticOperation.sol\":471:554  function multipy() public view returns(int256){... */\n      swap1\n      jump\t// out\n        /* \"basicArithmeticOperation/basicArithmeticOperation.sol\":267:347  function add() public view returns(int256){... */\n    tag_29:\n        /* \"basicArithmeticOperation/basicArithmeticOperation.sol\":302:308  int256 */\n      0x00\n        /* \"basicArithmeticOperation/basicArithmeticOperation.sol\":335:339  num2 */\n      sload(0x01)\n        /* \"basicArithmeticOperation/basicArithmeticOperation.sol\":328:332  num1 */\n      sload(0x00)\n        /* \"basicArithmeticOperation/basicArithmeticOperation.sol\":328:339  num1 + num2 */\n      tag_42\n      swap2\n      swap1\n      tag_43\n      jump\t// in\n    tag_42:\n        /* \"basicArithmeticOperation/basicArithmeticOperation.sol\":320:339  return  num1 + num2 */\n      swap1\n      pop\n        /* \"basicArithmeticOperation/basicArithmeticOperation.sol\":267:347  function add() public view returns(int256){... */\n      swap1\n      jump\t// out\n        /* \"basicArithmeticOperation/basicArithmeticOperation.sol\":355:463  function subtract() public view returns (int256){... */\n    tag_32:\n        /* \"basicArithmeticOperation/basicArithmeticOperation.sol\":396:402  int256 */\n      0x00\n        /* \"basicArithmeticOperation/basicArithmeticOperation.sol\":414:422  int256 a */\n      dup1\n        /* \"basicArithmeticOperation/basicArithmeticOperation.sol\":432:436  num2 */\n      sload(0x01)\n        /* \"basicArithmeticOperation/basicArithmeticOperation.sol\":425:429  num1 */\n      sload(0x00)\n        /* \"basicArithmeticOperation/basicArithmeticOperation.sol\":425:436  num1 - num2 */\n      tag_45\n      swap2\n      swap1\n      tag_46\n      jump\t// in\n    tag_45:\n        /* \"basicArithmeticOperation/basicArithmeticOperation.sol\":414:436  int256 a = num1 - num2 */\n      swap1\n      pop\n        /* \"basicArithmeticOperation/basicArithmeticOperation.sol\":454:455  a */\n      dup1\n        /* \"basicArithmeticOperation/basicArithmeticOperation.sol\":447:455  return a */\n      swap2\n      pop\n      pop\n        /* \"basicArithmeticOperation/basicArithmeticOperation.sol\":355:463  function subtract() public view returns (int256){... */\n      swap1\n      jump\t// out\n        /* \"#utility.yul\":88:205   */\n    tag_48:\n        /* \"#utility.yul\":197:198   */\n      0x00\n        /* \"#utility.yul\":194:195   */\n      dup1\n        /* \"#utility.yul\":187:199   */\n      revert\n        /* \"#utility.yul\":334:410   */\n    tag_50:\n        /* \"#utility.yul\":370:377   */\n      0x00\n        /* \"#utility.yul\":399:404   */\n      dup2\n        /* \"#utility.yul\":388:404   */\n      swap1\n      pop\n        /* \"#utility.yul\":334:410   */\n      swap2\n      swap1\n      pop\n      jump\t// out\n        /* \"#utility.yul\":416:536   */\n    tag_51:\n        /* \"#utility.yul\":488:511   */\n      tag_62\n        /* \"#utility.yul\":505:510   */\n      dup2\n        /* \"#utility.yul\":488:511   */\n      tag_50\n      jump\t// in\n    tag_62:\n        /* \"#utility.yul\":481:486   */\n      dup2\n        /* \"#utility.yul\":478:512   */\n      eq\n        /* \"#utility.yul\":468:530   */\n      tag_63\n      jumpi\n        /* \"#utility.yul\":526:527   */\n      0x00\n        /* \"#utility.yul\":523:524   */\n      dup1\n        /* \"#utility.yul\":516:528   */\n      revert\n        /* \"#utility.yul\":468:530   */\n    tag_63:\n        /* \"#utility.yul\":416:536   */\n      pop\n      jump\t// out\n        /* \"#utility.yul\":542:679   */\n    tag_52:\n        /* \"#utility.yul\":587:592   */\n      0x00\n        /* \"#utility.yul\":625:631   */\n      dup2\n        /* \"#utility.yul\":612:632   */\n      calldataload\n        /* \"#utility.yul\":603:632   */\n      swap1\n      pop\n        /* \"#utility.yul\":641:673   */\n      tag_65\n        /* \"#utility.yul\":667:672   */\n      dup2\n        /* \"#utility.yul\":641:673   */\n      tag_51\n      jump\t// in\n    tag_65:\n        /* \"#utility.yul\":542:679   */\n      swap3\n      swap2\n      pop\n      pop\n      jump\t// out\n        /* \"#utility.yul\":685:1155   */\n    tag_13:\n        /* \"#utility.yul\":751:757   */\n      0x00\n        /* \"#utility.yul\":759:765   */\n      dup1\n        /* \"#utility.yul\":808:810   */\n      0x40\n        /* \"#utility.yul\":796:805   */\n      dup4\n        /* \"#utility.yul\":787:794   */\n      dup6\n        /* \"#utility.yul\":783:806   */\n      sub\n        /* \"#utility.yul\":779:811   */\n      slt\n        /* \"#utility.yul\":776:895   */\n      iszero\n      tag_67\n      jumpi\n        /* \"#utility.yul\":814:893   */\n      tag_68\n      tag_48\n      jump\t// in\n    tag_68:\n        /* \"#utility.yul\":776:895   */\n    tag_67:\n        /* \"#utility.yul\":934:935   */\n      0x00\n        /* \"#utility.yul\":959:1011   */\n      tag_69\n        /* \"#utility.yul\":1003:1010   */\n      dup6\n        /* \"#utility.yul\":994:1000   */\n      dup3\n        /* \"#utility.yul\":983:992   */\n      dup7\n        /* \"#utility.yul\":979:1001   */\n      add\n        /* \"#utility.yul\":959:1011   */\n      tag_52\n      jump\t// in\n    tag_69:\n        /* \"#utility.yul\":949:1011   */\n      swap3\n      pop\n        /* \"#utility.yul\":905:1021   */\n      pop\n        /* \"#utility.yul\":1060:1062   */\n      0x20\n        /* \"#utility.yul\":1086:1138   */\n      tag_70\n        /* \"#utility.yul\":1130:1137   */\n      dup6\n        /* \"#utility.yul\":1121:1127   */\n      dup3\n        /* \"#utility.yul\":1110:1119   */\n      dup7\n        /* \"#utility.yul\":1106:1128   */\n      add\n        /* \"#utility.yul\":1086:1138   */\n      tag_52\n      jump\t// in\n    tag_70:\n        /* \"#utility.yul\":1076:1138   */\n      swap2\n      pop\n        /* \"#utility.yul\":1031:1148   */\n      pop\n        /* \"#utility.yul\":685:1155   */\n      swap3\n      pop\n      swap3\n      swap1\n      pop\n      jump\t// out\n        /* \"#utility.yul\":1161:1276   */\n    tag_53:\n        /* \"#utility.yul\":1246:1269   */\n      tag_72\n        /* \"#utility.yul\":1263:1268   */\n      dup2\n        /* \"#utility.yul\":1246:1269   */\n      tag_50\n      jump\t// in\n    tag_72:\n        /* \"#utility.yul\":1241:1244   */\n      dup3\n        /* \"#utility.yul\":1234:1270   */\n      mstore\n        /* \"#utility.yul\":1161:1276   */\n      pop\n      pop\n      jump\t// out\n        /* \"#utility.yul\":1282:1500   */\n    tag_18:\n        /* \"#utility.yul\":1373:1377   */\n      0x00\n        /* \"#utility.yul\":1411:1413   */\n      0x20\n        /* \"#utility.yul\":1400:1409   */\n      dup3\n        /* \"#utility.yul\":1396:1414   */\n      add\n        /* \"#utility.yul\":1388:1414   */\n      swap1\n      pop\n        /* \"#utility.yul\":1424:1493   */\n      tag_74\n        /* \"#utility.yul\":1490:1491   */\n      0x00\n        /* \"#utility.yul\":1479:1488   */\n      dup4\n        /* \"#utility.yul\":1475:1492   */\n      add\n        /* \"#utility.yul\":1466:1472   */\n      dup5\n        /* \"#utility.yul\":1424:1493   */\n      tag_53\n      jump\t// in\n    tag_74:\n        /* \"#utility.yul\":1282:1500   */\n      swap3\n      swap2\n      pop\n      pop\n      jump\t// out\n        /* \"#utility.yul\":1506:1686   */\n    tag_54:\n        /* \"#utility.yul\":1554:1631   */\n      0x4e487b7100000000000000000000000000000000000000000000000000000000\n        /* \"#utility.yul\":1551:1552   */\n      0x00\n        /* \"#utility.yul\":1544:1632   */\n      mstore\n        /* \"#utility.yul\":1651:1655   */\n      0x12\n        /* \"#utility.yul\":1648:1649   */\n      0x04\n        /* \"#utility.yul\":1641:1656   */\n      mstore\n        /* \"#utility.yul\":1675:1679   */\n      0x24\n        /* \"#utility.yul\":1672:1673   */\n      0x00\n        /* \"#utility.yul\":1665:1680   */\n      revert\n        /* \"#utility.yul\":1692:1872   */\n    tag_55:\n        /* \"#utility.yul\":1740:1817   */\n      0x4e487b7100000000000000000000000000000000000000000000000000000000\n        /* \"#utility.yul\":1737:1738   */\n      0x00\n        /* \"#utility.yul\":1730:1818   */\n      mstore\n        /* \"#utility.yul\":1837:1841   */\n      0x11\n        /* \"#utility.yul\":1834:1835   */\n      0x04\n        /* \"#utility.yul\":1827:1842   */\n      mstore\n        /* \"#utility.yul\":1861:1865   */\n      0x24\n        /* \"#utility.yul\":1858:1859   */\n      0x00\n        /* \"#utility.yul\":1851:1866   */\n      revert\n        /* \"#utility.yul\":1878:2263   */\n    tag_37:\n        /* \"#utility.yul\":1917:1918   */\n      0x00\n        /* \"#utility.yul\":1934:1953   */\n      tag_78\n        /* \"#utility.yul\":1951:1952   */\n      dup3\n        /* \"#utility.yul\":1934:1953   */\n      tag_50\n      jump\t// in\n    tag_78:\n        /* \"#utility.yul\":1929:1953   */\n      swap2\n      pop\n        /* \"#utility.yul\":1967:1986   */\n      tag_79\n        /* \"#utility.yul\":1984:1985   */\n      dup4\n        /* \"#utility.yul\":1967:1986   */\n      tag_50\n      jump\t// in\n    tag_79:\n        /* \"#utility.yul\":1962:1986   */\n      swap3\n      pop\n        /* \"#utility.yul\":2005:2006   */\n      dup3\n        /* \"#utility.yul\":1995:2030   */\n      tag_80\n      jumpi\n        /* \"#utility.yul\":2010:2028   */\n      tag_81\n      tag_54\n      jump\t// in\n    tag_81:\n        /* \"#utility.yul\":1995:2030   */\n    tag_80:\n        /* \"#utility.yul\":2196:2197   */\n      0x01\n        /* \"#utility.yul\":2193:2194   */\n      0x00\n        /* \"#utility.yul\":2189:2198   */\n      sub\n        /* \"#utility.yul\":2186:2187   */\n      dup4\n        /* \"#utility.yul\":2183:2199   */\n      eq\n        /* \"#utility.yul\":2102:2168   */\n      0x8000000000000000000000000000000000000000000000000000000000000000\n        /* \"#utility.yul\":2099:2100   */\n      dup4\n        /* \"#utility.yul\":2096:2169   */\n      eq\n        /* \"#utility.yul\":2079:2209   */\n      and\n        /* \"#utility.yul\":2076:2232   */\n      iszero\n      tag_82\n      jumpi\n        /* \"#utility.yul\":2212:2230   */\n      tag_83\n      tag_55\n      jump\t// in\n    tag_83:\n        /* \"#utility.yul\":2076:2232   */\n    tag_82:\n        /* \"#utility.yul\":2255:2256   */\n      dup3\n        /* \"#utility.yul\":2252:2253   */\n      dup3\n        /* \"#utility.yul\":2247:2257   */\n      sdiv\n        /* \"#utility.yul\":2242:2257   */\n      swap1\n      pop\n        /* \"#utility.yul\":1878:2263   */\n      swap3\n      swap2\n      pop\n      pop\n      jump\t// out\n        /* \"#utility.yul\":2269:2825   */\n    tag_40:\n        /* \"#utility.yul\":2308:2315   */\n      0x00\n        /* \"#utility.yul\":2331:2350   */\n      tag_85\n        /* \"#utility.yul\":2348:2349   */\n      dup3\n        /* \"#utility.yul\":2331:2350   */\n      tag_50\n      jump\t// in\n    tag_85:\n        /* \"#utility.yul\":2326:2350   */\n      swap2\n      pop\n        /* \"#utility.yul\":2364:2383   */\n      tag_86\n        /* \"#utility.yul\":2381:2382   */\n      dup4\n        /* \"#utility.yul\":2364:2383   */\n      tag_50\n      jump\t// in\n    tag_86:\n        /* \"#utility.yul\":2359:2383   */\n      swap3\n      pop\n        /* \"#utility.yul\":2418:2419   */\n      dup3\n        /* \"#utility.yul\":2415:2416   */\n      dup3\n        /* \"#utility.yul\":2411:2420   */\n      mul\n        /* \"#utility.yul\":2440:2469   */\n      tag_87\n        /* \"#utility.yul\":2457:2468   */\n      dup2\n        /* \"#utility.yul\":2440:2469   */\n      tag_50\n      jump\t// in\n    tag_87:\n        /* \"#utility.yul\":2429:2469   */\n      swap2\n      pop\n        /* \"#utility.yul\":2527:2593   */\n      0x8000000000000000000000000000000000000000000000000000000000000000\n        /* \"#utility.yul\":2524:2525   */\n      dup5\n        /* \"#utility.yul\":2521:2594   */\n      eq\n        /* \"#utility.yul\":2517:2518   */\n      0x00\n        /* \"#utility.yul\":2514:2515   */\n      dup5\n        /* \"#utility.yul\":2510:2519   */\n      slt\n        /* \"#utility.yul\":2506:2595   */\n      and\n        /* \"#utility.yul\":2503:2618   */\n      iszero\n      tag_88\n      jumpi\n        /* \"#utility.yul\":2598:2616   */\n      tag_89\n      tag_55\n      jump\t// in\n    tag_89:\n        /* \"#utility.yul\":2503:2618   */\n    tag_88:\n        /* \"#utility.yul\":2768:2769   */\n      dup3\n        /* \"#utility.yul\":2759:2766   */\n      dup3\n        /* \"#utility.yul\":2754:2770   */\n      sdiv\n        /* \"#utility.yul\":2751:2752   */\n      dup5\n        /* \"#utility.yul\":2748:2771   */\n      eq\n        /* \"#utility.yul\":2728:2729   */\n      dup4\n        /* \"#utility.yul\":2721:2730   */\n      iszero\n        /* \"#utility.yul\":2701:2785   */\n      or\n        /* \"#utility.yul\":2678:2818   */\n      tag_90\n      jumpi\n        /* \"#utility.yul\":2798:2816   */\n      tag_91\n      tag_55\n      jump\t// in\n    tag_91:\n        /* \"#utility.yul\":2678:2818   */\n    tag_90:\n        /* \"#utility.yul\":2316:2825   */\n      pop\n        /* \"#utility.yul\":2269:2825   */\n      swap3\n      swap2\n      pop\n      pop\n      jump\t// out\n        /* \"#utility.yul\":2831:3206   */\n    tag_43:\n        /* \"#utility.yul\":2870:2873   */\n      0x00\n        /* \"#utility.yul\":2889:2908   */\n      tag_93\n        /* \"#utility.yul\":2906:2907   */\n      dup3\n        /* \"#utility.yul\":2889:2908   */\n      tag_50\n      jump\t// in\n    tag_93:\n        /* \"#utility.yul\":2884:2908   */\n      swap2\n      pop\n        /* \"#utility.yul\":2922:2941   */\n      tag_94\n        /* \"#utility.yul\":2939:2940   */\n      dup4\n        /* \"#utility.yul\":2922:2941   */\n      tag_50\n      jump\t// in\n    tag_94:\n        /* \"#utility.yul\":2917:2941   */\n      swap3\n      pop\n        /* \"#utility.yul\":2964:2965   */\n      dup3\n        /* \"#utility.yul\":2961:2962   */\n      dup3\n        /* \"#utility.yul\":2957:2966   */\n      add\n        /* \"#utility.yul\":2950:2966   */\n      swap1\n      pop\n        /* \"#utility.yul\":3162:3163   */\n      dup3\n        /* \"#utility.yul\":3157:3160   */\n      dup2\n        /* \"#utility.yul\":3153:3164   */\n      slt\n        /* \"#utility.yul\":3146:3165   */\n      iszero\n        /* \"#utility.yul\":3142:3143   */\n      0x00\n        /* \"#utility.yul\":3139:3140   */\n      dup4\n        /* \"#utility.yul\":3135:3144   */\n      slt\n        /* \"#utility.yul\":3131:3166   */\n      and\n        /* \"#utility.yul\":3114:3115   */\n      dup4\n        /* \"#utility.yul\":3109:3112   */\n      dup3\n        /* \"#utility.yul\":3105:3116   */\n      slt\n        /* \"#utility.yul\":3100:3101   */\n      0x00\n        /* \"#utility.yul\":3097:3098   */\n      dup5\n        /* \"#utility.yul\":3093:3102   */\n      slt\n        /* \"#utility.yul\":3086:3103   */\n      iszero\n        /* \"#utility.yul\":3082:3117   */\n      and\n        /* \"#utility.yul\":3066:3176   */\n      or\n        /* \"#utility.yul\":3063:3199   */\n      iszero\n      tag_95\n      jumpi\n        /* \"#utility.yul\":3179:3197   */\n      tag_96\n      tag_55\n      jump\t// in\n    tag_96:\n        /* \"#utility.yul\":3063:3199   */\n    tag_95:\n        /* \"#utility.yul\":2831:3206   */\n      swap3\n      swap2\n      pop\n      pop\n      jump\t// out\n        /* \"#utility.yul\":3212:3584   */\n    tag_46:\n        /* \"#utility.yul\":3251:3255   */\n      0x00\n        /* \"#utility.yul\":3271:3290   */\n      tag_98\n        /* \"#utility.yul\":3288:3289   */\n      dup3\n        /* \"#utility.yul\":3271:3290   */\n      tag_50\n      jump\t// in\n    tag_98:\n        /* \"#utility.yul\":3266:3290   */\n      swap2\n      pop\n        /* \"#utility.yul\":3304:3323   */\n      tag_99\n        /* \"#utility.yul\":3321:3322   */\n      dup4\n        /* \"#utility.yul\":3304:3323   */\n      tag_50\n      jump\t// in\n    tag_99:\n        /* \"#utility.yul\":3299:3323   */\n      swap3\n      pop\n        /* \"#utility.yul\":3347:3348   */\n      dup3\n        /* \"#utility.yul\":3344:3345   */\n      dup3\n        /* \"#utility.yul\":3340:3349   */\n      sub\n        /* \"#utility.yul\":3332:3349   */\n      swap1\n      pop\n        /* \"#utility.yul\":3541:3542   */\n      dup2\n        /* \"#utility.yul\":3535:3539   */\n      dup2\n        /* \"#utility.yul\":3531:3543   */\n      slt\n        /* \"#utility.yul\":3527:3528   */\n      0x00\n        /* \"#utility.yul\":3524:3525   */\n      dup5\n        /* \"#utility.yul\":3520:3529   */\n      slt\n        /* \"#utility.yul\":3516:3544   */\n      and\n        /* \"#utility.yul\":3499:3500   */\n      dup3\n        /* \"#utility.yul\":3493:3497   */\n      dup3\n        /* \"#utility.yul\":3489:3501   */\n      sgt\n        /* \"#utility.yul\":3484:3485   */\n      0x00\n        /* \"#utility.yul\":3481:3482   */\n      dup6\n        /* \"#utility.yul\":3477:3486   */\n      slt\n        /* \"#utility.yul\":3470:3487   */\n      iszero\n        /* \"#utility.yul\":3466:3502   */\n      and\n        /* \"#utility.yul\":3450:3554   */\n      or\n        /* \"#utility.yul\":3447:3577   */\n      iszero\n      tag_100\n      jumpi\n        /* \"#utility.yul\":3557:3575   */\n      tag_101\n      tag_55\n      jump\t// in\n    tag_101:\n        /* \"#utility.yul\":3447:3577   */\n    tag_100:\n        /* \"#utility.yul\":3212:3584   */\n      swap3\n      swap2\n      pop\n      pop\n      jump\t// out\n\n    auxdata: 0xa2646970667358221220ac97bf6c57f6553742315f607864a9cc8baf819df8de904b8dd6a532258a195b64736f6c634300081a0033\n}\n",
				"bytecode": {
					"linkReferences": {},
					"object": "6080604052348015600e575f80fd5b506104508061001c5f395ff3fe608060405234801561000f575f80fd5b506004361061007b575f3560e01c80633b9eac4b116100595780633b9eac4b146100d75780634026896b146100f55780634f2be91f146101135780636deebae3146101315761007b565b806309c425e81461007f57806315d4266c1461009b5780633205f5fc146100b9575b5f80fd5b610099600480360381019061009491906101fb565b61014f565b005b6100a3610160565b6040516100b09190610248565b60405180910390f35b6100c1610166565b6040516100ce9190610248565b60405180910390f35b6100df61017b565b6040516100ec9190610248565b60405180910390f35b6100fd610180565b60405161010a9190610248565b60405180910390f35b61011b610195565b6040516101289190610248565b60405180910390f35b6101396101aa565b6040516101469190610248565b60405180910390f35b815f81905550806001819055505050565b60015481565b5f6001545f5461017691906102bb565b905090565b5f5481565b5f6001545f546101909190610323565b905090565b5f6001545f546101a59190610399565b905090565b5f806001545f546101bb91906103da565b90508091505090565b5f80fd5b5f819050919050565b6101da816101c8565b81146101e4575f80fd5b50565b5f813590506101f5816101d1565b92915050565b5f8060408385031215610211576102106101c4565b5b5f61021e858286016101e7565b925050602061022f858286016101e7565b9150509250929050565b610242816101c8565b82525050565b5f60208201905061025b5f830184610239565b92915050565b7f4e487b71000000000000000000000000000000000000000000000000000000005f52601260045260245ffd5b7f4e487b71000000000000000000000000000000000000000000000000000000005f52601160045260245ffd5b5f6102c5826101c8565b91506102d0836101c8565b9250826102e0576102df610261565b5b60015f0383147f8000000000000000000000000000000000000000000000000000000000000000831416156103185761031761028e565b5b828205905092915050565b5f61032d826101c8565b9150610338836101c8565b9250828202610346816101c8565b91507f800000000000000000000000000000000000000000000000000000000000000084145f8412161561037d5761037c61028e565b5b82820584148315176103925761039161028e565b5b5092915050565b5f6103a3826101c8565b91506103ae836101c8565b92508282019050828112155f8312168382125f8412151617156103d4576103d361028e565b5b92915050565b5f6103e4826101c8565b91506103ef836101c8565b925082820390508181125f8412168282135f8512151617156104145761041361028e565b5b9291505056fea2646970667358221220ac97bf6c57f6553742315f607864a9cc8baf819df8de904b8dd6a532258a195b64736f6c634300081a0033",
					"opcodes": "PUSH1 0x80 PUSH1 0x40 MSTORE CALLVALUE DUP1 ISZERO PUSH1 0xE JUMPI PUSH0 DUP1 REVERT JUMPDEST POP PUSH2 0x450 DUP1 PUSH2 0x1C PUSH0 CODECOPY PUSH0 RETURN INVALID PUSH1 0x80 PUSH1 0x40 MSTORE CALLVALUE DUP1 ISZERO PUSH2 0xF JUMPI PUSH0 DUP1 REVERT JUMPDEST POP PUSH1 0x4 CALLDATASIZE LT PUSH2 0x7B JUMPI PUSH0 CALLDATALOAD PUSH1 0xE0 SHR DUP1 PUSH4 0x3B9EAC4B GT PUSH2 0x59 JUMPI DUP1 PUSH4 0x3B9EAC4B EQ PUSH2 0xD7 JUMPI DUP1 PUSH4 0x4026896B EQ PUSH2 0xF5 JUMPI DUP1 PUSH4 0x4F2BE91F EQ PUSH2 0x113 JUMPI DUP1 PUSH4 0x6DEEBAE3 EQ PUSH2 0x131 JUMPI PUSH2 0x7B JUMP JUMPDEST DUP1 PUSH4 0x9C425E8 EQ PUSH2 0x7F JUMPI DUP1 PUSH4 0x15D4266C EQ PUSH2 0x9B JUMPI DUP1 PUSH4 0x3205F5FC EQ PUSH2 0xB9 JUMPI JUMPDEST PUSH0 DUP1 REVERT JUMPDEST PUSH2 0x99 PUSH1 0x4 DUP1 CALLDATASIZE SUB DUP2 ADD SWAP1 PUSH2 0x94 SWAP2 SWAP1 PUSH2 0x1FB JUMP JUMPDEST PUSH2 0x14F JUMP JUMPDEST STOP JUMPDEST PUSH2 0xA3 PUSH2 0x160 JUMP JUMPDEST PUSH1 0x40 MLOAD PUSH2 0xB0 SWAP2 SWAP1 PUSH2 0x248 JUMP JUMPDEST PUSH1 0x40 MLOAD DUP1 SWAP2 SUB SWAP1 RETURN JUMPDEST PUSH2 0xC1 PUSH2 0x166 JUMP JUMPDEST PUSH1 0x40 MLOAD PUSH2 0xCE SWAP2 SWAP1 PUSH2 0x248 JUMP JUMPDEST PUSH1 0x40 MLOAD DUP1 SWAP2 SUB SWAP1 RETURN JUMPDEST PUSH2 0xDF PUSH2 0x17B JUMP JUMPDEST PUSH1 0x40 MLOAD PUSH2 0xEC SWAP2 SWAP1 PUSH2 0x248 JUMP JUMPDEST PUSH1 0x40 MLOAD DUP1 SWAP2 SUB SWAP1 RETURN JUMPDEST PUSH2 0xFD PUSH2 0x180 JUMP JUMPDEST PUSH1 0x40 MLOAD PUSH2 0x10A SWAP2 SWAP1 PUSH2 0x248 JUMP JUMPDEST PUSH1 0x40 MLOAD DUP1 SWAP2 SUB SWAP1 RETURN JUMPDEST PUSH2 0x11B PUSH2 0x195 JUMP JUMPDEST PUSH1 0x40 MLOAD PUSH2 0x128 SWAP2 SWAP1 PUSH2 0x248 JUMP JUMPDEST PUSH1 0x40 MLOAD DUP1 SWAP2 SUB SWAP1 RETURN JUMPDEST PUSH2 0x139 PUSH2 0x1AA JUMP JUMPDEST PUSH1 0x40 MLOAD PUSH2 0x146 SWAP2 SWAP1 PUSH2 0x248 JUMP JUMPDEST PUSH1 0x40 MLOAD DUP1 SWAP2 SUB SWAP1 RETURN JUMPDEST DUP2 PUSH0 DUP2 SWAP1 SSTORE POP DUP1 PUSH1 0x1 DUP2 SWAP1 SSTORE POP POP POP JUMP JUMPDEST PUSH1 0x1 SLOAD DUP2 JUMP JUMPDEST PUSH0 PUSH1 0x1 SLOAD PUSH0 SLOAD PUSH2 0x176 SWAP2 SWAP1 PUSH2 0x2BB JUMP JUMPDEST SWAP1 POP SWAP1 JUMP JUMPDEST PUSH0 SLOAD DUP2 JUMP JUMPDEST PUSH0 PUSH1 0x1 SLOAD PUSH0 SLOAD PUSH2 0x190 SWAP2 SWAP1 PUSH2 0x323 JUMP JUMPDEST SWAP1 POP SWAP1 JUMP JUMPDEST PUSH0 PUSH1 0x1 SLOAD PUSH0 SLOAD PUSH2 0x1A5 SWAP2 SWAP1 PUSH2 0x399 JUMP JUMPDEST SWAP1 POP SWAP1 JUMP JUMPDEST PUSH0 DUP1 PUSH1 0x1 SLOAD PUSH0 SLOAD PUSH2 0x1BB SWAP2 SWAP1 PUSH2 0x3DA JUMP JUMPDEST SWAP1 POP DUP1 SWAP2 POP POP SWAP1 JUMP JUMPDEST PUSH0 DUP1 REVERT JUMPDEST PUSH0 DUP2 SWAP1 POP SWAP2 SWAP1 POP JUMP JUMPDEST PUSH2 0x1DA DUP2 PUSH2 0x1C8 JUMP JUMPDEST DUP2 EQ PUSH2 0x1E4 JUMPI PUSH0 DUP1 REVERT JUMPDEST POP JUMP JUMPDEST PUSH0 DUP2 CALLDATALOAD SWAP1 POP PUSH2 0x1F5 DUP2 PUSH2 0x1D1 JUMP JUMPDEST SWAP3 SWAP2 POP POP JUMP JUMPDEST PUSH0 DUP1 PUSH1 0x40 DUP4 DUP6 SUB SLT ISZERO PUSH2 0x211 JUMPI PUSH2 0x210 PUSH2 0x1C4 JUMP JUMPDEST JUMPDEST PUSH0 PUSH2 0x21E DUP6 DUP3 DUP7 ADD PUSH2 0x1E7 JUMP JUMPDEST SWAP3 POP POP PUSH1 0x20 PUSH2 0x22F DUP6 DUP3 DUP7 ADD PUSH2 0x1E7 JUMP JUMPDEST SWAP2 POP POP SWAP3 POP SWAP3 SWAP1 POP JUMP JUMPDEST PUSH2 0x242 DUP2 PUSH2 0x1C8 JUMP JUMPDEST DUP3 MSTORE POP POP JUMP JUMPDEST PUSH0 PUSH1 0x20 DUP3 ADD SWAP1 POP PUSH2 0x25B PUSH0 DUP4 ADD DUP5 PUSH2 0x239 JUMP JUMPDEST SWAP3 SWAP2 POP POP JUMP JUMPDEST PUSH32 0x4E487B7100000000000000000000000000000000000000000000000000000000 PUSH0 MSTORE PUSH1 0x12 PUSH1 0x4 MSTORE PUSH1 0x24 PUSH0 REVERT JUMPDEST PUSH32 0x4E487B7100000000000000000000000000000000000000000000000000000000 PUSH0 MSTORE PUSH1 0x11 PUSH1 0x4 MSTORE PUSH1 0x24 PUSH0 REVERT JUMPDEST PUSH0 PUSH2 0x2C5 DUP3 PUSH2 0x1C8 JUMP JUMPDEST SWAP2 POP PUSH2 0x2D0 DUP4 PUSH2 0x1C8 JUMP JUMPDEST SWAP3 POP DUP3 PUSH2 0x2E0 JUMPI PUSH2 0x2DF PUSH2 0x261 JUMP JUMPDEST JUMPDEST PUSH1 0x1 PUSH0 SUB DUP4 EQ PUSH32 0x8000000000000000000000000000000000000000000000000000000000000000 DUP4 EQ AND ISZERO PUSH2 0x318 JUMPI PUSH2 0x317 PUSH2 0x28E JUMP JUMPDEST JUMPDEST DUP3 DUP3 SDIV SWAP1 POP SWAP3 SWAP2 POP POP JUMP JUMPDEST PUSH0 PUSH2 0x32D DUP3 PUSH2 0x1C8 JUMP JUMPDEST SWAP2 POP PUSH2 0x338 DUP4 PUSH2 0x1C8 JUMP JUMPDEST SWAP3 POP DUP3 DUP3 MUL PUSH2 0x346 DUP2 PUSH2 0x1C8 JUMP JUMPDEST SWAP2 POP PUSH32 0x8000000000000000000000000000000000000000000000000000000000000000 DUP5 EQ PUSH0 DUP5 SLT AND ISZERO PUSH2 0x37D JUMPI PUSH2 0x37C PUSH2 0x28E JUMP JUMPDEST JUMPDEST DUP3 DUP3 SDIV DUP5 EQ DUP4 ISZERO OR PUSH2 0x392 JUMPI PUSH2 0x391 PUSH2 0x28E JUMP JUMPDEST JUMPDEST POP SWAP3 SWAP2 POP POP JUMP JUMPDEST PUSH0 PUSH2 0x3A3 DUP3 PUSH2 0x1C8 JUMP JUMPDEST SWAP2 POP PUSH2 0x3AE DUP4 PUSH2 0x1C8 JUMP JUMPDEST SWAP3 POP DUP3 DUP3 ADD SWAP1 POP DUP3 DUP2 SLT ISZERO PUSH0 DUP4 SLT AND DUP4 DUP3 SLT PUSH0 DUP5 SLT ISZERO AND OR ISZERO PUSH2 0x3D4 JUMPI PUSH2 0x3D3 PUSH2 0x28E JUMP JUMPDEST JUMPDEST SWAP3 SWAP2 POP POP JUMP JUMPDEST PUSH0 PUSH2 0x3E4 DUP3 PUSH2 0x1C8 JUMP JUMPDEST SWAP2 POP PUSH2 0x3EF DUP4 PUSH2 0x1C8 JUMP JUMPDEST SWAP3 POP DUP3 DUP3 SUB SWAP1 POP DUP2 DUP2 SLT PUSH0 DUP5 SLT AND DUP3 DUP3 SGT PUSH0 DUP6 SLT ISZERO AND OR ISZERO PUSH2 0x414 JUMPI PUSH2 0x413 PUSH2 0x28E JUMP JUMPDEST JUMPDEST SWAP3 SWAP2 POP POP JUMP INVALID LOG2 PUSH5 0x6970667358 0x22 SLT KECCAK256 0xAC SWAP8 0xBF PUSH13 0x57F6553742315F607864A9CC8B 0xAF DUP2 SWAP14 0xF8 0xDE SWAP1 0x4B DUP14 0xD6 0xA5 ORIGIN 0x25 DUP11 NOT JUMPDEST PUSH5 0x736F6C6343 STOP ADDMOD BYTE STOP CALLER "
				},
				"gasEstimates": {
					"creation": {
						"codeDepositCost": "220800",
						"executionCost": "261",
						"totalCost": "221061"
					},
					"external": {
						"add()": "infinite",
						"division()": "infinite",
						"inputs(int256,int256)": "infinite",
						"multipy()": "infinite",
						"num1()": "2424",
						"num2()": "2448",
						"subtract()": "infinite"
					}
				},
				"methodIdentifiers": {
					"add()": "4f2be91f",
					"division()": "3205f5fc",
					"inputs(int256,int256)": "09c425e8",
					"multipy()": "4026896b",
					"num1()": "3b9eac4b",
					"num2()": "15d4266c",
					"subtract()": "6deebae3"
				}
			},
			"storageLayout": {
				"storage": [
					{
						"astId": 3,
						"contract": "basicArithmeticOperation/basicArithmeticOperation.sol:BasicArithmeticOperation",
						"label": "num1",
						"offset": 0,
						"slot": "0",
						"type": "t_int256"
					},
					{
						"astId": 5,
						"contract": "basicArithmeticOperation/basicArithmeticOperation.sol:BasicArithmeticOperation",
						"label": "num2",
						"offset": 0,
						"slot": "1",
						"type": "t_int256"
					}
				],
				"types": {
					"t_int256": {
						"encoding": "inplace",
						"label": "int256",
						"numberOfBytes": "32"
					}
				}
			},
			"userdoc": {
				"kind": "user",
				"methods": {},
				"version": 1
			}
		}
	}
}