{
	"arraysAndStructs/struct.sol": {
		"Structs": {
			"abi": [
				{
					"inputs": [
						{
							"internalType": "string",
							"name": "name",
							"type": "string"
						},
						{
							"internalType": "uint256",
							"name": "age",
							"type": "uint256"
						},
						{
							"internalType": "address",
							"name": "wallet_address",
							"type": "address"
						},
						{
							"internalType": "bool",
							"name": "isEther",
							"type": "bool"
						}
					],
					"name": "add_people",
					"outputs": [],
					"stateMutability": "nonpayable",
					"type": "function"
				},
				{
					"inputs": [
						{
							"internalType": "uint256",
							"name": "index",
							"type": "uint256"
						}
					],
					"name": "get_people",
					"outputs": [
						{
							"internalType": "string",
							"name": "",
							"type": "string"
						},
						{
							"internalType": "uint256",
							"name": "",
							"type": "uint256"
						},
						{
							"internalType": "address",
							"name": "",
							"type": "address"
						},
						{
							"internalType": "bool",
							"name": "",
							"type": "bool"
						}
					],
					"stateMutability": "view",
					"type": "function"
				}
			],
			"devdoc": {
				"kind": "dev",
				"methods": {},
				"version": 1
			},
			"evm": {
				"assembly": "    /* \"arraysAndStructs/struct.sol\":58:666  contract Structs {... */\n  mstore(0x40, 0x80)\n  callvalue\n  dup1\n  iszero\n  tag_1\n  jumpi\n  0x00\n  dup1\n  revert\ntag_1:\n  pop\n  dataSize(sub_0)\n  dup1\n  dataOffset(sub_0)\n  0x00\n  codecopy\n  0x00\n  return\nstop\n\nsub_0: assembly {\n        /* \"arraysAndStructs/struct.sol\":58:666  contract Structs {... */\n      mstore(0x40, 0x80)\n      callvalue\n      dup1\n      iszero\n      tag_1\n      jumpi\n      0x00\n      dup1\n      revert\n    tag_1:\n      pop\n      jumpi(tag_2, lt(calldatasize, 0x04))\n      shr(0xe0, calldataload(0x00))\n      dup1\n      0xcbe230ad\n      eq\n      tag_3\n      jumpi\n      dup1\n      0xf295b61f\n      eq\n      tag_4\n      jumpi\n    tag_2:\n      0x00\n      dup1\n      revert\n        /* \"arraysAndStructs/struct.sol\":226:448  function add_people(string memory name, uint256 age, address wallet_address, bool isEther) public {... */\n    tag_3:\n      tag_5\n      0x04\n      dup1\n      calldatasize\n      sub\n      dup2\n      add\n      swap1\n      tag_6\n      swap2\n      swap1\n      tag_7\n      jump\t// in\n    tag_6:\n      tag_8\n      jump\t// in\n    tag_5:\n      stop\n        /* \"arraysAndStructs/struct.sol\":454:664  function get_people(uint256 index) public view returns(string memory, uint256, address, bool){... */\n    tag_4:\n      tag_9\n      0x04\n      dup1\n      calldatasize\n      sub\n      dup2\n      add\n      swap1\n      tag_10\n      swap2\n      swap1\n      tag_11\n      jump\t// in\n    tag_10:\n      tag_12\n      jump\t// in\n    tag_9:\n      mload(0x40)\n      tag_13\n      swap5\n      swap4\n      swap3\n      swap2\n      swap1\n      tag_14\n      jump\t// in\n    tag_13:\n      mload(0x40)\n      dup1\n      swap2\n      sub\n      swap1\n      return\n        /* \"arraysAndStructs/struct.sol\":226:448  function add_people(string memory name, uint256 age, address wallet_address, bool isEther) public {... */\n    tag_8:\n        /* \"arraysAndStructs/struct.sol\":334:354  Person memory person */\n      tag_16\n      tag_17\n      jump\t// in\n    tag_16:\n        /* \"arraysAndStructs/struct.sol\":373:412  Person(name,age,wallet_address,isEther) */\n      mload(0x40)\n      dup1\n      0x80\n      add\n      0x40\n      mstore\n      dup1\n        /* \"arraysAndStructs/struct.sol\":380:384  name */\n      dup7\n        /* \"arraysAndStructs/struct.sol\":373:412  Person(name,age,wallet_address,isEther) */\n      dup2\n      mstore\n      0x20\n      add\n        /* \"arraysAndStructs/struct.sol\":385:388  age */\n      dup6\n        /* \"arraysAndStructs/struct.sol\":373:412  Person(name,age,wallet_address,isEther) */\n      dup2\n      mstore\n      0x20\n      add\n        /* \"arraysAndStructs/struct.sol\":389:403  wallet_address */\n      dup5\n        /* \"arraysAndStructs/struct.sol\":373:412  Person(name,age,wallet_address,isEther) */\n      0xffffffffffffffffffffffffffffffffffffffff\n      and\n      dup2\n      mstore\n      0x20\n      add\n        /* \"arraysAndStructs/struct.sol\":404:411  isEther */\n      dup4\n        /* \"arraysAndStructs/struct.sol\":373:412  Person(name,age,wallet_address,isEther) */\n      iszero\n      iszero\n      dup2\n      mstore\n      pop\n        /* \"arraysAndStructs/struct.sol\":364:412  person = Person(name,age,wallet_address,isEther) */\n      swap1\n      pop\n        /* \"arraysAndStructs/struct.sol\":422:428  people */\n      0x00\n        /* \"arraysAndStructs/struct.sol\":434:440  person */\n      dup2\n        /* \"arraysAndStructs/struct.sol\":422:441  people.push(person) */\n      swap1\n      dup1\n      0x01\n      dup2\n      sload\n      add\n      dup1\n      dup3\n      sstore\n      dup1\n      swap2\n      pop\n      pop\n      0x01\n      swap1\n      sub\n      swap1\n      0x00\n      mstore\n      keccak256(0x00, 0x20)\n      swap1\n      0x03\n      mul\n      add\n      0x00\n      swap1\n      swap2\n      swap1\n      swap2\n      swap1\n      swap2\n      pop\n      0x00\n      dup3\n      add\n      mload\n      dup2\n      0x00\n      add\n      swap1\n      dup2\n      tag_19\n      swap2\n      swap1\n      tag_20\n      jump\t// in\n    tag_19:\n      pop\n      0x20\n      dup3\n      add\n      mload\n      dup2\n      0x01\n      add\n      sstore\n      0x40\n      dup3\n      add\n      mload\n      dup2\n      0x02\n      add\n      exp(0x0100, 0x00)\n      dup2\n      sload\n      dup2\n      0xffffffffffffffffffffffffffffffffffffffff\n      mul\n      not\n      and\n      swap1\n      dup4\n      0xffffffffffffffffffffffffffffffffffffffff\n      and\n      mul\n      or\n      swap1\n      sstore\n      pop\n      0x60\n      dup3\n      add\n      mload\n      dup2\n      0x02\n      add\n      exp(0x0100, 0x14)\n      dup2\n      sload\n      dup2\n      0xff\n      mul\n      not\n      and\n      swap1\n      dup4\n      iszero\n      iszero\n      mul\n      or\n      swap1\n      sstore\n      pop\n      pop\n      pop\n        /* \"arraysAndStructs/struct.sol\":324:448  {... */\n      pop\n        /* \"arraysAndStructs/struct.sol\":226:448  function add_people(string memory name, uint256 age, address wallet_address, bool isEther) public {... */\n      pop\n      pop\n      pop\n      pop\n      jump\t// out\n        /* \"arraysAndStructs/struct.sol\":454:664  function get_people(uint256 index) public view returns(string memory, uint256, address, bool){... */\n    tag_12:\n        /* \"arraysAndStructs/struct.sol\":509:522  string memory */\n      0x60\n        /* \"arraysAndStructs/struct.sol\":524:531  uint256 */\n      0x00\n        /* \"arraysAndStructs/struct.sol\":533:540  address */\n      dup1\n        /* \"arraysAndStructs/struct.sol\":542:546  bool */\n      0x00\n        /* \"arraysAndStructs/struct.sol\":557:572  Person memory p */\n      tag_22\n      tag_17\n      jump\t// in\n    tag_22:\n        /* \"arraysAndStructs/struct.sol\":586:592  people */\n      0x00\n        /* \"arraysAndStructs/struct.sol\":593:598  index */\n      dup7\n        /* \"arraysAndStructs/struct.sol\":586:599  people[index] */\n      dup2\n      sload\n      dup2\n      lt\n      tag_23\n      jumpi\n      tag_24\n      tag_25\n      jump\t// in\n    tag_24:\n    tag_23:\n      swap1\n      0x00\n      mstore\n      keccak256(0x00, 0x20)\n      swap1\n      0x03\n      mul\n      add\n        /* \"arraysAndStructs/struct.sol\":582:599  p = people[index] */\n      mload(0x40)\n      dup1\n      0x80\n      add\n      0x40\n      mstore\n      swap1\n      dup2\n      0x00\n      dup3\n      add\n      dup1\n      sload\n      tag_27\n      swap1\n      tag_28\n      jump\t// in\n    tag_27:\n      dup1\n      0x1f\n      add\n      0x20\n      dup1\n      swap2\n      div\n      mul\n      0x20\n      add\n      mload(0x40)\n      swap1\n      dup2\n      add\n      0x40\n      mstore\n      dup1\n      swap3\n      swap2\n      swap1\n      dup2\n      dup2\n      mstore\n      0x20\n      add\n      dup3\n      dup1\n      sload\n      tag_29\n      swap1\n      tag_28\n      jump\t// in\n    tag_29:\n      dup1\n      iszero\n      tag_30\n      jumpi\n      dup1\n      0x1f\n      lt\n      tag_31\n      jumpi\n      0x0100\n      dup1\n      dup4\n      sload\n      div\n      mul\n      dup4\n      mstore\n      swap2\n      0x20\n      add\n      swap2\n      jump(tag_30)\n    tag_31:\n      dup3\n      add\n      swap2\n      swap1\n      0x00\n      mstore\n      keccak256(0x00, 0x20)\n      swap1\n    tag_32:\n      dup2\n      sload\n      dup2\n      mstore\n      swap1\n      0x01\n      add\n      swap1\n      0x20\n      add\n      dup1\n      dup4\n      gt\n      tag_32\n      jumpi\n      dup3\n      swap1\n      sub\n      0x1f\n      and\n      dup3\n      add\n      swap2\n    tag_30:\n      pop\n      pop\n      pop\n      pop\n      pop\n      dup2\n      mstore\n      0x20\n      add\n      0x01\n      dup3\n      add\n      sload\n      dup2\n      mstore\n      0x20\n      add\n      0x02\n      dup3\n      add\n      0x00\n      swap1\n      sload\n      swap1\n      0x0100\n      exp\n      swap1\n      div\n      0xffffffffffffffffffffffffffffffffffffffff\n      and\n      0xffffffffffffffffffffffffffffffffffffffff\n      and\n      0xffffffffffffffffffffffffffffffffffffffff\n      and\n      dup2\n      mstore\n      0x20\n      add\n      0x02\n      dup3\n      add\n      0x14\n      swap1\n      sload\n      swap1\n      0x0100\n      exp\n      swap1\n      div\n      0xff\n      and\n      iszero\n      iszero\n      iszero\n      iszero\n      dup2\n      mstore\n      pop\n      pop\n      swap1\n      pop\n        /* \"arraysAndStructs/struct.sol\":617:618  p */\n      dup1\n        /* \"arraysAndStructs/struct.sol\":617:623  p.name */\n      0x00\n      add\n      mload\n        /* \"arraysAndStructs/struct.sol\":624:625  p */\n      dup2\n        /* \"arraysAndStructs/struct.sol\":624:629  p.age */\n      0x20\n      add\n      mload\n        /* \"arraysAndStructs/struct.sol\":630:631  p */\n      dup3\n        /* \"arraysAndStructs/struct.sol\":630:646  p.wallet_address */\n      0x40\n      add\n      mload\n        /* \"arraysAndStructs/struct.sol\":647:648  p */\n      dup4\n        /* \"arraysAndStructs/struct.sol\":647:656  p.isEther */\n      0x60\n      add\n      mload\n        /* \"arraysAndStructs/struct.sol\":609:657  return (p.name,p.age,p.wallet_address,p.isEther) */\n      swap5\n      pop\n      swap5\n      pop\n      swap5\n      pop\n      swap5\n      pop\n      pop\n        /* \"arraysAndStructs/struct.sol\":454:664  function get_people(uint256 index) public view returns(string memory, uint256, address, bool){... */\n      swap2\n      swap4\n      pop\n      swap2\n      swap4\n      jump\t// out\n    tag_17:\n      mload(0x40)\n      dup1\n      0x80\n      add\n      0x40\n      mstore\n      dup1\n      0x60\n      dup2\n      mstore\n      0x20\n      add\n      0x00\n      dup2\n      mstore\n      0x20\n      add\n      and(0xffffffffffffffffffffffffffffffffffffffff, 0x00)\n      dup2\n      mstore\n      0x20\n      add\n      iszero(iszero(0x00))\n      dup2\n      mstore\n      pop\n      swap1\n      jump\t// out\n        /* \"#utility.yul\":7:82   */\n    tag_33:\n        /* \"#utility.yul\":40:46   */\n      0x00\n        /* \"#utility.yul\":73:75   */\n      0x40\n        /* \"#utility.yul\":67:76   */\n      mload\n        /* \"#utility.yul\":57:76   */\n      swap1\n      pop\n        /* \"#utility.yul\":7:82   */\n      swap1\n      jump\t// out\n        /* \"#utility.yul\":88:205   */\n    tag_34:\n        /* \"#utility.yul\":197:198   */\n      0x00\n        /* \"#utility.yul\":194:195   */\n      dup1\n        /* \"#utility.yul\":187:199   */\n      revert\n        /* \"#utility.yul\":211:328   */\n    tag_35:\n        /* \"#utility.yul\":320:321   */\n      0x00\n        /* \"#utility.yul\":317:318   */\n      dup1\n        /* \"#utility.yul\":310:322   */\n      revert\n        /* \"#utility.yul\":334:451   */\n    tag_36:\n        /* \"#utility.yul\":443:444   */\n      0x00\n        /* \"#utility.yul\":440:441   */\n      dup1\n        /* \"#utility.yul\":433:445   */\n      revert\n        /* \"#utility.yul\":457:574   */\n    tag_37:\n        /* \"#utility.yul\":566:567   */\n      0x00\n        /* \"#utility.yul\":563:564   */\n      dup1\n        /* \"#utility.yul\":556:568   */\n      revert\n        /* \"#utility.yul\":580:682   */\n    tag_38:\n        /* \"#utility.yul\":621:627   */\n      0x00\n        /* \"#utility.yul\":672:674   */\n      0x1f\n        /* \"#utility.yul\":668:675   */\n      not\n        /* \"#utility.yul\":663:665   */\n      0x1f\n        /* \"#utility.yul\":656:661   */\n      dup4\n        /* \"#utility.yul\":652:666   */\n      add\n        /* \"#utility.yul\":648:676   */\n      and\n        /* \"#utility.yul\":638:676   */\n      swap1\n      pop\n        /* \"#utility.yul\":580:682   */\n      swap2\n      swap1\n      pop\n      jump\t// out\n        /* \"#utility.yul\":688:868   */\n    tag_39:\n        /* \"#utility.yul\":736:813   */\n      0x4e487b7100000000000000000000000000000000000000000000000000000000\n        /* \"#utility.yul\":733:734   */\n      0x00\n        /* \"#utility.yul\":726:814   */\n      mstore\n        /* \"#utility.yul\":833:837   */\n      0x41\n        /* \"#utility.yul\":830:831   */\n      0x04\n        /* \"#utility.yul\":823:838   */\n      mstore\n        /* \"#utility.yul\":857:861   */\n      0x24\n        /* \"#utility.yul\":854:855   */\n      0x00\n        /* \"#utility.yul\":847:862   */\n      revert\n        /* \"#utility.yul\":874:1155   */\n    tag_40:\n        /* \"#utility.yul\":957:984   */\n      tag_88\n        /* \"#utility.yul\":979:983   */\n      dup3\n        /* \"#utility.yul\":957:984   */\n      tag_38\n      jump\t// in\n    tag_88:\n        /* \"#utility.yul\":949:955   */\n      dup2\n        /* \"#utility.yul\":945:985   */\n      add\n        /* \"#utility.yul\":1087:1093   */\n      dup2\n        /* \"#utility.yul\":1075:1085   */\n      dup2\n        /* \"#utility.yul\":1072:1094   */\n      lt\n        /* \"#utility.yul\":1051:1069   */\n      0xffffffffffffffff\n        /* \"#utility.yul\":1039:1049   */\n      dup3\n        /* \"#utility.yul\":1036:1070   */\n      gt\n        /* \"#utility.yul\":1033:1095   */\n      or\n        /* \"#utility.yul\":1030:1118   */\n      iszero\n      tag_89\n      jumpi\n        /* \"#utility.yul\":1098:1116   */\n      tag_90\n      tag_39\n      jump\t// in\n    tag_90:\n        /* \"#utility.yul\":1030:1118   */\n    tag_89:\n        /* \"#utility.yul\":1138:1148   */\n      dup1\n        /* \"#utility.yul\":1134:1136   */\n      0x40\n        /* \"#utility.yul\":1127:1149   */\n      mstore\n        /* \"#utility.yul\":917:1155   */\n      pop\n        /* \"#utility.yul\":874:1155   */\n      pop\n      pop\n      jump\t// out\n        /* \"#utility.yul\":1161:1290   */\n    tag_41:\n        /* \"#utility.yul\":1195:1201   */\n      0x00\n        /* \"#utility.yul\":1222:1242   */\n      tag_92\n      tag_33\n      jump\t// in\n    tag_92:\n        /* \"#utility.yul\":1212:1242   */\n      swap1\n      pop\n        /* \"#utility.yul\":1251:1284   */\n      tag_93\n        /* \"#utility.yul\":1279:1283   */\n      dup3\n        /* \"#utility.yul\":1271:1277   */\n      dup3\n        /* \"#utility.yul\":1251:1284   */\n      tag_40\n      jump\t// in\n    tag_93:\n        /* \"#utility.yul\":1161:1290   */\n      swap2\n      swap1\n      pop\n      jump\t// out\n        /* \"#utility.yul\":1296:1604   */\n    tag_42:\n        /* \"#utility.yul\":1358:1362   */\n      0x00\n        /* \"#utility.yul\":1448:1466   */\n      0xffffffffffffffff\n        /* \"#utility.yul\":1440:1446   */\n      dup3\n        /* \"#utility.yul\":1437:1467   */\n      gt\n        /* \"#utility.yul\":1434:1490   */\n      iszero\n      tag_95\n      jumpi\n        /* \"#utility.yul\":1470:1488   */\n      tag_96\n      tag_39\n      jump\t// in\n    tag_96:\n        /* \"#utility.yul\":1434:1490   */\n    tag_95:\n        /* \"#utility.yul\":1508:1537   */\n      tag_97\n        /* \"#utility.yul\":1530:1536   */\n      dup3\n        /* \"#utility.yul\":1508:1537   */\n      tag_38\n      jump\t// in\n    tag_97:\n        /* \"#utility.yul\":1500:1537   */\n      swap1\n      pop\n        /* \"#utility.yul\":1592:1596   */\n      0x20\n        /* \"#utility.yul\":1586:1590   */\n      dup2\n        /* \"#utility.yul\":1582:1597   */\n      add\n        /* \"#utility.yul\":1574:1597   */\n      swap1\n      pop\n        /* \"#utility.yul\":1296:1604   */\n      swap2\n      swap1\n      pop\n      jump\t// out\n        /* \"#utility.yul\":1610:1758   */\n    tag_43:\n        /* \"#utility.yul\":1708:1714   */\n      dup3\n        /* \"#utility.yul\":1703:1706   */\n      dup2\n        /* \"#utility.yul\":1698:1701   */\n      dup4\n        /* \"#utility.yul\":1685:1715   */\n      calldatacopy\n        /* \"#utility.yul\":1749:1750   */\n      0x00\n        /* \"#utility.yul\":1740:1746   */\n      dup4\n        /* \"#utility.yul\":1735:1738   */\n      dup4\n        /* \"#utility.yul\":1731:1747   */\n      add\n        /* \"#utility.yul\":1724:1751   */\n      mstore\n        /* \"#utility.yul\":1610:1758   */\n      pop\n      pop\n      pop\n      jump\t// out\n        /* \"#utility.yul\":1764:2189   */\n    tag_44:\n        /* \"#utility.yul\":1842:1847   */\n      0x00\n        /* \"#utility.yul\":1867:1933   */\n      tag_100\n        /* \"#utility.yul\":1883:1932   */\n      tag_101\n        /* \"#utility.yul\":1925:1931   */\n      dup5\n        /* \"#utility.yul\":1883:1932   */\n      tag_42\n      jump\t// in\n    tag_101:\n        /* \"#utility.yul\":1867:1933   */\n      tag_41\n      jump\t// in\n    tag_100:\n        /* \"#utility.yul\":1858:1933   */\n      swap1\n      pop\n        /* \"#utility.yul\":1956:1962   */\n      dup3\n        /* \"#utility.yul\":1949:1954   */\n      dup2\n        /* \"#utility.yul\":1942:1963   */\n      mstore\n        /* \"#utility.yul\":1994:1998   */\n      0x20\n        /* \"#utility.yul\":1987:1992   */\n      dup2\n        /* \"#utility.yul\":1983:1999   */\n      add\n        /* \"#utility.yul\":2032:2035   */\n      dup5\n        /* \"#utility.yul\":2023:2029   */\n      dup5\n        /* \"#utility.yul\":2018:2021   */\n      dup5\n        /* \"#utility.yul\":2014:2030   */\n      add\n        /* \"#utility.yul\":2011:2036   */\n      gt\n        /* \"#utility.yul\":2008:2120   */\n      iszero\n      tag_102\n      jumpi\n        /* \"#utility.yul\":2039:2118   */\n      tag_103\n      tag_37\n      jump\t// in\n    tag_103:\n        /* \"#utility.yul\":2008:2120   */\n    tag_102:\n        /* \"#utility.yul\":2129:2183   */\n      tag_104\n        /* \"#utility.yul\":2176:2182   */\n      dup5\n        /* \"#utility.yul\":2171:2174   */\n      dup3\n        /* \"#utility.yul\":2166:2169   */\n      dup6\n        /* \"#utility.yul\":2129:2183   */\n      tag_43\n      jump\t// in\n    tag_104:\n        /* \"#utility.yul\":1848:2189   */\n      pop\n        /* \"#utility.yul\":1764:2189   */\n      swap4\n      swap3\n      pop\n      pop\n      pop\n      jump\t// out\n        /* \"#utility.yul\":2209:2549   */\n    tag_45:\n        /* \"#utility.yul\":2265:2270   */\n      0x00\n        /* \"#utility.yul\":2314:2317   */\n      dup3\n        /* \"#utility.yul\":2307:2311   */\n      0x1f\n        /* \"#utility.yul\":2299:2305   */\n      dup4\n        /* \"#utility.yul\":2295:2312   */\n      add\n        /* \"#utility.yul\":2291:2318   */\n      slt\n        /* \"#utility.yul\":2281:2403   */\n      tag_106\n      jumpi\n        /* \"#utility.yul\":2322:2401   */\n      tag_107\n      tag_36\n      jump\t// in\n    tag_107:\n        /* \"#utility.yul\":2281:2403   */\n    tag_106:\n        /* \"#utility.yul\":2439:2445   */\n      dup2\n        /* \"#utility.yul\":2426:2446   */\n      calldataload\n        /* \"#utility.yul\":2464:2543   */\n      tag_108\n        /* \"#utility.yul\":2539:2542   */\n      dup5\n        /* \"#utility.yul\":2531:2537   */\n      dup3\n        /* \"#utility.yul\":2524:2528   */\n      0x20\n        /* \"#utility.yul\":2516:2522   */\n      dup7\n        /* \"#utility.yul\":2512:2529   */\n      add\n        /* \"#utility.yul\":2464:2543   */\n      tag_44\n      jump\t// in\n    tag_108:\n        /* \"#utility.yul\":2455:2543   */\n      swap2\n      pop\n        /* \"#utility.yul\":2271:2549   */\n      pop\n        /* \"#utility.yul\":2209:2549   */\n      swap3\n      swap2\n      pop\n      pop\n      jump\t// out\n        /* \"#utility.yul\":2555:2632   */\n    tag_46:\n        /* \"#utility.yul\":2592:2599   */\n      0x00\n        /* \"#utility.yul\":2621:2626   */\n      dup2\n        /* \"#utility.yul\":2610:2626   */\n      swap1\n      pop\n        /* \"#utility.yul\":2555:2632   */\n      swap2\n      swap1\n      pop\n      jump\t// out\n        /* \"#utility.yul\":2638:2760   */\n    tag_47:\n        /* \"#utility.yul\":2711:2735   */\n      tag_111\n        /* \"#utility.yul\":2729:2734   */\n      dup2\n        /* \"#utility.yul\":2711:2735   */\n      tag_46\n      jump\t// in\n    tag_111:\n        /* \"#utility.yul\":2704:2709   */\n      dup2\n        /* \"#utility.yul\":2701:2736   */\n      eq\n        /* \"#utility.yul\":2691:2754   */\n      tag_112\n      jumpi\n        /* \"#utility.yul\":2750:2751   */\n      0x00\n        /* \"#utility.yul\":2747:2748   */\n      dup1\n        /* \"#utility.yul\":2740:2752   */\n      revert\n        /* \"#utility.yul\":2691:2754   */\n    tag_112:\n        /* \"#utility.yul\":2638:2760   */\n      pop\n      jump\t// out\n        /* \"#utility.yul\":2766:2905   */\n    tag_48:\n        /* \"#utility.yul\":2812:2817   */\n      0x00\n        /* \"#utility.yul\":2850:2856   */\n      dup2\n        /* \"#utility.yul\":2837:2857   */\n      calldataload\n        /* \"#utility.yul\":2828:2857   */\n      swap1\n      pop\n        /* \"#utility.yul\":2866:2899   */\n      tag_114\n        /* \"#utility.yul\":2893:2898   */\n      dup2\n        /* \"#utility.yul\":2866:2899   */\n      tag_47\n      jump\t// in\n    tag_114:\n        /* \"#utility.yul\":2766:2905   */\n      swap3\n      swap2\n      pop\n      pop\n      jump\t// out\n        /* \"#utility.yul\":2911:3037   */\n    tag_49:\n        /* \"#utility.yul\":2948:2955   */\n      0x00\n        /* \"#utility.yul\":2988:3030   */\n      0xffffffffffffffffffffffffffffffffffffffff\n        /* \"#utility.yul\":2981:2986   */\n      dup3\n        /* \"#utility.yul\":2977:3031   */\n      and\n        /* \"#utility.yul\":2966:3031   */\n      swap1\n      pop\n        /* \"#utility.yul\":2911:3037   */\n      swap2\n      swap1\n      pop\n      jump\t// out\n        /* \"#utility.yul\":3043:3139   */\n    tag_50:\n        /* \"#utility.yul\":3080:3087   */\n      0x00\n        /* \"#utility.yul\":3109:3133   */\n      tag_117\n        /* \"#utility.yul\":3127:3132   */\n      dup3\n        /* \"#utility.yul\":3109:3133   */\n      tag_49\n      jump\t// in\n    tag_117:\n        /* \"#utility.yul\":3098:3133   */\n      swap1\n      pop\n        /* \"#utility.yul\":3043:3139   */\n      swap2\n      swap1\n      pop\n      jump\t// out\n        /* \"#utility.yul\":3145:3267   */\n    tag_51:\n        /* \"#utility.yul\":3218:3242   */\n      tag_119\n        /* \"#utility.yul\":3236:3241   */\n      dup2\n        /* \"#utility.yul\":3218:3242   */\n      tag_50\n      jump\t// in\n    tag_119:\n        /* \"#utility.yul\":3211:3216   */\n      dup2\n        /* \"#utility.yul\":3208:3243   */\n      eq\n        /* \"#utility.yul\":3198:3261   */\n      tag_120\n      jumpi\n        /* \"#utility.yul\":3257:3258   */\n      0x00\n        /* \"#utility.yul\":3254:3255   */\n      dup1\n        /* \"#utility.yul\":3247:3259   */\n      revert\n        /* \"#utility.yul\":3198:3261   */\n    tag_120:\n        /* \"#utility.yul\":3145:3267   */\n      pop\n      jump\t// out\n        /* \"#utility.yul\":3273:3412   */\n    tag_52:\n        /* \"#utility.yul\":3319:3324   */\n      0x00\n        /* \"#utility.yul\":3357:3363   */\n      dup2\n        /* \"#utility.yul\":3344:3364   */\n      calldataload\n        /* \"#utility.yul\":3335:3364   */\n      swap1\n      pop\n        /* \"#utility.yul\":3373:3406   */\n      tag_122\n        /* \"#utility.yul\":3400:3405   */\n      dup2\n        /* \"#utility.yul\":3373:3406   */\n      tag_51\n      jump\t// in\n    tag_122:\n        /* \"#utility.yul\":3273:3412   */\n      swap3\n      swap2\n      pop\n      pop\n      jump\t// out\n        /* \"#utility.yul\":3418:3508   */\n    tag_53:\n        /* \"#utility.yul\":3452:3459   */\n      0x00\n        /* \"#utility.yul\":3495:3500   */\n      dup2\n        /* \"#utility.yul\":3488:3501   */\n      iszero\n        /* \"#utility.yul\":3481:3502   */\n      iszero\n        /* \"#utility.yul\":3470:3502   */\n      swap1\n      pop\n        /* \"#utility.yul\":3418:3508   */\n      swap2\n      swap1\n      pop\n      jump\t// out\n        /* \"#utility.yul\":3514:3630   */\n    tag_54:\n        /* \"#utility.yul\":3584:3605   */\n      tag_125\n        /* \"#utility.yul\":3599:3604   */\n      dup2\n        /* \"#utility.yul\":3584:3605   */\n      tag_53\n      jump\t// in\n    tag_125:\n        /* \"#utility.yul\":3577:3582   */\n      dup2\n        /* \"#utility.yul\":3574:3606   */\n      eq\n        /* \"#utility.yul\":3564:3624   */\n      tag_126\n      jumpi\n        /* \"#utility.yul\":3620:3621   */\n      0x00\n        /* \"#utility.yul\":3617:3618   */\n      dup1\n        /* \"#utility.yul\":3610:3622   */\n      revert\n        /* \"#utility.yul\":3564:3624   */\n    tag_126:\n        /* \"#utility.yul\":3514:3630   */\n      pop\n      jump\t// out\n        /* \"#utility.yul\":3636:3769   */\n    tag_55:\n        /* \"#utility.yul\":3679:3684   */\n      0x00\n        /* \"#utility.yul\":3717:3723   */\n      dup2\n        /* \"#utility.yul\":3704:3724   */\n      calldataload\n        /* \"#utility.yul\":3695:3724   */\n      swap1\n      pop\n        /* \"#utility.yul\":3733:3763   */\n      tag_128\n        /* \"#utility.yul\":3757:3762   */\n      dup2\n        /* \"#utility.yul\":3733:3763   */\n      tag_54\n      jump\t// in\n    tag_128:\n        /* \"#utility.yul\":3636:3769   */\n      swap3\n      swap2\n      pop\n      pop\n      jump\t// out\n        /* \"#utility.yul\":3775:4714   */\n    tag_7:\n        /* \"#utility.yul\":3868:3874   */\n      0x00\n        /* \"#utility.yul\":3876:3882   */\n      dup1\n        /* \"#utility.yul\":3884:3890   */\n      0x00\n        /* \"#utility.yul\":3892:3898   */\n      dup1\n        /* \"#utility.yul\":3941:3944   */\n      0x80\n        /* \"#utility.yul\":3929:3938   */\n      dup6\n        /* \"#utility.yul\":3920:3927   */\n      dup8\n        /* \"#utility.yul\":3916:3939   */\n      sub\n        /* \"#utility.yul\":3912:3945   */\n      slt\n        /* \"#utility.yul\":3909:4029   */\n      iszero\n      tag_130\n      jumpi\n        /* \"#utility.yul\":3948:4027   */\n      tag_131\n      tag_34\n      jump\t// in\n    tag_131:\n        /* \"#utility.yul\":3909:4029   */\n    tag_130:\n        /* \"#utility.yul\":4096:4097   */\n      0x00\n        /* \"#utility.yul\":4085:4094   */\n      dup6\n        /* \"#utility.yul\":4081:4098   */\n      add\n        /* \"#utility.yul\":4068:4099   */\n      calldataload\n        /* \"#utility.yul\":4126:4144   */\n      0xffffffffffffffff\n        /* \"#utility.yul\":4118:4124   */\n      dup2\n        /* \"#utility.yul\":4115:4145   */\n      gt\n        /* \"#utility.yul\":4112:4229   */\n      iszero\n      tag_132\n      jumpi\n        /* \"#utility.yul\":4148:4227   */\n      tag_133\n      tag_35\n      jump\t// in\n    tag_133:\n        /* \"#utility.yul\":4112:4229   */\n    tag_132:\n        /* \"#utility.yul\":4253:4316   */\n      tag_134\n        /* \"#utility.yul\":4308:4315   */\n      dup8\n        /* \"#utility.yul\":4299:4305   */\n      dup3\n        /* \"#utility.yul\":4288:4297   */\n      dup9\n        /* \"#utility.yul\":4284:4306   */\n      add\n        /* \"#utility.yul\":4253:4316   */\n      tag_45\n      jump\t// in\n    tag_134:\n        /* \"#utility.yul\":4243:4316   */\n      swap5\n      pop\n        /* \"#utility.yul\":4039:4326   */\n      pop\n        /* \"#utility.yul\":4365:4367   */\n      0x20\n        /* \"#utility.yul\":4391:4444   */\n      tag_135\n        /* \"#utility.yul\":4436:4443   */\n      dup8\n        /* \"#utility.yul\":4427:4433   */\n      dup3\n        /* \"#utility.yul\":4416:4425   */\n      dup9\n        /* \"#utility.yul\":4412:4434   */\n      add\n        /* \"#utility.yul\":4391:4444   */\n      tag_48\n      jump\t// in\n    tag_135:\n        /* \"#utility.yul\":4381:4444   */\n      swap4\n      pop\n        /* \"#utility.yul\":4336:4454   */\n      pop\n        /* \"#utility.yul\":4493:4495   */\n      0x40\n        /* \"#utility.yul\":4519:4572   */\n      tag_136\n        /* \"#utility.yul\":4564:4571   */\n      dup8\n        /* \"#utility.yul\":4555:4561   */\n      dup3\n        /* \"#utility.yul\":4544:4553   */\n      dup9\n        /* \"#utility.yul\":4540:4562   */\n      add\n        /* \"#utility.yul\":4519:4572   */\n      tag_52\n      jump\t// in\n    tag_136:\n        /* \"#utility.yul\":4509:4572   */\n      swap3\n      pop\n        /* \"#utility.yul\":4464:4582   */\n      pop\n        /* \"#utility.yul\":4621:4623   */\n      0x60\n        /* \"#utility.yul\":4647:4697   */\n      tag_137\n        /* \"#utility.yul\":4689:4696   */\n      dup8\n        /* \"#utility.yul\":4680:4686   */\n      dup3\n        /* \"#utility.yul\":4669:4678   */\n      dup9\n        /* \"#utility.yul\":4665:4687   */\n      add\n        /* \"#utility.yul\":4647:4697   */\n      tag_55\n      jump\t// in\n    tag_137:\n        /* \"#utility.yul\":4637:4697   */\n      swap2\n      pop\n        /* \"#utility.yul\":4592:4707   */\n      pop\n        /* \"#utility.yul\":3775:4714   */\n      swap3\n      swap6\n      swap2\n      swap5\n      pop\n      swap3\n      pop\n      jump\t// out\n        /* \"#utility.yul\":4720:5049   */\n    tag_11:\n        /* \"#utility.yul\":4779:4785   */\n      0x00\n        /* \"#utility.yul\":4828:4830   */\n      0x20\n        /* \"#utility.yul\":4816:4825   */\n      dup3\n        /* \"#utility.yul\":4807:4814   */\n      dup5\n        /* \"#utility.yul\":4803:4826   */\n      sub\n        /* \"#utility.yul\":4799:4831   */\n      slt\n        /* \"#utility.yul\":4796:4915   */\n      iszero\n      tag_139\n      jumpi\n        /* \"#utility.yul\":4834:4913   */\n      tag_140\n      tag_34\n      jump\t// in\n    tag_140:\n        /* \"#utility.yul\":4796:4915   */\n    tag_139:\n        /* \"#utility.yul\":4954:4955   */\n      0x00\n        /* \"#utility.yul\":4979:5032   */\n      tag_141\n        /* \"#utility.yul\":5024:5031   */\n      dup5\n        /* \"#utility.yul\":5015:5021   */\n      dup3\n        /* \"#utility.yul\":5004:5013   */\n      dup6\n        /* \"#utility.yul\":5000:5022   */\n      add\n        /* \"#utility.yul\":4979:5032   */\n      tag_48\n      jump\t// in\n    tag_141:\n        /* \"#utility.yul\":4969:5032   */\n      swap2\n      pop\n        /* \"#utility.yul\":4925:5042   */\n      pop\n        /* \"#utility.yul\":4720:5049   */\n      swap3\n      swap2\n      pop\n      pop\n      jump\t// out\n        /* \"#utility.yul\":5055:5154   */\n    tag_56:\n        /* \"#utility.yul\":5107:5113   */\n      0x00\n        /* \"#utility.yul\":5141:5146   */\n      dup2\n        /* \"#utility.yul\":5135:5147   */\n      mload\n        /* \"#utility.yul\":5125:5147   */\n      swap1\n      pop\n        /* \"#utility.yul\":5055:5154   */\n      swap2\n      swap1\n      pop\n      jump\t// out\n        /* \"#utility.yul\":5160:5329   */\n    tag_57:\n        /* \"#utility.yul\":5244:5255   */\n      0x00\n        /* \"#utility.yul\":5278:5284   */\n      dup3\n        /* \"#utility.yul\":5273:5276   */\n      dup3\n        /* \"#utility.yul\":5266:5285   */\n      mstore\n        /* \"#utility.yul\":5318:5322   */\n      0x20\n        /* \"#utility.yul\":5313:5316   */\n      dup3\n        /* \"#utility.yul\":5309:5323   */\n      add\n        /* \"#utility.yul\":5294:5323   */\n      swap1\n      pop\n        /* \"#utility.yul\":5160:5329   */\n      swap3\n      swap2\n      pop\n      pop\n      jump\t// out\n        /* \"#utility.yul\":5335:5474   */\n    tag_58:\n        /* \"#utility.yul\":5424:5430   */\n      dup3\n        /* \"#utility.yul\":5419:5422   */\n      dup2\n        /* \"#utility.yul\":5414:5417   */\n      dup4\n        /* \"#utility.yul\":5408:5431   */\n      mcopy\n        /* \"#utility.yul\":5465:5466   */\n      0x00\n        /* \"#utility.yul\":5456:5462   */\n      dup4\n        /* \"#utility.yul\":5451:5454   */\n      dup4\n        /* \"#utility.yul\":5447:5463   */\n      add\n        /* \"#utility.yul\":5440:5467   */\n      mstore\n        /* \"#utility.yul\":5335:5474   */\n      pop\n      pop\n      pop\n      jump\t// out\n        /* \"#utility.yul\":5480:5857   */\n    tag_59:\n        /* \"#utility.yul\":5568:5571   */\n      0x00\n        /* \"#utility.yul\":5596:5635   */\n      tag_146\n        /* \"#utility.yul\":5629:5634   */\n      dup3\n        /* \"#utility.yul\":5596:5635   */\n      tag_56\n      jump\t// in\n    tag_146:\n        /* \"#utility.yul\":5651:5722   */\n      tag_147\n        /* \"#utility.yul\":5715:5721   */\n      dup2\n        /* \"#utility.yul\":5710:5713   */\n      dup6\n        /* \"#utility.yul\":5651:5722   */\n      tag_57\n      jump\t// in\n    tag_147:\n        /* \"#utility.yul\":5644:5722   */\n      swap4\n      pop\n        /* \"#utility.yul\":5731:5796   */\n      tag_148\n        /* \"#utility.yul\":5789:5795   */\n      dup2\n        /* \"#utility.yul\":5784:5787   */\n      dup6\n        /* \"#utility.yul\":5777:5781   */\n      0x20\n        /* \"#utility.yul\":5770:5775   */\n      dup7\n        /* \"#utility.yul\":5766:5782   */\n      add\n        /* \"#utility.yul\":5731:5796   */\n      tag_58\n      jump\t// in\n    tag_148:\n        /* \"#utility.yul\":5821:5850   */\n      tag_149\n        /* \"#utility.yul\":5843:5849   */\n      dup2\n        /* \"#utility.yul\":5821:5850   */\n      tag_38\n      jump\t// in\n    tag_149:\n        /* \"#utility.yul\":5816:5819   */\n      dup5\n        /* \"#utility.yul\":5812:5851   */\n      add\n        /* \"#utility.yul\":5805:5851   */\n      swap2\n      pop\n        /* \"#utility.yul\":5572:5857   */\n      pop\n        /* \"#utility.yul\":5480:5857   */\n      swap3\n      swap2\n      pop\n      pop\n      jump\t// out\n        /* \"#utility.yul\":5863:5981   */\n    tag_60:\n        /* \"#utility.yul\":5950:5974   */\n      tag_151\n        /* \"#utility.yul\":5968:5973   */\n      dup2\n        /* \"#utility.yul\":5950:5974   */\n      tag_46\n      jump\t// in\n    tag_151:\n        /* \"#utility.yul\":5945:5948   */\n      dup3\n        /* \"#utility.yul\":5938:5975   */\n      mstore\n        /* \"#utility.yul\":5863:5981   */\n      pop\n      pop\n      jump\t// out\n        /* \"#utility.yul\":5987:6105   */\n    tag_61:\n        /* \"#utility.yul\":6074:6098   */\n      tag_153\n        /* \"#utility.yul\":6092:6097   */\n      dup2\n        /* \"#utility.yul\":6074:6098   */\n      tag_50\n      jump\t// in\n    tag_153:\n        /* \"#utility.yul\":6069:6072   */\n      dup3\n        /* \"#utility.yul\":6062:6099   */\n      mstore\n        /* \"#utility.yul\":5987:6105   */\n      pop\n      pop\n      jump\t// out\n        /* \"#utility.yul\":6111:6220   */\n    tag_62:\n        /* \"#utility.yul\":6192:6213   */\n      tag_155\n        /* \"#utility.yul\":6207:6212   */\n      dup2\n        /* \"#utility.yul\":6192:6213   */\n      tag_53\n      jump\t// in\n    tag_155:\n        /* \"#utility.yul\":6187:6190   */\n      dup3\n        /* \"#utility.yul\":6180:6214   */\n      mstore\n        /* \"#utility.yul\":6111:6220   */\n      pop\n      pop\n      jump\t// out\n        /* \"#utility.yul\":6226:6858   */\n    tag_14:\n        /* \"#utility.yul\":6417:6421   */\n      0x00\n        /* \"#utility.yul\":6455:6458   */\n      0x80\n        /* \"#utility.yul\":6444:6453   */\n      dup3\n        /* \"#utility.yul\":6440:6459   */\n      add\n        /* \"#utility.yul\":6432:6459   */\n      swap1\n      pop\n        /* \"#utility.yul\":6505:6514   */\n      dup2\n        /* \"#utility.yul\":6499:6503   */\n      dup2\n        /* \"#utility.yul\":6495:6515   */\n      sub\n        /* \"#utility.yul\":6491:6492   */\n      0x00\n        /* \"#utility.yul\":6480:6489   */\n      dup4\n        /* \"#utility.yul\":6476:6493   */\n      add\n        /* \"#utility.yul\":6469:6516   */\n      mstore\n        /* \"#utility.yul\":6533:6611   */\n      tag_157\n        /* \"#utility.yul\":6606:6610   */\n      dup2\n        /* \"#utility.yul\":6597:6603   */\n      dup8\n        /* \"#utility.yul\":6533:6611   */\n      tag_59\n      jump\t// in\n    tag_157:\n        /* \"#utility.yul\":6525:6611   */\n      swap1\n      pop\n        /* \"#utility.yul\":6621:6693   */\n      tag_158\n        /* \"#utility.yul\":6689:6691   */\n      0x20\n        /* \"#utility.yul\":6678:6687   */\n      dup4\n        /* \"#utility.yul\":6674:6692   */\n      add\n        /* \"#utility.yul\":6665:6671   */\n      dup7\n        /* \"#utility.yul\":6621:6693   */\n      tag_60\n      jump\t// in\n    tag_158:\n        /* \"#utility.yul\":6703:6775   */\n      tag_159\n        /* \"#utility.yul\":6771:6773   */\n      0x40\n        /* \"#utility.yul\":6760:6769   */\n      dup4\n        /* \"#utility.yul\":6756:6774   */\n      add\n        /* \"#utility.yul\":6747:6753   */\n      dup6\n        /* \"#utility.yul\":6703:6775   */\n      tag_61\n      jump\t// in\n    tag_159:\n        /* \"#utility.yul\":6785:6851   */\n      tag_160\n        /* \"#utility.yul\":6847:6849   */\n      0x60\n        /* \"#utility.yul\":6836:6845   */\n      dup4\n        /* \"#utility.yul\":6832:6850   */\n      add\n        /* \"#utility.yul\":6823:6829   */\n      dup5\n        /* \"#utility.yul\":6785:6851   */\n      tag_62\n      jump\t// in\n    tag_160:\n        /* \"#utility.yul\":6226:6858   */\n      swap6\n      swap5\n      pop\n      pop\n      pop\n      pop\n      pop\n      jump\t// out\n        /* \"#utility.yul\":6864:7044   */\n    tag_63:\n        /* \"#utility.yul\":6912:6989   */\n      0x4e487b7100000000000000000000000000000000000000000000000000000000\n        /* \"#utility.yul\":6909:6910   */\n      0x00\n        /* \"#utility.yul\":6902:6990   */\n      mstore\n        /* \"#utility.yul\":7009:7013   */\n      0x22\n        /* \"#utility.yul\":7006:7007   */\n      0x04\n        /* \"#utility.yul\":6999:7014   */\n      mstore\n        /* \"#utility.yul\":7033:7037   */\n      0x24\n        /* \"#utility.yul\":7030:7031   */\n      0x00\n        /* \"#utility.yul\":7023:7038   */\n      revert\n        /* \"#utility.yul\":7050:7370   */\n    tag_28:\n        /* \"#utility.yul\":7094:7100   */\n      0x00\n        /* \"#utility.yul\":7131:7132   */\n      0x02\n        /* \"#utility.yul\":7125:7129   */\n      dup3\n        /* \"#utility.yul\":7121:7133   */\n      div\n        /* \"#utility.yul\":7111:7133   */\n      swap1\n      pop\n        /* \"#utility.yul\":7178:7179   */\n      0x01\n        /* \"#utility.yul\":7172:7176   */\n      dup3\n        /* \"#utility.yul\":7168:7180   */\n      and\n        /* \"#utility.yul\":7199:7217   */\n      dup1\n        /* \"#utility.yul\":7189:7270   */\n      tag_163\n      jumpi\n        /* \"#utility.yul\":7255:7259   */\n      0x7f\n        /* \"#utility.yul\":7247:7253   */\n      dup3\n        /* \"#utility.yul\":7243:7260   */\n      and\n        /* \"#utility.yul\":7233:7260   */\n      swap2\n      pop\n        /* \"#utility.yul\":7189:7270   */\n    tag_163:\n        /* \"#utility.yul\":7317:7319   */\n      0x20\n        /* \"#utility.yul\":7309:7315   */\n      dup3\n        /* \"#utility.yul\":7306:7320   */\n      lt\n        /* \"#utility.yul\":7286:7304   */\n      dup2\n        /* \"#utility.yul\":7283:7321   */\n      sub\n        /* \"#utility.yul\":7280:7364   */\n      tag_164\n      jumpi\n        /* \"#utility.yul\":7336:7354   */\n      tag_165\n      tag_63\n      jump\t// in\n    tag_165:\n        /* \"#utility.yul\":7280:7364   */\n    tag_164:\n        /* \"#utility.yul\":7101:7370   */\n      pop\n        /* \"#utility.yul\":7050:7370   */\n      swap2\n      swap1\n      pop\n      jump\t// out\n        /* \"#utility.yul\":7376:7517   */\n    tag_64:\n        /* \"#utility.yul\":7425:7429   */\n      0x00\n        /* \"#utility.yul\":7448:7451   */\n      dup2\n        /* \"#utility.yul\":7440:7451   */\n      swap1\n      pop\n        /* \"#utility.yul\":7471:7474   */\n      dup2\n        /* \"#utility.yul\":7468:7469   */\n      0x00\n        /* \"#utility.yul\":7461:7475   */\n      mstore\n        /* \"#utility.yul\":7505:7509   */\n      0x20\n        /* \"#utility.yul\":7502:7503   */\n      0x00\n        /* \"#utility.yul\":7492:7510   */\n      keccak256\n        /* \"#utility.yul\":7484:7510   */\n      swap1\n      pop\n        /* \"#utility.yul\":7376:7517   */\n      swap2\n      swap1\n      pop\n      jump\t// out\n        /* \"#utility.yul\":7523:7616   */\n    tag_65:\n        /* \"#utility.yul\":7560:7566   */\n      0x00\n        /* \"#utility.yul\":7607:7609   */\n      0x20\n        /* \"#utility.yul\":7602:7604   */\n      0x1f\n        /* \"#utility.yul\":7595:7600   */\n      dup4\n        /* \"#utility.yul\":7591:7605   */\n      add\n        /* \"#utility.yul\":7587:7610   */\n      div\n        /* \"#utility.yul\":7577:7610   */\n      swap1\n      pop\n        /* \"#utility.yul\":7523:7616   */\n      swap2\n      swap1\n      pop\n      jump\t// out\n        /* \"#utility.yul\":7622:7729   */\n    tag_66:\n        /* \"#utility.yul\":7666:7674   */\n      0x00\n        /* \"#utility.yul\":7716:7721   */\n      dup3\n        /* \"#utility.yul\":7710:7714   */\n      dup3\n        /* \"#utility.yul\":7706:7722   */\n      shl\n        /* \"#utility.yul\":7685:7722   */\n      swap1\n      pop\n        /* \"#utility.yul\":7622:7729   */\n      swap3\n      swap2\n      pop\n      pop\n      jump\t// out\n        /* \"#utility.yul\":7735:8128   */\n    tag_67:\n        /* \"#utility.yul\":7804:7810   */\n      0x00\n        /* \"#utility.yul\":7854:7855   */\n      0x08\n        /* \"#utility.yul\":7842:7852   */\n      dup4\n        /* \"#utility.yul\":7838:7856   */\n      mul\n        /* \"#utility.yul\":7877:7974   */\n      tag_170\n        /* \"#utility.yul\":7907:7973   */\n      0xffffffffffffffffffffffffffffffffffffffffffffffffffffffffffffffff\n        /* \"#utility.yul\":7896:7905   */\n      dup3\n        /* \"#utility.yul\":7877:7974   */\n      tag_66\n      jump\t// in\n    tag_170:\n        /* \"#utility.yul\":7995:8034   */\n      tag_171\n        /* \"#utility.yul\":8025:8033   */\n      dup7\n        /* \"#utility.yul\":8014:8023   */\n      dup4\n        /* \"#utility.yul\":7995:8034   */\n      tag_66\n      jump\t// in\n    tag_171:\n        /* \"#utility.yul\":7983:8034   */\n      swap6\n      pop\n        /* \"#utility.yul\":8067:8071   */\n      dup1\n        /* \"#utility.yul\":8063:8072   */\n      not\n        /* \"#utility.yul\":8056:8061   */\n      dup5\n        /* \"#utility.yul\":8052:8073   */\n      and\n        /* \"#utility.yul\":8043:8073   */\n      swap4\n      pop\n        /* \"#utility.yul\":8116:8120   */\n      dup1\n        /* \"#utility.yul\":8106:8114   */\n      dup7\n        /* \"#utility.yul\":8102:8121   */\n      and\n        /* \"#utility.yul\":8095:8100   */\n      dup5\n        /* \"#utility.yul\":8092:8122   */\n      or\n        /* \"#utility.yul\":8082:8122   */\n      swap3\n      pop\n        /* \"#utility.yul\":7811:8128   */\n      pop\n      pop\n        /* \"#utility.yul\":7735:8128   */\n      swap4\n      swap3\n      pop\n      pop\n      pop\n      jump\t// out\n        /* \"#utility.yul\":8134:8194   */\n    tag_68:\n        /* \"#utility.yul\":8162:8165   */\n      0x00\n        /* \"#utility.yul\":8183:8188   */\n      dup2\n        /* \"#utility.yul\":8176:8188   */\n      swap1\n      pop\n        /* \"#utility.yul\":8134:8194   */\n      swap2\n      swap1\n      pop\n      jump\t// out\n        /* \"#utility.yul\":8200:8342   */\n    tag_69:\n        /* \"#utility.yul\":8250:8259   */\n      0x00\n        /* \"#utility.yul\":8283:8336   */\n      tag_174\n        /* \"#utility.yul\":8301:8335   */\n      tag_175\n        /* \"#utility.yul\":8310:8334   */\n      tag_176\n        /* \"#utility.yul\":8328:8333   */\n      dup5\n        /* \"#utility.yul\":8310:8334   */\n      tag_46\n      jump\t// in\n    tag_176:\n        /* \"#utility.yul\":8301:8335   */\n      tag_68\n      jump\t// in\n    tag_175:\n        /* \"#utility.yul\":8283:8336   */\n      tag_46\n      jump\t// in\n    tag_174:\n        /* \"#utility.yul\":8270:8336   */\n      swap1\n      pop\n        /* \"#utility.yul\":8200:8342   */\n      swap2\n      swap1\n      pop\n      jump\t// out\n        /* \"#utility.yul\":8348:8423   */\n    tag_70:\n        /* \"#utility.yul\":8391:8394   */\n      0x00\n        /* \"#utility.yul\":8412:8417   */\n      dup2\n        /* \"#utility.yul\":8405:8417   */\n      swap1\n      pop\n        /* \"#utility.yul\":8348:8423   */\n      swap2\n      swap1\n      pop\n      jump\t// out\n        /* \"#utility.yul\":8429:8698   */\n    tag_71:\n        /* \"#utility.yul\":8539:8578   */\n      tag_179\n        /* \"#utility.yul\":8570:8577   */\n      dup4\n        /* \"#utility.yul\":8539:8578   */\n      tag_69\n      jump\t// in\n    tag_179:\n        /* \"#utility.yul\":8600:8691   */\n      tag_180\n        /* \"#utility.yul\":8649:8690   */\n      tag_181\n        /* \"#utility.yul\":8673:8689   */\n      dup3\n        /* \"#utility.yul\":8649:8690   */\n      tag_70\n      jump\t// in\n    tag_181:\n        /* \"#utility.yul\":8641:8647   */\n      dup5\n        /* \"#utility.yul\":8634:8638   */\n      dup5\n        /* \"#utility.yul\":8628:8639   */\n      sload\n        /* \"#utility.yul\":8600:8691   */\n      tag_67\n      jump\t// in\n    tag_180:\n        /* \"#utility.yul\":8594:8598   */\n      dup3\n        /* \"#utility.yul\":8587:8692   */\n      sstore\n        /* \"#utility.yul\":8505:8698   */\n      pop\n        /* \"#utility.yul\":8429:8698   */\n      pop\n      pop\n      pop\n      jump\t// out\n        /* \"#utility.yul\":8704:8777   */\n    tag_72:\n        /* \"#utility.yul\":8749:8752   */\n      0x00\n        /* \"#utility.yul\":8704:8777   */\n      swap1\n      jump\t// out\n        /* \"#utility.yul\":8783:8972   */\n    tag_73:\n        /* \"#utility.yul\":8860:8892   */\n      tag_184\n      tag_72\n      jump\t// in\n    tag_184:\n        /* \"#utility.yul\":8901:8966   */\n      tag_185\n        /* \"#utility.yul\":8959:8965   */\n      dup2\n        /* \"#utility.yul\":8951:8957   */\n      dup5\n        /* \"#utility.yul\":8945:8949   */\n      dup5\n        /* \"#utility.yul\":8901:8966   */\n      tag_71\n      jump\t// in\n    tag_185:\n        /* \"#utility.yul\":8836:8972   */\n      pop\n        /* \"#utility.yul\":8783:8972   */\n      pop\n      pop\n      jump\t// out\n        /* \"#utility.yul\":8978:9164   */\n    tag_74:\n        /* \"#utility.yul\":9038:9158   */\n    tag_187:\n        /* \"#utility.yul\":9055:9058   */\n      dup2\n        /* \"#utility.yul\":9048:9053   */\n      dup2\n        /* \"#utility.yul\":9045:9059   */\n      lt\n        /* \"#utility.yul\":9038:9158   */\n      iszero\n      tag_189\n      jumpi\n        /* \"#utility.yul\":9109:9148   */\n      tag_190\n        /* \"#utility.yul\":9146:9147   */\n      0x00\n        /* \"#utility.yul\":9139:9144   */\n      dup3\n        /* \"#utility.yul\":9109:9148   */\n      tag_73\n      jump\t// in\n    tag_190:\n        /* \"#utility.yul\":9082:9083   */\n      0x01\n        /* \"#utility.yul\":9075:9080   */\n      dup2\n        /* \"#utility.yul\":9071:9084   */\n      add\n        /* \"#utility.yul\":9062:9084   */\n      swap1\n      pop\n        /* \"#utility.yul\":9038:9158   */\n      jump(tag_187)\n    tag_189:\n        /* \"#utility.yul\":8978:9164   */\n      pop\n      pop\n      jump\t// out\n        /* \"#utility.yul\":9170:9713   */\n    tag_75:\n        /* \"#utility.yul\":9271:9273   */\n      0x1f\n        /* \"#utility.yul\":9266:9269   */\n      dup3\n        /* \"#utility.yul\":9263:9274   */\n      gt\n        /* \"#utility.yul\":9260:9706   */\n      iszero\n      tag_192\n      jumpi\n        /* \"#utility.yul\":9305:9343   */\n      tag_193\n        /* \"#utility.yul\":9337:9342   */\n      dup2\n        /* \"#utility.yul\":9305:9343   */\n      tag_64\n      jump\t// in\n    tag_193:\n        /* \"#utility.yul\":9389:9418   */\n      tag_194\n        /* \"#utility.yul\":9407:9417   */\n      dup5\n        /* \"#utility.yul\":9389:9418   */\n      tag_65\n      jump\t// in\n    tag_194:\n        /* \"#utility.yul\":9379:9387   */\n      dup2\n        /* \"#utility.yul\":9375:9419   */\n      add\n        /* \"#utility.yul\":9572:9574   */\n      0x20\n        /* \"#utility.yul\":9560:9570   */\n      dup6\n        /* \"#utility.yul\":9557:9575   */\n      lt\n        /* \"#utility.yul\":9554:9603   */\n      iszero\n      tag_195\n      jumpi\n        /* \"#utility.yul\":9593:9601   */\n      dup2\n        /* \"#utility.yul\":9578:9601   */\n      swap1\n      pop\n        /* \"#utility.yul\":9554:9603   */\n    tag_195:\n        /* \"#utility.yul\":9616:9696   */\n      tag_196\n        /* \"#utility.yul\":9672:9694   */\n      tag_197\n        /* \"#utility.yul\":9690:9693   */\n      dup6\n        /* \"#utility.yul\":9672:9694   */\n      tag_65\n      jump\t// in\n    tag_197:\n        /* \"#utility.yul\":9662:9670   */\n      dup4\n        /* \"#utility.yul\":9658:9695   */\n      add\n        /* \"#utility.yul\":9645:9656   */\n      dup3\n        /* \"#utility.yul\":9616:9696   */\n      tag_74\n      jump\t// in\n    tag_196:\n        /* \"#utility.yul\":9275:9706   */\n      pop\n      pop\n        /* \"#utility.yul\":9260:9706   */\n    tag_192:\n        /* \"#utility.yul\":9170:9713   */\n      pop\n      pop\n      pop\n      jump\t// out\n        /* \"#utility.yul\":9719:9836   */\n    tag_76:\n        /* \"#utility.yul\":9773:9781   */\n      0x00\n        /* \"#utility.yul\":9823:9828   */\n      dup3\n        /* \"#utility.yul\":9817:9821   */\n      dup3\n        /* \"#utility.yul\":9813:9829   */\n      shr\n        /* \"#utility.yul\":9792:9829   */\n      swap1\n      pop\n        /* \"#utility.yul\":9719:9836   */\n      swap3\n      swap2\n      pop\n      pop\n      jump\t// out\n        /* \"#utility.yul\":9842:10011   */\n    tag_77:\n        /* \"#utility.yul\":9886:9892   */\n      0x00\n        /* \"#utility.yul\":9919:9970   */\n      tag_200\n        /* \"#utility.yul\":9967:9968   */\n      0x00\n        /* \"#utility.yul\":9963:9969   */\n      not\n        /* \"#utility.yul\":9955:9960   */\n      dup5\n        /* \"#utility.yul\":9952:9953   */\n      0x08\n        /* \"#utility.yul\":9948:9961   */\n      mul\n        /* \"#utility.yul\":9919:9970   */\n      tag_76\n      jump\t// in\n    tag_200:\n        /* \"#utility.yul\":9915:9971   */\n      not\n        /* \"#utility.yul\":10000:10004   */\n      dup1\n        /* \"#utility.yul\":9994:9998   */\n      dup4\n        /* \"#utility.yul\":9990:10005   */\n      and\n        /* \"#utility.yul\":9980:10005   */\n      swap2\n      pop\n        /* \"#utility.yul\":9893:10011   */\n      pop\n        /* \"#utility.yul\":9842:10011   */\n      swap3\n      swap2\n      pop\n      pop\n      jump\t// out\n        /* \"#utility.yul\":10016:10311   */\n    tag_78:\n        /* \"#utility.yul\":10092:10096   */\n      0x00\n        /* \"#utility.yul\":10238:10267   */\n      tag_202\n        /* \"#utility.yul\":10263:10266   */\n      dup4\n        /* \"#utility.yul\":10257:10261   */\n      dup4\n        /* \"#utility.yul\":10238:10267   */\n      tag_77\n      jump\t// in\n    tag_202:\n        /* \"#utility.yul\":10230:10267   */\n      swap2\n      pop\n        /* \"#utility.yul\":10300:10303   */\n      dup3\n        /* \"#utility.yul\":10297:10298   */\n      0x02\n        /* \"#utility.yul\":10293:10304   */\n      mul\n        /* \"#utility.yul\":10287:10291   */\n      dup3\n        /* \"#utility.yul\":10284:10305   */\n      or\n        /* \"#utility.yul\":10276:10305   */\n      swap1\n      pop\n        /* \"#utility.yul\":10016:10311   */\n      swap3\n      swap2\n      pop\n      pop\n      jump\t// out\n        /* \"#utility.yul\":10316:11711   */\n    tag_20:\n        /* \"#utility.yul\":10433:10470   */\n      tag_204\n        /* \"#utility.yul\":10466:10469   */\n      dup3\n        /* \"#utility.yul\":10433:10470   */\n      tag_56\n      jump\t// in\n    tag_204:\n        /* \"#utility.yul\":10535:10553   */\n      0xffffffffffffffff\n        /* \"#utility.yul\":10527:10533   */\n      dup2\n        /* \"#utility.yul\":10524:10554   */\n      gt\n        /* \"#utility.yul\":10521:10577   */\n      iszero\n      tag_205\n      jumpi\n        /* \"#utility.yul\":10557:10575   */\n      tag_206\n      tag_39\n      jump\t// in\n    tag_206:\n        /* \"#utility.yul\":10521:10577   */\n    tag_205:\n        /* \"#utility.yul\":10601:10639   */\n      tag_207\n        /* \"#utility.yul\":10633:10637   */\n      dup3\n        /* \"#utility.yul\":10627:10638   */\n      sload\n        /* \"#utility.yul\":10601:10639   */\n      tag_28\n      jump\t// in\n    tag_207:\n        /* \"#utility.yul\":10686:10753   */\n      tag_208\n        /* \"#utility.yul\":10746:10752   */\n      dup3\n        /* \"#utility.yul\":10738:10744   */\n      dup3\n        /* \"#utility.yul\":10732:10736   */\n      dup6\n        /* \"#utility.yul\":10686:10753   */\n      tag_75\n      jump\t// in\n    tag_208:\n        /* \"#utility.yul\":10780:10781   */\n      0x00\n        /* \"#utility.yul\":10804:10808   */\n      0x20\n        /* \"#utility.yul\":10791:10808   */\n      swap1\n      pop\n        /* \"#utility.yul\":10836:10838   */\n      0x1f\n        /* \"#utility.yul\":10828:10834   */\n      dup4\n        /* \"#utility.yul\":10825:10839   */\n      gt\n        /* \"#utility.yul\":10853:10854   */\n      0x01\n        /* \"#utility.yul\":10848:11466   */\n      dup2\n      eq\n      tag_210\n      jumpi\n        /* \"#utility.yul\":11510:11511   */\n      0x00\n        /* \"#utility.yul\":11527:11533   */\n      dup5\n        /* \"#utility.yul\":11524:11601   */\n      iszero\n      tag_211\n      jumpi\n        /* \"#utility.yul\":11576:11585   */\n      dup3\n        /* \"#utility.yul\":11571:11574   */\n      dup8\n        /* \"#utility.yul\":11567:11586   */\n      add\n        /* \"#utility.yul\":11561:11587   */\n      mload\n        /* \"#utility.yul\":11552:11587   */\n      swap1\n      pop\n        /* \"#utility.yul\":11524:11601   */\n    tag_211:\n        /* \"#utility.yul\":11627:11694   */\n      tag_212\n        /* \"#utility.yul\":11687:11693   */\n      dup6\n        /* \"#utility.yul\":11680:11685   */\n      dup3\n        /* \"#utility.yul\":11627:11694   */\n      tag_78\n      jump\t// in\n    tag_212:\n        /* \"#utility.yul\":11621:11625   */\n      dup7\n        /* \"#utility.yul\":11614:11695   */\n      sstore\n        /* \"#utility.yul\":11483:11705   */\n      pop\n        /* \"#utility.yul\":10818:11705   */\n      jump(tag_209)\n        /* \"#utility.yul\":10848:11466   */\n    tag_210:\n        /* \"#utility.yul\":10900:10904   */\n      0x1f\n        /* \"#utility.yul\":10896:10905   */\n      not\n        /* \"#utility.yul\":10888:10894   */\n      dup5\n        /* \"#utility.yul\":10884:10906   */\n      and\n        /* \"#utility.yul\":10934:10971   */\n      tag_213\n        /* \"#utility.yul\":10966:10970   */\n      dup7\n        /* \"#utility.yul\":10934:10971   */\n      tag_64\n      jump\t// in\n    tag_213:\n        /* \"#utility.yul\":10993:10994   */\n      0x00\n        /* \"#utility.yul\":11007:11215   */\n    tag_214:\n        /* \"#utility.yul\":11021:11028   */\n      dup3\n        /* \"#utility.yul\":11018:11019   */\n      dup2\n        /* \"#utility.yul\":11015:11029   */\n      lt\n        /* \"#utility.yul\":11007:11215   */\n      iszero\n      tag_216\n      jumpi\n        /* \"#utility.yul\":11100:11109   */\n      dup5\n        /* \"#utility.yul\":11095:11098   */\n      dup10\n        /* \"#utility.yul\":11091:11110   */\n      add\n        /* \"#utility.yul\":11085:11111   */\n      mload\n        /* \"#utility.yul\":11077:11083   */\n      dup3\n        /* \"#utility.yul\":11070:11112   */\n      sstore\n        /* \"#utility.yul\":11151:11152   */\n      0x01\n        /* \"#utility.yul\":11143:11149   */\n      dup3\n        /* \"#utility.yul\":11139:11153   */\n      add\n        /* \"#utility.yul\":11129:11153   */\n      swap2\n      pop\n        /* \"#utility.yul\":11198:11200   */\n      0x20\n        /* \"#utility.yul\":11187:11196   */\n      dup6\n        /* \"#utility.yul\":11183:11201   */\n      add\n        /* \"#utility.yul\":11170:11201   */\n      swap5\n      pop\n        /* \"#utility.yul\":11044:11048   */\n      0x20\n        /* \"#utility.yul\":11041:11042   */\n      dup2\n        /* \"#utility.yul\":11037:11049   */\n      add\n        /* \"#utility.yul\":11032:11049   */\n      swap1\n      pop\n        /* \"#utility.yul\":11007:11215   */\n      jump(tag_214)\n    tag_216:\n        /* \"#utility.yul\":11243:11249   */\n      dup7\n        /* \"#utility.yul\":11234:11241   */\n      dup4\n        /* \"#utility.yul\":11231:11250   */\n      lt\n        /* \"#utility.yul\":11228:11407   */\n      iszero\n      tag_217\n      jumpi\n        /* \"#utility.yul\":11301:11310   */\n      dup5\n        /* \"#utility.yul\":11296:11299   */\n      dup10\n        /* \"#utility.yul\":11292:11311   */\n      add\n        /* \"#utility.yul\":11286:11312   */\n      mload\n        /* \"#utility.yul\":11344:11392   */\n      tag_218\n        /* \"#utility.yul\":11386:11390   */\n      0x1f\n        /* \"#utility.yul\":11378:11384   */\n      dup10\n        /* \"#utility.yul\":11374:11391   */\n      and\n        /* \"#utility.yul\":11363:11372   */\n      dup3\n        /* \"#utility.yul\":11344:11392   */\n      tag_77\n      jump\t// in\n    tag_218:\n        /* \"#utility.yul\":11336:11342   */\n      dup4\n        /* \"#utility.yul\":11329:11393   */\n      sstore\n        /* \"#utility.yul\":11251:11407   */\n      pop\n        /* \"#utility.yul\":11228:11407   */\n    tag_217:\n        /* \"#utility.yul\":11453:11454   */\n      0x01\n        /* \"#utility.yul\":11449:11450   */\n      0x02\n        /* \"#utility.yul\":11441:11447   */\n      dup9\n        /* \"#utility.yul\":11437:11451   */\n      mul\n        /* \"#utility.yul\":11433:11455   */\n      add\n        /* \"#utility.yul\":11427:11431   */\n      dup9\n        /* \"#utility.yul\":11420:11456   */\n      sstore\n        /* \"#utility.yul\":10855:11466   */\n      pop\n      pop\n      pop\n        /* \"#utility.yul\":10818:11705   */\n    tag_209:\n      pop\n        /* \"#utility.yul\":10408:11711   */\n      pop\n      pop\n      pop\n        /* \"#utility.yul\":10316:11711   */\n      pop\n      pop\n      jump\t// out\n        /* \"#utility.yul\":11717:11897   */\n    tag_25:\n        /* \"#utility.yul\":11765:11842   */\n      0x4e487b7100000000000000000000000000000000000000000000000000000000\n        /* \"#utility.yul\":11762:11763   */\n      0x00\n        /* \"#utility.yul\":11755:11843   */\n      mstore\n        /* \"#utility.yul\":11862:11866   */\n      0x32\n        /* \"#utility.yul\":11859:11860   */\n      0x04\n        /* \"#utility.yul\":11852:11867   */\n      mstore\n        /* \"#utility.yul\":11886:11890   */\n      0x24\n        /* \"#utility.yul\":11883:11884   */\n      0x00\n        /* \"#utility.yul\":11876:11891   */\n      revert\n\n    auxdata: 0xa264697066735822122065c01ef89424393a5c30b4d14f37530261b28094429879691c2d15b33b7cf1df64736f6c634300081a0033\n}\n",
				"bytecode": {
					"linkReferences": {},
					"object": "6080604052348015600e575f80fd5b506109de8061001c5f395ff3fe608060405234801561000f575f80fd5b5060043610610034575f3560e01c8063cbe230ad14610038578063f295b61f14610054575b5f80fd5b610052600480360381019061004d9190610530565b610087565b005b61006e600480360381019061006991906105b0565b61017f565b60405161007e9493929190610668565b60405180910390f35b61008f6102e4565b60405180608001604052808681526020018581526020018473ffffffffffffffffffffffffffffffffffffffff16815260200183151581525090505f81908060018154018082558091505060019003905f5260205f2090600302015f909190919091505f820151815f01908161010591906108ac565b50602082015181600101556040820151816002015f6101000a81548173ffffffffffffffffffffffffffffffffffffffff021916908373ffffffffffffffffffffffffffffffffffffffff16021790555060608201518160020160146101000a81548160ff02191690831515021790555050505050505050565b60605f805f61018c6102e4565b5f868154811061019f5761019e61097b565b5b905f5260205f2090600302016040518060800160405290815f820180546101c5906106df565b80601f01602080910402602001604051908101604052809291908181526020018280546101f1906106df565b801561023c5780601f106102135761010080835404028352916020019161023c565b820191905f5260205f20905b81548152906001019060200180831161021f57829003601f168201915b5050505050815260200160018201548152602001600282015f9054906101000a900473ffffffffffffffffffffffffffffffffffffffff1673ffffffffffffffffffffffffffffffffffffffff1673ffffffffffffffffffffffffffffffffffffffff1681526020016002820160149054906101000a900460ff1615151515815250509050805f01518160200151826040015183606001519450945094509450509193509193565b6040518060800160405280606081526020015f81526020015f73ffffffffffffffffffffffffffffffffffffffff1681526020015f151581525090565b5f604051905090565b5f80fd5b5f80fd5b5f80fd5b5f80fd5b5f601f19601f8301169050919050565b7f4e487b71000000000000000000000000000000000000000000000000000000005f52604160045260245ffd5b6103808261033a565b810181811067ffffffffffffffff8211171561039f5761039e61034a565b5b80604052505050565b5f6103b1610321565b90506103bd8282610377565b919050565b5f67ffffffffffffffff8211156103dc576103db61034a565b5b6103e58261033a565b9050602081019050919050565b828183375f83830152505050565b5f61041261040d846103c2565b6103a8565b90508281526020810184848401111561042e5761042d610336565b5b6104398482856103f2565b509392505050565b5f82601f83011261045557610454610332565b5b8135610465848260208601610400565b91505092915050565b5f819050919050565b6104808161046e565b811461048a575f80fd5b50565b5f8135905061049b81610477565b92915050565b5f73ffffffffffffffffffffffffffffffffffffffff82169050919050565b5f6104ca826104a1565b9050919050565b6104da816104c0565b81146104e4575f80fd5b50565b5f813590506104f5816104d1565b92915050565b5f8115159050919050565b61050f816104fb565b8114610519575f80fd5b50565b5f8135905061052a81610506565b92915050565b5f805f80608085870312156105485761054761032a565b5b5f85013567ffffffffffffffff8111156105655761056461032e565b5b61057187828801610441565b94505060206105828782880161048d565b9350506040610593878288016104e7565b92505060606105a48782880161051c565b91505092959194509250565b5f602082840312156105c5576105c461032a565b5b5f6105d28482850161048d565b91505092915050565b5f81519050919050565b5f82825260208201905092915050565b8281835e5f83830152505050565b5f61060d826105db565b61061781856105e5565b93506106278185602086016105f5565b6106308161033a565b840191505092915050565b6106448161046e565b82525050565b610653816104c0565b82525050565b610662816104fb565b82525050565b5f6080820190508181035f8301526106808187610603565b905061068f602083018661063b565b61069c604083018561064a565b6106a96060830184610659565b95945050505050565b7f4e487b71000000000000000000000000000000000000000000000000000000005f52602260045260245ffd5b5f60028204905060018216806106f657607f821691505b602082108103610709576107086106b2565b5b50919050565b5f819050815f5260205f209050919050565b5f6020601f8301049050919050565b5f82821b905092915050565b5f6008830261076b7fffffffffffffffffffffffffffffffffffffffffffffffffffffffffffffffff82610730565b6107758683610730565b95508019841693508086168417925050509392505050565b5f819050919050565b5f6107b06107ab6107a68461046e565b61078d565b61046e565b9050919050565b5f819050919050565b6107c983610796565b6107dd6107d5826107b7565b84845461073c565b825550505050565b5f90565b6107f16107e5565b6107fc8184846107c0565b505050565b5b8181101561081f576108145f826107e9565b600181019050610802565b5050565b601f821115610864576108358161070f565b61083e84610721565b8101602085101561084d578190505b61086161085985610721565b830182610801565b50505b505050565b5f82821c905092915050565b5f6108845f1984600802610869565b1980831691505092915050565b5f61089c8383610875565b9150826002028217905092915050565b6108b5826105db565b67ffffffffffffffff8111156108ce576108cd61034a565b5b6108d882546106df565b6108e3828285610823565b5f60209050601f831160018114610914575f8415610902578287015190505b61090c8582610891565b865550610973565b601f1984166109228661070f565b5f5b8281101561094957848901518255600182019150602085019450602081019050610924565b868310156109665784890151610962601f891682610875565b8355505b6001600288020188555050505b505050505050565b7f4e487b71000000000000000000000000000000000000000000000000000000005f52603260045260245ffdfea264697066735822122065c01ef89424393a5c30b4d14f37530261b28094429879691c2d15b33b7cf1df64736f6c634300081a0033",
					"opcodes": "PUSH1 0x80 PUSH1 0x40 MSTORE CALLVALUE DUP1 ISZERO PUSH1 0xE JUMPI PUSH0 DUP1 REVERT JUMPDEST POP PUSH2 0x9DE DUP1 PUSH2 0x1C PUSH0 CODECOPY PUSH0 RETURN INVALID PUSH1 0x80 PUSH1 0x40 MSTORE CALLVALUE DUP1 ISZERO PUSH2 0xF JUMPI PUSH0 DUP1 REVERT JUMPDEST POP PUSH1 0x4 CALLDATASIZE LT PUSH2 0x34 JUMPI PUSH0 CALLDATALOAD PUSH1 0xE0 SHR DUP1 PUSH4 0xCBE230AD EQ PUSH2 0x38 JUMPI DUP1 PUSH4 0xF295B61F EQ PUSH2 0x54 JUMPI JUMPDEST PUSH0 DUP1 REVERT JUMPDEST PUSH2 0x52 PUSH1 0x4 DUP1 CALLDATASIZE SUB DUP2 ADD SWAP1 PUSH2 0x4D SWAP2 SWAP1 PUSH2 0x530 JUMP JUMPDEST PUSH2 0x87 JUMP JUMPDEST STOP JUMPDEST PUSH2 0x6E PUSH1 0x4 DUP1 CALLDATASIZE SUB DUP2 ADD SWAP1 PUSH2 0x69 SWAP2 SWAP1 PUSH2 0x5B0 JUMP JUMPDEST PUSH2 0x17F JUMP JUMPDEST PUSH1 0x40 MLOAD PUSH2 0x7E SWAP5 SWAP4 SWAP3 SWAP2 SWAP1 PUSH2 0x668 JUMP JUMPDEST PUSH1 0x40 MLOAD DUP1 SWAP2 SUB SWAP1 RETURN JUMPDEST PUSH2 0x8F PUSH2 0x2E4 JUMP JUMPDEST PUSH1 0x40 MLOAD DUP1 PUSH1 0x80 ADD PUSH1 0x40 MSTORE DUP1 DUP7 DUP2 MSTORE PUSH1 0x20 ADD DUP6 DUP2 MSTORE PUSH1 0x20 ADD DUP5 PUSH20 0xFFFFFFFFFFFFFFFFFFFFFFFFFFFFFFFFFFFFFFFF AND DUP2 MSTORE PUSH1 0x20 ADD DUP4 ISZERO ISZERO DUP2 MSTORE POP SWAP1 POP PUSH0 DUP2 SWAP1 DUP1 PUSH1 0x1 DUP2 SLOAD ADD DUP1 DUP3 SSTORE DUP1 SWAP2 POP POP PUSH1 0x1 SWAP1 SUB SWAP1 PUSH0 MSTORE PUSH1 0x20 PUSH0 KECCAK256 SWAP1 PUSH1 0x3 MUL ADD PUSH0 SWAP1 SWAP2 SWAP1 SWAP2 SWAP1 SWAP2 POP PUSH0 DUP3 ADD MLOAD DUP2 PUSH0 ADD SWAP1 DUP2 PUSH2 0x105 SWAP2 SWAP1 PUSH2 0x8AC JUMP JUMPDEST POP PUSH1 0x20 DUP3 ADD MLOAD DUP2 PUSH1 0x1 ADD SSTORE PUSH1 0x40 DUP3 ADD MLOAD DUP2 PUSH1 0x2 ADD PUSH0 PUSH2 0x100 EXP DUP2 SLOAD DUP2 PUSH20 0xFFFFFFFFFFFFFFFFFFFFFFFFFFFFFFFFFFFFFFFF MUL NOT AND SWAP1 DUP4 PUSH20 0xFFFFFFFFFFFFFFFFFFFFFFFFFFFFFFFFFFFFFFFF AND MUL OR SWAP1 SSTORE POP PUSH1 0x60 DUP3 ADD MLOAD DUP2 PUSH1 0x2 ADD PUSH1 0x14 PUSH2 0x100 EXP DUP2 SLOAD DUP2 PUSH1 0xFF MUL NOT AND SWAP1 DUP4 ISZERO ISZERO MUL OR SWAP1 SSTORE POP POP POP POP POP POP POP POP JUMP JUMPDEST PUSH1 0x60 PUSH0 DUP1 PUSH0 PUSH2 0x18C PUSH2 0x2E4 JUMP JUMPDEST PUSH0 DUP7 DUP2 SLOAD DUP2 LT PUSH2 0x19F JUMPI PUSH2 0x19E PUSH2 0x97B JUMP JUMPDEST JUMPDEST SWAP1 PUSH0 MSTORE PUSH1 0x20 PUSH0 KECCAK256 SWAP1 PUSH1 0x3 MUL ADD PUSH1 0x40 MLOAD DUP1 PUSH1 0x80 ADD PUSH1 0x40 MSTORE SWAP1 DUP2 PUSH0 DUP3 ADD DUP1 SLOAD PUSH2 0x1C5 SWAP1 PUSH2 0x6DF JUMP JUMPDEST DUP1 PUSH1 0x1F ADD PUSH1 0x20 DUP1 SWAP2 DIV MUL PUSH1 0x20 ADD PUSH1 0x40 MLOAD SWAP1 DUP2 ADD PUSH1 0x40 MSTORE DUP1 SWAP3 SWAP2 SWAP1 DUP2 DUP2 MSTORE PUSH1 0x20 ADD DUP3 DUP1 SLOAD PUSH2 0x1F1 SWAP1 PUSH2 0x6DF JUMP JUMPDEST DUP1 ISZERO PUSH2 0x23C JUMPI DUP1 PUSH1 0x1F LT PUSH2 0x213 JUMPI PUSH2 0x100 DUP1 DUP4 SLOAD DIV MUL DUP4 MSTORE SWAP2 PUSH1 0x20 ADD SWAP2 PUSH2 0x23C JUMP JUMPDEST DUP3 ADD SWAP2 SWAP1 PUSH0 MSTORE PUSH1 0x20 PUSH0 KECCAK256 SWAP1 JUMPDEST DUP2 SLOAD DUP2 MSTORE SWAP1 PUSH1 0x1 ADD SWAP1 PUSH1 0x20 ADD DUP1 DUP4 GT PUSH2 0x21F JUMPI DUP3 SWAP1 SUB PUSH1 0x1F AND DUP3 ADD SWAP2 JUMPDEST POP POP POP POP POP DUP2 MSTORE PUSH1 0x20 ADD PUSH1 0x1 DUP3 ADD SLOAD DUP2 MSTORE PUSH1 0x20 ADD PUSH1 0x2 DUP3 ADD PUSH0 SWAP1 SLOAD SWAP1 PUSH2 0x100 EXP SWAP1 DIV PUSH20 0xFFFFFFFFFFFFFFFFFFFFFFFFFFFFFFFFFFFFFFFF AND PUSH20 0xFFFFFFFFFFFFFFFFFFFFFFFFFFFFFFFFFFFFFFFF AND PUSH20 0xFFFFFFFFFFFFFFFFFFFFFFFFFFFFFFFFFFFFFFFF AND DUP2 MSTORE PUSH1 0x20 ADD PUSH1 0x2 DUP3 ADD PUSH1 0x14 SWAP1 SLOAD SWAP1 PUSH2 0x100 EXP SWAP1 DIV PUSH1 0xFF AND ISZERO ISZERO ISZERO ISZERO DUP2 MSTORE POP POP SWAP1 POP DUP1 PUSH0 ADD MLOAD DUP2 PUSH1 0x20 ADD MLOAD DUP3 PUSH1 0x40 ADD MLOAD DUP4 PUSH1 0x60 ADD MLOAD SWAP5 POP SWAP5 POP SWAP5 POP SWAP5 POP POP SWAP2 SWAP4 POP SWAP2 SWAP4 JUMP JUMPDEST PUSH1 0x40 MLOAD DUP1 PUSH1 0x80 ADD PUSH1 0x40 MSTORE DUP1 PUSH1 0x60 DUP2 MSTORE PUSH1 0x20 ADD PUSH0 DUP2 MSTORE PUSH1 0x20 ADD PUSH0 PUSH20 0xFFFFFFFFFFFFFFFFFFFFFFFFFFFFFFFFFFFFFFFF AND DUP2 MSTORE PUSH1 0x20 ADD PUSH0 ISZERO ISZERO DUP2 MSTORE POP SWAP1 JUMP JUMPDEST PUSH0 PUSH1 0x40 MLOAD SWAP1 POP SWAP1 JUMP JUMPDEST PUSH0 DUP1 REVERT JUMPDEST PUSH0 DUP1 REVERT JUMPDEST PUSH0 DUP1 REVERT JUMPDEST PUSH0 DUP1 REVERT JUMPDEST PUSH0 PUSH1 0x1F NOT PUSH1 0x1F DUP4 ADD AND SWAP1 POP SWAP2 SWAP1 POP JUMP JUMPDEST PUSH32 0x4E487B7100000000000000000000000000000000000000000000000000000000 PUSH0 MSTORE PUSH1 0x41 PUSH1 0x4 MSTORE PUSH1 0x24 PUSH0 REVERT JUMPDEST PUSH2 0x380 DUP3 PUSH2 0x33A JUMP JUMPDEST DUP2 ADD DUP2 DUP2 LT PUSH8 0xFFFFFFFFFFFFFFFF DUP3 GT OR ISZERO PUSH2 0x39F JUMPI PUSH2 0x39E PUSH2 0x34A JUMP JUMPDEST JUMPDEST DUP1 PUSH1 0x40 MSTORE POP POP POP JUMP JUMPDEST PUSH0 PUSH2 0x3B1 PUSH2 0x321 JUMP JUMPDEST SWAP1 POP PUSH2 0x3BD DUP3 DUP3 PUSH2 0x377 JUMP JUMPDEST SWAP2 SWAP1 POP JUMP JUMPDEST PUSH0 PUSH8 0xFFFFFFFFFFFFFFFF DUP3 GT ISZERO PUSH2 0x3DC JUMPI PUSH2 0x3DB PUSH2 0x34A JUMP JUMPDEST JUMPDEST PUSH2 0x3E5 DUP3 PUSH2 0x33A JUMP JUMPDEST SWAP1 POP PUSH1 0x20 DUP2 ADD SWAP1 POP SWAP2 SWAP1 POP JUMP JUMPDEST DUP3 DUP2 DUP4 CALLDATACOPY PUSH0 DUP4 DUP4 ADD MSTORE POP POP POP JUMP JUMPDEST PUSH0 PUSH2 0x412 PUSH2 0x40D DUP5 PUSH2 0x3C2 JUMP JUMPDEST PUSH2 0x3A8 JUMP JUMPDEST SWAP1 POP DUP3 DUP2 MSTORE PUSH1 0x20 DUP2 ADD DUP5 DUP5 DUP5 ADD GT ISZERO PUSH2 0x42E JUMPI PUSH2 0x42D PUSH2 0x336 JUMP JUMPDEST JUMPDEST PUSH2 0x439 DUP5 DUP3 DUP6 PUSH2 0x3F2 JUMP JUMPDEST POP SWAP4 SWAP3 POP POP POP JUMP JUMPDEST PUSH0 DUP3 PUSH1 0x1F DUP4 ADD SLT PUSH2 0x455 JUMPI PUSH2 0x454 PUSH2 0x332 JUMP JUMPDEST JUMPDEST DUP2 CALLDATALOAD PUSH2 0x465 DUP5 DUP3 PUSH1 0x20 DUP7 ADD PUSH2 0x400 JUMP JUMPDEST SWAP2 POP POP SWAP3 SWAP2 POP POP JUMP JUMPDEST PUSH0 DUP2 SWAP1 POP SWAP2 SWAP1 POP JUMP JUMPDEST PUSH2 0x480 DUP2 PUSH2 0x46E JUMP JUMPDEST DUP2 EQ PUSH2 0x48A JUMPI PUSH0 DUP1 REVERT JUMPDEST POP JUMP JUMPDEST PUSH0 DUP2 CALLDATALOAD SWAP1 POP PUSH2 0x49B DUP2 PUSH2 0x477 JUMP JUMPDEST SWAP3 SWAP2 POP POP JUMP JUMPDEST PUSH0 PUSH20 0xFFFFFFFFFFFFFFFFFFFFFFFFFFFFFFFFFFFFFFFF DUP3 AND SWAP1 POP SWAP2 SWAP1 POP JUMP JUMPDEST PUSH0 PUSH2 0x4CA DUP3 PUSH2 0x4A1 JUMP JUMPDEST SWAP1 POP SWAP2 SWAP1 POP JUMP JUMPDEST PUSH2 0x4DA DUP2 PUSH2 0x4C0 JUMP JUMPDEST DUP2 EQ PUSH2 0x4E4 JUMPI PUSH0 DUP1 REVERT JUMPDEST POP JUMP JUMPDEST PUSH0 DUP2 CALLDATALOAD SWAP1 POP PUSH2 0x4F5 DUP2 PUSH2 0x4D1 JUMP JUMPDEST SWAP3 SWAP2 POP POP JUMP JUMPDEST PUSH0 DUP2 ISZERO ISZERO SWAP1 POP SWAP2 SWAP1 POP JUMP JUMPDEST PUSH2 0x50F DUP2 PUSH2 0x4FB JUMP JUMPDEST DUP2 EQ PUSH2 0x519 JUMPI PUSH0 DUP1 REVERT JUMPDEST POP JUMP JUMPDEST PUSH0 DUP2 CALLDATALOAD SWAP1 POP PUSH2 0x52A DUP2 PUSH2 0x506 JUMP JUMPDEST SWAP3 SWAP2 POP POP JUMP JUMPDEST PUSH0 DUP1 PUSH0 DUP1 PUSH1 0x80 DUP6 DUP8 SUB SLT ISZERO PUSH2 0x548 JUMPI PUSH2 0x547 PUSH2 0x32A JUMP JUMPDEST JUMPDEST PUSH0 DUP6 ADD CALLDATALOAD PUSH8 0xFFFFFFFFFFFFFFFF DUP2 GT ISZERO PUSH2 0x565 JUMPI PUSH2 0x564 PUSH2 0x32E JUMP JUMPDEST JUMPDEST PUSH2 0x571 DUP8 DUP3 DUP9 ADD PUSH2 0x441 JUMP JUMPDEST SWAP5 POP POP PUSH1 0x20 PUSH2 0x582 DUP8 DUP3 DUP9 ADD PUSH2 0x48D JUMP JUMPDEST SWAP4 POP POP PUSH1 0x40 PUSH2 0x593 DUP8 DUP3 DUP9 ADD PUSH2 0x4E7 JUMP JUMPDEST SWAP3 POP POP PUSH1 0x60 PUSH2 0x5A4 DUP8 DUP3 DUP9 ADD PUSH2 0x51C JUMP JUMPDEST SWAP2 POP POP SWAP3 SWAP6 SWAP2 SWAP5 POP SWAP3 POP JUMP JUMPDEST PUSH0 PUSH1 0x20 DUP3 DUP5 SUB SLT ISZERO PUSH2 0x5C5 JUMPI PUSH2 0x5C4 PUSH2 0x32A JUMP JUMPDEST JUMPDEST PUSH0 PUSH2 0x5D2 DUP5 DUP3 DUP6 ADD PUSH2 0x48D JUMP JUMPDEST SWAP2 POP POP SWAP3 SWAP2 POP POP JUMP JUMPDEST PUSH0 DUP2 MLOAD SWAP1 POP SWAP2 SWAP1 POP JUMP JUMPDEST PUSH0 DUP3 DUP3 MSTORE PUSH1 0x20 DUP3 ADD SWAP1 POP SWAP3 SWAP2 POP POP JUMP JUMPDEST DUP3 DUP2 DUP4 MCOPY PUSH0 DUP4 DUP4 ADD MSTORE POP POP POP JUMP JUMPDEST PUSH0 PUSH2 0x60D DUP3 PUSH2 0x5DB JUMP JUMPDEST PUSH2 0x617 DUP2 DUP6 PUSH2 0x5E5 JUMP JUMPDEST SWAP4 POP PUSH2 0x627 DUP2 DUP6 PUSH1 0x20 DUP7 ADD PUSH2 0x5F5 JUMP JUMPDEST PUSH2 0x630 DUP2 PUSH2 0x33A JUMP JUMPDEST DUP5 ADD SWAP2 POP POP SWAP3 SWAP2 POP POP JUMP JUMPDEST PUSH2 0x644 DUP2 PUSH2 0x46E JUMP JUMPDEST DUP3 MSTORE POP POP JUMP JUMPDEST PUSH2 0x653 DUP2 PUSH2 0x4C0 JUMP JUMPDEST DUP3 MSTORE POP POP JUMP JUMPDEST PUSH2 0x662 DUP2 PUSH2 0x4FB JUMP JUMPDEST DUP3 MSTORE POP POP JUMP JUMPDEST PUSH0 PUSH1 0x80 DUP3 ADD SWAP1 POP DUP2 DUP2 SUB PUSH0 DUP4 ADD MSTORE PUSH2 0x680 DUP2 DUP8 PUSH2 0x603 JUMP JUMPDEST SWAP1 POP PUSH2 0x68F PUSH1 0x20 DUP4 ADD DUP7 PUSH2 0x63B JUMP JUMPDEST PUSH2 0x69C PUSH1 0x40 DUP4 ADD DUP6 PUSH2 0x64A JUMP JUMPDEST PUSH2 0x6A9 PUSH1 0x60 DUP4 ADD DUP5 PUSH2 0x659 JUMP JUMPDEST SWAP6 SWAP5 POP POP POP POP POP JUMP JUMPDEST PUSH32 0x4E487B7100000000000000000000000000000000000000000000000000000000 PUSH0 MSTORE PUSH1 0x22 PUSH1 0x4 MSTORE PUSH1 0x24 PUSH0 REVERT JUMPDEST PUSH0 PUSH1 0x2 DUP3 DIV SWAP1 POP PUSH1 0x1 DUP3 AND DUP1 PUSH2 0x6F6 JUMPI PUSH1 0x7F DUP3 AND SWAP2 POP JUMPDEST PUSH1 0x20 DUP3 LT DUP2 SUB PUSH2 0x709 JUMPI PUSH2 0x708 PUSH2 0x6B2 JUMP JUMPDEST JUMPDEST POP SWAP2 SWAP1 POP JUMP JUMPDEST PUSH0 DUP2 SWAP1 POP DUP2 PUSH0 MSTORE PUSH1 0x20 PUSH0 KECCAK256 SWAP1 POP SWAP2 SWAP1 POP JUMP JUMPDEST PUSH0 PUSH1 0x20 PUSH1 0x1F DUP4 ADD DIV SWAP1 POP SWAP2 SWAP1 POP JUMP JUMPDEST PUSH0 DUP3 DUP3 SHL SWAP1 POP SWAP3 SWAP2 POP POP JUMP JUMPDEST PUSH0 PUSH1 0x8 DUP4 MUL PUSH2 0x76B PUSH32 0xFFFFFFFFFFFFFFFFFFFFFFFFFFFFFFFFFFFFFFFFFFFFFFFFFFFFFFFFFFFFFFFF DUP3 PUSH2 0x730 JUMP JUMPDEST PUSH2 0x775 DUP7 DUP4 PUSH2 0x730 JUMP JUMPDEST SWAP6 POP DUP1 NOT DUP5 AND SWAP4 POP DUP1 DUP7 AND DUP5 OR SWAP3 POP POP POP SWAP4 SWAP3 POP POP POP JUMP JUMPDEST PUSH0 DUP2 SWAP1 POP SWAP2 SWAP1 POP JUMP JUMPDEST PUSH0 PUSH2 0x7B0 PUSH2 0x7AB PUSH2 0x7A6 DUP5 PUSH2 0x46E JUMP JUMPDEST PUSH2 0x78D JUMP JUMPDEST PUSH2 0x46E JUMP JUMPDEST SWAP1 POP SWAP2 SWAP1 POP JUMP JUMPDEST PUSH0 DUP2 SWAP1 POP SWAP2 SWAP1 POP JUMP JUMPDEST PUSH2 0x7C9 DUP4 PUSH2 0x796 JUMP JUMPDEST PUSH2 0x7DD PUSH2 0x7D5 DUP3 PUSH2 0x7B7 JUMP JUMPDEST DUP5 DUP5 SLOAD PUSH2 0x73C JUMP JUMPDEST DUP3 SSTORE POP POP POP POP JUMP JUMPDEST PUSH0 SWAP1 JUMP JUMPDEST PUSH2 0x7F1 PUSH2 0x7E5 JUMP JUMPDEST PUSH2 0x7FC DUP2 DUP5 DUP5 PUSH2 0x7C0 JUMP JUMPDEST POP POP POP JUMP JUMPDEST JUMPDEST DUP2 DUP2 LT ISZERO PUSH2 0x81F JUMPI PUSH2 0x814 PUSH0 DUP3 PUSH2 0x7E9 JUMP JUMPDEST PUSH1 0x1 DUP2 ADD SWAP1 POP PUSH2 0x802 JUMP JUMPDEST POP POP JUMP JUMPDEST PUSH1 0x1F DUP3 GT ISZERO PUSH2 0x864 JUMPI PUSH2 0x835 DUP2 PUSH2 0x70F JUMP JUMPDEST PUSH2 0x83E DUP5 PUSH2 0x721 JUMP JUMPDEST DUP2 ADD PUSH1 0x20 DUP6 LT ISZERO PUSH2 0x84D JUMPI DUP2 SWAP1 POP JUMPDEST PUSH2 0x861 PUSH2 0x859 DUP6 PUSH2 0x721 JUMP JUMPDEST DUP4 ADD DUP3 PUSH2 0x801 JUMP JUMPDEST POP POP JUMPDEST POP POP POP JUMP JUMPDEST PUSH0 DUP3 DUP3 SHR SWAP1 POP SWAP3 SWAP2 POP POP JUMP JUMPDEST PUSH0 PUSH2 0x884 PUSH0 NOT DUP5 PUSH1 0x8 MUL PUSH2 0x869 JUMP JUMPDEST NOT DUP1 DUP4 AND SWAP2 POP POP SWAP3 SWAP2 POP POP JUMP JUMPDEST PUSH0 PUSH2 0x89C DUP4 DUP4 PUSH2 0x875 JUMP JUMPDEST SWAP2 POP DUP3 PUSH1 0x2 MUL DUP3 OR SWAP1 POP SWAP3 SWAP2 POP POP JUMP JUMPDEST PUSH2 0x8B5 DUP3 PUSH2 0x5DB JUMP JUMPDEST PUSH8 0xFFFFFFFFFFFFFFFF DUP2 GT ISZERO PUSH2 0x8CE JUMPI PUSH2 0x8CD PUSH2 0x34A JUMP JUMPDEST JUMPDEST PUSH2 0x8D8 DUP3 SLOAD PUSH2 0x6DF JUMP JUMPDEST PUSH2 0x8E3 DUP3 DUP3 DUP6 PUSH2 0x823 JUMP JUMPDEST PUSH0 PUSH1 0x20 SWAP1 POP PUSH1 0x1F DUP4 GT PUSH1 0x1 DUP2 EQ PUSH2 0x914 JUMPI PUSH0 DUP5 ISZERO PUSH2 0x902 JUMPI DUP3 DUP8 ADD MLOAD SWAP1 POP JUMPDEST PUSH2 0x90C DUP6 DUP3 PUSH2 0x891 JUMP JUMPDEST DUP7 SSTORE POP PUSH2 0x973 JUMP JUMPDEST PUSH1 0x1F NOT DUP5 AND PUSH2 0x922 DUP7 PUSH2 0x70F JUMP JUMPDEST PUSH0 JUMPDEST DUP3 DUP2 LT ISZERO PUSH2 0x949 JUMPI DUP5 DUP10 ADD MLOAD DUP3 SSTORE PUSH1 0x1 DUP3 ADD SWAP2 POP PUSH1 0x20 DUP6 ADD SWAP5 POP PUSH1 0x20 DUP2 ADD SWAP1 POP PUSH2 0x924 JUMP JUMPDEST DUP7 DUP4 LT ISZERO PUSH2 0x966 JUMPI DUP5 DUP10 ADD MLOAD PUSH2 0x962 PUSH1 0x1F DUP10 AND DUP3 PUSH2 0x875 JUMP JUMPDEST DUP4 SSTORE POP JUMPDEST PUSH1 0x1 PUSH1 0x2 DUP9 MUL ADD DUP9 SSTORE POP POP POP JUMPDEST POP POP POP POP POP POP JUMP JUMPDEST PUSH32 0x4E487B7100000000000000000000000000000000000000000000000000000000 PUSH0 MSTORE PUSH1 0x32 PUSH1 0x4 MSTORE PUSH1 0x24 PUSH0 REVERT INVALID LOG2 PUSH5 0x6970667358 0x22 SLT KECCAK256 PUSH6 0xC01EF8942439 GASPRICE TLOAD ADDRESS 0xB4 0xD1 0x4F CALLDATACOPY MSTORE8 MUL PUSH2 0xB280 SWAP5 TIMESTAMP SWAP9 PUSH26 0x691C2D15B33B7CF1DF64736F6C634300081A0033000000000000 "
				},
				"gasEstimates": {
					"creation": {
						"codeDepositCost": "505200",
						"executionCost": "535",
						"totalCost": "505735"
					},
					"external": {
						"add_people(string,uint256,address,bool)": "infinite",
						"get_people(uint256)": "infinite"
					}
				},
				"methodIdentifiers": {
					"add_people(string,uint256,address,bool)": "cbe230ad",
					"get_people(uint256)": "f295b61f"
				}
			},
			"storageLayout": {
				"storage": [
					{
						"astId": 14,
						"contract": "arraysAndStructs/struct.sol:Structs",
						"label": "people",
						"offset": 0,
						"slot": "0",
						"type": "t_array(t_struct(Person)10_storage)dyn_storage"
					}
				],
				"types": {
					"t_address": {
						"encoding": "inplace",
						"label": "address",
						"numberOfBytes": "20"
					},
					"t_array(t_struct(Person)10_storage)dyn_storage": {
						"base": "t_struct(Person)10_storage",
						"encoding": "dynamic_array",
						"label": "struct Structs.Person[]",
						"numberOfBytes": "32"
					},
					"t_bool": {
						"encoding": "inplace",
						"label": "bool",
						"numberOfBytes": "1"
					},
					"t_string_storage": {
						"encoding": "bytes",
						"label": "string",
						"numberOfBytes": "32"
					},
					"t_struct(Person)10_storage": {
						"encoding": "inplace",
						"label": "struct Structs.Person",
						"members": [
							{
								"astId": 3,
								"contract": "arraysAndStructs/struct.sol:Structs",
								"label": "name",
								"offset": 0,
								"slot": "0",
								"type": "t_string_storage"
							},
							{
								"astId": 5,
								"contract": "arraysAndStructs/struct.sol:Structs",
								"label": "age",
								"offset": 0,
								"slot": "1",
								"type": "t_uint256"
							},
							{
								"astId": 7,
								"contract": "arraysAndStructs/struct.sol:Structs",
								"label": "wallet_address",
								"offset": 0,
								"slot": "2",
								"type": "t_address"
							},
							{
								"astId": 9,
								"contract": "arraysAndStructs/struct.sol:Structs",
								"label": "isEther",
								"offset": 20,
								"slot": "2",
								"type": "t_bool"
							}
						],
						"numberOfBytes": "96"
					},
					"t_uint256": {
						"encoding": "inplace",
						"label": "uint256",
						"numberOfBytes": "32"
					}
				}
			},
			"userdoc": {
				"kind": "user",
				"methods": {},
				"version": 1
			}
		}
	}
}