{
	"basicControlStructures/basicControlStructures.sol": {
		"BasicControlStructures": {
			"abi": [
				{
					"inputs": [
						{
							"internalType": "int256",
							"name": "input_num",
							"type": "int256"
						}
					],
					"name": "check_num",
					"outputs": [
						{
							"internalType": "int256",
							"name": "",
							"type": "int256"
						},
						{
							"internalType": "string",
							"name": "",
							"type": "string"
						}
					],
					"stateMutability": "pure",
					"type": "function"
				}
			],
			"devdoc": {
				"kind": "dev",
				"methods": {},
				"version": 1
			},
			"evm": {
				"assembly": "    /* \"basicControlStructures/basicControlStructures.sol\":58:2588  contract BasicControlStructures {... */\n  mstore(0x40, 0x80)\n  callvalue\n  dup1\n  iszero\n  tag_1\n  jumpi\n  0x00\n  dup1\n  revert\ntag_1:\n  pop\n  dataSize(sub_0)\n  dup1\n  dataOffset(sub_0)\n  0x00\n  codecopy\n  0x00\n  return\nstop\n\nsub_0: assembly {\n        /* \"basicControlStructures/basicControlStructures.sol\":58:2588  contract BasicControlStructures {... */\n      mstore(0x40, 0x80)\n      callvalue\n      dup1\n      iszero\n      tag_1\n      jumpi\n      0x00\n      dup1\n      revert\n    tag_1:\n      pop\n      jumpi(tag_2, lt(calldatasize, 0x04))\n      shr(0xe0, calldataload(0x00))\n      dup1\n      0xd8e79ae3\n      eq\n      tag_3\n      jumpi\n    tag_2:\n      0x00\n      dup1\n      revert\n        /* \"basicControlStructures/basicControlStructures.sol\":96:1681  function check_num(int256 input_num)... */\n    tag_3:\n      tag_4\n      0x04\n      dup1\n      calldatasize\n      sub\n      dup2\n      add\n      swap1\n      tag_5\n      swap2\n      swap1\n      tag_6\n      jump\t// in\n    tag_5:\n      tag_7\n      jump\t// in\n    tag_4:\n      mload(0x40)\n      tag_8\n      swap3\n      swap2\n      swap1\n      tag_9\n      jump\t// in\n    tag_8:\n      mload(0x40)\n      dup1\n      swap2\n      sub\n      swap1\n      return\n    tag_7:\n        /* \"basicControlStructures/basicControlStructures.sol\":178:184  int256 */\n      0x00\n        /* \"basicControlStructures/basicControlStructures.sol\":186:199  string memory */\n      0x60\n        /* \"basicControlStructures/basicControlStructures.sol\":215:227  bool isPrime */\n      0x00\n        /* \"basicControlStructures/basicControlStructures.sol\":230:252  check_prime(input_num) */\n      tag_11\n        /* \"basicControlStructures/basicControlStructures.sol\":242:251  input_num */\n      dup5\n        /* \"basicControlStructures/basicControlStructures.sol\":230:241  check_prime */\n      tag_12\n        /* \"basicControlStructures/basicControlStructures.sol\":230:252  check_prime(input_num) */\n      jump\t// in\n    tag_11:\n        /* \"basicControlStructures/basicControlStructures.sol\":215:252  bool isPrime = check_prime(input_num) */\n      swap1\n      pop\n        /* \"basicControlStructures/basicControlStructures.sol\":278:279  0 */\n      0x00\n        /* \"basicControlStructures/basicControlStructures.sol\":266:275  input_num */\n      dup5\n        /* \"basicControlStructures/basicControlStructures.sol\":266:279  input_num < 0 */\n      slt\n        /* \"basicControlStructures/basicControlStructures.sol\":262:1675  if (input_num < 0) {... */\n      iszero\n      tag_13\n      jumpi\n        /* \"basicControlStructures/basicControlStructures.sol\":316:317  0 */\n      0x00\n        /* \"basicControlStructures/basicControlStructures.sol\":311:312  2 */\n      0x02\n        /* \"basicControlStructures/basicControlStructures.sol\":299:308  input_num */\n      dup6\n        /* \"basicControlStructures/basicControlStructures.sol\":299:312  input_num % 2 */\n      tag_14\n      swap2\n      swap1\n      tag_15\n      jump\t// in\n    tag_14:\n        /* \"basicControlStructures/basicControlStructures.sol\":299:317  input_num % 2 == 0 */\n      sub\n        /* \"basicControlStructures/basicControlStructures.sol\":295:656  if (input_num % 2 == 0) {... */\n      tag_16\n      jumpi\n        /* \"basicControlStructures/basicControlStructures.sol\":366:375  input_num */\n      dup4\n        /* \"basicControlStructures/basicControlStructures.sol\":337:470  return (... */\n      mload(0x40)\n      dup1\n      0x60\n      add\n      0x40\n      mstore\n      dup1\n      0x35\n      dup2\n      mstore\n      0x20\n      add\n      data_0826566b263feffc080777c046bbc452d6b9fe2de4031463f1cc7b38126a5bf3\n      0x35\n      swap2\n      codecopy\n      swap3\n      pop\n      swap3\n      pop\n      pop\n      jump(tag_10)\n        /* \"basicControlStructures/basicControlStructures.sol\":295:656  if (input_num % 2 == 0) {... */\n    tag_16:\n        /* \"basicControlStructures/basicControlStructures.sol\":538:547  input_num */\n      dup4\n        /* \"basicControlStructures/basicControlStructures.sol\":509:641  return (... */\n      mload(0x40)\n      dup1\n      0x60\n      add\n      0x40\n      mstore\n      dup1\n      0x34\n      dup2\n      mstore\n      0x20\n      add\n      data_72669ae7c36bb18c2be49dfcd106d7027b29969cf04267a4599abd9cbb32a604\n      0x34\n      swap2\n      codecopy\n      swap3\n      pop\n      swap3\n      pop\n      pop\n      jump(tag_10)\n        /* \"basicControlStructures/basicControlStructures.sol\":262:1675  if (input_num < 0) {... */\n    tag_13:\n        /* \"basicControlStructures/basicControlStructures.sol\":688:689  0 */\n      0x00\n        /* \"basicControlStructures/basicControlStructures.sol\":676:685  input_num */\n      dup5\n        /* \"basicControlStructures/basicControlStructures.sol\":676:689  input_num > 0 */\n      sgt\n        /* \"basicControlStructures/basicControlStructures.sol\":672:1675  if (input_num > 0) {... */\n      iszero\n      tag_19\n      jumpi\n        /* \"basicControlStructures/basicControlStructures.sol\":726:727  0 */\n      0x00\n        /* \"basicControlStructures/basicControlStructures.sol\":721:722  2 */\n      0x02\n        /* \"basicControlStructures/basicControlStructures.sol\":709:718  input_num */\n      dup6\n        /* \"basicControlStructures/basicControlStructures.sol\":709:722  input_num % 2 */\n      tag_20\n      swap2\n      swap1\n      tag_15\n      jump\t// in\n    tag_20:\n        /* \"basicControlStructures/basicControlStructures.sol\":709:727  input_num % 2 == 0 */\n      sub\n        /* \"basicControlStructures/basicControlStructures.sol\":705:1578  if (input_num % 2 == 0) {... */\n      tag_21\n      jumpi\n        /* \"basicControlStructures/basicControlStructures.sol\":751:758  isPrime */\n      dup1\n        /* \"basicControlStructures/basicControlStructures.sol\":747:1138  if (isPrime) {... */\n      iszero\n      tag_22\n      jumpi\n        /* \"basicControlStructures/basicControlStructures.sol\":815:824  input_num */\n      dup4\n        /* \"basicControlStructures/basicControlStructures.sol\":782:918  return (... */\n      mload(0x40)\n      dup1\n      0x60\n      add\n      0x40\n      mstore\n      dup1\n      0x2c\n      dup2\n      mstore\n      0x20\n      add\n      data_a7922506046fad8a5eb2b121e57790a36facf85c9b267da2d61ff189fb25da61\n      0x2c\n      swap2\n      codecopy\n      swap3\n      pop\n      swap3\n      pop\n      pop\n      jump(tag_10)\n        /* \"basicControlStructures/basicControlStructures.sol\":747:1138  if (isPrime) {... */\n    tag_22:\n        /* \"basicControlStructures/basicControlStructures.sol\":998:1007  input_num */\n      dup4\n        /* \"basicControlStructures/basicControlStructures.sol\":965:1119  return (... */\n      mload(0x40)\n      dup1\n      0x60\n      add\n      0x40\n      mstore\n      dup1\n      0x3e\n      dup2\n      mstore\n      0x20\n      add\n      data_a40902a0bbc4d802bc9f1a4cd019a07732c0a8edb5be837e0c78c4878cca9ba0\n      0x3e\n      swap2\n      codecopy\n      swap3\n      pop\n      swap3\n      pop\n      pop\n      jump(tag_10)\n        /* \"basicControlStructures/basicControlStructures.sol\":705:1578  if (input_num % 2 == 0) {... */\n    tag_21:\n        /* \"basicControlStructures/basicControlStructures.sol\":1180:1187  isPrime */\n      dup1\n        /* \"basicControlStructures/basicControlStructures.sol\":1176:1564  if (isPrime) {... */\n      iszero\n      tag_25\n      jumpi\n        /* \"basicControlStructures/basicControlStructures.sol\":1244:1253  input_num */\n      dup4\n        /* \"basicControlStructures/basicControlStructures.sol\":1211:1346  return (... */\n      mload(0x40)\n      dup1\n      0x60\n      add\n      0x40\n      mstore\n      dup1\n      0x2b\n      dup2\n      mstore\n      0x20\n      add\n      data_820a5b6ba5c168df104a385bb975cf88e7607a8c1a7bbe628a04ab4a064976e9\n      0x2b\n      swap2\n      codecopy\n      swap3\n      pop\n      swap3\n      pop\n      pop\n      jump(tag_10)\n        /* \"basicControlStructures/basicControlStructures.sol\":1176:1564  if (isPrime) {... */\n    tag_25:\n        /* \"basicControlStructures/basicControlStructures.sol\":1426:1435  input_num */\n      dup4\n        /* \"basicControlStructures/basicControlStructures.sol\":1393:1545  return (... */\n      mload(0x40)\n      dup1\n      0x60\n      add\n      0x40\n      mstore\n      dup1\n      0x3c\n      dup2\n      mstore\n      0x20\n      add\n      data_006528a6fcb5471de87cd639fd25ced1201b6a3f6fb260cdba3d07bfc58da69f\n      0x3c\n      swap2\n      codecopy\n      swap3\n      pop\n      swap3\n      pop\n      pop\n      jump(tag_10)\n        /* \"basicControlStructures/basicControlStructures.sol\":672:1675  if (input_num > 0) {... */\n    tag_19:\n        /* \"basicControlStructures/basicControlStructures.sol\":1616:1625  input_num */\n      dup4\n        /* \"basicControlStructures/basicControlStructures.sol\":1608:1664  return (input_num, \"This is number is a neutral number\") */\n      mload(0x40)\n      dup1\n      0x60\n      add\n      0x40\n      mstore\n      dup1\n      0x22\n      dup2\n      mstore\n      0x20\n      add\n      data_73bb6d38b45b0ad1ca33c2a23b9996dd965fb6915e365f1c4894fa349c06224c\n      0x22\n      swap2\n      codecopy\n      swap3\n      pop\n      swap3\n      pop\n      pop\n        /* \"basicControlStructures/basicControlStructures.sol\":96:1681  function check_num(int256 input_num)... */\n    tag_10:\n      swap2\n      pop\n      swap2\n      jump\t// out\n        /* \"basicControlStructures/basicControlStructures.sol\":1687:2586  function check_prime(int256 num) internal  pure returns (bool) {... */\n    tag_12:\n        /* \"basicControlStructures/basicControlStructures.sol\":1744:1748  bool */\n      0x00\n        /* \"basicControlStructures/basicControlStructures.sol\":1770:1771  2 */\n      0x02\n        /* \"basicControlStructures/basicControlStructures.sol\":1764:1767  num */\n      dup3\n        /* \"basicControlStructures/basicControlStructures.sol\":1764:1771  num < 2 */\n      slt\n        /* \"basicControlStructures/basicControlStructures.sol\":1760:2580  if (num < 2) {... */\n      iszero\n      tag_29\n      jumpi\n        /* \"basicControlStructures/basicControlStructures.sol\":1794:1799  false */\n      0x00\n        /* \"basicControlStructures/basicControlStructures.sol\":1787:1799  return false */\n      swap1\n      pop\n      jump(tag_28)\n        /* \"basicControlStructures/basicControlStructures.sol\":1760:2580  if (num < 2) {... */\n    tag_29:\n        /* \"basicControlStructures/basicControlStructures.sol\":1826:1827  1 */\n      0x01\n        /* \"basicControlStructures/basicControlStructures.sol\":1820:1823  num */\n      dup3\n        /* \"basicControlStructures/basicControlStructures.sol\":1820:1827  num > 1 */\n      sgt\n        /* \"basicControlStructures/basicControlStructures.sol\":1820:1839  num > 1 && num <= 5 */\n      dup1\n      iszero\n      tag_31\n      jumpi\n      pop\n        /* \"basicControlStructures/basicControlStructures.sol\":1838:1839  5 */\n      0x05\n        /* \"basicControlStructures/basicControlStructures.sol\":1831:1834  num */\n      dup3\n        /* \"basicControlStructures/basicControlStructures.sol\":1831:1839  num <= 5 */\n      sgt\n      iszero\n        /* \"basicControlStructures/basicControlStructures.sol\":1820:1839  num > 1 && num <= 5 */\n    tag_31:\n        /* \"basicControlStructures/basicControlStructures.sol\":1816:2580  if (num > 1 && num <= 5) {... */\n      iszero\n      tag_32\n      jumpi\n        /* \"basicControlStructures/basicControlStructures.sol\":1866:1867  2 */\n      0x02\n        /* \"basicControlStructures/basicControlStructures.sol\":1859:1862  num */\n      dup3\n        /* \"basicControlStructures/basicControlStructures.sol\":1859:1867  num == 2 */\n      sub\n        /* \"basicControlStructures/basicControlStructures.sol\":1855:2268  if (num == 2) {... */\n      tag_33\n      jumpi\n        /* \"basicControlStructures/basicControlStructures.sol\":1894:1898  true */\n      0x01\n        /* \"basicControlStructures/basicControlStructures.sol\":1887:1898  return true */\n      swap1\n      pop\n      jump(tag_28)\n        /* \"basicControlStructures/basicControlStructures.sol\":1855:2268  if (num == 2) {... */\n    tag_33:\n        /* \"basicControlStructures/basicControlStructures.sol\":1942:1950  int256 i */\n      0x00\n        /* \"basicControlStructures/basicControlStructures.sol\":1953:1954  2 */\n      0x02\n        /* \"basicControlStructures/basicControlStructures.sol\":1942:1954  int256 i = 2 */\n      swap1\n      pop\n        /* \"basicControlStructures/basicControlStructures.sol\":1937:2224  for (int256 i = 2; i < num; i++) {... */\n    tag_35:\n        /* \"basicControlStructures/basicControlStructures.sol\":1960:1963  num */\n      dup3\n        /* \"basicControlStructures/basicControlStructures.sol\":1956:1957  i */\n      dup2\n        /* \"basicControlStructures/basicControlStructures.sol\":1956:1963  i < num */\n      slt\n        /* \"basicControlStructures/basicControlStructures.sol\":1937:2224  for (int256 i = 2; i < num; i++) {... */\n      iszero\n      tag_36\n      jumpi\n        /* \"basicControlStructures/basicControlStructures.sol\":2007:2008  0 */\n      0x00\n        /* \"basicControlStructures/basicControlStructures.sol\":2002:2003  i */\n      dup2\n        /* \"basicControlStructures/basicControlStructures.sol\":1996:1999  num */\n      dup5\n        /* \"basicControlStructures/basicControlStructures.sol\":1996:2003  num % i */\n      tag_38\n      swap2\n      swap1\n      tag_15\n      jump\t// in\n    tag_38:\n        /* \"basicControlStructures/basicControlStructures.sol\":1996:2008  num % i == 0 */\n      sub\n        /* \"basicControlStructures/basicControlStructures.sol\":1992:2206  if (num % i == 0) {... */\n      iszero\n        /* \"basicControlStructures/basicControlStructures.sol\":2036:2041  break */\n      tag_36\n        /* \"basicControlStructures/basicControlStructures.sol\":1992:2206  if (num % i == 0) {... */\n      jumpi\n        /* \"basicControlStructures/basicControlStructures.sol\":2112:2113  1 */\n      0x01\n        /* \"basicControlStructures/basicControlStructures.sol\":2106:2109  num */\n      dup4\n        /* \"basicControlStructures/basicControlStructures.sol\":2106:2113  num - 1 */\n      tag_41\n      swap2\n      swap1\n      tag_42\n      jump\t// in\n    tag_41:\n        /* \"basicControlStructures/basicControlStructures.sol\":2100:2101  i */\n      dup2\n        /* \"basicControlStructures/basicControlStructures.sol\":2100:2114  i == (num - 1) */\n      sub\n        /* \"basicControlStructures/basicControlStructures.sol\":2096:2184  if (i == (num - 1)) {... */\n      tag_43\n      jumpi\n        /* \"basicControlStructures/basicControlStructures.sol\":2153:2157  true */\n      0x01\n        /* \"basicControlStructures/basicControlStructures.sol\":2146:2157  return true */\n      swap2\n      pop\n      pop\n      jump(tag_28)\n        /* \"basicControlStructures/basicControlStructures.sol\":2096:2184  if (i == (num - 1)) {... */\n    tag_43:\n        /* \"basicControlStructures/basicControlStructures.sol\":1965:1968  i++ */\n      dup1\n      dup1\n      0x01\n      add\n      swap2\n      pop\n      pop\n        /* \"basicControlStructures/basicControlStructures.sol\":1937:2224  for (int256 i = 2; i < num; i++) {... */\n      jump(tag_35)\n    tag_36:\n      pop\n        /* \"basicControlStructures/basicControlStructures.sol\":2248:2253  false */\n      0x00\n        /* \"basicControlStructures/basicControlStructures.sol\":2241:2253  return false */\n      swap1\n      pop\n      jump(tag_28)\n        /* \"basicControlStructures/basicControlStructures.sol\":1816:2580  if (num > 1 && num <= 5) {... */\n    tag_32:\n        /* \"basicControlStructures/basicControlStructures.sol\":2303:2311  int256 i */\n      0x00\n        /* \"basicControlStructures/basicControlStructures.sol\":2314:2315  2 */\n      0x02\n        /* \"basicControlStructures/basicControlStructures.sol\":2303:2315  int256 i = 2 */\n      swap1\n      pop\n        /* \"basicControlStructures/basicControlStructures.sol\":2298:2544  for (int256 i = 2; i <= 5; i++) {... */\n    tag_45:\n        /* \"basicControlStructures/basicControlStructures.sol\":2322:2323  5 */\n      0x05\n        /* \"basicControlStructures/basicControlStructures.sol\":2317:2318  i */\n      dup2\n        /* \"basicControlStructures/basicControlStructures.sol\":2317:2323  i <= 5 */\n      sgt\n        /* \"basicControlStructures/basicControlStructures.sol\":2298:2544  for (int256 i = 2; i <= 5; i++) {... */\n      tag_46\n      jumpi\n        /* \"basicControlStructures/basicControlStructures.sol\":2363:2364  0 */\n      0x00\n        /* \"basicControlStructures/basicControlStructures.sol\":2358:2359  i */\n      dup2\n        /* \"basicControlStructures/basicControlStructures.sol\":2352:2355  num */\n      dup5\n        /* \"basicControlStructures/basicControlStructures.sol\":2352:2359  num % i */\n      tag_48\n      swap2\n      swap1\n      tag_15\n      jump\t// in\n    tag_48:\n        /* \"basicControlStructures/basicControlStructures.sol\":2352:2364  num % i == 0 */\n      sub\n        /* \"basicControlStructures/basicControlStructures.sol\":2348:2530  if (num % i == 0) {... */\n      iszero\n        /* \"basicControlStructures/basicControlStructures.sol\":2388:2393  break */\n      tag_46\n        /* \"basicControlStructures/basicControlStructures.sol\":2348:2530  if (num % i == 0) {... */\n      jumpi\n        /* \"basicControlStructures/basicControlStructures.sol\":2449:2450  5 */\n      0x05\n        /* \"basicControlStructures/basicControlStructures.sol\":2444:2445  i */\n      dup2\n        /* \"basicControlStructures/basicControlStructures.sol\":2444:2450  i == 5 */\n      sub\n        /* \"basicControlStructures/basicControlStructures.sol\":2440:2512  if (i == 5) {... */\n      tag_51\n      jumpi\n        /* \"basicControlStructures/basicControlStructures.sol\":2485:2489  true */\n      0x01\n        /* \"basicControlStructures/basicControlStructures.sol\":2478:2489  return true */\n      swap2\n      pop\n      pop\n      jump(tag_28)\n        /* \"basicControlStructures/basicControlStructures.sol\":2440:2512  if (i == 5) {... */\n    tag_51:\n        /* \"basicControlStructures/basicControlStructures.sol\":2325:2328  i++ */\n      dup1\n      dup1\n      tag_52\n      swap1\n      tag_53\n      jump\t// in\n    tag_52:\n      swap2\n      pop\n      pop\n        /* \"basicControlStructures/basicControlStructures.sol\":2298:2544  for (int256 i = 2; i <= 5; i++) {... */\n      jump(tag_45)\n    tag_46:\n      pop\n        /* \"basicControlStructures/basicControlStructures.sol\":2564:2569  false */\n      0x00\n        /* \"basicControlStructures/basicControlStructures.sol\":2557:2569  return false */\n      swap1\n      pop\n        /* \"basicControlStructures/basicControlStructures.sol\":1687:2586  function check_prime(int256 num) internal  pure returns (bool) {... */\n    tag_28:\n      swap2\n      swap1\n      pop\n      jump\t// out\n        /* \"#utility.yul\":88:205   */\n    tag_55:\n        /* \"#utility.yul\":197:198   */\n      0x00\n        /* \"#utility.yul\":194:195   */\n      dup1\n        /* \"#utility.yul\":187:199   */\n      revert\n        /* \"#utility.yul\":334:410   */\n    tag_57:\n        /* \"#utility.yul\":370:377   */\n      0x00\n        /* \"#utility.yul\":399:404   */\n      dup2\n        /* \"#utility.yul\":388:404   */\n      swap1\n      pop\n        /* \"#utility.yul\":334:410   */\n      swap2\n      swap1\n      pop\n      jump\t// out\n        /* \"#utility.yul\":416:536   */\n    tag_58:\n        /* \"#utility.yul\":488:511   */\n      tag_74\n        /* \"#utility.yul\":505:510   */\n      dup2\n        /* \"#utility.yul\":488:511   */\n      tag_57\n      jump\t// in\n    tag_74:\n        /* \"#utility.yul\":481:486   */\n      dup2\n        /* \"#utility.yul\":478:512   */\n      eq\n        /* \"#utility.yul\":468:530   */\n      tag_75\n      jumpi\n        /* \"#utility.yul\":526:527   */\n      0x00\n        /* \"#utility.yul\":523:524   */\n      dup1\n        /* \"#utility.yul\":516:528   */\n      revert\n        /* \"#utility.yul\":468:530   */\n    tag_75:\n        /* \"#utility.yul\":416:536   */\n      pop\n      jump\t// out\n        /* \"#utility.yul\":542:679   */\n    tag_59:\n        /* \"#utility.yul\":587:592   */\n      0x00\n        /* \"#utility.yul\":625:631   */\n      dup2\n        /* \"#utility.yul\":612:632   */\n      calldataload\n        /* \"#utility.yul\":603:632   */\n      swap1\n      pop\n        /* \"#utility.yul\":641:673   */\n      tag_77\n        /* \"#utility.yul\":667:672   */\n      dup2\n        /* \"#utility.yul\":641:673   */\n      tag_58\n      jump\t// in\n    tag_77:\n        /* \"#utility.yul\":542:679   */\n      swap3\n      swap2\n      pop\n      pop\n      jump\t// out\n        /* \"#utility.yul\":685:1012   */\n    tag_6:\n        /* \"#utility.yul\":743:749   */\n      0x00\n        /* \"#utility.yul\":792:794   */\n      0x20\n        /* \"#utility.yul\":780:789   */\n      dup3\n        /* \"#utility.yul\":771:778   */\n      dup5\n        /* \"#utility.yul\":767:790   */\n      sub\n        /* \"#utility.yul\":763:795   */\n      slt\n        /* \"#utility.yul\":760:879   */\n      iszero\n      tag_79\n      jumpi\n        /* \"#utility.yul\":798:877   */\n      tag_80\n      tag_55\n      jump\t// in\n    tag_80:\n        /* \"#utility.yul\":760:879   */\n    tag_79:\n        /* \"#utility.yul\":918:919   */\n      0x00\n        /* \"#utility.yul\":943:995   */\n      tag_81\n        /* \"#utility.yul\":987:994   */\n      dup5\n        /* \"#utility.yul\":978:984   */\n      dup3\n        /* \"#utility.yul\":967:976   */\n      dup6\n        /* \"#utility.yul\":963:985   */\n      add\n        /* \"#utility.yul\":943:995   */\n      tag_59\n      jump\t// in\n    tag_81:\n        /* \"#utility.yul\":933:995   */\n      swap2\n      pop\n        /* \"#utility.yul\":889:1005   */\n      pop\n        /* \"#utility.yul\":685:1012   */\n      swap3\n      swap2\n      pop\n      pop\n      jump\t// out\n        /* \"#utility.yul\":1018:1133   */\n    tag_60:\n        /* \"#utility.yul\":1103:1126   */\n      tag_83\n        /* \"#utility.yul\":1120:1125   */\n      dup2\n        /* \"#utility.yul\":1103:1126   */\n      tag_57\n      jump\t// in\n    tag_83:\n        /* \"#utility.yul\":1098:1101   */\n      dup3\n        /* \"#utility.yul\":1091:1127   */\n      mstore\n        /* \"#utility.yul\":1018:1133   */\n      pop\n      pop\n      jump\t// out\n        /* \"#utility.yul\":1139:1238   */\n    tag_61:\n        /* \"#utility.yul\":1191:1197   */\n      0x00\n        /* \"#utility.yul\":1225:1230   */\n      dup2\n        /* \"#utility.yul\":1219:1231   */\n      mload\n        /* \"#utility.yul\":1209:1231   */\n      swap1\n      pop\n        /* \"#utility.yul\":1139:1238   */\n      swap2\n      swap1\n      pop\n      jump\t// out\n        /* \"#utility.yul\":1244:1413   */\n    tag_62:\n        /* \"#utility.yul\":1328:1339   */\n      0x00\n        /* \"#utility.yul\":1362:1368   */\n      dup3\n        /* \"#utility.yul\":1357:1360   */\n      dup3\n        /* \"#utility.yul\":1350:1369   */\n      mstore\n        /* \"#utility.yul\":1402:1406   */\n      0x20\n        /* \"#utility.yul\":1397:1400   */\n      dup3\n        /* \"#utility.yul\":1393:1407   */\n      add\n        /* \"#utility.yul\":1378:1407   */\n      swap1\n      pop\n        /* \"#utility.yul\":1244:1413   */\n      swap3\n      swap2\n      pop\n      pop\n      jump\t// out\n        /* \"#utility.yul\":1419:1558   */\n    tag_63:\n        /* \"#utility.yul\":1508:1514   */\n      dup3\n        /* \"#utility.yul\":1503:1506   */\n      dup2\n        /* \"#utility.yul\":1498:1501   */\n      dup4\n        /* \"#utility.yul\":1492:1515   */\n      mcopy\n        /* \"#utility.yul\":1549:1550   */\n      0x00\n        /* \"#utility.yul\":1540:1546   */\n      dup4\n        /* \"#utility.yul\":1535:1538   */\n      dup4\n        /* \"#utility.yul\":1531:1547   */\n      add\n        /* \"#utility.yul\":1524:1551   */\n      mstore\n        /* \"#utility.yul\":1419:1558   */\n      pop\n      pop\n      pop\n      jump\t// out\n        /* \"#utility.yul\":1564:1666   */\n    tag_64:\n        /* \"#utility.yul\":1605:1611   */\n      0x00\n        /* \"#utility.yul\":1656:1658   */\n      0x1f\n        /* \"#utility.yul\":1652:1659   */\n      not\n        /* \"#utility.yul\":1647:1649   */\n      0x1f\n        /* \"#utility.yul\":1640:1645   */\n      dup4\n        /* \"#utility.yul\":1636:1650   */\n      add\n        /* \"#utility.yul\":1632:1660   */\n      and\n        /* \"#utility.yul\":1622:1660   */\n      swap1\n      pop\n        /* \"#utility.yul\":1564:1666   */\n      swap2\n      swap1\n      pop\n      jump\t// out\n        /* \"#utility.yul\":1672:2049   */\n    tag_65:\n        /* \"#utility.yul\":1760:1763   */\n      0x00\n        /* \"#utility.yul\":1788:1827   */\n      tag_89\n        /* \"#utility.yul\":1821:1826   */\n      dup3\n        /* \"#utility.yul\":1788:1827   */\n      tag_61\n      jump\t// in\n    tag_89:\n        /* \"#utility.yul\":1843:1914   */\n      tag_90\n        /* \"#utility.yul\":1907:1913   */\n      dup2\n        /* \"#utility.yul\":1902:1905   */\n      dup6\n        /* \"#utility.yul\":1843:1914   */\n      tag_62\n      jump\t// in\n    tag_90:\n        /* \"#utility.yul\":1836:1914   */\n      swap4\n      pop\n        /* \"#utility.yul\":1923:1988   */\n      tag_91\n        /* \"#utility.yul\":1981:1987   */\n      dup2\n        /* \"#utility.yul\":1976:1979   */\n      dup6\n        /* \"#utility.yul\":1969:1973   */\n      0x20\n        /* \"#utility.yul\":1962:1967   */\n      dup7\n        /* \"#utility.yul\":1958:1974   */\n      add\n        /* \"#utility.yul\":1923:1988   */\n      tag_63\n      jump\t// in\n    tag_91:\n        /* \"#utility.yul\":2013:2042   */\n      tag_92\n        /* \"#utility.yul\":2035:2041   */\n      dup2\n        /* \"#utility.yul\":2013:2042   */\n      tag_64\n      jump\t// in\n    tag_92:\n        /* \"#utility.yul\":2008:2011   */\n      dup5\n        /* \"#utility.yul\":2004:2043   */\n      add\n        /* \"#utility.yul\":1997:2043   */\n      swap2\n      pop\n        /* \"#utility.yul\":1764:2049   */\n      pop\n        /* \"#utility.yul\":1672:2049   */\n      swap3\n      swap2\n      pop\n      pop\n      jump\t// out\n        /* \"#utility.yul\":2055:2474   */\n    tag_9:\n        /* \"#utility.yul\":2194:2198   */\n      0x00\n        /* \"#utility.yul\":2232:2234   */\n      0x40\n        /* \"#utility.yul\":2221:2230   */\n      dup3\n        /* \"#utility.yul\":2217:2235   */\n      add\n        /* \"#utility.yul\":2209:2235   */\n      swap1\n      pop\n        /* \"#utility.yul\":2245:2314   */\n      tag_94\n        /* \"#utility.yul\":2311:2312   */\n      0x00\n        /* \"#utility.yul\":2300:2309   */\n      dup4\n        /* \"#utility.yul\":2296:2313   */\n      add\n        /* \"#utility.yul\":2287:2293   */\n      dup6\n        /* \"#utility.yul\":2245:2314   */\n      tag_60\n      jump\t// in\n    tag_94:\n        /* \"#utility.yul\":2361:2370   */\n      dup2\n        /* \"#utility.yul\":2355:2359   */\n      dup2\n        /* \"#utility.yul\":2351:2371   */\n      sub\n        /* \"#utility.yul\":2346:2348   */\n      0x20\n        /* \"#utility.yul\":2335:2344   */\n      dup4\n        /* \"#utility.yul\":2331:2349   */\n      add\n        /* \"#utility.yul\":2324:2372   */\n      mstore\n        /* \"#utility.yul\":2389:2467   */\n      tag_95\n        /* \"#utility.yul\":2462:2466   */\n      dup2\n        /* \"#utility.yul\":2453:2459   */\n      dup5\n        /* \"#utility.yul\":2389:2467   */\n      tag_65\n      jump\t// in\n    tag_95:\n        /* \"#utility.yul\":2381:2467   */\n      swap1\n      pop\n        /* \"#utility.yul\":2055:2474   */\n      swap4\n      swap3\n      pop\n      pop\n      pop\n      jump\t// out\n        /* \"#utility.yul\":2480:2660   */\n    tag_66:\n        /* \"#utility.yul\":2528:2605   */\n      0x4e487b7100000000000000000000000000000000000000000000000000000000\n        /* \"#utility.yul\":2525:2526   */\n      0x00\n        /* \"#utility.yul\":2518:2606   */\n      mstore\n        /* \"#utility.yul\":2625:2629   */\n      0x12\n        /* \"#utility.yul\":2622:2623   */\n      0x04\n        /* \"#utility.yul\":2615:2630   */\n      mstore\n        /* \"#utility.yul\":2649:2653   */\n      0x24\n        /* \"#utility.yul\":2646:2647   */\n      0x00\n        /* \"#utility.yul\":2639:2654   */\n      revert\n        /* \"#utility.yul\":2666:2840   */\n    tag_15:\n        /* \"#utility.yul\":2697:2698   */\n      0x00\n        /* \"#utility.yul\":2714:2733   */\n      tag_98\n        /* \"#utility.yul\":2731:2732   */\n      dup3\n        /* \"#utility.yul\":2714:2733   */\n      tag_57\n      jump\t// in\n    tag_98:\n        /* \"#utility.yul\":2709:2733   */\n      swap2\n      pop\n        /* \"#utility.yul\":2747:2766   */\n      tag_99\n        /* \"#utility.yul\":2764:2765   */\n      dup4\n        /* \"#utility.yul\":2747:2766   */\n      tag_57\n      jump\t// in\n    tag_99:\n        /* \"#utility.yul\":2742:2766   */\n      swap3\n      pop\n        /* \"#utility.yul\":2785:2786   */\n      dup3\n        /* \"#utility.yul\":2775:2810   */\n      tag_100\n      jumpi\n        /* \"#utility.yul\":2790:2808   */\n      tag_101\n      tag_66\n      jump\t// in\n    tag_101:\n        /* \"#utility.yul\":2775:2810   */\n    tag_100:\n        /* \"#utility.yul\":2832:2833   */\n      dup3\n        /* \"#utility.yul\":2829:2830   */\n      dup3\n        /* \"#utility.yul\":2824:2834   */\n      smod\n        /* \"#utility.yul\":2819:2834   */\n      swap1\n      pop\n        /* \"#utility.yul\":2666:2840   */\n      swap3\n      swap2\n      pop\n      pop\n      jump\t// out\n        /* \"#utility.yul\":2846:3026   */\n    tag_67:\n        /* \"#utility.yul\":2894:2971   */\n      0x4e487b7100000000000000000000000000000000000000000000000000000000\n        /* \"#utility.yul\":2891:2892   */\n      0x00\n        /* \"#utility.yul\":2884:2972   */\n      mstore\n        /* \"#utility.yul\":2991:2995   */\n      0x11\n        /* \"#utility.yul\":2988:2989   */\n      0x04\n        /* \"#utility.yul\":2981:2996   */\n      mstore\n        /* \"#utility.yul\":3015:3019   */\n      0x24\n        /* \"#utility.yul\":3012:3013   */\n      0x00\n        /* \"#utility.yul\":3005:3020   */\n      revert\n        /* \"#utility.yul\":3032:3404   */\n    tag_42:\n        /* \"#utility.yul\":3071:3075   */\n      0x00\n        /* \"#utility.yul\":3091:3110   */\n      tag_104\n        /* \"#utility.yul\":3108:3109   */\n      dup3\n        /* \"#utility.yul\":3091:3110   */\n      tag_57\n      jump\t// in\n    tag_104:\n        /* \"#utility.yul\":3086:3110   */\n      swap2\n      pop\n        /* \"#utility.yul\":3124:3143   */\n      tag_105\n        /* \"#utility.yul\":3141:3142   */\n      dup4\n        /* \"#utility.yul\":3124:3143   */\n      tag_57\n      jump\t// in\n    tag_105:\n        /* \"#utility.yul\":3119:3143   */\n      swap3\n      pop\n        /* \"#utility.yul\":3167:3168   */\n      dup3\n        /* \"#utility.yul\":3164:3165   */\n      dup3\n        /* \"#utility.yul\":3160:3169   */\n      sub\n        /* \"#utility.yul\":3152:3169   */\n      swap1\n      pop\n        /* \"#utility.yul\":3361:3362   */\n      dup2\n        /* \"#utility.yul\":3355:3359   */\n      dup2\n        /* \"#utility.yul\":3351:3363   */\n      slt\n        /* \"#utility.yul\":3347:3348   */\n      0x00\n        /* \"#utility.yul\":3344:3345   */\n      dup5\n        /* \"#utility.yul\":3340:3349   */\n      slt\n        /* \"#utility.yul\":3336:3364   */\n      and\n        /* \"#utility.yul\":3319:3320   */\n      dup3\n        /* \"#utility.yul\":3313:3317   */\n      dup3\n        /* \"#utility.yul\":3309:3321   */\n      sgt\n        /* \"#utility.yul\":3304:3305   */\n      0x00\n        /* \"#utility.yul\":3301:3302   */\n      dup6\n        /* \"#utility.yul\":3297:3306   */\n      slt\n        /* \"#utility.yul\":3290:3307   */\n      iszero\n        /* \"#utility.yul\":3286:3322   */\n      and\n        /* \"#utility.yul\":3270:3374   */\n      or\n        /* \"#utility.yul\":3267:3397   */\n      iszero\n      tag_106\n      jumpi\n        /* \"#utility.yul\":3377:3395   */\n      tag_107\n      tag_67\n      jump\t// in\n    tag_107:\n        /* \"#utility.yul\":3267:3397   */\n    tag_106:\n        /* \"#utility.yul\":3032:3404   */\n      swap3\n      swap2\n      pop\n      pop\n      jump\t// out\n        /* \"#utility.yul\":3410:3641   */\n    tag_53:\n        /* \"#utility.yul\":3448:3451   */\n      0x00\n        /* \"#utility.yul\":3471:3494   */\n      tag_109\n        /* \"#utility.yul\":3488:3493   */\n      dup3\n        /* \"#utility.yul\":3471:3494   */\n      tag_57\n      jump\t// in\n    tag_109:\n        /* \"#utility.yul\":3462:3494   */\n      swap2\n      pop\n        /* \"#utility.yul\":3516:3582   */\n      0x7fffffffffffffffffffffffffffffffffffffffffffffffffffffffffffffff\n        /* \"#utility.yul\":3509:3514   */\n      dup3\n        /* \"#utility.yul\":3506:3583   */\n      sub\n        /* \"#utility.yul\":3503:3606   */\n      tag_110\n      jumpi\n        /* \"#utility.yul\":3586:3604   */\n      tag_111\n      tag_67\n      jump\t// in\n    tag_111:\n        /* \"#utility.yul\":3503:3606   */\n    tag_110:\n        /* \"#utility.yul\":3633:3634   */\n      0x01\n        /* \"#utility.yul\":3626:3631   */\n      dup3\n        /* \"#utility.yul\":3622:3635   */\n      add\n        /* \"#utility.yul\":3615:3635   */\n      swap1\n      pop\n        /* \"#utility.yul\":3410:3641   */\n      swap2\n      swap1\n      pop\n      jump\t// out\n    stop\n    data_006528a6fcb5471de87cd639fd25ced1201b6a3f6fb260cdba3d07bfc58da69f 54686973206973206e756d62657220697320706f7369746976652f6f6464206e756d62657220616e64206e6f742061207072696d65206e756d626572\n    data_0826566b263feffc080777c046bbc452d6b9fe2de4031463f1cc7b38126a5bf3 546869732069732061206e656761746976652f6576656e206e756d62657220616e64206e6f742061207072696d65206e756d626572\n    data_72669ae7c36bb18c2be49dfcd106d7027b29969cf04267a4599abd9cbb32a604 546869732069732061206e656761746976652f6f6464206e756d62657220616e64206e6f742061207072696d65206e756d626572\n    data_73bb6d38b45b0ad1ca33c2a23b9996dd965fb6915e365f1c4894fa349c06224c 54686973206973206e756d6265722069732061206e65757472616c206e756d626572\n    data_820a5b6ba5c168df104a385bb975cf88e7607a8c1a7bbe628a04ab4a064976e9 54686973206973206e756d62657220697320706f7369746976652f6f64642f7072696d65206e756d626572\n    data_a40902a0bbc4d802bc9f1a4cd019a07732c0a8edb5be837e0c78c4878cca9ba0 54686973206973206e756d62657220697320706f7369746976652f6576656e206e756d62657220616e64206e6f742061207072696d65206e756d62657220\n    data_a7922506046fad8a5eb2b121e57790a36facf85c9b267da2d61ff189fb25da61 54686973206973206e756d62657220697320706f7369746976652f6576656e2f7072696d65206e756d626572\n\n    auxdata: 0xa264697066735822122048ab79c05f30dec24b58ee7f948a6fe8e3eac7b9577dfb5ef33be35eee9b32de64736f6c634300081a0033\n}\n",
				"bytecode": {
					"linkReferences": {},
					"object": "6080604052348015600e575f80fd5b5061063b8061001c5f395ff3fe608060405234801561000f575f80fd5b5060043610610029575f3560e01c8063d8e79ae31461002d575b5f80fd5b610047600480360381019061004291906102c0565b61005e565b60405161005592919061036a565b60405180910390f35b5f60605f61006b846101ac565b90505f8412156100d0575f60028561008391906103c5565b036100ac57836040518060600160405280603581526020016104e66035913992509250506101a7565b8360405180606001604052806034815260200161051b6034913992509250506101a7565b5f841315610187575f6002856100e691906103c5565b0361013957801561011557836040518060600160405280602c81526020016105da602c913992509250506101a7565b836040518060600160405280603e815260200161059c603e913992509250506101a7565b801561016357836040518060600160405280602b8152602001610571602b913992509250506101a7565b836040518060600160405280603c81526020016104aa603c913992509250506101a7565b8360405180606001604052806022815260200161054f6022913992509250505b915091565b5f60028212156101be575f9050610284565b6001821380156101cf575060058213155b1561023957600282036101e55760019050610284565b5f600290505b82811215610230575f818461020091906103c5565b0315610230576001836102139190610422565b8103610223576001915050610284565b80806001019150506101eb565b505f9050610284565b5f600290505b6005811361027f575f818461025491906103c5565b031561027f576005810361026c576001915050610284565b808061027790610462565b91505061023f565b505f90505b919050565b5f80fd5b5f819050919050565b61029f8161028d565b81146102a9575f80fd5b50565b5f813590506102ba81610296565b92915050565b5f602082840312156102d5576102d4610289565b5b5f6102e2848285016102ac565b91505092915050565b6102f48161028d565b82525050565b5f81519050919050565b5f82825260208201905092915050565b8281835e5f83830152505050565b5f601f19601f8301169050919050565b5f61033c826102fa565b6103468185610304565b9350610356818560208601610314565b61035f81610322565b840191505092915050565b5f60408201905061037d5f8301856102eb565b818103602083015261038f8184610332565b90509392505050565b7f4e487b71000000000000000000000000000000000000000000000000000000005f52601260045260245ffd5b5f6103cf8261028d565b91506103da8361028d565b9250826103ea576103e9610398565b5b828207905092915050565b7f4e487b71000000000000000000000000000000000000000000000000000000005f52601160045260245ffd5b5f61042c8261028d565b91506104378361028d565b925082820390508181125f8412168282135f85121516171561045c5761045b6103f5565b5b92915050565b5f61046c8261028d565b91507f7fffffffffffffffffffffffffffffffffffffffffffffffffffffffffffffff820361049e5761049d6103f5565b5b60018201905091905056fe54686973206973206e756d62657220697320706f7369746976652f6f6464206e756d62657220616e64206e6f742061207072696d65206e756d626572546869732069732061206e656761746976652f6576656e206e756d62657220616e64206e6f742061207072696d65206e756d626572546869732069732061206e656761746976652f6f6464206e756d62657220616e64206e6f742061207072696d65206e756d62657254686973206973206e756d6265722069732061206e65757472616c206e756d62657254686973206973206e756d62657220697320706f7369746976652f6f64642f7072696d65206e756d62657254686973206973206e756d62657220697320706f7369746976652f6576656e206e756d62657220616e64206e6f742061207072696d65206e756d6265722054686973206973206e756d62657220697320706f7369746976652f6576656e2f7072696d65206e756d626572a264697066735822122048ab79c05f30dec24b58ee7f948a6fe8e3eac7b9577dfb5ef33be35eee9b32de64736f6c634300081a0033",
					"opcodes": "PUSH1 0x80 PUSH1 0x40 MSTORE CALLVALUE DUP1 ISZERO PUSH1 0xE JUMPI PUSH0 DUP1 REVERT JUMPDEST POP PUSH2 0x63B DUP1 PUSH2 0x1C PUSH0 CODECOPY PUSH0 RETURN INVALID PUSH1 0x80 PUSH1 0x40 MSTORE CALLVALUE DUP1 ISZERO PUSH2 0xF JUMPI PUSH0 DUP1 REVERT JUMPDEST POP PUSH1 0x4 CALLDATASIZE LT PUSH2 0x29 JUMPI PUSH0 CALLDATALOAD PUSH1 0xE0 SHR DUP1 PUSH4 0xD8E79AE3 EQ PUSH2 0x2D JUMPI JUMPDEST PUSH0 DUP1 REVERT JUMPDEST PUSH2 0x47 PUSH1 0x4 DUP1 CALLDATASIZE SUB DUP2 ADD SWAP1 PUSH2 0x42 SWAP2 SWAP1 PUSH2 0x2C0 JUMP JUMPDEST PUSH2 0x5E JUMP JUMPDEST PUSH1 0x40 MLOAD PUSH2 0x55 SWAP3 SWAP2 SWAP1 PUSH2 0x36A JUMP JUMPDEST PUSH1 0x40 MLOAD DUP1 SWAP2 SUB SWAP1 RETURN JUMPDEST PUSH0 PUSH1 0x60 PUSH0 PUSH2 0x6B DUP5 PUSH2 0x1AC JUMP JUMPDEST SWAP1 POP PUSH0 DUP5 SLT ISZERO PUSH2 0xD0 JUMPI PUSH0 PUSH1 0x2 DUP6 PUSH2 0x83 SWAP2 SWAP1 PUSH2 0x3C5 JUMP JUMPDEST SUB PUSH2 0xAC JUMPI DUP4 PUSH1 0x40 MLOAD DUP1 PUSH1 0x60 ADD PUSH1 0x40 MSTORE DUP1 PUSH1 0x35 DUP2 MSTORE PUSH1 0x20 ADD PUSH2 0x4E6 PUSH1 0x35 SWAP2 CODECOPY SWAP3 POP SWAP3 POP POP PUSH2 0x1A7 JUMP JUMPDEST DUP4 PUSH1 0x40 MLOAD DUP1 PUSH1 0x60 ADD PUSH1 0x40 MSTORE DUP1 PUSH1 0x34 DUP2 MSTORE PUSH1 0x20 ADD PUSH2 0x51B PUSH1 0x34 SWAP2 CODECOPY SWAP3 POP SWAP3 POP POP PUSH2 0x1A7 JUMP JUMPDEST PUSH0 DUP5 SGT ISZERO PUSH2 0x187 JUMPI PUSH0 PUSH1 0x2 DUP6 PUSH2 0xE6 SWAP2 SWAP1 PUSH2 0x3C5 JUMP JUMPDEST SUB PUSH2 0x139 JUMPI DUP1 ISZERO PUSH2 0x115 JUMPI DUP4 PUSH1 0x40 MLOAD DUP1 PUSH1 0x60 ADD PUSH1 0x40 MSTORE DUP1 PUSH1 0x2C DUP2 MSTORE PUSH1 0x20 ADD PUSH2 0x5DA PUSH1 0x2C SWAP2 CODECOPY SWAP3 POP SWAP3 POP POP PUSH2 0x1A7 JUMP JUMPDEST DUP4 PUSH1 0x40 MLOAD DUP1 PUSH1 0x60 ADD PUSH1 0x40 MSTORE DUP1 PUSH1 0x3E DUP2 MSTORE PUSH1 0x20 ADD PUSH2 0x59C PUSH1 0x3E SWAP2 CODECOPY SWAP3 POP SWAP3 POP POP PUSH2 0x1A7 JUMP JUMPDEST DUP1 ISZERO PUSH2 0x163 JUMPI DUP4 PUSH1 0x40 MLOAD DUP1 PUSH1 0x60 ADD PUSH1 0x40 MSTORE DUP1 PUSH1 0x2B DUP2 MSTORE PUSH1 0x20 ADD PUSH2 0x571 PUSH1 0x2B SWAP2 CODECOPY SWAP3 POP SWAP3 POP POP PUSH2 0x1A7 JUMP JUMPDEST DUP4 PUSH1 0x40 MLOAD DUP1 PUSH1 0x60 ADD PUSH1 0x40 MSTORE DUP1 PUSH1 0x3C DUP2 MSTORE PUSH1 0x20 ADD PUSH2 0x4AA PUSH1 0x3C SWAP2 CODECOPY SWAP3 POP SWAP3 POP POP PUSH2 0x1A7 JUMP JUMPDEST DUP4 PUSH1 0x40 MLOAD DUP1 PUSH1 0x60 ADD PUSH1 0x40 MSTORE DUP1 PUSH1 0x22 DUP2 MSTORE PUSH1 0x20 ADD PUSH2 0x54F PUSH1 0x22 SWAP2 CODECOPY SWAP3 POP SWAP3 POP POP JUMPDEST SWAP2 POP SWAP2 JUMP JUMPDEST PUSH0 PUSH1 0x2 DUP3 SLT ISZERO PUSH2 0x1BE JUMPI PUSH0 SWAP1 POP PUSH2 0x284 JUMP JUMPDEST PUSH1 0x1 DUP3 SGT DUP1 ISZERO PUSH2 0x1CF JUMPI POP PUSH1 0x5 DUP3 SGT ISZERO JUMPDEST ISZERO PUSH2 0x239 JUMPI PUSH1 0x2 DUP3 SUB PUSH2 0x1E5 JUMPI PUSH1 0x1 SWAP1 POP PUSH2 0x284 JUMP JUMPDEST PUSH0 PUSH1 0x2 SWAP1 POP JUMPDEST DUP3 DUP2 SLT ISZERO PUSH2 0x230 JUMPI PUSH0 DUP2 DUP5 PUSH2 0x200 SWAP2 SWAP1 PUSH2 0x3C5 JUMP JUMPDEST SUB ISZERO PUSH2 0x230 JUMPI PUSH1 0x1 DUP4 PUSH2 0x213 SWAP2 SWAP1 PUSH2 0x422 JUMP JUMPDEST DUP2 SUB PUSH2 0x223 JUMPI PUSH1 0x1 SWAP2 POP POP PUSH2 0x284 JUMP JUMPDEST DUP1 DUP1 PUSH1 0x1 ADD SWAP2 POP POP PUSH2 0x1EB JUMP JUMPDEST POP PUSH0 SWAP1 POP PUSH2 0x284 JUMP JUMPDEST PUSH0 PUSH1 0x2 SWAP1 POP JUMPDEST PUSH1 0x5 DUP2 SGT PUSH2 0x27F JUMPI PUSH0 DUP2 DUP5 PUSH2 0x254 SWAP2 SWAP1 PUSH2 0x3C5 JUMP JUMPDEST SUB ISZERO PUSH2 0x27F JUMPI PUSH1 0x5 DUP2 SUB PUSH2 0x26C JUMPI PUSH1 0x1 SWAP2 POP POP PUSH2 0x284 JUMP JUMPDEST DUP1 DUP1 PUSH2 0x277 SWAP1 PUSH2 0x462 JUMP JUMPDEST SWAP2 POP POP PUSH2 0x23F JUMP JUMPDEST POP PUSH0 SWAP1 POP JUMPDEST SWAP2 SWAP1 POP JUMP JUMPDEST PUSH0 DUP1 REVERT JUMPDEST PUSH0 DUP2 SWAP1 POP SWAP2 SWAP1 POP JUMP JUMPDEST PUSH2 0x29F DUP2 PUSH2 0x28D JUMP JUMPDEST DUP2 EQ PUSH2 0x2A9 JUMPI PUSH0 DUP1 REVERT JUMPDEST POP JUMP JUMPDEST PUSH0 DUP2 CALLDATALOAD SWAP1 POP PUSH2 0x2BA DUP2 PUSH2 0x296 JUMP JUMPDEST SWAP3 SWAP2 POP POP JUMP JUMPDEST PUSH0 PUSH1 0x20 DUP3 DUP5 SUB SLT ISZERO PUSH2 0x2D5 JUMPI PUSH2 0x2D4 PUSH2 0x289 JUMP JUMPDEST JUMPDEST PUSH0 PUSH2 0x2E2 DUP5 DUP3 DUP6 ADD PUSH2 0x2AC JUMP JUMPDEST SWAP2 POP POP SWAP3 SWAP2 POP POP JUMP JUMPDEST PUSH2 0x2F4 DUP2 PUSH2 0x28D JUMP JUMPDEST DUP3 MSTORE POP POP JUMP JUMPDEST PUSH0 DUP2 MLOAD SWAP1 POP SWAP2 SWAP1 POP JUMP JUMPDEST PUSH0 DUP3 DUP3 MSTORE PUSH1 0x20 DUP3 ADD SWAP1 POP SWAP3 SWAP2 POP POP JUMP JUMPDEST DUP3 DUP2 DUP4 MCOPY PUSH0 DUP4 DUP4 ADD MSTORE POP POP POP JUMP JUMPDEST PUSH0 PUSH1 0x1F NOT PUSH1 0x1F DUP4 ADD AND SWAP1 POP SWAP2 SWAP1 POP JUMP JUMPDEST PUSH0 PUSH2 0x33C DUP3 PUSH2 0x2FA JUMP JUMPDEST PUSH2 0x346 DUP2 DUP6 PUSH2 0x304 JUMP JUMPDEST SWAP4 POP PUSH2 0x356 DUP2 DUP6 PUSH1 0x20 DUP7 ADD PUSH2 0x314 JUMP JUMPDEST PUSH2 0x35F DUP2 PUSH2 0x322 JUMP JUMPDEST DUP5 ADD SWAP2 POP POP SWAP3 SWAP2 POP POP JUMP JUMPDEST PUSH0 PUSH1 0x40 DUP3 ADD SWAP1 POP PUSH2 0x37D PUSH0 DUP4 ADD DUP6 PUSH2 0x2EB JUMP JUMPDEST DUP2 DUP2 SUB PUSH1 0x20 DUP4 ADD MSTORE PUSH2 0x38F DUP2 DUP5 PUSH2 0x332 JUMP JUMPDEST SWAP1 POP SWAP4 SWAP3 POP POP POP JUMP JUMPDEST PUSH32 0x4E487B7100000000000000000000000000000000000000000000000000000000 PUSH0 MSTORE PUSH1 0x12 PUSH1 0x4 MSTORE PUSH1 0x24 PUSH0 REVERT JUMPDEST PUSH0 PUSH2 0x3CF DUP3 PUSH2 0x28D JUMP JUMPDEST SWAP2 POP PUSH2 0x3DA DUP4 PUSH2 0x28D JUMP JUMPDEST SWAP3 POP DUP3 PUSH2 0x3EA JUMPI PUSH2 0x3E9 PUSH2 0x398 JUMP JUMPDEST JUMPDEST DUP3 DUP3 SMOD SWAP1 POP SWAP3 SWAP2 POP POP JUMP JUMPDEST PUSH32 0x4E487B7100000000000000000000000000000000000000000000000000000000 PUSH0 MSTORE PUSH1 0x11 PUSH1 0x4 MSTORE PUSH1 0x24 PUSH0 REVERT JUMPDEST PUSH0 PUSH2 0x42C DUP3 PUSH2 0x28D JUMP JUMPDEST SWAP2 POP PUSH2 0x437 DUP4 PUSH2 0x28D JUMP JUMPDEST SWAP3 POP DUP3 DUP3 SUB SWAP1 POP DUP2 DUP2 SLT PUSH0 DUP5 SLT AND DUP3 DUP3 SGT PUSH0 DUP6 SLT ISZERO AND OR ISZERO PUSH2 0x45C JUMPI PUSH2 0x45B PUSH2 0x3F5 JUMP JUMPDEST JUMPDEST SWAP3 SWAP2 POP POP JUMP JUMPDEST PUSH0 PUSH2 0x46C DUP3 PUSH2 0x28D JUMP JUMPDEST SWAP2 POP PUSH32 0x7FFFFFFFFFFFFFFFFFFFFFFFFFFFFFFFFFFFFFFFFFFFFFFFFFFFFFFFFFFFFFFF DUP3 SUB PUSH2 0x49E JUMPI PUSH2 0x49D PUSH2 0x3F5 JUMP JUMPDEST JUMPDEST PUSH1 0x1 DUP3 ADD SWAP1 POP SWAP2 SWAP1 POP JUMP INVALID SLOAD PUSH9 0x6973206973206E756D PUSH3 0x657220 PUSH10 0x7320706F736974697665 0x2F PUSH16 0x6464206E756D62657220616E64206E6F PUSH21 0x2061207072696D65206E756D626572546869732069 PUSH20 0x2061206E656761746976652F6576656E206E756D PUSH3 0x657220 PUSH2 0x6E64 KECCAK256 PUSH15 0x6F742061207072696D65206E756D62 PUSH6 0x725468697320 PUSH10 0x732061206E6567617469 PUSH23 0x652F6F6464206E756D62657220616E64206E6F74206120 PUSH17 0x72696D65206E756D626572546869732069 PUSH20 0x206E756D6265722069732061206E65757472616C KECCAK256 PUSH15 0x756D62657254686973206973206E75 PUSH14 0x62657220697320706F7369746976 PUSH6 0x2F6F64642F70 PUSH19 0x696D65206E756D62657254686973206973206E PUSH22 0x6D62657220697320706F7369746976652F6576656E20 PUSH15 0x756D62657220616E64206E6F742061 KECCAK256 PUSH17 0x72696D65206E756D626572205468697320 PUSH10 0x73206E756D6265722069 PUSH20 0x20706F7369746976652F6576656E2F7072696D65 KECCAK256 PUSH15 0x756D626572A2646970667358221220 BASEFEE 0xAB PUSH26 0xC05F30DEC24B58EE7F948A6FE8E3EAC7B9577DFB5EF33BE35EEE SWAP12 ORIGIN 0xDE PUSH5 0x736F6C6343 STOP ADDMOD BYTE STOP CALLER "
				},
				"gasEstimates": {
					"creation": {
						"codeDepositCost": "319000",
						"executionCost": "353",
						"totalCost": "319353"
					},
					"external": {
						"check_num(int256)": "infinite"
					},
					"internal": {
						"check_prime(int256)": "infinite"
					}
				},
				"methodIdentifiers": {
					"check_num(int256)": "d8e79ae3"
				}
			},
			"storageLayout": {
				"storage": [],
				"types": null
			},
			"userdoc": {
				"kind": "user",
				"methods": {},
				"version": 1
			}
		}
	}
}