{
	"dataTypesAndVariables/dataTypes.sol": {
		"DataTypes": {
			"abi": [
				{
					"inputs": [],
					"name": "isDeveloper",
					"outputs": [
						{
							"internalType": "bool",
							"name": "",
							"type": "bool"
						}
					],
					"stateMutability": "view",
					"type": "function"
				},
				{
					"inputs": [],
					"name": "metamaskAddress",
					"outputs": [
						{
							"internalType": "address",
							"name": "",
							"type": "address"
						}
					],
					"stateMutability": "view",
					"type": "function"
				},
				{
					"inputs": [],
					"name": "myNumber",
					"outputs": [
						{
							"internalType": "uint256",
							"name": "",
							"type": "uint256"
						}
					],
					"stateMutability": "view",
					"type": "function"
				},
				{
					"inputs": [],
					"name": "name",
					"outputs": [
						{
							"internalType": "string",
							"name": "",
							"type": "string"
						}
					],
					"stateMutability": "view",
					"type": "function"
				},
				{
					"inputs": [],
					"name": "number",
					"outputs": [
						{
							"internalType": "int256",
							"name": "",
							"type": "int256"
						}
					],
					"stateMutability": "view",
					"type": "function"
				},
				{
					"inputs": [
						{
							"internalType": "uint256",
							"name": "new_myNuber",
							"type": "uint256"
						},
						{
							"internalType": "int256",
							"name": "new_number",
							"type": "int256"
						},
						{
							"internalType": "bool",
							"name": "new_isDeveloper",
							"type": "bool"
						},
						{
							"internalType": "string",
							"name": "new_name",
							"type": "string"
						},
						{
							"internalType": "address",
							"name": "new_metamaskAdress",
							"type": "address"
						}
					],
					"name": "update_variables",
					"outputs": [
						{
							"internalType": "int256",
							"name": "",
							"type": "int256"
						},
						{
							"internalType": "uint256",
							"name": "",
							"type": "uint256"
						},
						{
							"internalType": "bool",
							"name": "",
							"type": "bool"
						},
						{
							"internalType": "string",
							"name": "",
							"type": "string"
						},
						{
							"internalType": "address",
							"name": "",
							"type": "address"
						}
					],
					"stateMutability": "nonpayable",
					"type": "function"
				}
			],
			"devdoc": {
				"kind": "dev",
				"methods": {},
				"version": 1
			},
			"evm": {
				"assembly": "    /* \"dataTypesAndVariables/dataTypes.sol\":58:784  contract DataTypes {... */\n  mstore(0x40, 0x80)\n    /* \"dataTypesAndVariables/dataTypes.sol\":109:112  101 */\n  0x65\n    /* \"dataTypesAndVariables/dataTypes.sol\":83:112  uint256 public myNumber = 101 */\n  0x00\n  sstore\n    /* \"dataTypesAndVariables/dataTypes.sol\":141:145  -101 */\n  0xffffffffffffffffffffffffffffffffffffffffffffffffffffffffffffff9b\n    /* \"dataTypesAndVariables/dataTypes.sol\":118:145  int256 public number = -101 */\n  0x01\n  sstore\n    /* \"dataTypesAndVariables/dataTypes.sol\":177:181  true */\n  0x01\n    /* \"dataTypesAndVariables/dataTypes.sol\":151:181  bool public isDeveloper = true */\n  0x02\n  exp(0x0100, 0x00)\n  dup2\n  sload\n  dup2\n  0xff\n  mul\n  not\n  and\n  swap1\n  dup4\n  iszero\n  iszero\n  mul\n  or\n  swap1\n  sstore\n  pop\n    /* \"dataTypesAndVariables/dataTypes.sol\":187:225  string public name = \"Blockchain Bard\" */\n  mload(0x40)\n  dup1\n  0x40\n  add\n  0x40\n  mstore\n  dup1\n  0x0f\n  dup2\n  mstore\n  0x20\n  add\n  0x426c6f636b636861696e20426172640000000000000000000000000000000000\n  dup2\n  mstore\n  pop\n  0x03\n  swap1\n  dup2\n  tag_1\n  swap2\n  swap1\n  tag_2\n  jump\t// in\ntag_1:\n  pop\n    /* \"dataTypesAndVariables/dataTypes.sol\":264:306  0xf483c898e6b9B45e24ff7b79cD02c196ab81F291 */\n  0xf483c898e6b9b45e24ff7b79cd02c196ab81f291\n    /* \"dataTypesAndVariables/dataTypes.sol\":231:306  address public metamaskAddress = 0xf483c898e6b9B45e24ff7b79cD02c196ab81F291 */\n  0x04\n  exp(0x0100, 0x00)\n  dup2\n  sload\n  dup2\n  0xffffffffffffffffffffffffffffffffffffffff\n  mul\n  not\n  and\n  swap1\n  dup4\n  0xffffffffffffffffffffffffffffffffffffffff\n  and\n  mul\n  or\n  swap1\n  sstore\n  pop\n    /* \"dataTypesAndVariables/dataTypes.sol\":58:784  contract DataTypes {... */\n  callvalue\n  dup1\n  iszero\n  tag_3\n  jumpi\n  0x00\n  dup1\n  revert\ntag_3:\n  pop\n  jump(tag_4)\n    /* \"#utility.yul\":7:106   */\ntag_5:\n    /* \"#utility.yul\":59:65   */\n  0x00\n    /* \"#utility.yul\":93:98   */\n  dup2\n    /* \"#utility.yul\":87:99   */\n  mload\n    /* \"#utility.yul\":77:99   */\n  swap1\n  pop\n    /* \"#utility.yul\":7:106   */\n  swap2\n  swap1\n  pop\n  jump\t// out\n    /* \"#utility.yul\":112:292   */\ntag_6:\n    /* \"#utility.yul\":160:237   */\n  0x4e487b7100000000000000000000000000000000000000000000000000000000\n    /* \"#utility.yul\":157:158   */\n  0x00\n    /* \"#utility.yul\":150:238   */\n  mstore\n    /* \"#utility.yul\":257:261   */\n  0x41\n    /* \"#utility.yul\":254:255   */\n  0x04\n    /* \"#utility.yul\":247:262   */\n  mstore\n    /* \"#utility.yul\":281:285   */\n  0x24\n    /* \"#utility.yul\":278:279   */\n  0x00\n    /* \"#utility.yul\":271:286   */\n  revert\n    /* \"#utility.yul\":298:478   */\ntag_7:\n    /* \"#utility.yul\":346:423   */\n  0x4e487b7100000000000000000000000000000000000000000000000000000000\n    /* \"#utility.yul\":343:344   */\n  0x00\n    /* \"#utility.yul\":336:424   */\n  mstore\n    /* \"#utility.yul\":443:447   */\n  0x22\n    /* \"#utility.yul\":440:441   */\n  0x04\n    /* \"#utility.yul\":433:448   */\n  mstore\n    /* \"#utility.yul\":467:471   */\n  0x24\n    /* \"#utility.yul\":464:465   */\n  0x00\n    /* \"#utility.yul\":457:472   */\n  revert\n    /* \"#utility.yul\":484:804   */\ntag_8:\n    /* \"#utility.yul\":528:534   */\n  0x00\n    /* \"#utility.yul\":565:566   */\n  0x02\n    /* \"#utility.yul\":559:563   */\n  dup3\n    /* \"#utility.yul\":555:567   */\n  div\n    /* \"#utility.yul\":545:567   */\n  swap1\n  pop\n    /* \"#utility.yul\":612:613   */\n  0x01\n    /* \"#utility.yul\":606:610   */\n  dup3\n    /* \"#utility.yul\":602:614   */\n  and\n    /* \"#utility.yul\":633:651   */\n  dup1\n    /* \"#utility.yul\":623:704   */\n  tag_30\n  jumpi\n    /* \"#utility.yul\":689:693   */\n  0x7f\n    /* \"#utility.yul\":681:687   */\n  dup3\n    /* \"#utility.yul\":677:694   */\n  and\n    /* \"#utility.yul\":667:694   */\n  swap2\n  pop\n    /* \"#utility.yul\":623:704   */\ntag_30:\n    /* \"#utility.yul\":751:753   */\n  0x20\n    /* \"#utility.yul\":743:749   */\n  dup3\n    /* \"#utility.yul\":740:754   */\n  lt\n    /* \"#utility.yul\":720:738   */\n  dup2\n    /* \"#utility.yul\":717:755   */\n  sub\n    /* \"#utility.yul\":714:798   */\n  tag_31\n  jumpi\n    /* \"#utility.yul\":770:788   */\n  tag_32\n  tag_7\n  jump\t// in\ntag_32:\n    /* \"#utility.yul\":714:798   */\ntag_31:\n    /* \"#utility.yul\":535:804   */\n  pop\n    /* \"#utility.yul\":484:804   */\n  swap2\n  swap1\n  pop\n  jump\t// out\n    /* \"#utility.yul\":810:951   */\ntag_9:\n    /* \"#utility.yul\":859:863   */\n  0x00\n    /* \"#utility.yul\":882:885   */\n  dup2\n    /* \"#utility.yul\":874:885   */\n  swap1\n  pop\n    /* \"#utility.yul\":905:908   */\n  dup2\n    /* \"#utility.yul\":902:903   */\n  0x00\n    /* \"#utility.yul\":895:909   */\n  mstore\n    /* \"#utility.yul\":939:943   */\n  0x20\n    /* \"#utility.yul\":936:937   */\n  0x00\n    /* \"#utility.yul\":926:944   */\n  keccak256\n    /* \"#utility.yul\":918:944   */\n  swap1\n  pop\n    /* \"#utility.yul\":810:951   */\n  swap2\n  swap1\n  pop\n  jump\t// out\n    /* \"#utility.yul\":957:1050   */\ntag_10:\n    /* \"#utility.yul\":994:1000   */\n  0x00\n    /* \"#utility.yul\":1041:1043   */\n  0x20\n    /* \"#utility.yul\":1036:1038   */\n  0x1f\n    /* \"#utility.yul\":1029:1034   */\n  dup4\n    /* \"#utility.yul\":1025:1039   */\n  add\n    /* \"#utility.yul\":1021:1044   */\n  div\n    /* \"#utility.yul\":1011:1044   */\n  swap1\n  pop\n    /* \"#utility.yul\":957:1050   */\n  swap2\n  swap1\n  pop\n  jump\t// out\n    /* \"#utility.yul\":1056:1163   */\ntag_11:\n    /* \"#utility.yul\":1100:1108   */\n  0x00\n    /* \"#utility.yul\":1150:1155   */\n  dup3\n    /* \"#utility.yul\":1144:1148   */\n  dup3\n    /* \"#utility.yul\":1140:1156   */\n  shl\n    /* \"#utility.yul\":1119:1156   */\n  swap1\n  pop\n    /* \"#utility.yul\":1056:1163   */\n  swap3\n  swap2\n  pop\n  pop\n  jump\t// out\n    /* \"#utility.yul\":1169:1562   */\ntag_12:\n    /* \"#utility.yul\":1238:1244   */\n  0x00\n    /* \"#utility.yul\":1288:1289   */\n  0x08\n    /* \"#utility.yul\":1276:1286   */\n  dup4\n    /* \"#utility.yul\":1272:1290   */\n  mul\n    /* \"#utility.yul\":1311:1408   */\n  tag_37\n    /* \"#utility.yul\":1341:1407   */\n  0xffffffffffffffffffffffffffffffffffffffffffffffffffffffffffffffff\n    /* \"#utility.yul\":1330:1339   */\n  dup3\n    /* \"#utility.yul\":1311:1408   */\n  tag_11\n  jump\t// in\ntag_37:\n    /* \"#utility.yul\":1429:1468   */\n  tag_38\n    /* \"#utility.yul\":1459:1467   */\n  dup7\n    /* \"#utility.yul\":1448:1457   */\n  dup4\n    /* \"#utility.yul\":1429:1468   */\n  tag_11\n  jump\t// in\ntag_38:\n    /* \"#utility.yul\":1417:1468   */\n  swap6\n  pop\n    /* \"#utility.yul\":1501:1505   */\n  dup1\n    /* \"#utility.yul\":1497:1506   */\n  not\n    /* \"#utility.yul\":1490:1495   */\n  dup5\n    /* \"#utility.yul\":1486:1507   */\n  and\n    /* \"#utility.yul\":1477:1507   */\n  swap4\n  pop\n    /* \"#utility.yul\":1550:1554   */\n  dup1\n    /* \"#utility.yul\":1540:1548   */\n  dup7\n    /* \"#utility.yul\":1536:1555   */\n  and\n    /* \"#utility.yul\":1529:1534   */\n  dup5\n    /* \"#utility.yul\":1526:1556   */\n  or\n    /* \"#utility.yul\":1516:1556   */\n  swap3\n  pop\n    /* \"#utility.yul\":1245:1562   */\n  pop\n  pop\n    /* \"#utility.yul\":1169:1562   */\n  swap4\n  swap3\n  pop\n  pop\n  pop\n  jump\t// out\n    /* \"#utility.yul\":1568:1645   */\ntag_13:\n    /* \"#utility.yul\":1605:1612   */\n  0x00\n    /* \"#utility.yul\":1634:1639   */\n  dup2\n    /* \"#utility.yul\":1623:1639   */\n  swap1\n  pop\n    /* \"#utility.yul\":1568:1645   */\n  swap2\n  swap1\n  pop\n  jump\t// out\n    /* \"#utility.yul\":1651:1711   */\ntag_14:\n    /* \"#utility.yul\":1679:1682   */\n  0x00\n    /* \"#utility.yul\":1700:1705   */\n  dup2\n    /* \"#utility.yul\":1693:1705   */\n  swap1\n  pop\n    /* \"#utility.yul\":1651:1711   */\n  swap2\n  swap1\n  pop\n  jump\t// out\n    /* \"#utility.yul\":1717:1859   */\ntag_15:\n    /* \"#utility.yul\":1767:1776   */\n  0x00\n    /* \"#utility.yul\":1800:1853   */\n  tag_42\n    /* \"#utility.yul\":1818:1852   */\n  tag_43\n    /* \"#utility.yul\":1827:1851   */\n  tag_44\n    /* \"#utility.yul\":1845:1850   */\n  dup5\n    /* \"#utility.yul\":1827:1851   */\n  tag_13\n  jump\t// in\ntag_44:\n    /* \"#utility.yul\":1818:1852   */\n  tag_14\n  jump\t// in\ntag_43:\n    /* \"#utility.yul\":1800:1853   */\n  tag_13\n  jump\t// in\ntag_42:\n    /* \"#utility.yul\":1787:1853   */\n  swap1\n  pop\n    /* \"#utility.yul\":1717:1859   */\n  swap2\n  swap1\n  pop\n  jump\t// out\n    /* \"#utility.yul\":1865:1940   */\ntag_16:\n    /* \"#utility.yul\":1908:1911   */\n  0x00\n    /* \"#utility.yul\":1929:1934   */\n  dup2\n    /* \"#utility.yul\":1922:1934   */\n  swap1\n  pop\n    /* \"#utility.yul\":1865:1940   */\n  swap2\n  swap1\n  pop\n  jump\t// out\n    /* \"#utility.yul\":1946:2215   */\ntag_17:\n    /* \"#utility.yul\":2056:2095   */\n  tag_47\n    /* \"#utility.yul\":2087:2094   */\n  dup4\n    /* \"#utility.yul\":2056:2095   */\n  tag_15\n  jump\t// in\ntag_47:\n    /* \"#utility.yul\":2117:2208   */\n  tag_48\n    /* \"#utility.yul\":2166:2207   */\n  tag_49\n    /* \"#utility.yul\":2190:2206   */\n  dup3\n    /* \"#utility.yul\":2166:2207   */\n  tag_16\n  jump\t// in\ntag_49:\n    /* \"#utility.yul\":2158:2164   */\n  dup5\n    /* \"#utility.yul\":2151:2155   */\n  dup5\n    /* \"#utility.yul\":2145:2156   */\n  sload\n    /* \"#utility.yul\":2117:2208   */\n  tag_12\n  jump\t// in\ntag_48:\n    /* \"#utility.yul\":2111:2115   */\n  dup3\n    /* \"#utility.yul\":2104:2209   */\n  sstore\n    /* \"#utility.yul\":2022:2215   */\n  pop\n    /* \"#utility.yul\":1946:2215   */\n  pop\n  pop\n  pop\n  jump\t// out\n    /* \"#utility.yul\":2221:2294   */\ntag_18:\n    /* \"#utility.yul\":2266:2269   */\n  0x00\n    /* \"#utility.yul\":2221:2294   */\n  swap1\n  jump\t// out\n    /* \"#utility.yul\":2300:2489   */\ntag_19:\n    /* \"#utility.yul\":2377:2409   */\n  tag_52\n  tag_18\n  jump\t// in\ntag_52:\n    /* \"#utility.yul\":2418:2483   */\n  tag_53\n    /* \"#utility.yul\":2476:2482   */\n  dup2\n    /* \"#utility.yul\":2468:2474   */\n  dup5\n    /* \"#utility.yul\":2462:2466   */\n  dup5\n    /* \"#utility.yul\":2418:2483   */\n  tag_17\n  jump\t// in\ntag_53:\n    /* \"#utility.yul\":2353:2489   */\n  pop\n    /* \"#utility.yul\":2300:2489   */\n  pop\n  pop\n  jump\t// out\n    /* \"#utility.yul\":2495:2681   */\ntag_20:\n    /* \"#utility.yul\":2555:2675   */\ntag_55:\n    /* \"#utility.yul\":2572:2575   */\n  dup2\n    /* \"#utility.yul\":2565:2570   */\n  dup2\n    /* \"#utility.yul\":2562:2576   */\n  lt\n    /* \"#utility.yul\":2555:2675   */\n  iszero\n  tag_57\n  jumpi\n    /* \"#utility.yul\":2626:2665   */\n  tag_58\n    /* \"#utility.yul\":2663:2664   */\n  0x00\n    /* \"#utility.yul\":2656:2661   */\n  dup3\n    /* \"#utility.yul\":2626:2665   */\n  tag_19\n  jump\t// in\ntag_58:\n    /* \"#utility.yul\":2599:2600   */\n  0x01\n    /* \"#utility.yul\":2592:2597   */\n  dup2\n    /* \"#utility.yul\":2588:2601   */\n  add\n    /* \"#utility.yul\":2579:2601   */\n  swap1\n  pop\n    /* \"#utility.yul\":2555:2675   */\n  jump(tag_55)\ntag_57:\n    /* \"#utility.yul\":2495:2681   */\n  pop\n  pop\n  jump\t// out\n    /* \"#utility.yul\":2687:3230   */\ntag_21:\n    /* \"#utility.yul\":2788:2790   */\n  0x1f\n    /* \"#utility.yul\":2783:2786   */\n  dup3\n    /* \"#utility.yul\":2780:2791   */\n  gt\n    /* \"#utility.yul\":2777:3223   */\n  iszero\n  tag_60\n  jumpi\n    /* \"#utility.yul\":2822:2860   */\n  tag_61\n    /* \"#utility.yul\":2854:2859   */\n  dup2\n    /* \"#utility.yul\":2822:2860   */\n  tag_9\n  jump\t// in\ntag_61:\n    /* \"#utility.yul\":2906:2935   */\n  tag_62\n    /* \"#utility.yul\":2924:2934   */\n  dup5\n    /* \"#utility.yul\":2906:2935   */\n  tag_10\n  jump\t// in\ntag_62:\n    /* \"#utility.yul\":2896:2904   */\n  dup2\n    /* \"#utility.yul\":2892:2936   */\n  add\n    /* \"#utility.yul\":3089:3091   */\n  0x20\n    /* \"#utility.yul\":3077:3087   */\n  dup6\n    /* \"#utility.yul\":3074:3092   */\n  lt\n    /* \"#utility.yul\":3071:3120   */\n  iszero\n  tag_63\n  jumpi\n    /* \"#utility.yul\":3110:3118   */\n  dup2\n    /* \"#utility.yul\":3095:3118   */\n  swap1\n  pop\n    /* \"#utility.yul\":3071:3120   */\ntag_63:\n    /* \"#utility.yul\":3133:3213   */\n  tag_64\n    /* \"#utility.yul\":3189:3211   */\n  tag_65\n    /* \"#utility.yul\":3207:3210   */\n  dup6\n    /* \"#utility.yul\":3189:3211   */\n  tag_10\n  jump\t// in\ntag_65:\n    /* \"#utility.yul\":3179:3187   */\n  dup4\n    /* \"#utility.yul\":3175:3212   */\n  add\n    /* \"#utility.yul\":3162:3173   */\n  dup3\n    /* \"#utility.yul\":3133:3213   */\n  tag_20\n  jump\t// in\ntag_64:\n    /* \"#utility.yul\":2792:3223   */\n  pop\n  pop\n    /* \"#utility.yul\":2777:3223   */\ntag_60:\n    /* \"#utility.yul\":2687:3230   */\n  pop\n  pop\n  pop\n  jump\t// out\n    /* \"#utility.yul\":3236:3353   */\ntag_22:\n    /* \"#utility.yul\":3290:3298   */\n  0x00\n    /* \"#utility.yul\":3340:3345   */\n  dup3\n    /* \"#utility.yul\":3334:3338   */\n  dup3\n    /* \"#utility.yul\":3330:3346   */\n  shr\n    /* \"#utility.yul\":3309:3346   */\n  swap1\n  pop\n    /* \"#utility.yul\":3236:3353   */\n  swap3\n  swap2\n  pop\n  pop\n  jump\t// out\n    /* \"#utility.yul\":3359:3528   */\ntag_23:\n    /* \"#utility.yul\":3403:3409   */\n  0x00\n    /* \"#utility.yul\":3436:3487   */\n  tag_68\n    /* \"#utility.yul\":3484:3485   */\n  0x00\n    /* \"#utility.yul\":3480:3486   */\n  not\n    /* \"#utility.yul\":3472:3477   */\n  dup5\n    /* \"#utility.yul\":3469:3470   */\n  0x08\n    /* \"#utility.yul\":3465:3478   */\n  mul\n    /* \"#utility.yul\":3436:3487   */\n  tag_22\n  jump\t// in\ntag_68:\n    /* \"#utility.yul\":3432:3488   */\n  not\n    /* \"#utility.yul\":3517:3521   */\n  dup1\n    /* \"#utility.yul\":3511:3515   */\n  dup4\n    /* \"#utility.yul\":3507:3522   */\n  and\n    /* \"#utility.yul\":3497:3522   */\n  swap2\n  pop\n    /* \"#utility.yul\":3410:3528   */\n  pop\n    /* \"#utility.yul\":3359:3528   */\n  swap3\n  swap2\n  pop\n  pop\n  jump\t// out\n    /* \"#utility.yul\":3533:3828   */\ntag_24:\n    /* \"#utility.yul\":3609:3613   */\n  0x00\n    /* \"#utility.yul\":3755:3784   */\n  tag_70\n    /* \"#utility.yul\":3780:3783   */\n  dup4\n    /* \"#utility.yul\":3774:3778   */\n  dup4\n    /* \"#utility.yul\":3755:3784   */\n  tag_23\n  jump\t// in\ntag_70:\n    /* \"#utility.yul\":3747:3784   */\n  swap2\n  pop\n    /* \"#utility.yul\":3817:3820   */\n  dup3\n    /* \"#utility.yul\":3814:3815   */\n  0x02\n    /* \"#utility.yul\":3810:3821   */\n  mul\n    /* \"#utility.yul\":3804:3808   */\n  dup3\n    /* \"#utility.yul\":3801:3822   */\n  or\n    /* \"#utility.yul\":3793:3822   */\n  swap1\n  pop\n    /* \"#utility.yul\":3533:3828   */\n  swap3\n  swap2\n  pop\n  pop\n  jump\t// out\n    /* \"#utility.yul\":3833:5228   */\ntag_2:\n    /* \"#utility.yul\":3950:3987   */\n  tag_72\n    /* \"#utility.yul\":3983:3986   */\n  dup3\n    /* \"#utility.yul\":3950:3987   */\n  tag_5\n  jump\t// in\ntag_72:\n    /* \"#utility.yul\":4052:4070   */\n  0xffffffffffffffff\n    /* \"#utility.yul\":4044:4050   */\n  dup2\n    /* \"#utility.yul\":4041:4071   */\n  gt\n    /* \"#utility.yul\":4038:4094   */\n  iszero\n  tag_73\n  jumpi\n    /* \"#utility.yul\":4074:4092   */\n  tag_74\n  tag_6\n  jump\t// in\ntag_74:\n    /* \"#utility.yul\":4038:4094   */\ntag_73:\n    /* \"#utility.yul\":4118:4156   */\n  tag_75\n    /* \"#utility.yul\":4150:4154   */\n  dup3\n    /* \"#utility.yul\":4144:4155   */\n  sload\n    /* \"#utility.yul\":4118:4156   */\n  tag_8\n  jump\t// in\ntag_75:\n    /* \"#utility.yul\":4203:4270   */\n  tag_76\n    /* \"#utility.yul\":4263:4269   */\n  dup3\n    /* \"#utility.yul\":4255:4261   */\n  dup3\n    /* \"#utility.yul\":4249:4253   */\n  dup6\n    /* \"#utility.yul\":4203:4270   */\n  tag_21\n  jump\t// in\ntag_76:\n    /* \"#utility.yul\":4297:4298   */\n  0x00\n    /* \"#utility.yul\":4321:4325   */\n  0x20\n    /* \"#utility.yul\":4308:4325   */\n  swap1\n  pop\n    /* \"#utility.yul\":4353:4355   */\n  0x1f\n    /* \"#utility.yul\":4345:4351   */\n  dup4\n    /* \"#utility.yul\":4342:4356   */\n  gt\n    /* \"#utility.yul\":4370:4371   */\n  0x01\n    /* \"#utility.yul\":4365:4983   */\n  dup2\n  eq\n  tag_78\n  jumpi\n    /* \"#utility.yul\":5027:5028   */\n  0x00\n    /* \"#utility.yul\":5044:5050   */\n  dup5\n    /* \"#utility.yul\":5041:5118   */\n  iszero\n  tag_79\n  jumpi\n    /* \"#utility.yul\":5093:5102   */\n  dup3\n    /* \"#utility.yul\":5088:5091   */\n  dup8\n    /* \"#utility.yul\":5084:5103   */\n  add\n    /* \"#utility.yul\":5078:5104   */\n  mload\n    /* \"#utility.yul\":5069:5104   */\n  swap1\n  pop\n    /* \"#utility.yul\":5041:5118   */\ntag_79:\n    /* \"#utility.yul\":5144:5211   */\n  tag_80\n    /* \"#utility.yul\":5204:5210   */\n  dup6\n    /* \"#utility.yul\":5197:5202   */\n  dup3\n    /* \"#utility.yul\":5144:5211   */\n  tag_24\n  jump\t// in\ntag_80:\n    /* \"#utility.yul\":5138:5142   */\n  dup7\n    /* \"#utility.yul\":5131:5212   */\n  sstore\n    /* \"#utility.yul\":5000:5222   */\n  pop\n    /* \"#utility.yul\":4335:5222   */\n  jump(tag_77)\n    /* \"#utility.yul\":4365:4983   */\ntag_78:\n    /* \"#utility.yul\":4417:4421   */\n  0x1f\n    /* \"#utility.yul\":4413:4422   */\n  not\n    /* \"#utility.yul\":4405:4411   */\n  dup5\n    /* \"#utility.yul\":4401:4423   */\n  and\n    /* \"#utility.yul\":4451:4488   */\n  tag_81\n    /* \"#utility.yul\":4483:4487   */\n  dup7\n    /* \"#utility.yul\":4451:4488   */\n  tag_9\n  jump\t// in\ntag_81:\n    /* \"#utility.yul\":4510:4511   */\n  0x00\n    /* \"#utility.yul\":4524:4732   */\ntag_82:\n    /* \"#utility.yul\":4538:4545   */\n  dup3\n    /* \"#utility.yul\":4535:4536   */\n  dup2\n    /* \"#utility.yul\":4532:4546   */\n  lt\n    /* \"#utility.yul\":4524:4732   */\n  iszero\n  tag_84\n  jumpi\n    /* \"#utility.yul\":4617:4626   */\n  dup5\n    /* \"#utility.yul\":4612:4615   */\n  dup10\n    /* \"#utility.yul\":4608:4627   */\n  add\n    /* \"#utility.yul\":4602:4628   */\n  mload\n    /* \"#utility.yul\":4594:4600   */\n  dup3\n    /* \"#utility.yul\":4587:4629   */\n  sstore\n    /* \"#utility.yul\":4668:4669   */\n  0x01\n    /* \"#utility.yul\":4660:4666   */\n  dup3\n    /* \"#utility.yul\":4656:4670   */\n  add\n    /* \"#utility.yul\":4646:4670   */\n  swap2\n  pop\n    /* \"#utility.yul\":4715:4717   */\n  0x20\n    /* \"#utility.yul\":4704:4713   */\n  dup6\n    /* \"#utility.yul\":4700:4718   */\n  add\n    /* \"#utility.yul\":4687:4718   */\n  swap5\n  pop\n    /* \"#utility.yul\":4561:4565   */\n  0x20\n    /* \"#utility.yul\":4558:4559   */\n  dup2\n    /* \"#utility.yul\":4554:4566   */\n  add\n    /* \"#utility.yul\":4549:4566   */\n  swap1\n  pop\n    /* \"#utility.yul\":4524:4732   */\n  jump(tag_82)\ntag_84:\n    /* \"#utility.yul\":4760:4766   */\n  dup7\n    /* \"#utility.yul\":4751:4758   */\n  dup4\n    /* \"#utility.yul\":4748:4767   */\n  lt\n    /* \"#utility.yul\":4745:4924   */\n  iszero\n  tag_85\n  jumpi\n    /* \"#utility.yul\":4818:4827   */\n  dup5\n    /* \"#utility.yul\":4813:4816   */\n  dup10\n    /* \"#utility.yul\":4809:4828   */\n  add\n    /* \"#utility.yul\":4803:4829   */\n  mload\n    /* \"#utility.yul\":4861:4909   */\n  tag_86\n    /* \"#utility.yul\":4903:4907   */\n  0x1f\n    /* \"#utility.yul\":4895:4901   */\n  dup10\n    /* \"#utility.yul\":4891:4908   */\n  and\n    /* \"#utility.yul\":4880:4889   */\n  dup3\n    /* \"#utility.yul\":4861:4909   */\n  tag_23\n  jump\t// in\ntag_86:\n    /* \"#utility.yul\":4853:4859   */\n  dup4\n    /* \"#utility.yul\":4846:4910   */\n  sstore\n    /* \"#utility.yul\":4768:4924   */\n  pop\n    /* \"#utility.yul\":4745:4924   */\ntag_85:\n    /* \"#utility.yul\":4970:4971   */\n  0x01\n    /* \"#utility.yul\":4966:4967   */\n  0x02\n    /* \"#utility.yul\":4958:4964   */\n  dup9\n    /* \"#utility.yul\":4954:4968   */\n  mul\n    /* \"#utility.yul\":4950:4972   */\n  add\n    /* \"#utility.yul\":4944:4948   */\n  dup9\n    /* \"#utility.yul\":4937:4973   */\n  sstore\n    /* \"#utility.yul\":4372:4983   */\n  pop\n  pop\n  pop\n    /* \"#utility.yul\":4335:5222   */\ntag_77:\n  pop\n    /* \"#utility.yul\":3925:5228   */\n  pop\n  pop\n  pop\n    /* \"#utility.yul\":3833:5228   */\n  pop\n  pop\n  jump\t// out\n    /* \"dataTypesAndVariables/dataTypes.sol\":58:784  contract DataTypes {... */\ntag_4:\n  dataSize(sub_0)\n  dup1\n  dataOffset(sub_0)\n  0x00\n  codecopy\n  0x00\n  return\nstop\n\nsub_0: assembly {\n        /* \"dataTypesAndVariables/dataTypes.sol\":58:784  contract DataTypes {... */\n      mstore(0x40, 0x80)\n      callvalue\n      dup1\n      iszero\n      tag_1\n      jumpi\n      0x00\n      dup1\n      revert\n    tag_1:\n      pop\n      jumpi(tag_2, lt(calldatasize, 0x04))\n      shr(0xe0, calldataload(0x00))\n      dup1\n      0x06fdde03\n      eq\n      tag_3\n      jumpi\n      dup1\n      0x23fd0e40\n      eq\n      tag_4\n      jumpi\n      dup1\n      0x3f6a15b2\n      eq\n      tag_5\n      jumpi\n      dup1\n      0x5340f495\n      eq\n      tag_6\n      jumpi\n      dup1\n      0x79a8945c\n      eq\n      tag_7\n      jumpi\n      dup1\n      0x8381f58a\n      eq\n      tag_8\n      jumpi\n    tag_2:\n      0x00\n      dup1\n      revert\n        /* \"dataTypesAndVariables/dataTypes.sol\":187:225  string public name = \"Blockchain Bard\" */\n    tag_3:\n      tag_9\n      tag_10\n      jump\t// in\n    tag_9:\n      mload(0x40)\n      tag_11\n      swap2\n      swap1\n      tag_12\n      jump\t// in\n    tag_11:\n      mload(0x40)\n      dup1\n      swap2\n      sub\n      swap1\n      return\n        /* \"dataTypesAndVariables/dataTypes.sol\":83:112  uint256 public myNumber = 101 */\n    tag_4:\n      tag_13\n      tag_14\n      jump\t// in\n    tag_13:\n      mload(0x40)\n      tag_15\n      swap2\n      swap1\n      tag_16\n      jump\t// in\n    tag_15:\n      mload(0x40)\n      dup1\n      swap2\n      sub\n      swap1\n      return\n        /* \"dataTypesAndVariables/dataTypes.sol\":313:781  function update_variables(uint256 new_myNuber, int256 new_number, bool new_isDeveloper, string memory new_name, address new_metamaskAdress) public returns(int256, uint256, bool, string memory, address){... */\n    tag_5:\n      tag_17\n      0x04\n      dup1\n      calldatasize\n      sub\n      dup2\n      add\n      swap1\n      tag_18\n      swap2\n      swap1\n      tag_19\n      jump\t// in\n    tag_18:\n      tag_20\n      jump\t// in\n    tag_17:\n      mload(0x40)\n      tag_21\n      swap6\n      swap5\n      swap4\n      swap3\n      swap2\n      swap1\n      tag_22\n      jump\t// in\n    tag_21:\n      mload(0x40)\n      dup1\n      swap2\n      sub\n      swap1\n      return\n        /* \"dataTypesAndVariables/dataTypes.sol\":231:306  address public metamaskAddress = 0xf483c898e6b9B45e24ff7b79cD02c196ab81F291 */\n    tag_6:\n      tag_23\n      tag_24\n      jump\t// in\n    tag_23:\n      mload(0x40)\n      tag_25\n      swap2\n      swap1\n      tag_26\n      jump\t// in\n    tag_25:\n      mload(0x40)\n      dup1\n      swap2\n      sub\n      swap1\n      return\n        /* \"dataTypesAndVariables/dataTypes.sol\":151:181  bool public isDeveloper = true */\n    tag_7:\n      tag_27\n      tag_28\n      jump\t// in\n    tag_27:\n      mload(0x40)\n      tag_29\n      swap2\n      swap1\n      tag_30\n      jump\t// in\n    tag_29:\n      mload(0x40)\n      dup1\n      swap2\n      sub\n      swap1\n      return\n        /* \"dataTypesAndVariables/dataTypes.sol\":118:145  int256 public number = -101 */\n    tag_8:\n      tag_31\n      tag_32\n      jump\t// in\n    tag_31:\n      mload(0x40)\n      tag_33\n      swap2\n      swap1\n      tag_34\n      jump\t// in\n    tag_33:\n      mload(0x40)\n      dup1\n      swap2\n      sub\n      swap1\n      return\n        /* \"dataTypesAndVariables/dataTypes.sol\":187:225  string public name = \"Blockchain Bard\" */\n    tag_10:\n      0x03\n      dup1\n      sload\n      tag_35\n      swap1\n      tag_36\n      jump\t// in\n    tag_35:\n      dup1\n      0x1f\n      add\n      0x20\n      dup1\n      swap2\n      div\n      mul\n      0x20\n      add\n      mload(0x40)\n      swap1\n      dup2\n      add\n      0x40\n      mstore\n      dup1\n      swap3\n      swap2\n      swap1\n      dup2\n      dup2\n      mstore\n      0x20\n      add\n      dup3\n      dup1\n      sload\n      tag_37\n      swap1\n      tag_36\n      jump\t// in\n    tag_37:\n      dup1\n      iszero\n      tag_38\n      jumpi\n      dup1\n      0x1f\n      lt\n      tag_39\n      jumpi\n      0x0100\n      dup1\n      dup4\n      sload\n      div\n      mul\n      dup4\n      mstore\n      swap2\n      0x20\n      add\n      swap2\n      jump(tag_38)\n    tag_39:\n      dup3\n      add\n      swap2\n      swap1\n      0x00\n      mstore\n      keccak256(0x00, 0x20)\n      swap1\n    tag_40:\n      dup2\n      sload\n      dup2\n      mstore\n      swap1\n      0x01\n      add\n      swap1\n      0x20\n      add\n      dup1\n      dup4\n      gt\n      tag_40\n      jumpi\n      dup3\n      swap1\n      sub\n      0x1f\n      and\n      dup3\n      add\n      swap2\n    tag_38:\n      pop\n      pop\n      pop\n      pop\n      pop\n      dup2\n      jump\t// out\n        /* \"dataTypesAndVariables/dataTypes.sol\":83:112  uint256 public myNumber = 101 */\n    tag_14:\n      sload(0x00)\n      dup2\n      jump\t// out\n        /* \"dataTypesAndVariables/dataTypes.sol\":313:781  function update_variables(uint256 new_myNuber, int256 new_number, bool new_isDeveloper, string memory new_name, address new_metamaskAdress) public returns(int256, uint256, bool, string memory, address){... */\n    tag_20:\n        /* \"dataTypesAndVariables/dataTypes.sol\":468:474  int256 */\n      0x00\n        /* \"dataTypesAndVariables/dataTypes.sol\":476:483  uint256 */\n      dup1\n        /* \"dataTypesAndVariables/dataTypes.sol\":485:489  bool */\n      0x00\n        /* \"dataTypesAndVariables/dataTypes.sol\":491:504  string memory */\n      0x60\n        /* \"dataTypesAndVariables/dataTypes.sol\":506:513  address */\n      0x00\n        /* \"dataTypesAndVariables/dataTypes.sol\":535:546  new_myNuber */\n      dup10\n        /* \"dataTypesAndVariables/dataTypes.sol\":524:532  myNumber */\n      0x00\n        /* \"dataTypesAndVariables/dataTypes.sol\":524:546  myNumber = new_myNuber */\n      dup2\n      swap1\n      sstore\n      pop\n        /* \"dataTypesAndVariables/dataTypes.sol\":565:575  new_number */\n      dup9\n        /* \"dataTypesAndVariables/dataTypes.sol\":556:562  number */\n      0x01\n        /* \"dataTypesAndVariables/dataTypes.sol\":556:575  number = new_number */\n      dup2\n      swap1\n      sstore\n      pop\n        /* \"dataTypesAndVariables/dataTypes.sol\":599:614  new_isDeveloper */\n      dup8\n        /* \"dataTypesAndVariables/dataTypes.sol\":585:596  isDeveloper */\n      0x02\n      0x00\n        /* \"dataTypesAndVariables/dataTypes.sol\":585:614  isDeveloper = new_isDeveloper */\n      0x0100\n      exp\n      dup2\n      sload\n      dup2\n      0xff\n      mul\n      not\n      and\n      swap1\n      dup4\n      iszero\n      iszero\n      mul\n      or\n      swap1\n      sstore\n      pop\n        /* \"dataTypesAndVariables/dataTypes.sol\":631:639  new_name */\n      dup7\n        /* \"dataTypesAndVariables/dataTypes.sol\":624:628  name */\n      0x03\n        /* \"dataTypesAndVariables/dataTypes.sol\":624:639  name = new_name */\n      swap1\n      dup2\n      tag_42\n      swap2\n      swap1\n      tag_43\n      jump\t// in\n    tag_42:\n      pop\n        /* \"dataTypesAndVariables/dataTypes.sol\":667:685  new_metamaskAdress */\n      dup6\n        /* \"dataTypesAndVariables/dataTypes.sol\":649:664  metamaskAddress */\n      0x04\n      0x00\n        /* \"dataTypesAndVariables/dataTypes.sol\":649:685  metamaskAddress = new_metamaskAdress */\n      0x0100\n      exp\n      dup2\n      sload\n      dup2\n      0xffffffffffffffffffffffffffffffffffffffff\n      mul\n      not\n      and\n      swap1\n      dup4\n      0xffffffffffffffffffffffffffffffffffffffff\n      and\n      mul\n      or\n      swap1\n      sstore\n      pop\n        /* \"dataTypesAndVariables/dataTypes.sol\":704:714  new_number */\n      dup9\n        /* \"dataTypesAndVariables/dataTypes.sol\":715:726  new_myNuber */\n      dup11\n        /* \"dataTypesAndVariables/dataTypes.sol\":728:743  new_isDeveloper */\n      dup10\n        /* \"dataTypesAndVariables/dataTypes.sol\":745:753  new_name */\n      dup10\n        /* \"dataTypesAndVariables/dataTypes.sol\":755:773  new_metamaskAdress */\n      dup10\n        /* \"dataTypesAndVariables/dataTypes.sol\":696:774  return (new_number,new_myNuber, new_isDeveloper, new_name, new_metamaskAdress) */\n      swap5\n      pop\n      swap5\n      pop\n      swap5\n      pop\n      swap5\n      pop\n      swap5\n      pop\n        /* \"dataTypesAndVariables/dataTypes.sol\":313:781  function update_variables(uint256 new_myNuber, int256 new_number, bool new_isDeveloper, string memory new_name, address new_metamaskAdress) public returns(int256, uint256, bool, string memory, address){... */\n      swap6\n      pop\n      swap6\n      pop\n      swap6\n      pop\n      swap6\n      pop\n      swap6\n      swap1\n      pop\n      jump\t// out\n        /* \"dataTypesAndVariables/dataTypes.sol\":231:306  address public metamaskAddress = 0xf483c898e6b9B45e24ff7b79cD02c196ab81F291 */\n    tag_24:\n      0x04\n      0x00\n      swap1\n      sload\n      swap1\n      0x0100\n      exp\n      swap1\n      div\n      0xffffffffffffffffffffffffffffffffffffffff\n      and\n      dup2\n      jump\t// out\n        /* \"dataTypesAndVariables/dataTypes.sol\":151:181  bool public isDeveloper = true */\n    tag_28:\n      0x02\n      0x00\n      swap1\n      sload\n      swap1\n      0x0100\n      exp\n      swap1\n      div\n      0xff\n      and\n      dup2\n      jump\t// out\n        /* \"dataTypesAndVariables/dataTypes.sol\":118:145  int256 public number = -101 */\n    tag_32:\n      sload(0x01)\n      dup2\n      jump\t// out\n        /* \"#utility.yul\":7:106   */\n    tag_44:\n        /* \"#utility.yul\":59:65   */\n      0x00\n        /* \"#utility.yul\":93:98   */\n      dup2\n        /* \"#utility.yul\":87:99   */\n      mload\n        /* \"#utility.yul\":77:99   */\n      swap1\n      pop\n        /* \"#utility.yul\":7:106   */\n      swap2\n      swap1\n      pop\n      jump\t// out\n        /* \"#utility.yul\":112:281   */\n    tag_45:\n        /* \"#utility.yul\":196:207   */\n      0x00\n        /* \"#utility.yul\":230:236   */\n      dup3\n        /* \"#utility.yul\":225:228   */\n      dup3\n        /* \"#utility.yul\":218:237   */\n      mstore\n        /* \"#utility.yul\":270:274   */\n      0x20\n        /* \"#utility.yul\":265:268   */\n      dup3\n        /* \"#utility.yul\":261:275   */\n      add\n        /* \"#utility.yul\":246:275   */\n      swap1\n      pop\n        /* \"#utility.yul\":112:281   */\n      swap3\n      swap2\n      pop\n      pop\n      jump\t// out\n        /* \"#utility.yul\":287:533   */\n    tag_46:\n        /* \"#utility.yul\":368:369   */\n      0x00\n        /* \"#utility.yul\":378:491   */\n    tag_98:\n        /* \"#utility.yul\":392:398   */\n      dup4\n        /* \"#utility.yul\":389:390   */\n      dup2\n        /* \"#utility.yul\":386:399   */\n      lt\n        /* \"#utility.yul\":378:491   */\n      iszero\n      tag_100\n      jumpi\n        /* \"#utility.yul\":477:478   */\n      dup1\n        /* \"#utility.yul\":472:475   */\n      dup3\n        /* \"#utility.yul\":468:479   */\n      add\n        /* \"#utility.yul\":462:480   */\n      mload\n        /* \"#utility.yul\":458:459   */\n      dup2\n        /* \"#utility.yul\":453:456   */\n      dup5\n        /* \"#utility.yul\":449:460   */\n      add\n        /* \"#utility.yul\":442:481   */\n      mstore\n        /* \"#utility.yul\":414:416   */\n      0x20\n        /* \"#utility.yul\":411:412   */\n      dup2\n        /* \"#utility.yul\":407:417   */\n      add\n        /* \"#utility.yul\":402:417   */\n      swap1\n      pop\n        /* \"#utility.yul\":378:491   */\n      jump(tag_98)\n    tag_100:\n        /* \"#utility.yul\":525:526   */\n      0x00\n        /* \"#utility.yul\":516:522   */\n      dup5\n        /* \"#utility.yul\":511:514   */\n      dup5\n        /* \"#utility.yul\":507:523   */\n      add\n        /* \"#utility.yul\":500:527   */\n      mstore\n        /* \"#utility.yul\":349:533   */\n      pop\n        /* \"#utility.yul\":287:533   */\n      pop\n      pop\n      pop\n      jump\t// out\n        /* \"#utility.yul\":539:641   */\n    tag_47:\n        /* \"#utility.yul\":580:586   */\n      0x00\n        /* \"#utility.yul\":631:633   */\n      0x1f\n        /* \"#utility.yul\":627:634   */\n      not\n        /* \"#utility.yul\":622:624   */\n      0x1f\n        /* \"#utility.yul\":615:620   */\n      dup4\n        /* \"#utility.yul\":611:625   */\n      add\n        /* \"#utility.yul\":607:635   */\n      and\n        /* \"#utility.yul\":597:635   */\n      swap1\n      pop\n        /* \"#utility.yul\":539:641   */\n      swap2\n      swap1\n      pop\n      jump\t// out\n        /* \"#utility.yul\":647:1024   */\n    tag_48:\n        /* \"#utility.yul\":735:738   */\n      0x00\n        /* \"#utility.yul\":763:802   */\n      tag_103\n        /* \"#utility.yul\":796:801   */\n      dup3\n        /* \"#utility.yul\":763:802   */\n      tag_44\n      jump\t// in\n    tag_103:\n        /* \"#utility.yul\":818:889   */\n      tag_104\n        /* \"#utility.yul\":882:888   */\n      dup2\n        /* \"#utility.yul\":877:880   */\n      dup6\n        /* \"#utility.yul\":818:889   */\n      tag_45\n      jump\t// in\n    tag_104:\n        /* \"#utility.yul\":811:889   */\n      swap4\n      pop\n        /* \"#utility.yul\":898:963   */\n      tag_105\n        /* \"#utility.yul\":956:962   */\n      dup2\n        /* \"#utility.yul\":951:954   */\n      dup6\n        /* \"#utility.yul\":944:948   */\n      0x20\n        /* \"#utility.yul\":937:942   */\n      dup7\n        /* \"#utility.yul\":933:949   */\n      add\n        /* \"#utility.yul\":898:963   */\n      tag_46\n      jump\t// in\n    tag_105:\n        /* \"#utility.yul\":988:1017   */\n      tag_106\n        /* \"#utility.yul\":1010:1016   */\n      dup2\n        /* \"#utility.yul\":988:1017   */\n      tag_47\n      jump\t// in\n    tag_106:\n        /* \"#utility.yul\":983:986   */\n      dup5\n        /* \"#utility.yul\":979:1018   */\n      add\n        /* \"#utility.yul\":972:1018   */\n      swap2\n      pop\n        /* \"#utility.yul\":739:1024   */\n      pop\n        /* \"#utility.yul\":647:1024   */\n      swap3\n      swap2\n      pop\n      pop\n      jump\t// out\n        /* \"#utility.yul\":1030:1343   */\n    tag_12:\n        /* \"#utility.yul\":1143:1147   */\n      0x00\n        /* \"#utility.yul\":1181:1183   */\n      0x20\n        /* \"#utility.yul\":1170:1179   */\n      dup3\n        /* \"#utility.yul\":1166:1184   */\n      add\n        /* \"#utility.yul\":1158:1184   */\n      swap1\n      pop\n        /* \"#utility.yul\":1230:1239   */\n      dup2\n        /* \"#utility.yul\":1224:1228   */\n      dup2\n        /* \"#utility.yul\":1220:1240   */\n      sub\n        /* \"#utility.yul\":1216:1217   */\n      0x00\n        /* \"#utility.yul\":1205:1214   */\n      dup4\n        /* \"#utility.yul\":1201:1218   */\n      add\n        /* \"#utility.yul\":1194:1241   */\n      mstore\n        /* \"#utility.yul\":1258:1336   */\n      tag_108\n        /* \"#utility.yul\":1331:1335   */\n      dup2\n        /* \"#utility.yul\":1322:1328   */\n      dup5\n        /* \"#utility.yul\":1258:1336   */\n      tag_48\n      jump\t// in\n    tag_108:\n        /* \"#utility.yul\":1250:1336   */\n      swap1\n      pop\n        /* \"#utility.yul\":1030:1343   */\n      swap3\n      swap2\n      pop\n      pop\n      jump\t// out\n        /* \"#utility.yul\":1349:1426   */\n    tag_49:\n        /* \"#utility.yul\":1386:1393   */\n      0x00\n        /* \"#utility.yul\":1415:1420   */\n      dup2\n        /* \"#utility.yul\":1404:1420   */\n      swap1\n      pop\n        /* \"#utility.yul\":1349:1426   */\n      swap2\n      swap1\n      pop\n      jump\t// out\n        /* \"#utility.yul\":1432:1550   */\n    tag_50:\n        /* \"#utility.yul\":1519:1543   */\n      tag_111\n        /* \"#utility.yul\":1537:1542   */\n      dup2\n        /* \"#utility.yul\":1519:1543   */\n      tag_49\n      jump\t// in\n    tag_111:\n        /* \"#utility.yul\":1514:1517   */\n      dup3\n        /* \"#utility.yul\":1507:1544   */\n      mstore\n        /* \"#utility.yul\":1432:1550   */\n      pop\n      pop\n      jump\t// out\n        /* \"#utility.yul\":1556:1778   */\n    tag_16:\n        /* \"#utility.yul\":1649:1653   */\n      0x00\n        /* \"#utility.yul\":1687:1689   */\n      0x20\n        /* \"#utility.yul\":1676:1685   */\n      dup3\n        /* \"#utility.yul\":1672:1690   */\n      add\n        /* \"#utility.yul\":1664:1690   */\n      swap1\n      pop\n        /* \"#utility.yul\":1700:1771   */\n      tag_113\n        /* \"#utility.yul\":1768:1769   */\n      0x00\n        /* \"#utility.yul\":1757:1766   */\n      dup4\n        /* \"#utility.yul\":1753:1770   */\n      add\n        /* \"#utility.yul\":1744:1750   */\n      dup5\n        /* \"#utility.yul\":1700:1771   */\n      tag_50\n      jump\t// in\n    tag_113:\n        /* \"#utility.yul\":1556:1778   */\n      swap3\n      swap2\n      pop\n      pop\n      jump\t// out\n        /* \"#utility.yul\":1784:1859   */\n    tag_51:\n        /* \"#utility.yul\":1817:1823   */\n      0x00\n        /* \"#utility.yul\":1850:1852   */\n      0x40\n        /* \"#utility.yul\":1844:1853   */\n      mload\n        /* \"#utility.yul\":1834:1853   */\n      swap1\n      pop\n        /* \"#utility.yul\":1784:1859   */\n      swap1\n      jump\t// out\n        /* \"#utility.yul\":1865:1982   */\n    tag_52:\n        /* \"#utility.yul\":1974:1975   */\n      0x00\n        /* \"#utility.yul\":1971:1972   */\n      dup1\n        /* \"#utility.yul\":1964:1976   */\n      revert\n        /* \"#utility.yul\":1988:2105   */\n    tag_53:\n        /* \"#utility.yul\":2097:2098   */\n      0x00\n        /* \"#utility.yul\":2094:2095   */\n      dup1\n        /* \"#utility.yul\":2087:2099   */\n      revert\n        /* \"#utility.yul\":2111:2233   */\n    tag_54:\n        /* \"#utility.yul\":2184:2208   */\n      tag_118\n        /* \"#utility.yul\":2202:2207   */\n      dup2\n        /* \"#utility.yul\":2184:2208   */\n      tag_49\n      jump\t// in\n    tag_118:\n        /* \"#utility.yul\":2177:2182   */\n      dup2\n        /* \"#utility.yul\":2174:2209   */\n      eq\n        /* \"#utility.yul\":2164:2227   */\n      tag_119\n      jumpi\n        /* \"#utility.yul\":2223:2224   */\n      0x00\n        /* \"#utility.yul\":2220:2221   */\n      dup1\n        /* \"#utility.yul\":2213:2225   */\n      revert\n        /* \"#utility.yul\":2164:2227   */\n    tag_119:\n        /* \"#utility.yul\":2111:2233   */\n      pop\n      jump\t// out\n        /* \"#utility.yul\":2239:2378   */\n    tag_55:\n        /* \"#utility.yul\":2285:2290   */\n      0x00\n        /* \"#utility.yul\":2323:2329   */\n      dup2\n        /* \"#utility.yul\":2310:2330   */\n      calldataload\n        /* \"#utility.yul\":2301:2330   */\n      swap1\n      pop\n        /* \"#utility.yul\":2339:2372   */\n      tag_121\n        /* \"#utility.yul\":2366:2371   */\n      dup2\n        /* \"#utility.yul\":2339:2372   */\n      tag_54\n      jump\t// in\n    tag_121:\n        /* \"#utility.yul\":2239:2378   */\n      swap3\n      swap2\n      pop\n      pop\n      jump\t// out\n        /* \"#utility.yul\":2384:2460   */\n    tag_56:\n        /* \"#utility.yul\":2420:2427   */\n      0x00\n        /* \"#utility.yul\":2449:2454   */\n      dup2\n        /* \"#utility.yul\":2438:2454   */\n      swap1\n      pop\n        /* \"#utility.yul\":2384:2460   */\n      swap2\n      swap1\n      pop\n      jump\t// out\n        /* \"#utility.yul\":2466:2586   */\n    tag_57:\n        /* \"#utility.yul\":2538:2561   */\n      tag_124\n        /* \"#utility.yul\":2555:2560   */\n      dup2\n        /* \"#utility.yul\":2538:2561   */\n      tag_56\n      jump\t// in\n    tag_124:\n        /* \"#utility.yul\":2531:2536   */\n      dup2\n        /* \"#utility.yul\":2528:2562   */\n      eq\n        /* \"#utility.yul\":2518:2580   */\n      tag_125\n      jumpi\n        /* \"#utility.yul\":2576:2577   */\n      0x00\n        /* \"#utility.yul\":2573:2574   */\n      dup1\n        /* \"#utility.yul\":2566:2578   */\n      revert\n        /* \"#utility.yul\":2518:2580   */\n    tag_125:\n        /* \"#utility.yul\":2466:2586   */\n      pop\n      jump\t// out\n        /* \"#utility.yul\":2592:2729   */\n    tag_58:\n        /* \"#utility.yul\":2637:2642   */\n      0x00\n        /* \"#utility.yul\":2675:2681   */\n      dup2\n        /* \"#utility.yul\":2662:2682   */\n      calldataload\n        /* \"#utility.yul\":2653:2682   */\n      swap1\n      pop\n        /* \"#utility.yul\":2691:2723   */\n      tag_127\n        /* \"#utility.yul\":2717:2722   */\n      dup2\n        /* \"#utility.yul\":2691:2723   */\n      tag_57\n      jump\t// in\n    tag_127:\n        /* \"#utility.yul\":2592:2729   */\n      swap3\n      swap2\n      pop\n      pop\n      jump\t// out\n        /* \"#utility.yul\":2735:2825   */\n    tag_59:\n        /* \"#utility.yul\":2769:2776   */\n      0x00\n        /* \"#utility.yul\":2812:2817   */\n      dup2\n        /* \"#utility.yul\":2805:2818   */\n      iszero\n        /* \"#utility.yul\":2798:2819   */\n      iszero\n        /* \"#utility.yul\":2787:2819   */\n      swap1\n      pop\n        /* \"#utility.yul\":2735:2825   */\n      swap2\n      swap1\n      pop\n      jump\t// out\n        /* \"#utility.yul\":2831:2947   */\n    tag_60:\n        /* \"#utility.yul\":2901:2922   */\n      tag_130\n        /* \"#utility.yul\":2916:2921   */\n      dup2\n        /* \"#utility.yul\":2901:2922   */\n      tag_59\n      jump\t// in\n    tag_130:\n        /* \"#utility.yul\":2894:2899   */\n      dup2\n        /* \"#utility.yul\":2891:2923   */\n      eq\n        /* \"#utility.yul\":2881:2941   */\n      tag_131\n      jumpi\n        /* \"#utility.yul\":2937:2938   */\n      0x00\n        /* \"#utility.yul\":2934:2935   */\n      dup1\n        /* \"#utility.yul\":2927:2939   */\n      revert\n        /* \"#utility.yul\":2881:2941   */\n    tag_131:\n        /* \"#utility.yul\":2831:2947   */\n      pop\n      jump\t// out\n        /* \"#utility.yul\":2953:3086   */\n    tag_61:\n        /* \"#utility.yul\":2996:3001   */\n      0x00\n        /* \"#utility.yul\":3034:3040   */\n      dup2\n        /* \"#utility.yul\":3021:3041   */\n      calldataload\n        /* \"#utility.yul\":3012:3041   */\n      swap1\n      pop\n        /* \"#utility.yul\":3050:3080   */\n      tag_133\n        /* \"#utility.yul\":3074:3079   */\n      dup2\n        /* \"#utility.yul\":3050:3080   */\n      tag_60\n      jump\t// in\n    tag_133:\n        /* \"#utility.yul\":2953:3086   */\n      swap3\n      swap2\n      pop\n      pop\n      jump\t// out\n        /* \"#utility.yul\":3092:3209   */\n    tag_62:\n        /* \"#utility.yul\":3201:3202   */\n      0x00\n        /* \"#utility.yul\":3198:3199   */\n      dup1\n        /* \"#utility.yul\":3191:3203   */\n      revert\n        /* \"#utility.yul\":3215:3332   */\n    tag_63:\n        /* \"#utility.yul\":3324:3325   */\n      0x00\n        /* \"#utility.yul\":3321:3322   */\n      dup1\n        /* \"#utility.yul\":3314:3326   */\n      revert\n        /* \"#utility.yul\":3338:3518   */\n    tag_64:\n        /* \"#utility.yul\":3386:3463   */\n      0x4e487b7100000000000000000000000000000000000000000000000000000000\n        /* \"#utility.yul\":3383:3384   */\n      0x00\n        /* \"#utility.yul\":3376:3464   */\n      mstore\n        /* \"#utility.yul\":3483:3487   */\n      0x41\n        /* \"#utility.yul\":3480:3481   */\n      0x04\n        /* \"#utility.yul\":3473:3488   */\n      mstore\n        /* \"#utility.yul\":3507:3511   */\n      0x24\n        /* \"#utility.yul\":3504:3505   */\n      0x00\n        /* \"#utility.yul\":3497:3512   */\n      revert\n        /* \"#utility.yul\":3524:3805   */\n    tag_65:\n        /* \"#utility.yul\":3607:3634   */\n      tag_138\n        /* \"#utility.yul\":3629:3633   */\n      dup3\n        /* \"#utility.yul\":3607:3634   */\n      tag_47\n      jump\t// in\n    tag_138:\n        /* \"#utility.yul\":3599:3605   */\n      dup2\n        /* \"#utility.yul\":3595:3635   */\n      add\n        /* \"#utility.yul\":3737:3743   */\n      dup2\n        /* \"#utility.yul\":3725:3735   */\n      dup2\n        /* \"#utility.yul\":3722:3744   */\n      lt\n        /* \"#utility.yul\":3701:3719   */\n      0xffffffffffffffff\n        /* \"#utility.yul\":3689:3699   */\n      dup3\n        /* \"#utility.yul\":3686:3720   */\n      gt\n        /* \"#utility.yul\":3683:3745   */\n      or\n        /* \"#utility.yul\":3680:3768   */\n      iszero\n      tag_139\n      jumpi\n        /* \"#utility.yul\":3748:3766   */\n      tag_140\n      tag_64\n      jump\t// in\n    tag_140:\n        /* \"#utility.yul\":3680:3768   */\n    tag_139:\n        /* \"#utility.yul\":3788:3798   */\n      dup1\n        /* \"#utility.yul\":3784:3786   */\n      0x40\n        /* \"#utility.yul\":3777:3799   */\n      mstore\n        /* \"#utility.yul\":3567:3805   */\n      pop\n        /* \"#utility.yul\":3524:3805   */\n      pop\n      pop\n      jump\t// out\n        /* \"#utility.yul\":3811:3940   */\n    tag_66:\n        /* \"#utility.yul\":3845:3851   */\n      0x00\n        /* \"#utility.yul\":3872:3892   */\n      tag_142\n      tag_51\n      jump\t// in\n    tag_142:\n        /* \"#utility.yul\":3862:3892   */\n      swap1\n      pop\n        /* \"#utility.yul\":3901:3934   */\n      tag_143\n        /* \"#utility.yul\":3929:3933   */\n      dup3\n        /* \"#utility.yul\":3921:3927   */\n      dup3\n        /* \"#utility.yul\":3901:3934   */\n      tag_65\n      jump\t// in\n    tag_143:\n        /* \"#utility.yul\":3811:3940   */\n      swap2\n      swap1\n      pop\n      jump\t// out\n        /* \"#utility.yul\":3946:4254   */\n    tag_67:\n        /* \"#utility.yul\":4008:4012   */\n      0x00\n        /* \"#utility.yul\":4098:4116   */\n      0xffffffffffffffff\n        /* \"#utility.yul\":4090:4096   */\n      dup3\n        /* \"#utility.yul\":4087:4117   */\n      gt\n        /* \"#utility.yul\":4084:4140   */\n      iszero\n      tag_145\n      jumpi\n        /* \"#utility.yul\":4120:4138   */\n      tag_146\n      tag_64\n      jump\t// in\n    tag_146:\n        /* \"#utility.yul\":4084:4140   */\n    tag_145:\n        /* \"#utility.yul\":4158:4187   */\n      tag_147\n        /* \"#utility.yul\":4180:4186   */\n      dup3\n        /* \"#utility.yul\":4158:4187   */\n      tag_47\n      jump\t// in\n    tag_147:\n        /* \"#utility.yul\":4150:4187   */\n      swap1\n      pop\n        /* \"#utility.yul\":4242:4246   */\n      0x20\n        /* \"#utility.yul\":4236:4240   */\n      dup2\n        /* \"#utility.yul\":4232:4247   */\n      add\n        /* \"#utility.yul\":4224:4247   */\n      swap1\n      pop\n        /* \"#utility.yul\":3946:4254   */\n      swap2\n      swap1\n      pop\n      jump\t// out\n        /* \"#utility.yul\":4260:4406   */\n    tag_68:\n        /* \"#utility.yul\":4357:4363   */\n      dup3\n        /* \"#utility.yul\":4352:4355   */\n      dup2\n        /* \"#utility.yul\":4347:4350   */\n      dup4\n        /* \"#utility.yul\":4334:4364   */\n      calldatacopy\n        /* \"#utility.yul\":4398:4399   */\n      0x00\n        /* \"#utility.yul\":4389:4395   */\n      dup4\n        /* \"#utility.yul\":4384:4387   */\n      dup4\n        /* \"#utility.yul\":4380:4396   */\n      add\n        /* \"#utility.yul\":4373:4400   */\n      mstore\n        /* \"#utility.yul\":4260:4406   */\n      pop\n      pop\n      pop\n      jump\t// out\n        /* \"#utility.yul\":4412:4837   */\n    tag_69:\n        /* \"#utility.yul\":4490:4495   */\n      0x00\n        /* \"#utility.yul\":4515:4581   */\n      tag_150\n        /* \"#utility.yul\":4531:4580   */\n      tag_151\n        /* \"#utility.yul\":4573:4579   */\n      dup5\n        /* \"#utility.yul\":4531:4580   */\n      tag_67\n      jump\t// in\n    tag_151:\n        /* \"#utility.yul\":4515:4581   */\n      tag_66\n      jump\t// in\n    tag_150:\n        /* \"#utility.yul\":4506:4581   */\n      swap1\n      pop\n        /* \"#utility.yul\":4604:4610   */\n      dup3\n        /* \"#utility.yul\":4597:4602   */\n      dup2\n        /* \"#utility.yul\":4590:4611   */\n      mstore\n        /* \"#utility.yul\":4642:4646   */\n      0x20\n        /* \"#utility.yul\":4635:4640   */\n      dup2\n        /* \"#utility.yul\":4631:4647   */\n      add\n        /* \"#utility.yul\":4680:4683   */\n      dup5\n        /* \"#utility.yul\":4671:4677   */\n      dup5\n        /* \"#utility.yul\":4666:4669   */\n      dup5\n        /* \"#utility.yul\":4662:4678   */\n      add\n        /* \"#utility.yul\":4659:4684   */\n      gt\n        /* \"#utility.yul\":4656:4768   */\n      iszero\n      tag_152\n      jumpi\n        /* \"#utility.yul\":4687:4766   */\n      tag_153\n      tag_63\n      jump\t// in\n    tag_153:\n        /* \"#utility.yul\":4656:4768   */\n    tag_152:\n        /* \"#utility.yul\":4777:4831   */\n      tag_154\n        /* \"#utility.yul\":4824:4830   */\n      dup5\n        /* \"#utility.yul\":4819:4822   */\n      dup3\n        /* \"#utility.yul\":4814:4817   */\n      dup6\n        /* \"#utility.yul\":4777:4831   */\n      tag_68\n      jump\t// in\n    tag_154:\n        /* \"#utility.yul\":4496:4837   */\n      pop\n        /* \"#utility.yul\":4412:4837   */\n      swap4\n      swap3\n      pop\n      pop\n      pop\n      jump\t// out\n        /* \"#utility.yul\":4857:5197   */\n    tag_70:\n        /* \"#utility.yul\":4913:4918   */\n      0x00\n        /* \"#utility.yul\":4962:4965   */\n      dup3\n        /* \"#utility.yul\":4955:4959   */\n      0x1f\n        /* \"#utility.yul\":4947:4953   */\n      dup4\n        /* \"#utility.yul\":4943:4960   */\n      add\n        /* \"#utility.yul\":4939:4966   */\n      slt\n        /* \"#utility.yul\":4929:5051   */\n      tag_156\n      jumpi\n        /* \"#utility.yul\":4970:5049   */\n      tag_157\n      tag_62\n      jump\t// in\n    tag_157:\n        /* \"#utility.yul\":4929:5051   */\n    tag_156:\n        /* \"#utility.yul\":5087:5093   */\n      dup2\n        /* \"#utility.yul\":5074:5094   */\n      calldataload\n        /* \"#utility.yul\":5112:5191   */\n      tag_158\n        /* \"#utility.yul\":5187:5190   */\n      dup5\n        /* \"#utility.yul\":5179:5185   */\n      dup3\n        /* \"#utility.yul\":5172:5176   */\n      0x20\n        /* \"#utility.yul\":5164:5170   */\n      dup7\n        /* \"#utility.yul\":5160:5177   */\n      add\n        /* \"#utility.yul\":5112:5191   */\n      tag_69\n      jump\t// in\n    tag_158:\n        /* \"#utility.yul\":5103:5191   */\n      swap2\n      pop\n        /* \"#utility.yul\":4919:5197   */\n      pop\n        /* \"#utility.yul\":4857:5197   */\n      swap3\n      swap2\n      pop\n      pop\n      jump\t// out\n        /* \"#utility.yul\":5203:5329   */\n    tag_71:\n        /* \"#utility.yul\":5240:5247   */\n      0x00\n        /* \"#utility.yul\":5280:5322   */\n      0xffffffffffffffffffffffffffffffffffffffff\n        /* \"#utility.yul\":5273:5278   */\n      dup3\n        /* \"#utility.yul\":5269:5323   */\n      and\n        /* \"#utility.yul\":5258:5323   */\n      swap1\n      pop\n        /* \"#utility.yul\":5203:5329   */\n      swap2\n      swap1\n      pop\n      jump\t// out\n        /* \"#utility.yul\":5335:5431   */\n    tag_72:\n        /* \"#utility.yul\":5372:5379   */\n      0x00\n        /* \"#utility.yul\":5401:5425   */\n      tag_161\n        /* \"#utility.yul\":5419:5424   */\n      dup3\n        /* \"#utility.yul\":5401:5425   */\n      tag_71\n      jump\t// in\n    tag_161:\n        /* \"#utility.yul\":5390:5425   */\n      swap1\n      pop\n        /* \"#utility.yul\":5335:5431   */\n      swap2\n      swap1\n      pop\n      jump\t// out\n        /* \"#utility.yul\":5437:5559   */\n    tag_73:\n        /* \"#utility.yul\":5510:5534   */\n      tag_163\n        /* \"#utility.yul\":5528:5533   */\n      dup2\n        /* \"#utility.yul\":5510:5534   */\n      tag_72\n      jump\t// in\n    tag_163:\n        /* \"#utility.yul\":5503:5508   */\n      dup2\n        /* \"#utility.yul\":5500:5535   */\n      eq\n        /* \"#utility.yul\":5490:5553   */\n      tag_164\n      jumpi\n        /* \"#utility.yul\":5549:5550   */\n      0x00\n        /* \"#utility.yul\":5546:5547   */\n      dup1\n        /* \"#utility.yul\":5539:5551   */\n      revert\n        /* \"#utility.yul\":5490:5553   */\n    tag_164:\n        /* \"#utility.yul\":5437:5559   */\n      pop\n      jump\t// out\n        /* \"#utility.yul\":5565:5704   */\n    tag_74:\n        /* \"#utility.yul\":5611:5616   */\n      0x00\n        /* \"#utility.yul\":5649:5655   */\n      dup2\n        /* \"#utility.yul\":5636:5656   */\n      calldataload\n        /* \"#utility.yul\":5627:5656   */\n      swap1\n      pop\n        /* \"#utility.yul\":5665:5698   */\n      tag_166\n        /* \"#utility.yul\":5692:5697   */\n      dup2\n        /* \"#utility.yul\":5665:5698   */\n      tag_73\n      jump\t// in\n    tag_166:\n        /* \"#utility.yul\":5565:5704   */\n      swap3\n      swap2\n      pop\n      pop\n      jump\t// out\n        /* \"#utility.yul\":5710:6793   */\n    tag_19:\n        /* \"#utility.yul\":5811:5817   */\n      0x00\n        /* \"#utility.yul\":5819:5825   */\n      dup1\n        /* \"#utility.yul\":5827:5833   */\n      0x00\n        /* \"#utility.yul\":5835:5841   */\n      dup1\n        /* \"#utility.yul\":5843:5849   */\n      0x00\n        /* \"#utility.yul\":5892:5895   */\n      0xa0\n        /* \"#utility.yul\":5880:5889   */\n      dup7\n        /* \"#utility.yul\":5871:5878   */\n      dup9\n        /* \"#utility.yul\":5867:5890   */\n      sub\n        /* \"#utility.yul\":5863:5896   */\n      slt\n        /* \"#utility.yul\":5860:5980   */\n      iszero\n      tag_168\n      jumpi\n        /* \"#utility.yul\":5899:5978   */\n      tag_169\n      tag_52\n      jump\t// in\n    tag_169:\n        /* \"#utility.yul\":5860:5980   */\n    tag_168:\n        /* \"#utility.yul\":6019:6020   */\n      0x00\n        /* \"#utility.yul\":6044:6097   */\n      tag_170\n        /* \"#utility.yul\":6089:6096   */\n      dup9\n        /* \"#utility.yul\":6080:6086   */\n      dup3\n        /* \"#utility.yul\":6069:6078   */\n      dup10\n        /* \"#utility.yul\":6065:6087   */\n      add\n        /* \"#utility.yul\":6044:6097   */\n      tag_55\n      jump\t// in\n    tag_170:\n        /* \"#utility.yul\":6034:6097   */\n      swap6\n      pop\n        /* \"#utility.yul\":5990:6107   */\n      pop\n        /* \"#utility.yul\":6146:6148   */\n      0x20\n        /* \"#utility.yul\":6172:6224   */\n      tag_171\n        /* \"#utility.yul\":6216:6223   */\n      dup9\n        /* \"#utility.yul\":6207:6213   */\n      dup3\n        /* \"#utility.yul\":6196:6205   */\n      dup10\n        /* \"#utility.yul\":6192:6214   */\n      add\n        /* \"#utility.yul\":6172:6224   */\n      tag_58\n      jump\t// in\n    tag_171:\n        /* \"#utility.yul\":6162:6224   */\n      swap5\n      pop\n        /* \"#utility.yul\":6117:6234   */\n      pop\n        /* \"#utility.yul\":6273:6275   */\n      0x40\n        /* \"#utility.yul\":6299:6349   */\n      tag_172\n        /* \"#utility.yul\":6341:6348   */\n      dup9\n        /* \"#utility.yul\":6332:6338   */\n      dup3\n        /* \"#utility.yul\":6321:6330   */\n      dup10\n        /* \"#utility.yul\":6317:6339   */\n      add\n        /* \"#utility.yul\":6299:6349   */\n      tag_61\n      jump\t// in\n    tag_172:\n        /* \"#utility.yul\":6289:6349   */\n      swap4\n      pop\n        /* \"#utility.yul\":6244:6359   */\n      pop\n        /* \"#utility.yul\":6426:6428   */\n      0x60\n        /* \"#utility.yul\":6415:6424   */\n      dup7\n        /* \"#utility.yul\":6411:6429   */\n      add\n        /* \"#utility.yul\":6398:6430   */\n      calldataload\n        /* \"#utility.yul\":6457:6475   */\n      0xffffffffffffffff\n        /* \"#utility.yul\":6449:6455   */\n      dup2\n        /* \"#utility.yul\":6446:6476   */\n      gt\n        /* \"#utility.yul\":6443:6560   */\n      iszero\n      tag_173\n      jumpi\n        /* \"#utility.yul\":6479:6558   */\n      tag_174\n      tag_53\n      jump\t// in\n    tag_174:\n        /* \"#utility.yul\":6443:6560   */\n    tag_173:\n        /* \"#utility.yul\":6584:6647   */\n      tag_175\n        /* \"#utility.yul\":6639:6646   */\n      dup9\n        /* \"#utility.yul\":6630:6636   */\n      dup3\n        /* \"#utility.yul\":6619:6628   */\n      dup10\n        /* \"#utility.yul\":6615:6637   */\n      add\n        /* \"#utility.yul\":6584:6647   */\n      tag_70\n      jump\t// in\n    tag_175:\n        /* \"#utility.yul\":6574:6647   */\n      swap3\n      pop\n        /* \"#utility.yul\":6369:6657   */\n      pop\n        /* \"#utility.yul\":6696:6699   */\n      0x80\n        /* \"#utility.yul\":6723:6776   */\n      tag_176\n        /* \"#utility.yul\":6768:6775   */\n      dup9\n        /* \"#utility.yul\":6759:6765   */\n      dup3\n        /* \"#utility.yul\":6748:6757   */\n      dup10\n        /* \"#utility.yul\":6744:6766   */\n      add\n        /* \"#utility.yul\":6723:6776   */\n      tag_74\n      jump\t// in\n    tag_176:\n        /* \"#utility.yul\":6713:6776   */\n      swap2\n      pop\n        /* \"#utility.yul\":6667:6786   */\n      pop\n        /* \"#utility.yul\":5710:6793   */\n      swap3\n      swap6\n      pop\n      swap3\n      swap6\n      swap1\n      swap4\n      pop\n      jump\t// out\n        /* \"#utility.yul\":6799:6914   */\n    tag_75:\n        /* \"#utility.yul\":6884:6907   */\n      tag_178\n        /* \"#utility.yul\":6901:6906   */\n      dup2\n        /* \"#utility.yul\":6884:6907   */\n      tag_56\n      jump\t// in\n    tag_178:\n        /* \"#utility.yul\":6879:6882   */\n      dup3\n        /* \"#utility.yul\":6872:6908   */\n      mstore\n        /* \"#utility.yul\":6799:6914   */\n      pop\n      pop\n      jump\t// out\n        /* \"#utility.yul\":6920:7029   */\n    tag_76:\n        /* \"#utility.yul\":7001:7022   */\n      tag_180\n        /* \"#utility.yul\":7016:7021   */\n      dup2\n        /* \"#utility.yul\":7001:7022   */\n      tag_59\n      jump\t// in\n    tag_180:\n        /* \"#utility.yul\":6996:6999   */\n      dup3\n        /* \"#utility.yul\":6989:7023   */\n      mstore\n        /* \"#utility.yul\":6920:7029   */\n      pop\n      pop\n      jump\t// out\n        /* \"#utility.yul\":7035:7153   */\n    tag_77:\n        /* \"#utility.yul\":7122:7146   */\n      tag_182\n        /* \"#utility.yul\":7140:7145   */\n      dup2\n        /* \"#utility.yul\":7122:7146   */\n      tag_72\n      jump\t// in\n    tag_182:\n        /* \"#utility.yul\":7117:7120   */\n      dup3\n        /* \"#utility.yul\":7110:7147   */\n      mstore\n        /* \"#utility.yul\":7035:7153   */\n      pop\n      pop\n      jump\t// out\n        /* \"#utility.yul\":7159:7898   */\n    tag_22:\n        /* \"#utility.yul\":7376:7380   */\n      0x00\n        /* \"#utility.yul\":7414:7417   */\n      0xa0\n        /* \"#utility.yul\":7403:7412   */\n      dup3\n        /* \"#utility.yul\":7399:7418   */\n      add\n        /* \"#utility.yul\":7391:7418   */\n      swap1\n      pop\n        /* \"#utility.yul\":7428:7497   */\n      tag_184\n        /* \"#utility.yul\":7494:7495   */\n      0x00\n        /* \"#utility.yul\":7483:7492   */\n      dup4\n        /* \"#utility.yul\":7479:7496   */\n      add\n        /* \"#utility.yul\":7470:7476   */\n      dup9\n        /* \"#utility.yul\":7428:7497   */\n      tag_75\n      jump\t// in\n    tag_184:\n        /* \"#utility.yul\":7507:7579   */\n      tag_185\n        /* \"#utility.yul\":7575:7577   */\n      0x20\n        /* \"#utility.yul\":7564:7573   */\n      dup4\n        /* \"#utility.yul\":7560:7578   */\n      add\n        /* \"#utility.yul\":7551:7557   */\n      dup8\n        /* \"#utility.yul\":7507:7579   */\n      tag_50\n      jump\t// in\n    tag_185:\n        /* \"#utility.yul\":7589:7655   */\n      tag_186\n        /* \"#utility.yul\":7651:7653   */\n      0x40\n        /* \"#utility.yul\":7640:7649   */\n      dup4\n        /* \"#utility.yul\":7636:7654   */\n      add\n        /* \"#utility.yul\":7627:7633   */\n      dup7\n        /* \"#utility.yul\":7589:7655   */\n      tag_76\n      jump\t// in\n    tag_186:\n        /* \"#utility.yul\":7702:7711   */\n      dup2\n        /* \"#utility.yul\":7696:7700   */\n      dup2\n        /* \"#utility.yul\":7692:7712   */\n      sub\n        /* \"#utility.yul\":7687:7689   */\n      0x60\n        /* \"#utility.yul\":7676:7685   */\n      dup4\n        /* \"#utility.yul\":7672:7690   */\n      add\n        /* \"#utility.yul\":7665:7713   */\n      mstore\n        /* \"#utility.yul\":7730:7808   */\n      tag_187\n        /* \"#utility.yul\":7803:7807   */\n      dup2\n        /* \"#utility.yul\":7794:7800   */\n      dup6\n        /* \"#utility.yul\":7730:7808   */\n      tag_48\n      jump\t// in\n    tag_187:\n        /* \"#utility.yul\":7722:7808   */\n      swap1\n      pop\n        /* \"#utility.yul\":7818:7891   */\n      tag_188\n        /* \"#utility.yul\":7886:7889   */\n      0x80\n        /* \"#utility.yul\":7875:7884   */\n      dup4\n        /* \"#utility.yul\":7871:7890   */\n      add\n        /* \"#utility.yul\":7862:7868   */\n      dup5\n        /* \"#utility.yul\":7818:7891   */\n      tag_77\n      jump\t// in\n    tag_188:\n        /* \"#utility.yul\":7159:7898   */\n      swap7\n      swap6\n      pop\n      pop\n      pop\n      pop\n      pop\n      pop\n      jump\t// out\n        /* \"#utility.yul\":7904:8126   */\n    tag_26:\n        /* \"#utility.yul\":7997:8001   */\n      0x00\n        /* \"#utility.yul\":8035:8037   */\n      0x20\n        /* \"#utility.yul\":8024:8033   */\n      dup3\n        /* \"#utility.yul\":8020:8038   */\n      add\n        /* \"#utility.yul\":8012:8038   */\n      swap1\n      pop\n        /* \"#utility.yul\":8048:8119   */\n      tag_190\n        /* \"#utility.yul\":8116:8117   */\n      0x00\n        /* \"#utility.yul\":8105:8114   */\n      dup4\n        /* \"#utility.yul\":8101:8118   */\n      add\n        /* \"#utility.yul\":8092:8098   */\n      dup5\n        /* \"#utility.yul\":8048:8119   */\n      tag_77\n      jump\t// in\n    tag_190:\n        /* \"#utility.yul\":7904:8126   */\n      swap3\n      swap2\n      pop\n      pop\n      jump\t// out\n        /* \"#utility.yul\":8132:8342   */\n    tag_30:\n        /* \"#utility.yul\":8219:8223   */\n      0x00\n        /* \"#utility.yul\":8257:8259   */\n      0x20\n        /* \"#utility.yul\":8246:8255   */\n      dup3\n        /* \"#utility.yul\":8242:8260   */\n      add\n        /* \"#utility.yul\":8234:8260   */\n      swap1\n      pop\n        /* \"#utility.yul\":8270:8335   */\n      tag_192\n        /* \"#utility.yul\":8332:8333   */\n      0x00\n        /* \"#utility.yul\":8321:8330   */\n      dup4\n        /* \"#utility.yul\":8317:8334   */\n      add\n        /* \"#utility.yul\":8308:8314   */\n      dup5\n        /* \"#utility.yul\":8270:8335   */\n      tag_76\n      jump\t// in\n    tag_192:\n        /* \"#utility.yul\":8132:8342   */\n      swap3\n      swap2\n      pop\n      pop\n      jump\t// out\n        /* \"#utility.yul\":8348:8566   */\n    tag_34:\n        /* \"#utility.yul\":8439:8443   */\n      0x00\n        /* \"#utility.yul\":8477:8479   */\n      0x20\n        /* \"#utility.yul\":8466:8475   */\n      dup3\n        /* \"#utility.yul\":8462:8480   */\n      add\n        /* \"#utility.yul\":8454:8480   */\n      swap1\n      pop\n        /* \"#utility.yul\":8490:8559   */\n      tag_194\n        /* \"#utility.yul\":8556:8557   */\n      0x00\n        /* \"#utility.yul\":8545:8554   */\n      dup4\n        /* \"#utility.yul\":8541:8558   */\n      add\n        /* \"#utility.yul\":8532:8538   */\n      dup5\n        /* \"#utility.yul\":8490:8559   */\n      tag_75\n      jump\t// in\n    tag_194:\n        /* \"#utility.yul\":8348:8566   */\n      swap3\n      swap2\n      pop\n      pop\n      jump\t// out\n        /* \"#utility.yul\":8572:8752   */\n    tag_78:\n        /* \"#utility.yul\":8620:8697   */\n      0x4e487b7100000000000000000000000000000000000000000000000000000000\n        /* \"#utility.yul\":8617:8618   */\n      0x00\n        /* \"#utility.yul\":8610:8698   */\n      mstore\n        /* \"#utility.yul\":8717:8721   */\n      0x22\n        /* \"#utility.yul\":8714:8715   */\n      0x04\n        /* \"#utility.yul\":8707:8722   */\n      mstore\n        /* \"#utility.yul\":8741:8745   */\n      0x24\n        /* \"#utility.yul\":8738:8739   */\n      0x00\n        /* \"#utility.yul\":8731:8746   */\n      revert\n        /* \"#utility.yul\":8758:9078   */\n    tag_36:\n        /* \"#utility.yul\":8802:8808   */\n      0x00\n        /* \"#utility.yul\":8839:8840   */\n      0x02\n        /* \"#utility.yul\":8833:8837   */\n      dup3\n        /* \"#utility.yul\":8829:8841   */\n      div\n        /* \"#utility.yul\":8819:8841   */\n      swap1\n      pop\n        /* \"#utility.yul\":8886:8887   */\n      0x01\n        /* \"#utility.yul\":8880:8884   */\n      dup3\n        /* \"#utility.yul\":8876:8888   */\n      and\n        /* \"#utility.yul\":8907:8925   */\n      dup1\n        /* \"#utility.yul\":8897:8978   */\n      tag_197\n      jumpi\n        /* \"#utility.yul\":8963:8967   */\n      0x7f\n        /* \"#utility.yul\":8955:8961   */\n      dup3\n        /* \"#utility.yul\":8951:8968   */\n      and\n        /* \"#utility.yul\":8941:8968   */\n      swap2\n      pop\n        /* \"#utility.yul\":8897:8978   */\n    tag_197:\n        /* \"#utility.yul\":9025:9027   */\n      0x20\n        /* \"#utility.yul\":9017:9023   */\n      dup3\n        /* \"#utility.yul\":9014:9028   */\n      lt\n        /* \"#utility.yul\":8994:9012   */\n      dup2\n        /* \"#utility.yul\":8991:9029   */\n      sub\n        /* \"#utility.yul\":8988:9072   */\n      tag_198\n      jumpi\n        /* \"#utility.yul\":9044:9062   */\n      tag_199\n      tag_78\n      jump\t// in\n    tag_199:\n        /* \"#utility.yul\":8988:9072   */\n    tag_198:\n        /* \"#utility.yul\":8809:9078   */\n      pop\n        /* \"#utility.yul\":8758:9078   */\n      swap2\n      swap1\n      pop\n      jump\t// out\n        /* \"#utility.yul\":9084:9225   */\n    tag_79:\n        /* \"#utility.yul\":9133:9137   */\n      0x00\n        /* \"#utility.yul\":9156:9159   */\n      dup2\n        /* \"#utility.yul\":9148:9159   */\n      swap1\n      pop\n        /* \"#utility.yul\":9179:9182   */\n      dup2\n        /* \"#utility.yul\":9176:9177   */\n      0x00\n        /* \"#utility.yul\":9169:9183   */\n      mstore\n        /* \"#utility.yul\":9213:9217   */\n      0x20\n        /* \"#utility.yul\":9210:9211   */\n      0x00\n        /* \"#utility.yul\":9200:9218   */\n      keccak256\n        /* \"#utility.yul\":9192:9218   */\n      swap1\n      pop\n        /* \"#utility.yul\":9084:9225   */\n      swap2\n      swap1\n      pop\n      jump\t// out\n        /* \"#utility.yul\":9231:9324   */\n    tag_80:\n        /* \"#utility.yul\":9268:9274   */\n      0x00\n        /* \"#utility.yul\":9315:9317   */\n      0x20\n        /* \"#utility.yul\":9310:9312   */\n      0x1f\n        /* \"#utility.yul\":9303:9308   */\n      dup4\n        /* \"#utility.yul\":9299:9313   */\n      add\n        /* \"#utility.yul\":9295:9318   */\n      div\n        /* \"#utility.yul\":9285:9318   */\n      swap1\n      pop\n        /* \"#utility.yul\":9231:9324   */\n      swap2\n      swap1\n      pop\n      jump\t// out\n        /* \"#utility.yul\":9330:9437   */\n    tag_81:\n        /* \"#utility.yul\":9374:9382   */\n      0x00\n        /* \"#utility.yul\":9424:9429   */\n      dup3\n        /* \"#utility.yul\":9418:9422   */\n      dup3\n        /* \"#utility.yul\":9414:9430   */\n      shl\n        /* \"#utility.yul\":9393:9430   */\n      swap1\n      pop\n        /* \"#utility.yul\":9330:9437   */\n      swap3\n      swap2\n      pop\n      pop\n      jump\t// out\n        /* \"#utility.yul\":9443:9836   */\n    tag_82:\n        /* \"#utility.yul\":9512:9518   */\n      0x00\n        /* \"#utility.yul\":9562:9563   */\n      0x08\n        /* \"#utility.yul\":9550:9560   */\n      dup4\n        /* \"#utility.yul\":9546:9564   */\n      mul\n        /* \"#utility.yul\":9585:9682   */\n      tag_204\n        /* \"#utility.yul\":9615:9681   */\n      0xffffffffffffffffffffffffffffffffffffffffffffffffffffffffffffffff\n        /* \"#utility.yul\":9604:9613   */\n      dup3\n        /* \"#utility.yul\":9585:9682   */\n      tag_81\n      jump\t// in\n    tag_204:\n        /* \"#utility.yul\":9703:9742   */\n      tag_205\n        /* \"#utility.yul\":9733:9741   */\n      dup7\n        /* \"#utility.yul\":9722:9731   */\n      dup4\n        /* \"#utility.yul\":9703:9742   */\n      tag_81\n      jump\t// in\n    tag_205:\n        /* \"#utility.yul\":9691:9742   */\n      swap6\n      pop\n        /* \"#utility.yul\":9775:9779   */\n      dup1\n        /* \"#utility.yul\":9771:9780   */\n      not\n        /* \"#utility.yul\":9764:9769   */\n      dup5\n        /* \"#utility.yul\":9760:9781   */\n      and\n        /* \"#utility.yul\":9751:9781   */\n      swap4\n      pop\n        /* \"#utility.yul\":9824:9828   */\n      dup1\n        /* \"#utility.yul\":9814:9822   */\n      dup7\n        /* \"#utility.yul\":9810:9829   */\n      and\n        /* \"#utility.yul\":9803:9808   */\n      dup5\n        /* \"#utility.yul\":9800:9830   */\n      or\n        /* \"#utility.yul\":9790:9830   */\n      swap3\n      pop\n        /* \"#utility.yul\":9519:9836   */\n      pop\n      pop\n        /* \"#utility.yul\":9443:9836   */\n      swap4\n      swap3\n      pop\n      pop\n      pop\n      jump\t// out\n        /* \"#utility.yul\":9842:9902   */\n    tag_83:\n        /* \"#utility.yul\":9870:9873   */\n      0x00\n        /* \"#utility.yul\":9891:9896   */\n      dup2\n        /* \"#utility.yul\":9884:9896   */\n      swap1\n      pop\n        /* \"#utility.yul\":9842:9902   */\n      swap2\n      swap1\n      pop\n      jump\t// out\n        /* \"#utility.yul\":9908:10050   */\n    tag_84:\n        /* \"#utility.yul\":9958:9967   */\n      0x00\n        /* \"#utility.yul\":9991:10044   */\n      tag_208\n        /* \"#utility.yul\":10009:10043   */\n      tag_209\n        /* \"#utility.yul\":10018:10042   */\n      tag_210\n        /* \"#utility.yul\":10036:10041   */\n      dup5\n        /* \"#utility.yul\":10018:10042   */\n      tag_49\n      jump\t// in\n    tag_210:\n        /* \"#utility.yul\":10009:10043   */\n      tag_83\n      jump\t// in\n    tag_209:\n        /* \"#utility.yul\":9991:10044   */\n      tag_49\n      jump\t// in\n    tag_208:\n        /* \"#utility.yul\":9978:10044   */\n      swap1\n      pop\n        /* \"#utility.yul\":9908:10050   */\n      swap2\n      swap1\n      pop\n      jump\t// out\n        /* \"#utility.yul\":10056:10131   */\n    tag_85:\n        /* \"#utility.yul\":10099:10102   */\n      0x00\n        /* \"#utility.yul\":10120:10125   */\n      dup2\n        /* \"#utility.yul\":10113:10125   */\n      swap1\n      pop\n        /* \"#utility.yul\":10056:10131   */\n      swap2\n      swap1\n      pop\n      jump\t// out\n        /* \"#utility.yul\":10137:10406   */\n    tag_86:\n        /* \"#utility.yul\":10247:10286   */\n      tag_213\n        /* \"#utility.yul\":10278:10285   */\n      dup4\n        /* \"#utility.yul\":10247:10286   */\n      tag_84\n      jump\t// in\n    tag_213:\n        /* \"#utility.yul\":10308:10399   */\n      tag_214\n        /* \"#utility.yul\":10357:10398   */\n      tag_215\n        /* \"#utility.yul\":10381:10397   */\n      dup3\n        /* \"#utility.yul\":10357:10398   */\n      tag_85\n      jump\t// in\n    tag_215:\n        /* \"#utility.yul\":10349:10355   */\n      dup5\n        /* \"#utility.yul\":10342:10346   */\n      dup5\n        /* \"#utility.yul\":10336:10347   */\n      sload\n        /* \"#utility.yul\":10308:10399   */\n      tag_82\n      jump\t// in\n    tag_214:\n        /* \"#utility.yul\":10302:10306   */\n      dup3\n        /* \"#utility.yul\":10295:10400   */\n      sstore\n        /* \"#utility.yul\":10213:10406   */\n      pop\n        /* \"#utility.yul\":10137:10406   */\n      pop\n      pop\n      pop\n      jump\t// out\n        /* \"#utility.yul\":10412:10485   */\n    tag_87:\n        /* \"#utility.yul\":10457:10460   */\n      0x00\n        /* \"#utility.yul\":10412:10485   */\n      swap1\n      jump\t// out\n        /* \"#utility.yul\":10491:10680   */\n    tag_88:\n        /* \"#utility.yul\":10568:10600   */\n      tag_218\n      tag_87\n      jump\t// in\n    tag_218:\n        /* \"#utility.yul\":10609:10674   */\n      tag_219\n        /* \"#utility.yul\":10667:10673   */\n      dup2\n        /* \"#utility.yul\":10659:10665   */\n      dup5\n        /* \"#utility.yul\":10653:10657   */\n      dup5\n        /* \"#utility.yul\":10609:10674   */\n      tag_86\n      jump\t// in\n    tag_219:\n        /* \"#utility.yul\":10544:10680   */\n      pop\n        /* \"#utility.yul\":10491:10680   */\n      pop\n      pop\n      jump\t// out\n        /* \"#utility.yul\":10686:10872   */\n    tag_89:\n        /* \"#utility.yul\":10746:10866   */\n    tag_221:\n        /* \"#utility.yul\":10763:10766   */\n      dup2\n        /* \"#utility.yul\":10756:10761   */\n      dup2\n        /* \"#utility.yul\":10753:10767   */\n      lt\n        /* \"#utility.yul\":10746:10866   */\n      iszero\n      tag_223\n      jumpi\n        /* \"#utility.yul\":10817:10856   */\n      tag_224\n        /* \"#utility.yul\":10854:10855   */\n      0x00\n        /* \"#utility.yul\":10847:10852   */\n      dup3\n        /* \"#utility.yul\":10817:10856   */\n      tag_88\n      jump\t// in\n    tag_224:\n        /* \"#utility.yul\":10790:10791   */\n      0x01\n        /* \"#utility.yul\":10783:10788   */\n      dup2\n        /* \"#utility.yul\":10779:10792   */\n      add\n        /* \"#utility.yul\":10770:10792   */\n      swap1\n      pop\n        /* \"#utility.yul\":10746:10866   */\n      jump(tag_221)\n    tag_223:\n        /* \"#utility.yul\":10686:10872   */\n      pop\n      pop\n      jump\t// out\n        /* \"#utility.yul\":10878:11421   */\n    tag_90:\n        /* \"#utility.yul\":10979:10981   */\n      0x1f\n        /* \"#utility.yul\":10974:10977   */\n      dup3\n        /* \"#utility.yul\":10971:10982   */\n      gt\n        /* \"#utility.yul\":10968:11414   */\n      iszero\n      tag_226\n      jumpi\n        /* \"#utility.yul\":11013:11051   */\n      tag_227\n        /* \"#utility.yul\":11045:11050   */\n      dup2\n        /* \"#utility.yul\":11013:11051   */\n      tag_79\n      jump\t// in\n    tag_227:\n        /* \"#utility.yul\":11097:11126   */\n      tag_228\n        /* \"#utility.yul\":11115:11125   */\n      dup5\n        /* \"#utility.yul\":11097:11126   */\n      tag_80\n      jump\t// in\n    tag_228:\n        /* \"#utility.yul\":11087:11095   */\n      dup2\n        /* \"#utility.yul\":11083:11127   */\n      add\n        /* \"#utility.yul\":11280:11282   */\n      0x20\n        /* \"#utility.yul\":11268:11278   */\n      dup6\n        /* \"#utility.yul\":11265:11283   */\n      lt\n        /* \"#utility.yul\":11262:11311   */\n      iszero\n      tag_229\n      jumpi\n        /* \"#utility.yul\":11301:11309   */\n      dup2\n        /* \"#utility.yul\":11286:11309   */\n      swap1\n      pop\n        /* \"#utility.yul\":11262:11311   */\n    tag_229:\n        /* \"#utility.yul\":11324:11404   */\n      tag_230\n        /* \"#utility.yul\":11380:11402   */\n      tag_231\n        /* \"#utility.yul\":11398:11401   */\n      dup6\n        /* \"#utility.yul\":11380:11402   */\n      tag_80\n      jump\t// in\n    tag_231:\n        /* \"#utility.yul\":11370:11378   */\n      dup4\n        /* \"#utility.yul\":11366:11403   */\n      add\n        /* \"#utility.yul\":11353:11364   */\n      dup3\n        /* \"#utility.yul\":11324:11404   */\n      tag_89\n      jump\t// in\n    tag_230:\n        /* \"#utility.yul\":10983:11414   */\n      pop\n      pop\n        /* \"#utility.yul\":10968:11414   */\n    tag_226:\n        /* \"#utility.yul\":10878:11421   */\n      pop\n      pop\n      pop\n      jump\t// out\n        /* \"#utility.yul\":11427:11544   */\n    tag_91:\n        /* \"#utility.yul\":11481:11489   */\n      0x00\n        /* \"#utility.yul\":11531:11536   */\n      dup3\n        /* \"#utility.yul\":11525:11529   */\n      dup3\n        /* \"#utility.yul\":11521:11537   */\n      shr\n        /* \"#utility.yul\":11500:11537   */\n      swap1\n      pop\n        /* \"#utility.yul\":11427:11544   */\n      swap3\n      swap2\n      pop\n      pop\n      jump\t// out\n        /* \"#utility.yul\":11550:11719   */\n    tag_92:\n        /* \"#utility.yul\":11594:11600   */\n      0x00\n        /* \"#utility.yul\":11627:11678   */\n      tag_234\n        /* \"#utility.yul\":11675:11676   */\n      0x00\n        /* \"#utility.yul\":11671:11677   */\n      not\n        /* \"#utility.yul\":11663:11668   */\n      dup5\n        /* \"#utility.yul\":11660:11661   */\n      0x08\n        /* \"#utility.yul\":11656:11669   */\n      mul\n        /* \"#utility.yul\":11627:11678   */\n      tag_91\n      jump\t// in\n    tag_234:\n        /* \"#utility.yul\":11623:11679   */\n      not\n        /* \"#utility.yul\":11708:11712   */\n      dup1\n        /* \"#utility.yul\":11702:11706   */\n      dup4\n        /* \"#utility.yul\":11698:11713   */\n      and\n        /* \"#utility.yul\":11688:11713   */\n      swap2\n      pop\n        /* \"#utility.yul\":11601:11719   */\n      pop\n        /* \"#utility.yul\":11550:11719   */\n      swap3\n      swap2\n      pop\n      pop\n      jump\t// out\n        /* \"#utility.yul\":11724:12019   */\n    tag_93:\n        /* \"#utility.yul\":11800:11804   */\n      0x00\n        /* \"#utility.yul\":11946:11975   */\n      tag_236\n        /* \"#utility.yul\":11971:11974   */\n      dup4\n        /* \"#utility.yul\":11965:11969   */\n      dup4\n        /* \"#utility.yul\":11946:11975   */\n      tag_92\n      jump\t// in\n    tag_236:\n        /* \"#utility.yul\":11938:11975   */\n      swap2\n      pop\n        /* \"#utility.yul\":12008:12011   */\n      dup3\n        /* \"#utility.yul\":12005:12006   */\n      0x02\n        /* \"#utility.yul\":12001:12012   */\n      mul\n        /* \"#utility.yul\":11995:11999   */\n      dup3\n        /* \"#utility.yul\":11992:12013   */\n      or\n        /* \"#utility.yul\":11984:12013   */\n      swap1\n      pop\n        /* \"#utility.yul\":11724:12019   */\n      swap3\n      swap2\n      pop\n      pop\n      jump\t// out\n        /* \"#utility.yul\":12024:13419   */\n    tag_43:\n        /* \"#utility.yul\":12141:12178   */\n      tag_238\n        /* \"#utility.yul\":12174:12177   */\n      dup3\n        /* \"#utility.yul\":12141:12178   */\n      tag_44\n      jump\t// in\n    tag_238:\n        /* \"#utility.yul\":12243:12261   */\n      0xffffffffffffffff\n        /* \"#utility.yul\":12235:12241   */\n      dup2\n        /* \"#utility.yul\":12232:12262   */\n      gt\n        /* \"#utility.yul\":12229:12285   */\n      iszero\n      tag_239\n      jumpi\n        /* \"#utility.yul\":12265:12283   */\n      tag_240\n      tag_64\n      jump\t// in\n    tag_240:\n        /* \"#utility.yul\":12229:12285   */\n    tag_239:\n        /* \"#utility.yul\":12309:12347   */\n      tag_241\n        /* \"#utility.yul\":12341:12345   */\n      dup3\n        /* \"#utility.yul\":12335:12346   */\n      sload\n        /* \"#utility.yul\":12309:12347   */\n      tag_36\n      jump\t// in\n    tag_241:\n        /* \"#utility.yul\":12394:12461   */\n      tag_242\n        /* \"#utility.yul\":12454:12460   */\n      dup3\n        /* \"#utility.yul\":12446:12452   */\n      dup3\n        /* \"#utility.yul\":12440:12444   */\n      dup6\n        /* \"#utility.yul\":12394:12461   */\n      tag_90\n      jump\t// in\n    tag_242:\n        /* \"#utility.yul\":12488:12489   */\n      0x00\n        /* \"#utility.yul\":12512:12516   */\n      0x20\n        /* \"#utility.yul\":12499:12516   */\n      swap1\n      pop\n        /* \"#utility.yul\":12544:12546   */\n      0x1f\n        /* \"#utility.yul\":12536:12542   */\n      dup4\n        /* \"#utility.yul\":12533:12547   */\n      gt\n        /* \"#utility.yul\":12561:12562   */\n      0x01\n        /* \"#utility.yul\":12556:13174   */\n      dup2\n      eq\n      tag_244\n      jumpi\n        /* \"#utility.yul\":13218:13219   */\n      0x00\n        /* \"#utility.yul\":13235:13241   */\n      dup5\n        /* \"#utility.yul\":13232:13309   */\n      iszero\n      tag_245\n      jumpi\n        /* \"#utility.yul\":13284:13293   */\n      dup3\n        /* \"#utility.yul\":13279:13282   */\n      dup8\n        /* \"#utility.yul\":13275:13294   */\n      add\n        /* \"#utility.yul\":13269:13295   */\n      mload\n        /* \"#utility.yul\":13260:13295   */\n      swap1\n      pop\n        /* \"#utility.yul\":13232:13309   */\n    tag_245:\n        /* \"#utility.yul\":13335:13402   */\n      tag_246\n        /* \"#utility.yul\":13395:13401   */\n      dup6\n        /* \"#utility.yul\":13388:13393   */\n      dup3\n        /* \"#utility.yul\":13335:13402   */\n      tag_93\n      jump\t// in\n    tag_246:\n        /* \"#utility.yul\":13329:13333   */\n      dup7\n        /* \"#utility.yul\":13322:13403   */\n      sstore\n        /* \"#utility.yul\":13191:13413   */\n      pop\n        /* \"#utility.yul\":12526:13413   */\n      jump(tag_243)\n        /* \"#utility.yul\":12556:13174   */\n    tag_244:\n        /* \"#utility.yul\":12608:12612   */\n      0x1f\n        /* \"#utility.yul\":12604:12613   */\n      not\n        /* \"#utility.yul\":12596:12602   */\n      dup5\n        /* \"#utility.yul\":12592:12614   */\n      and\n        /* \"#utility.yul\":12642:12679   */\n      tag_247\n        /* \"#utility.yul\":12674:12678   */\n      dup7\n        /* \"#utility.yul\":12642:12679   */\n      tag_79\n      jump\t// in\n    tag_247:\n        /* \"#utility.yul\":12701:12702   */\n      0x00\n        /* \"#utility.yul\":12715:12923   */\n    tag_248:\n        /* \"#utility.yul\":12729:12736   */\n      dup3\n        /* \"#utility.yul\":12726:12727   */\n      dup2\n        /* \"#utility.yul\":12723:12737   */\n      lt\n        /* \"#utility.yul\":12715:12923   */\n      iszero\n      tag_250\n      jumpi\n        /* \"#utility.yul\":12808:12817   */\n      dup5\n        /* \"#utility.yul\":12803:12806   */\n      dup10\n        /* \"#utility.yul\":12799:12818   */\n      add\n        /* \"#utility.yul\":12793:12819   */\n      mload\n        /* \"#utility.yul\":12785:12791   */\n      dup3\n        /* \"#utility.yul\":12778:12820   */\n      sstore\n        /* \"#utility.yul\":12859:12860   */\n      0x01\n        /* \"#utility.yul\":12851:12857   */\n      dup3\n        /* \"#utility.yul\":12847:12861   */\n      add\n        /* \"#utility.yul\":12837:12861   */\n      swap2\n      pop\n        /* \"#utility.yul\":12906:12908   */\n      0x20\n        /* \"#utility.yul\":12895:12904   */\n      dup6\n        /* \"#utility.yul\":12891:12909   */\n      add\n        /* \"#utility.yul\":12878:12909   */\n      swap5\n      pop\n        /* \"#utility.yul\":12752:12756   */\n      0x20\n        /* \"#utility.yul\":12749:12750   */\n      dup2\n        /* \"#utility.yul\":12745:12757   */\n      add\n        /* \"#utility.yul\":12740:12757   */\n      swap1\n      pop\n        /* \"#utility.yul\":12715:12923   */\n      jump(tag_248)\n    tag_250:\n        /* \"#utility.yul\":12951:12957   */\n      dup7\n        /* \"#utility.yul\":12942:12949   */\n      dup4\n        /* \"#utility.yul\":12939:12958   */\n      lt\n        /* \"#utility.yul\":12936:13115   */\n      iszero\n      tag_251\n      jumpi\n        /* \"#utility.yul\":13009:13018   */\n      dup5\n        /* \"#utility.yul\":13004:13007   */\n      dup10\n        /* \"#utility.yul\":13000:13019   */\n      add\n        /* \"#utility.yul\":12994:13020   */\n      mload\n        /* \"#utility.yul\":13052:13100   */\n      tag_252\n        /* \"#utility.yul\":13094:13098   */\n      0x1f\n        /* \"#utility.yul\":13086:13092   */\n      dup10\n        /* \"#utility.yul\":13082:13099   */\n      and\n        /* \"#utility.yul\":13071:13080   */\n      dup3\n        /* \"#utility.yul\":13052:13100   */\n      tag_92\n      jump\t// in\n    tag_252:\n        /* \"#utility.yul\":13044:13050   */\n      dup4\n        /* \"#utility.yul\":13037:13101   */\n      sstore\n        /* \"#utility.yul\":12959:13115   */\n      pop\n        /* \"#utility.yul\":12936:13115   */\n    tag_251:\n        /* \"#utility.yul\":13161:13162   */\n      0x01\n        /* \"#utility.yul\":13157:13158   */\n      0x02\n        /* \"#utility.yul\":13149:13155   */\n      dup9\n        /* \"#utility.yul\":13145:13159   */\n      mul\n        /* \"#utility.yul\":13141:13163   */\n      add\n        /* \"#utility.yul\":13135:13139   */\n      dup9\n        /* \"#utility.yul\":13128:13164   */\n      sstore\n        /* \"#utility.yul\":12563:13174   */\n      pop\n      pop\n      pop\n        /* \"#utility.yul\":12526:13413   */\n    tag_243:\n      pop\n        /* \"#utility.yul\":12116:13419   */\n      pop\n      pop\n      pop\n        /* \"#utility.yul\":12024:13419   */\n      pop\n      pop\n      jump\t// out\n\n    auxdata: 0xa264697066735822122080dbca6191855714c90b04757c853d6cc0b2b199ead682805233f4bbde9b8cf564736f6c63430008120033\n}\n",
				"bytecode": {
					"linkReferences": {},
					"object": "608060405260656000557fffffffffffffffffffffffffffffffffffffffffffffffffffffffffffffff9b6001556001600260006101000a81548160ff0219169083151502179055506040518060400160405280600f81526020017f426c6f636b636861696e20426172640000000000000000000000000000000000815250600390816200008e919062000372565b5073f483c898e6b9b45e24ff7b79cd02c196ab81f291600460006101000a81548173ffffffffffffffffffffffffffffffffffffffff021916908373ffffffffffffffffffffffffffffffffffffffff160217905550348015620000f157600080fd5b5062000459565b600081519050919050565b7f4e487b7100000000000000000000000000000000000000000000000000000000600052604160045260246000fd5b7f4e487b7100000000000000000000000000000000000000000000000000000000600052602260045260246000fd5b600060028204905060018216806200017a57607f821691505b60208210810362000190576200018f62000132565b5b50919050565b60008190508160005260206000209050919050565b60006020601f8301049050919050565b600082821b905092915050565b600060088302620001fa7fffffffffffffffffffffffffffffffffffffffffffffffffffffffffffffffff82620001bb565b620002068683620001bb565b95508019841693508086168417925050509392505050565b6000819050919050565b6000819050919050565b6000620002536200024d62000247846200021e565b62000228565b6200021e565b9050919050565b6000819050919050565b6200026f8362000232565b620002876200027e826200025a565b848454620001c8565b825550505050565b600090565b6200029e6200028f565b620002ab81848462000264565b505050565b5b81811015620002d357620002c760008262000294565b600181019050620002b1565b5050565b601f8211156200032257620002ec8162000196565b620002f784620001ab565b8101602085101562000307578190505b6200031f6200031685620001ab565b830182620002b0565b50505b505050565b600082821c905092915050565b6000620003476000198460080262000327565b1980831691505092915050565b600062000362838362000334565b9150826002028217905092915050565b6200037d82620000f8565b67ffffffffffffffff81111562000399576200039862000103565b5b620003a5825462000161565b620003b2828285620002d7565b600060209050601f831160018114620003ea5760008415620003d5578287015190505b620003e1858262000354565b86555062000451565b601f198416620003fa8662000196565b60005b828110156200042457848901518255600182019150602085019450602081019050620003fd565b8683101562000444578489015162000440601f89168262000334565b8355505b6001600288020188555050505b505050505050565b610a4c80620004696000396000f3fe608060405234801561001057600080fd5b50600436106100625760003560e01c806306fdde031461006757806323fd0e40146100855780633f6a15b2146100a35780635340f495146100d757806379a8945c146100f55780638381f58a14610113575b600080fd5b61006f610131565b60405161007c9190610332565b60405180910390f35b61008d6101bf565b60405161009a919061036d565b60405180910390f35b6100bd60048036038101906100b891906105c9565b6101c5565b6040516100ce95949392919061068d565b60405180910390f35b6100df610263565b6040516100ec91906106e7565b60405180910390f35b6100fd610289565b60405161010a9190610702565b60405180910390f35b61011b61029c565b604051610128919061071d565b60405180910390f35b6003805461013e90610767565b80601f016020809104026020016040519081016040528092919081815260200182805461016a90610767565b80156101b75780601f1061018c576101008083540402835291602001916101b7565b820191906000526020600020905b81548152906001019060200180831161019a57829003601f168201915b505050505081565b60005481565b600080600060606000896000819055508860018190555087600260006101000a81548160ff02191690831515021790555086600390816102059190610944565b5085600460006101000a81548173ffffffffffffffffffffffffffffffffffffffff021916908373ffffffffffffffffffffffffffffffffffffffff160217905550888a898989945094509450945094509550955095509550959050565b600460009054906101000a900473ffffffffffffffffffffffffffffffffffffffff1681565b600260009054906101000a900460ff1681565b60015481565b600081519050919050565b600082825260208201905092915050565b60005b838110156102dc5780820151818401526020810190506102c1565b60008484015250505050565b6000601f19601f8301169050919050565b6000610304826102a2565b61030e81856102ad565b935061031e8185602086016102be565b610327816102e8565b840191505092915050565b6000602082019050818103600083015261034c81846102f9565b905092915050565b6000819050919050565b61036781610354565b82525050565b6000602082019050610382600083018461035e565b92915050565b6000604051905090565b600080fd5b600080fd5b6103a581610354565b81146103b057600080fd5b50565b6000813590506103c28161039c565b92915050565b6000819050919050565b6103db816103c8565b81146103e657600080fd5b50565b6000813590506103f8816103d2565b92915050565b60008115159050919050565b610413816103fe565b811461041e57600080fd5b50565b6000813590506104308161040a565b92915050565b600080fd5b600080fd5b7f4e487b7100000000000000000000000000000000000000000000000000000000600052604160045260246000fd5b610478826102e8565b810181811067ffffffffffffffff8211171561049757610496610440565b5b80604052505050565b60006104aa610388565b90506104b6828261046f565b919050565b600067ffffffffffffffff8211156104d6576104d5610440565b5b6104df826102e8565b9050602081019050919050565b82818337600083830152505050565b600061050e610509846104bb565b6104a0565b90508281526020810184848401111561052a5761052961043b565b5b6105358482856104ec565b509392505050565b600082601f83011261055257610551610436565b5b81356105628482602086016104fb565b91505092915050565b600073ffffffffffffffffffffffffffffffffffffffff82169050919050565b60006105968261056b565b9050919050565b6105a68161058b565b81146105b157600080fd5b50565b6000813590506105c38161059d565b92915050565b600080600080600060a086880312156105e5576105e4610392565b5b60006105f3888289016103b3565b9550506020610604888289016103e9565b945050604061061588828901610421565b935050606086013567ffffffffffffffff81111561063657610635610397565b5b6106428882890161053d565b9250506080610653888289016105b4565b9150509295509295909350565b610669816103c8565b82525050565b610678816103fe565b82525050565b6106878161058b565b82525050565b600060a0820190506106a26000830188610660565b6106af602083018761035e565b6106bc604083018661066f565b81810360608301526106ce81856102f9565b90506106dd608083018461067e565b9695505050505050565b60006020820190506106fc600083018461067e565b92915050565b6000602082019050610717600083018461066f565b92915050565b60006020820190506107326000830184610660565b92915050565b7f4e487b7100000000000000000000000000000000000000000000000000000000600052602260045260246000fd5b6000600282049050600182168061077f57607f821691505b60208210810361079257610791610738565b5b50919050565b60008190508160005260206000209050919050565b60006020601f8301049050919050565b600082821b905092915050565b6000600883026107fa7fffffffffffffffffffffffffffffffffffffffffffffffffffffffffffffffff826107bd565b61080486836107bd565b95508019841693508086168417925050509392505050565b6000819050919050565b600061084161083c61083784610354565b61081c565b610354565b9050919050565b6000819050919050565b61085b83610826565b61086f61086782610848565b8484546107ca565b825550505050565b600090565b610884610877565b61088f818484610852565b505050565b5b818110156108b3576108a860008261087c565b600181019050610895565b5050565b601f8211156108f8576108c981610798565b6108d2846107ad565b810160208510156108e1578190505b6108f56108ed856107ad565b830182610894565b50505b505050565b600082821c905092915050565b600061091b600019846008026108fd565b1980831691505092915050565b6000610934838361090a565b9150826002028217905092915050565b61094d826102a2565b67ffffffffffffffff81111561096657610965610440565b5b6109708254610767565b61097b8282856108b7565b600060209050601f8311600181146109ae576000841561099c578287015190505b6109a68582610928565b865550610a0e565b601f1984166109bc86610798565b60005b828110156109e4578489015182556001820191506020850194506020810190506109bf565b86831015610a0157848901516109fd601f89168261090a565b8355505b6001600288020188555050505b50505050505056fea264697066735822122080dbca6191855714c90b04757c853d6cc0b2b199ead682805233f4bbde9b8cf564736f6c63430008120033",
					"opcodes": "PUSH1 0x80 PUSH1 0x40 MSTORE PUSH1 0x65 PUSH1 0x0 SSTORE PUSH32 0xFFFFFFFFFFFFFFFFFFFFFFFFFFFFFFFFFFFFFFFFFFFFFFFFFFFFFFFFFFFFFF9B PUSH1 0x1 SSTORE PUSH1 0x1 PUSH1 0x2 PUSH1 0x0 PUSH2 0x100 EXP DUP2 SLOAD DUP2 PUSH1 0xFF MUL NOT AND SWAP1 DUP4 ISZERO ISZERO MUL OR SWAP1 SSTORE POP PUSH1 0x40 MLOAD DUP1 PUSH1 0x40 ADD PUSH1 0x40 MSTORE DUP1 PUSH1 0xF DUP2 MSTORE PUSH1 0x20 ADD PUSH32 0x426C6F636B636861696E20426172640000000000000000000000000000000000 DUP2 MSTORE POP PUSH1 0x3 SWAP1 DUP2 PUSH3 0x8E SWAP2 SWAP1 PUSH3 0x372 JUMP JUMPDEST POP PUSH20 0xF483C898E6B9B45E24FF7B79CD02C196AB81F291 PUSH1 0x4 PUSH1 0x0 PUSH2 0x100 EXP DUP2 SLOAD DUP2 PUSH20 0xFFFFFFFFFFFFFFFFFFFFFFFFFFFFFFFFFFFFFFFF MUL NOT AND SWAP1 DUP4 PUSH20 0xFFFFFFFFFFFFFFFFFFFFFFFFFFFFFFFFFFFFFFFF AND MUL OR SWAP1 SSTORE POP CALLVALUE DUP1 ISZERO PUSH3 0xF1 JUMPI PUSH1 0x0 DUP1 REVERT JUMPDEST POP PUSH3 0x459 JUMP JUMPDEST PUSH1 0x0 DUP2 MLOAD SWAP1 POP SWAP2 SWAP1 POP JUMP JUMPDEST PUSH32 0x4E487B7100000000000000000000000000000000000000000000000000000000 PUSH1 0x0 MSTORE PUSH1 0x41 PUSH1 0x4 MSTORE PUSH1 0x24 PUSH1 0x0 REVERT JUMPDEST PUSH32 0x4E487B7100000000000000000000000000000000000000000000000000000000 PUSH1 0x0 MSTORE PUSH1 0x22 PUSH1 0x4 MSTORE PUSH1 0x24 PUSH1 0x0 REVERT JUMPDEST PUSH1 0x0 PUSH1 0x2 DUP3 DIV SWAP1 POP PUSH1 0x1 DUP3 AND DUP1 PUSH3 0x17A JUMPI PUSH1 0x7F DUP3 AND SWAP2 POP JUMPDEST PUSH1 0x20 DUP3 LT DUP2 SUB PUSH3 0x190 JUMPI PUSH3 0x18F PUSH3 0x132 JUMP JUMPDEST JUMPDEST POP SWAP2 SWAP1 POP JUMP JUMPDEST PUSH1 0x0 DUP2 SWAP1 POP DUP2 PUSH1 0x0 MSTORE PUSH1 0x20 PUSH1 0x0 KECCAK256 SWAP1 POP SWAP2 SWAP1 POP JUMP JUMPDEST PUSH1 0x0 PUSH1 0x20 PUSH1 0x1F DUP4 ADD DIV SWAP1 POP SWAP2 SWAP1 POP JUMP JUMPDEST PUSH1 0x0 DUP3 DUP3 SHL SWAP1 POP SWAP3 SWAP2 POP POP JUMP JUMPDEST PUSH1 0x0 PUSH1 0x8 DUP4 MUL PUSH3 0x1FA PUSH32 0xFFFFFFFFFFFFFFFFFFFFFFFFFFFFFFFFFFFFFFFFFFFFFFFFFFFFFFFFFFFFFFFF DUP3 PUSH3 0x1BB JUMP JUMPDEST PUSH3 0x206 DUP7 DUP4 PUSH3 0x1BB JUMP JUMPDEST SWAP6 POP DUP1 NOT DUP5 AND SWAP4 POP DUP1 DUP7 AND DUP5 OR SWAP3 POP POP POP SWAP4 SWAP3 POP POP POP JUMP JUMPDEST PUSH1 0x0 DUP2 SWAP1 POP SWAP2 SWAP1 POP JUMP JUMPDEST PUSH1 0x0 DUP2 SWAP1 POP SWAP2 SWAP1 POP JUMP JUMPDEST PUSH1 0x0 PUSH3 0x253 PUSH3 0x24D PUSH3 0x247 DUP5 PUSH3 0x21E JUMP JUMPDEST PUSH3 0x228 JUMP JUMPDEST PUSH3 0x21E JUMP JUMPDEST SWAP1 POP SWAP2 SWAP1 POP JUMP JUMPDEST PUSH1 0x0 DUP2 SWAP1 POP SWAP2 SWAP1 POP JUMP JUMPDEST PUSH3 0x26F DUP4 PUSH3 0x232 JUMP JUMPDEST PUSH3 0x287 PUSH3 0x27E DUP3 PUSH3 0x25A JUMP JUMPDEST DUP5 DUP5 SLOAD PUSH3 0x1C8 JUMP JUMPDEST DUP3 SSTORE POP POP POP POP JUMP JUMPDEST PUSH1 0x0 SWAP1 JUMP JUMPDEST PUSH3 0x29E PUSH3 0x28F JUMP JUMPDEST PUSH3 0x2AB DUP2 DUP5 DUP5 PUSH3 0x264 JUMP JUMPDEST POP POP POP JUMP JUMPDEST JUMPDEST DUP2 DUP2 LT ISZERO PUSH3 0x2D3 JUMPI PUSH3 0x2C7 PUSH1 0x0 DUP3 PUSH3 0x294 JUMP JUMPDEST PUSH1 0x1 DUP2 ADD SWAP1 POP PUSH3 0x2B1 JUMP JUMPDEST POP POP JUMP JUMPDEST PUSH1 0x1F DUP3 GT ISZERO PUSH3 0x322 JUMPI PUSH3 0x2EC DUP2 PUSH3 0x196 JUMP JUMPDEST PUSH3 0x2F7 DUP5 PUSH3 0x1AB JUMP JUMPDEST DUP2 ADD PUSH1 0x20 DUP6 LT ISZERO PUSH3 0x307 JUMPI DUP2 SWAP1 POP JUMPDEST PUSH3 0x31F PUSH3 0x316 DUP6 PUSH3 0x1AB JUMP JUMPDEST DUP4 ADD DUP3 PUSH3 0x2B0 JUMP JUMPDEST POP POP JUMPDEST POP POP POP JUMP JUMPDEST PUSH1 0x0 DUP3 DUP3 SHR SWAP1 POP SWAP3 SWAP2 POP POP JUMP JUMPDEST PUSH1 0x0 PUSH3 0x347 PUSH1 0x0 NOT DUP5 PUSH1 0x8 MUL PUSH3 0x327 JUMP JUMPDEST NOT DUP1 DUP4 AND SWAP2 POP POP SWAP3 SWAP2 POP POP JUMP JUMPDEST PUSH1 0x0 PUSH3 0x362 DUP4 DUP4 PUSH3 0x334 JUMP JUMPDEST SWAP2 POP DUP3 PUSH1 0x2 MUL DUP3 OR SWAP1 POP SWAP3 SWAP2 POP POP JUMP JUMPDEST PUSH3 0x37D DUP3 PUSH3 0xF8 JUMP JUMPDEST PUSH8 0xFFFFFFFFFFFFFFFF DUP2 GT ISZERO PUSH3 0x399 JUMPI PUSH3 0x398 PUSH3 0x103 JUMP JUMPDEST JUMPDEST PUSH3 0x3A5 DUP3 SLOAD PUSH3 0x161 JUMP JUMPDEST PUSH3 0x3B2 DUP3 DUP3 DUP6 PUSH3 0x2D7 JUMP JUMPDEST PUSH1 0x0 PUSH1 0x20 SWAP1 POP PUSH1 0x1F DUP4 GT PUSH1 0x1 DUP2 EQ PUSH3 0x3EA JUMPI PUSH1 0x0 DUP5 ISZERO PUSH3 0x3D5 JUMPI DUP3 DUP8 ADD MLOAD SWAP1 POP JUMPDEST PUSH3 0x3E1 DUP6 DUP3 PUSH3 0x354 JUMP JUMPDEST DUP7 SSTORE POP PUSH3 0x451 JUMP JUMPDEST PUSH1 0x1F NOT DUP5 AND PUSH3 0x3FA DUP7 PUSH3 0x196 JUMP JUMPDEST PUSH1 0x0 JUMPDEST DUP3 DUP2 LT ISZERO PUSH3 0x424 JUMPI DUP5 DUP10 ADD MLOAD DUP3 SSTORE PUSH1 0x1 DUP3 ADD SWAP2 POP PUSH1 0x20 DUP6 ADD SWAP5 POP PUSH1 0x20 DUP2 ADD SWAP1 POP PUSH3 0x3FD JUMP JUMPDEST DUP7 DUP4 LT ISZERO PUSH3 0x444 JUMPI DUP5 DUP10 ADD MLOAD PUSH3 0x440 PUSH1 0x1F DUP10 AND DUP3 PUSH3 0x334 JUMP JUMPDEST DUP4 SSTORE POP JUMPDEST PUSH1 0x1 PUSH1 0x2 DUP9 MUL ADD DUP9 SSTORE POP POP POP JUMPDEST POP POP POP POP POP POP JUMP JUMPDEST PUSH2 0xA4C DUP1 PUSH3 0x469 PUSH1 0x0 CODECOPY PUSH1 0x0 RETURN INVALID PUSH1 0x80 PUSH1 0x40 MSTORE CALLVALUE DUP1 ISZERO PUSH2 0x10 JUMPI PUSH1 0x0 DUP1 REVERT JUMPDEST POP PUSH1 0x4 CALLDATASIZE LT PUSH2 0x62 JUMPI PUSH1 0x0 CALLDATALOAD PUSH1 0xE0 SHR DUP1 PUSH4 0x6FDDE03 EQ PUSH2 0x67 JUMPI DUP1 PUSH4 0x23FD0E40 EQ PUSH2 0x85 JUMPI DUP1 PUSH4 0x3F6A15B2 EQ PUSH2 0xA3 JUMPI DUP1 PUSH4 0x5340F495 EQ PUSH2 0xD7 JUMPI DUP1 PUSH4 0x79A8945C EQ PUSH2 0xF5 JUMPI DUP1 PUSH4 0x8381F58A EQ PUSH2 0x113 JUMPI JUMPDEST PUSH1 0x0 DUP1 REVERT JUMPDEST PUSH2 0x6F PUSH2 0x131 JUMP JUMPDEST PUSH1 0x40 MLOAD PUSH2 0x7C SWAP2 SWAP1 PUSH2 0x332 JUMP JUMPDEST PUSH1 0x40 MLOAD DUP1 SWAP2 SUB SWAP1 RETURN JUMPDEST PUSH2 0x8D PUSH2 0x1BF JUMP JUMPDEST PUSH1 0x40 MLOAD PUSH2 0x9A SWAP2 SWAP1 PUSH2 0x36D JUMP JUMPDEST PUSH1 0x40 MLOAD DUP1 SWAP2 SUB SWAP1 RETURN JUMPDEST PUSH2 0xBD PUSH1 0x4 DUP1 CALLDATASIZE SUB DUP2 ADD SWAP1 PUSH2 0xB8 SWAP2 SWAP1 PUSH2 0x5C9 JUMP JUMPDEST PUSH2 0x1C5 JUMP JUMPDEST PUSH1 0x40 MLOAD PUSH2 0xCE SWAP6 SWAP5 SWAP4 SWAP3 SWAP2 SWAP1 PUSH2 0x68D JUMP JUMPDEST PUSH1 0x40 MLOAD DUP1 SWAP2 SUB SWAP1 RETURN JUMPDEST PUSH2 0xDF PUSH2 0x263 JUMP JUMPDEST PUSH1 0x40 MLOAD PUSH2 0xEC SWAP2 SWAP1 PUSH2 0x6E7 JUMP JUMPDEST PUSH1 0x40 MLOAD DUP1 SWAP2 SUB SWAP1 RETURN JUMPDEST PUSH2 0xFD PUSH2 0x289 JUMP JUMPDEST PUSH1 0x40 MLOAD PUSH2 0x10A SWAP2 SWAP1 PUSH2 0x702 JUMP JUMPDEST PUSH1 0x40 MLOAD DUP1 SWAP2 SUB SWAP1 RETURN JUMPDEST PUSH2 0x11B PUSH2 0x29C JUMP JUMPDEST PUSH1 0x40 MLOAD PUSH2 0x128 SWAP2 SWAP1 PUSH2 0x71D JUMP JUMPDEST PUSH1 0x40 MLOAD DUP1 SWAP2 SUB SWAP1 RETURN JUMPDEST PUSH1 0x3 DUP1 SLOAD PUSH2 0x13E SWAP1 PUSH2 0x767 JUMP JUMPDEST DUP1 PUSH1 0x1F ADD PUSH1 0x20 DUP1 SWAP2 DIV MUL PUSH1 0x20 ADD PUSH1 0x40 MLOAD SWAP1 DUP2 ADD PUSH1 0x40 MSTORE DUP1 SWAP3 SWAP2 SWAP1 DUP2 DUP2 MSTORE PUSH1 0x20 ADD DUP3 DUP1 SLOAD PUSH2 0x16A SWAP1 PUSH2 0x767 JUMP JUMPDEST DUP1 ISZERO PUSH2 0x1B7 JUMPI DUP1 PUSH1 0x1F LT PUSH2 0x18C JUMPI PUSH2 0x100 DUP1 DUP4 SLOAD DIV MUL DUP4 MSTORE SWAP2 PUSH1 0x20 ADD SWAP2 PUSH2 0x1B7 JUMP JUMPDEST DUP3 ADD SWAP2 SWAP1 PUSH1 0x0 MSTORE PUSH1 0x20 PUSH1 0x0 KECCAK256 SWAP1 JUMPDEST DUP2 SLOAD DUP2 MSTORE SWAP1 PUSH1 0x1 ADD SWAP1 PUSH1 0x20 ADD DUP1 DUP4 GT PUSH2 0x19A JUMPI DUP3 SWAP1 SUB PUSH1 0x1F AND DUP3 ADD SWAP2 JUMPDEST POP POP POP POP POP DUP2 JUMP JUMPDEST PUSH1 0x0 SLOAD DUP2 JUMP JUMPDEST PUSH1 0x0 DUP1 PUSH1 0x0 PUSH1 0x60 PUSH1 0x0 DUP10 PUSH1 0x0 DUP2 SWAP1 SSTORE POP DUP9 PUSH1 0x1 DUP2 SWAP1 SSTORE POP DUP8 PUSH1 0x2 PUSH1 0x0 PUSH2 0x100 EXP DUP2 SLOAD DUP2 PUSH1 0xFF MUL NOT AND SWAP1 DUP4 ISZERO ISZERO MUL OR SWAP1 SSTORE POP DUP7 PUSH1 0x3 SWAP1 DUP2 PUSH2 0x205 SWAP2 SWAP1 PUSH2 0x944 JUMP JUMPDEST POP DUP6 PUSH1 0x4 PUSH1 0x0 PUSH2 0x100 EXP DUP2 SLOAD DUP2 PUSH20 0xFFFFFFFFFFFFFFFFFFFFFFFFFFFFFFFFFFFFFFFF MUL NOT AND SWAP1 DUP4 PUSH20 0xFFFFFFFFFFFFFFFFFFFFFFFFFFFFFFFFFFFFFFFF AND MUL OR SWAP1 SSTORE POP DUP9 DUP11 DUP10 DUP10 DUP10 SWAP5 POP SWAP5 POP SWAP5 POP SWAP5 POP SWAP5 POP SWAP6 POP SWAP6 POP SWAP6 POP SWAP6 POP SWAP6 SWAP1 POP JUMP JUMPDEST PUSH1 0x4 PUSH1 0x0 SWAP1 SLOAD SWAP1 PUSH2 0x100 EXP SWAP1 DIV PUSH20 0xFFFFFFFFFFFFFFFFFFFFFFFFFFFFFFFFFFFFFFFF AND DUP2 JUMP JUMPDEST PUSH1 0x2 PUSH1 0x0 SWAP1 SLOAD SWAP1 PUSH2 0x100 EXP SWAP1 DIV PUSH1 0xFF AND DUP2 JUMP JUMPDEST PUSH1 0x1 SLOAD DUP2 JUMP JUMPDEST PUSH1 0x0 DUP2 MLOAD SWAP1 POP SWAP2 SWAP1 POP JUMP JUMPDEST PUSH1 0x0 DUP3 DUP3 MSTORE PUSH1 0x20 DUP3 ADD SWAP1 POP SWAP3 SWAP2 POP POP JUMP JUMPDEST PUSH1 0x0 JUMPDEST DUP4 DUP2 LT ISZERO PUSH2 0x2DC JUMPI DUP1 DUP3 ADD MLOAD DUP2 DUP5 ADD MSTORE PUSH1 0x20 DUP2 ADD SWAP1 POP PUSH2 0x2C1 JUMP JUMPDEST PUSH1 0x0 DUP5 DUP5 ADD MSTORE POP POP POP POP JUMP JUMPDEST PUSH1 0x0 PUSH1 0x1F NOT PUSH1 0x1F DUP4 ADD AND SWAP1 POP SWAP2 SWAP1 POP JUMP JUMPDEST PUSH1 0x0 PUSH2 0x304 DUP3 PUSH2 0x2A2 JUMP JUMPDEST PUSH2 0x30E DUP2 DUP6 PUSH2 0x2AD JUMP JUMPDEST SWAP4 POP PUSH2 0x31E DUP2 DUP6 PUSH1 0x20 DUP7 ADD PUSH2 0x2BE JUMP JUMPDEST PUSH2 0x327 DUP2 PUSH2 0x2E8 JUMP JUMPDEST DUP5 ADD SWAP2 POP POP SWAP3 SWAP2 POP POP JUMP JUMPDEST PUSH1 0x0 PUSH1 0x20 DUP3 ADD SWAP1 POP DUP2 DUP2 SUB PUSH1 0x0 DUP4 ADD MSTORE PUSH2 0x34C DUP2 DUP5 PUSH2 0x2F9 JUMP JUMPDEST SWAP1 POP SWAP3 SWAP2 POP POP JUMP JUMPDEST PUSH1 0x0 DUP2 SWAP1 POP SWAP2 SWAP1 POP JUMP JUMPDEST PUSH2 0x367 DUP2 PUSH2 0x354 JUMP JUMPDEST DUP3 MSTORE POP POP JUMP JUMPDEST PUSH1 0x0 PUSH1 0x20 DUP3 ADD SWAP1 POP PUSH2 0x382 PUSH1 0x0 DUP4 ADD DUP5 PUSH2 0x35E JUMP JUMPDEST SWAP3 SWAP2 POP POP JUMP JUMPDEST PUSH1 0x0 PUSH1 0x40 MLOAD SWAP1 POP SWAP1 JUMP JUMPDEST PUSH1 0x0 DUP1 REVERT JUMPDEST PUSH1 0x0 DUP1 REVERT JUMPDEST PUSH2 0x3A5 DUP2 PUSH2 0x354 JUMP JUMPDEST DUP2 EQ PUSH2 0x3B0 JUMPI PUSH1 0x0 DUP1 REVERT JUMPDEST POP JUMP JUMPDEST PUSH1 0x0 DUP2 CALLDATALOAD SWAP1 POP PUSH2 0x3C2 DUP2 PUSH2 0x39C JUMP JUMPDEST SWAP3 SWAP2 POP POP JUMP JUMPDEST PUSH1 0x0 DUP2 SWAP1 POP SWAP2 SWAP1 POP JUMP JUMPDEST PUSH2 0x3DB DUP2 PUSH2 0x3C8 JUMP JUMPDEST DUP2 EQ PUSH2 0x3E6 JUMPI PUSH1 0x0 DUP1 REVERT JUMPDEST POP JUMP JUMPDEST PUSH1 0x0 DUP2 CALLDATALOAD SWAP1 POP PUSH2 0x3F8 DUP2 PUSH2 0x3D2 JUMP JUMPDEST SWAP3 SWAP2 POP POP JUMP JUMPDEST PUSH1 0x0 DUP2 ISZERO ISZERO SWAP1 POP SWAP2 SWAP1 POP JUMP JUMPDEST PUSH2 0x413 DUP2 PUSH2 0x3FE JUMP JUMPDEST DUP2 EQ PUSH2 0x41E JUMPI PUSH1 0x0 DUP1 REVERT JUMPDEST POP JUMP JUMPDEST PUSH1 0x0 DUP2 CALLDATALOAD SWAP1 POP PUSH2 0x430 DUP2 PUSH2 0x40A JUMP JUMPDEST SWAP3 SWAP2 POP POP JUMP JUMPDEST PUSH1 0x0 DUP1 REVERT JUMPDEST PUSH1 0x0 DUP1 REVERT JUMPDEST PUSH32 0x4E487B7100000000000000000000000000000000000000000000000000000000 PUSH1 0x0 MSTORE PUSH1 0x41 PUSH1 0x4 MSTORE PUSH1 0x24 PUSH1 0x0 REVERT JUMPDEST PUSH2 0x478 DUP3 PUSH2 0x2E8 JUMP JUMPDEST DUP2 ADD DUP2 DUP2 LT PUSH8 0xFFFFFFFFFFFFFFFF DUP3 GT OR ISZERO PUSH2 0x497 JUMPI PUSH2 0x496 PUSH2 0x440 JUMP JUMPDEST JUMPDEST DUP1 PUSH1 0x40 MSTORE POP POP POP JUMP JUMPDEST PUSH1 0x0 PUSH2 0x4AA PUSH2 0x388 JUMP JUMPDEST SWAP1 POP PUSH2 0x4B6 DUP3 DUP3 PUSH2 0x46F JUMP JUMPDEST SWAP2 SWAP1 POP JUMP JUMPDEST PUSH1 0x0 PUSH8 0xFFFFFFFFFFFFFFFF DUP3 GT ISZERO PUSH2 0x4D6 JUMPI PUSH2 0x4D5 PUSH2 0x440 JUMP JUMPDEST JUMPDEST PUSH2 0x4DF DUP3 PUSH2 0x2E8 JUMP JUMPDEST SWAP1 POP PUSH1 0x20 DUP2 ADD SWAP1 POP SWAP2 SWAP1 POP JUMP JUMPDEST DUP3 DUP2 DUP4 CALLDATACOPY PUSH1 0x0 DUP4 DUP4 ADD MSTORE POP POP POP JUMP JUMPDEST PUSH1 0x0 PUSH2 0x50E PUSH2 0x509 DUP5 PUSH2 0x4BB JUMP JUMPDEST PUSH2 0x4A0 JUMP JUMPDEST SWAP1 POP DUP3 DUP2 MSTORE PUSH1 0x20 DUP2 ADD DUP5 DUP5 DUP5 ADD GT ISZERO PUSH2 0x52A JUMPI PUSH2 0x529 PUSH2 0x43B JUMP JUMPDEST JUMPDEST PUSH2 0x535 DUP5 DUP3 DUP6 PUSH2 0x4EC JUMP JUMPDEST POP SWAP4 SWAP3 POP POP POP JUMP JUMPDEST PUSH1 0x0 DUP3 PUSH1 0x1F DUP4 ADD SLT PUSH2 0x552 JUMPI PUSH2 0x551 PUSH2 0x436 JUMP JUMPDEST JUMPDEST DUP2 CALLDATALOAD PUSH2 0x562 DUP5 DUP3 PUSH1 0x20 DUP7 ADD PUSH2 0x4FB JUMP JUMPDEST SWAP2 POP POP SWAP3 SWAP2 POP POP JUMP JUMPDEST PUSH1 0x0 PUSH20 0xFFFFFFFFFFFFFFFFFFFFFFFFFFFFFFFFFFFFFFFF DUP3 AND SWAP1 POP SWAP2 SWAP1 POP JUMP JUMPDEST PUSH1 0x0 PUSH2 0x596 DUP3 PUSH2 0x56B JUMP JUMPDEST SWAP1 POP SWAP2 SWAP1 POP JUMP JUMPDEST PUSH2 0x5A6 DUP2 PUSH2 0x58B JUMP JUMPDEST DUP2 EQ PUSH2 0x5B1 JUMPI PUSH1 0x0 DUP1 REVERT JUMPDEST POP JUMP JUMPDEST PUSH1 0x0 DUP2 CALLDATALOAD SWAP1 POP PUSH2 0x5C3 DUP2 PUSH2 0x59D JUMP JUMPDEST SWAP3 SWAP2 POP POP JUMP JUMPDEST PUSH1 0x0 DUP1 PUSH1 0x0 DUP1 PUSH1 0x0 PUSH1 0xA0 DUP7 DUP9 SUB SLT ISZERO PUSH2 0x5E5 JUMPI PUSH2 0x5E4 PUSH2 0x392 JUMP JUMPDEST JUMPDEST PUSH1 0x0 PUSH2 0x5F3 DUP9 DUP3 DUP10 ADD PUSH2 0x3B3 JUMP JUMPDEST SWAP6 POP POP PUSH1 0x20 PUSH2 0x604 DUP9 DUP3 DUP10 ADD PUSH2 0x3E9 JUMP JUMPDEST SWAP5 POP POP PUSH1 0x40 PUSH2 0x615 DUP9 DUP3 DUP10 ADD PUSH2 0x421 JUMP JUMPDEST SWAP4 POP POP PUSH1 0x60 DUP7 ADD CALLDATALOAD PUSH8 0xFFFFFFFFFFFFFFFF DUP2 GT ISZERO PUSH2 0x636 JUMPI PUSH2 0x635 PUSH2 0x397 JUMP JUMPDEST JUMPDEST PUSH2 0x642 DUP9 DUP3 DUP10 ADD PUSH2 0x53D JUMP JUMPDEST SWAP3 POP POP PUSH1 0x80 PUSH2 0x653 DUP9 DUP3 DUP10 ADD PUSH2 0x5B4 JUMP JUMPDEST SWAP2 POP POP SWAP3 SWAP6 POP SWAP3 SWAP6 SWAP1 SWAP4 POP JUMP JUMPDEST PUSH2 0x669 DUP2 PUSH2 0x3C8 JUMP JUMPDEST DUP3 MSTORE POP POP JUMP JUMPDEST PUSH2 0x678 DUP2 PUSH2 0x3FE JUMP JUMPDEST DUP3 MSTORE POP POP JUMP JUMPDEST PUSH2 0x687 DUP2 PUSH2 0x58B JUMP JUMPDEST DUP3 MSTORE POP POP JUMP JUMPDEST PUSH1 0x0 PUSH1 0xA0 DUP3 ADD SWAP1 POP PUSH2 0x6A2 PUSH1 0x0 DUP4 ADD DUP9 PUSH2 0x660 JUMP JUMPDEST PUSH2 0x6AF PUSH1 0x20 DUP4 ADD DUP8 PUSH2 0x35E JUMP JUMPDEST PUSH2 0x6BC PUSH1 0x40 DUP4 ADD DUP7 PUSH2 0x66F JUMP JUMPDEST DUP2 DUP2 SUB PUSH1 0x60 DUP4 ADD MSTORE PUSH2 0x6CE DUP2 DUP6 PUSH2 0x2F9 JUMP JUMPDEST SWAP1 POP PUSH2 0x6DD PUSH1 0x80 DUP4 ADD DUP5 PUSH2 0x67E JUMP JUMPDEST SWAP7 SWAP6 POP POP POP POP POP POP JUMP JUMPDEST PUSH1 0x0 PUSH1 0x20 DUP3 ADD SWAP1 POP PUSH2 0x6FC PUSH1 0x0 DUP4 ADD DUP5 PUSH2 0x67E JUMP JUMPDEST SWAP3 SWAP2 POP POP JUMP JUMPDEST PUSH1 0x0 PUSH1 0x20 DUP3 ADD SWAP1 POP PUSH2 0x717 PUSH1 0x0 DUP4 ADD DUP5 PUSH2 0x66F JUMP JUMPDEST SWAP3 SWAP2 POP POP JUMP JUMPDEST PUSH1 0x0 PUSH1 0x20 DUP3 ADD SWAP1 POP PUSH2 0x732 PUSH1 0x0 DUP4 ADD DUP5 PUSH2 0x660 JUMP JUMPDEST SWAP3 SWAP2 POP POP JUMP JUMPDEST PUSH32 0x4E487B7100000000000000000000000000000000000000000000000000000000 PUSH1 0x0 MSTORE PUSH1 0x22 PUSH1 0x4 MSTORE PUSH1 0x24 PUSH1 0x0 REVERT JUMPDEST PUSH1 0x0 PUSH1 0x2 DUP3 DIV SWAP1 POP PUSH1 0x1 DUP3 AND DUP1 PUSH2 0x77F JUMPI PUSH1 0x7F DUP3 AND SWAP2 POP JUMPDEST PUSH1 0x20 DUP3 LT DUP2 SUB PUSH2 0x792 JUMPI PUSH2 0x791 PUSH2 0x738 JUMP JUMPDEST JUMPDEST POP SWAP2 SWAP1 POP JUMP JUMPDEST PUSH1 0x0 DUP2 SWAP1 POP DUP2 PUSH1 0x0 MSTORE PUSH1 0x20 PUSH1 0x0 KECCAK256 SWAP1 POP SWAP2 SWAP1 POP JUMP JUMPDEST PUSH1 0x0 PUSH1 0x20 PUSH1 0x1F DUP4 ADD DIV SWAP1 POP SWAP2 SWAP1 POP JUMP JUMPDEST PUSH1 0x0 DUP3 DUP3 SHL SWAP1 POP SWAP3 SWAP2 POP POP JUMP JUMPDEST PUSH1 0x0 PUSH1 0x8 DUP4 MUL PUSH2 0x7FA PUSH32 0xFFFFFFFFFFFFFFFFFFFFFFFFFFFFFFFFFFFFFFFFFFFFFFFFFFFFFFFFFFFFFFFF DUP3 PUSH2 0x7BD JUMP JUMPDEST PUSH2 0x804 DUP7 DUP4 PUSH2 0x7BD JUMP JUMPDEST SWAP6 POP DUP1 NOT DUP5 AND SWAP4 POP DUP1 DUP7 AND DUP5 OR SWAP3 POP POP POP SWAP4 SWAP3 POP POP POP JUMP JUMPDEST PUSH1 0x0 DUP2 SWAP1 POP SWAP2 SWAP1 POP JUMP JUMPDEST PUSH1 0x0 PUSH2 0x841 PUSH2 0x83C PUSH2 0x837 DUP5 PUSH2 0x354 JUMP JUMPDEST PUSH2 0x81C JUMP JUMPDEST PUSH2 0x354 JUMP JUMPDEST SWAP1 POP SWAP2 SWAP1 POP JUMP JUMPDEST PUSH1 0x0 DUP2 SWAP1 POP SWAP2 SWAP1 POP JUMP JUMPDEST PUSH2 0x85B DUP4 PUSH2 0x826 JUMP JUMPDEST PUSH2 0x86F PUSH2 0x867 DUP3 PUSH2 0x848 JUMP JUMPDEST DUP5 DUP5 SLOAD PUSH2 0x7CA JUMP JUMPDEST DUP3 SSTORE POP POP POP POP JUMP JUMPDEST PUSH1 0x0 SWAP1 JUMP JUMPDEST PUSH2 0x884 PUSH2 0x877 JUMP JUMPDEST PUSH2 0x88F DUP2 DUP5 DUP5 PUSH2 0x852 JUMP JUMPDEST POP POP POP JUMP JUMPDEST JUMPDEST DUP2 DUP2 LT ISZERO PUSH2 0x8B3 JUMPI PUSH2 0x8A8 PUSH1 0x0 DUP3 PUSH2 0x87C JUMP JUMPDEST PUSH1 0x1 DUP2 ADD SWAP1 POP PUSH2 0x895 JUMP JUMPDEST POP POP JUMP JUMPDEST PUSH1 0x1F DUP3 GT ISZERO PUSH2 0x8F8 JUMPI PUSH2 0x8C9 DUP2 PUSH2 0x798 JUMP JUMPDEST PUSH2 0x8D2 DUP5 PUSH2 0x7AD JUMP JUMPDEST DUP2 ADD PUSH1 0x20 DUP6 LT ISZERO PUSH2 0x8E1 JUMPI DUP2 SWAP1 POP JUMPDEST PUSH2 0x8F5 PUSH2 0x8ED DUP6 PUSH2 0x7AD JUMP JUMPDEST DUP4 ADD DUP3 PUSH2 0x894 JUMP JUMPDEST POP POP JUMPDEST POP POP POP JUMP JUMPDEST PUSH1 0x0 DUP3 DUP3 SHR SWAP1 POP SWAP3 SWAP2 POP POP JUMP JUMPDEST PUSH1 0x0 PUSH2 0x91B PUSH1 0x0 NOT DUP5 PUSH1 0x8 MUL PUSH2 0x8FD JUMP JUMPDEST NOT DUP1 DUP4 AND SWAP2 POP POP SWAP3 SWAP2 POP POP JUMP JUMPDEST PUSH1 0x0 PUSH2 0x934 DUP4 DUP4 PUSH2 0x90A JUMP JUMPDEST SWAP2 POP DUP3 PUSH1 0x2 MUL DUP3 OR SWAP1 POP SWAP3 SWAP2 POP POP JUMP JUMPDEST PUSH2 0x94D DUP3 PUSH2 0x2A2 JUMP JUMPDEST PUSH8 0xFFFFFFFFFFFFFFFF DUP2 GT ISZERO PUSH2 0x966 JUMPI PUSH2 0x965 PUSH2 0x440 JUMP JUMPDEST JUMPDEST PUSH2 0x970 DUP3 SLOAD PUSH2 0x767 JUMP JUMPDEST PUSH2 0x97B DUP3 DUP3 DUP6 PUSH2 0x8B7 JUMP JUMPDEST PUSH1 0x0 PUSH1 0x20 SWAP1 POP PUSH1 0x1F DUP4 GT PUSH1 0x1 DUP2 EQ PUSH2 0x9AE JUMPI PUSH1 0x0 DUP5 ISZERO PUSH2 0x99C JUMPI DUP3 DUP8 ADD MLOAD SWAP1 POP JUMPDEST PUSH2 0x9A6 DUP6 DUP3 PUSH2 0x928 JUMP JUMPDEST DUP7 SSTORE POP PUSH2 0xA0E JUMP JUMPDEST PUSH1 0x1F NOT DUP5 AND PUSH2 0x9BC DUP7 PUSH2 0x798 JUMP JUMPDEST PUSH1 0x0 JUMPDEST DUP3 DUP2 LT ISZERO PUSH2 0x9E4 JUMPI DUP5 DUP10 ADD MLOAD DUP3 SSTORE PUSH1 0x1 DUP3 ADD SWAP2 POP PUSH1 0x20 DUP6 ADD SWAP5 POP PUSH1 0x20 DUP2 ADD SWAP1 POP PUSH2 0x9BF JUMP JUMPDEST DUP7 DUP4 LT ISZERO PUSH2 0xA01 JUMPI DUP5 DUP10 ADD MLOAD PUSH2 0x9FD PUSH1 0x1F DUP10 AND DUP3 PUSH2 0x90A JUMP JUMPDEST DUP4 SSTORE POP JUMPDEST PUSH1 0x1 PUSH1 0x2 DUP9 MUL ADD DUP9 SSTORE POP POP POP JUMPDEST POP POP POP POP POP POP JUMP INVALID LOG2 PUSH5 0x6970667358 0x22 SLT KECCAK256 DUP1 0xDB 0xCA PUSH2 0x9185 JUMPI EQ 0xC9 SIGNEXTEND DIV PUSH22 0x7C853D6CC0B2B199EAD682805233F4BBDE9B8CF56473 PUSH16 0x6C634300081200330000000000000000 "
				},
				"gasEstimates": {
					"creation": {
						"codeDepositCost": "527200",
						"executionCost": "infinite",
						"totalCost": "infinite"
					},
					"external": {
						"isDeveloper()": "2537",
						"metamaskAddress()": "2558",
						"myNumber()": "2429",
						"name()": "infinite",
						"number()": "2517",
						"update_variables(uint256,int256,bool,string,address)": "infinite"
					}
				},
				"methodIdentifiers": {
					"isDeveloper()": "79a8945c",
					"metamaskAddress()": "5340f495",
					"myNumber()": "23fd0e40",
					"name()": "06fdde03",
					"number()": "8381f58a",
					"update_variables(uint256,int256,bool,string,address)": "3f6a15b2"
				}
			},
			"storageLayout": {
				"storage": [
					{
						"astId": 4,
						"contract": "dataTypesAndVariables/dataTypes.sol:DataTypes",
						"label": "myNumber",
						"offset": 0,
						"slot": "0",
						"type": "t_uint256"
					},
					{
						"astId": 8,
						"contract": "dataTypesAndVariables/dataTypes.sol:DataTypes",
						"label": "number",
						"offset": 0,
						"slot": "1",
						"type": "t_int256"
					},
					{
						"astId": 11,
						"contract": "dataTypesAndVariables/dataTypes.sol:DataTypes",
						"label": "isDeveloper",
						"offset": 0,
						"slot": "2",
						"type": "t_bool"
					},
					{
						"astId": 14,
						"contract": "dataTypesAndVariables/dataTypes.sol:DataTypes",
						"label": "name",
						"offset": 0,
						"slot": "3",
						"type": "t_string_storage"
					},
					{
						"astId": 17,
						"contract": "dataTypesAndVariables/dataTypes.sol:DataTypes",
						"label": "metamaskAddress",
						"offset": 0,
						"slot": "4",
						"type": "t_address"
					}
				],
				"types": {
					"t_address": {
						"encoding": "inplace",
						"label": "address",
						"numberOfBytes": "20"
					},
					"t_bool": {
						"encoding": "inplace",
						"label": "bool",
						"numberOfBytes": "1"
					},
					"t_int256": {
						"encoding": "inplace",
						"label": "int256",
						"numberOfBytes": "32"
					},
					"t_string_storage": {
						"encoding": "bytes",
						"label": "string",
						"numberOfBytes": "32"
					},
					"t_uint256": {
						"encoding": "inplace",
						"label": "uint256",
						"numberOfBytes": "32"
					}
				}
			},
			"userdoc": {
				"kind": "user",
				"methods": {},
				"version": 1
			}
		}
	}
}