{
	"data": {
		"bytecode": {
			"linkReferences": {},
			"object": "6080604052348015600e575f80fd5b5061068a8061001c5f395ff3fe608060405234801561000f575f80fd5b5060043610610086575f3560e01c80636deebae3116100595780636deebae314610100578063b53b8d7a1461011e578063f3593cd01461013c578063ff4b04001461015a57610086565b806309c425e81461008a57806315d4266c146100a65780633b9eac4b146100c45780634f2be91f146100e2575b5f80fd5b6100a4600480360381019061009f91906102ff565b610178565b005b6100ae610189565b6040516100bb919061034c565b60405180910390f35b6100cc61018f565b6040516100d9919061034c565b60405180910390f35b6100ea610194565b6040516100f7919061034c565b60405180910390f35b6101086101ae565b604051610115919061034c565b60405180910390f35b6101266101c8565b604051610133919061034c565b60405180910390f35b610144610234565b604051610151919061034c565b60405180910390f35b61016261024e565b60405161016f919061034c565b60405180910390f35b815f81905550806001819055505050565b60015481565b5f5481565b5f806001545f546101a59190610392565b90508091505090565b5f806001545f546101bf91906103d3565b90508091505090565b5f805f54141580156101dc57505f60015414155b61021b576040517f08c379a00000000000000000000000000000000000000000000000000000000081526004016102129061046d565b60405180910390fd5b5f6001545f5461022b91906104b8565b90508091505090565b5f806001545f546102459190610520565b90508091505090565b5f805f541215801561026257505f60015412155b801561027057506001545f54135b6102af576040517f08c379a00000000000000000000000000000000000000000000000000000000081526004016102a690610606565b60405180910390fd5b5f6001545f546102bf9190610624565b90508091505090565b5f80fd5b5f819050919050565b6102de816102cc565b81146102e8575f80fd5b50565b5f813590506102f9816102d5565b92915050565b5f8060408385031215610315576103146102c8565b5b5f610322858286016102eb565b9250506020610333858286016102eb565b9150509250929050565b610346816102cc565b82525050565b5f60208201905061035f5f83018461033d565b92915050565b7f4e487b71000000000000000000000000000000000000000000000000000000005f52601160045260245ffd5b5f61039c826102cc565b91506103a7836102cc565b92508282019050828112155f8312168382125f8412151617156103cd576103cc610365565b5b92915050565b5f6103dd826102cc565b91506103e8836102cc565b925082820390508181125f8412168282135f85121516171561040d5761040c610365565b5b92915050565b5f82825260208201905092915050565b7f6e756d31206f72206e756d32206973205a65726f0000000000000000000000005f82015250565b5f610457601483610413565b915061046282610423565b602082019050919050565b5f6020820190508181035f8301526104848161044b565b9050919050565b7f4e487b71000000000000000000000000000000000000000000000000000000005f52601260045260245ffd5b5f6104c2826102cc565b91506104cd836102cc565b9250826104dd576104dc61048b565b5b60015f0383147f80000000000000000000000000000000000000000000000000000000000000008314161561051557610514610365565b5b828205905092915050565b5f61052a826102cc565b9150610535836102cc565b9250828202610543816102cc565b91507f800000000000000000000000000000000000000000000000000000000000000084145f8412161561057a57610579610365565b5b828205841483151761058f5761058e610365565b5b5092915050565b7f6e756d31206f72206e756d32206973206c657373207468616e205a65726f206f5f8201527f72206e756d31203c206e756d3200000000000000000000000000000000000000602082015250565b5f6105f0602d83610413565b91506105fb82610596565b604082019050919050565b5f6020820190508181035f83015261061d816105e4565b9050919050565b5f61062e826102cc565b9150610639836102cc565b9250826106495761064861048b565b5b82820790509291505056fea2646970667358221220d1e9bd01d8fff356de05f36675407f056b6de356e0a8b3998fcc0132568bb5d464736f6c634300081a0033",
			"opcodes": "PUSH1 0x80 PUSH1 0x40 MSTORE CALLVALUE DUP1 ISZERO PUSH1 0xE JUMPI PUSH0 DUP1 REVERT JUMPDEST POP PUSH2 0x68A DUP1 PUSH2 0x1C PUSH0 CODECOPY PUSH0 RETURN INVALID PUSH1 0x80 PUSH1 0x40 MSTORE CALLVALUE DUP1 ISZERO PUSH2 0xF JUMPI PUSH0 DUP1 REVERT JUMPDEST POP PUSH1 0x4 CALLDATASIZE LT PUSH2 0x86 JUMPI PUSH0 CALLDATALOAD PUSH1 0xE0 SHR DUP1 PUSH4 0x6DEEBAE3 GT PUSH2 0x59 JUMPI DUP1 PUSH4 0x6DEEBAE3 EQ PUSH2 0x100 JUMPI DUP1 PUSH4 0xB53B8D7A EQ PUSH2 0x11E JUMPI DUP1 PUSH4 0xF3593CD0 EQ PUSH2 0x13C JUMPI DUP1 PUSH4 0xFF4B0400 EQ PUSH2 0x15A JUMPI PUSH2 0x86 JUMP JUMPDEST DUP1 PUSH4 0x9C425E8 EQ PUSH2 0x8A JUMPI DUP1 PUSH4 0x15D4266C EQ PUSH2 0xA6 JUMPI DUP1 PUSH4 0x3B9EAC4B EQ PUSH2 0xC4 JUMPI DUP1 PUSH4 0x4F2BE91F EQ PUSH2 0xE2 JUMPI JUMPDEST PUSH0 DUP1 REVERT JUMPDEST PUSH2 0xA4 PUSH1 0x4 DUP1 CALLDATASIZE SUB DUP2 ADD SWAP1 PUSH2 0x9F SWAP2 SWAP1 PUSH2 0x2FF JUMP JUMPDEST PUSH2 0x178 JUMP JUMPDEST STOP JUMPDEST PUSH2 0xAE PUSH2 0x189 JUMP JUMPDEST PUSH1 0x40 MLOAD PUSH2 0xBB SWAP2 SWAP1 PUSH2 0x34C JUMP JUMPDEST PUSH1 0x40 MLOAD DUP1 SWAP2 SUB SWAP1 RETURN JUMPDEST PUSH2 0xCC PUSH2 0x18F JUMP JUMPDEST PUSH1 0x40 MLOAD PUSH2 0xD9 SWAP2 SWAP1 PUSH2 0x34C JUMP JUMPDEST PUSH1 0x40 MLOAD DUP1 SWAP2 SUB SWAP1 RETURN JUMPDEST PUSH2 0xEA PUSH2 0x194 JUMP JUMPDEST PUSH1 0x40 MLOAD PUSH2 0xF7 SWAP2 SWAP1 PUSH2 0x34C JUMP JUMPDEST PUSH1 0x40 MLOAD DUP1 SWAP2 SUB SWAP1 RETURN JUMPDEST PUSH2 0x108 PUSH2 0x1AE JUMP JUMPDEST PUSH1 0x40 MLOAD PUSH2 0x115 SWAP2 SWAP1 PUSH2 0x34C JUMP JUMPDEST PUSH1 0x40 MLOAD DUP1 SWAP2 SUB SWAP1 RETURN JUMPDEST PUSH2 0x126 PUSH2 0x1C8 JUMP JUMPDEST PUSH1 0x40 MLOAD PUSH2 0x133 SWAP2 SWAP1 PUSH2 0x34C JUMP JUMPDEST PUSH1 0x40 MLOAD DUP1 SWAP2 SUB SWAP1 RETURN JUMPDEST PUSH2 0x144 PUSH2 0x234 JUMP JUMPDEST PUSH1 0x40 MLOAD PUSH2 0x151 SWAP2 SWAP1 PUSH2 0x34C JUMP JUMPDEST PUSH1 0x40 MLOAD DUP1 SWAP2 SUB SWAP1 RETURN JUMPDEST PUSH2 0x162 PUSH2 0x24E JUMP JUMPDEST PUSH1 0x40 MLOAD PUSH2 0x16F SWAP2 SWAP1 PUSH2 0x34C JUMP JUMPDEST PUSH1 0x40 MLOAD DUP1 SWAP2 SUB SWAP1 RETURN JUMPDEST DUP2 PUSH0 DUP2 SWAP1 SSTORE POP DUP1 PUSH1 0x1 DUP2 SWAP1 SSTORE POP POP POP JUMP JUMPDEST PUSH1 0x1 SLOAD DUP2 JUMP JUMPDEST PUSH0 SLOAD DUP2 JUMP JUMPDEST PUSH0 DUP1 PUSH1 0x1 SLOAD PUSH0 SLOAD PUSH2 0x1A5 SWAP2 SWAP1 PUSH2 0x392 JUMP JUMPDEST SWAP1 POP DUP1 SWAP2 POP POP SWAP1 JUMP JUMPDEST PUSH0 DUP1 PUSH1 0x1 SLOAD PUSH0 SLOAD PUSH2 0x1BF SWAP2 SWAP1 PUSH2 0x3D3 JUMP JUMPDEST SWAP1 POP DUP1 SWAP2 POP POP SWAP1 JUMP JUMPDEST PUSH0 DUP1 PUSH0 SLOAD EQ ISZERO DUP1 ISZERO PUSH2 0x1DC JUMPI POP PUSH0 PUSH1 0x1 SLOAD EQ ISZERO JUMPDEST PUSH2 0x21B JUMPI PUSH1 0x40 MLOAD PUSH32 0x8C379A000000000000000000000000000000000000000000000000000000000 DUP2 MSTORE PUSH1 0x4 ADD PUSH2 0x212 SWAP1 PUSH2 0x46D JUMP JUMPDEST PUSH1 0x40 MLOAD DUP1 SWAP2 SUB SWAP1 REVERT JUMPDEST PUSH0 PUSH1 0x1 SLOAD PUSH0 SLOAD PUSH2 0x22B SWAP2 SWAP1 PUSH2 0x4B8 JUMP JUMPDEST SWAP1 POP DUP1 SWAP2 POP POP SWAP1 JUMP JUMPDEST PUSH0 DUP1 PUSH1 0x1 SLOAD PUSH0 SLOAD PUSH2 0x245 SWAP2 SWAP1 PUSH2 0x520 JUMP JUMPDEST SWAP1 POP DUP1 SWAP2 POP POP SWAP1 JUMP JUMPDEST PUSH0 DUP1 PUSH0 SLOAD SLT ISZERO DUP1 ISZERO PUSH2 0x262 JUMPI POP PUSH0 PUSH1 0x1 SLOAD SLT ISZERO JUMPDEST DUP1 ISZERO PUSH2 0x270 JUMPI POP PUSH1 0x1 SLOAD PUSH0 SLOAD SGT JUMPDEST PUSH2 0x2AF JUMPI PUSH1 0x40 MLOAD PUSH32 0x8C379A000000000000000000000000000000000000000000000000000000000 DUP2 MSTORE PUSH1 0x4 ADD PUSH2 0x2A6 SWAP1 PUSH2 0x606 JUMP JUMPDEST PUSH1 0x40 MLOAD DUP1 SWAP2 SUB SWAP1 REVERT JUMPDEST PUSH0 PUSH1 0x1 SLOAD PUSH0 SLOAD PUSH2 0x2BF SWAP2 SWAP1 PUSH2 0x624 JUMP JUMPDEST SWAP1 POP DUP1 SWAP2 POP POP SWAP1 JUMP JUMPDEST PUSH0 DUP1 REVERT JUMPDEST PUSH0 DUP2 SWAP1 POP SWAP2 SWAP1 POP JUMP JUMPDEST PUSH2 0x2DE DUP2 PUSH2 0x2CC JUMP JUMPDEST DUP2 EQ PUSH2 0x2E8 JUMPI PUSH0 DUP1 REVERT JUMPDEST POP JUMP JUMPDEST PUSH0 DUP2 CALLDATALOAD SWAP1 POP PUSH2 0x2F9 DUP2 PUSH2 0x2D5 JUMP JUMPDEST SWAP3 SWAP2 POP POP JUMP JUMPDEST PUSH0 DUP1 PUSH1 0x40 DUP4 DUP6 SUB SLT ISZERO PUSH2 0x315 JUMPI PUSH2 0x314 PUSH2 0x2C8 JUMP JUMPDEST JUMPDEST PUSH0 PUSH2 0x322 DUP6 DUP3 DUP7 ADD PUSH2 0x2EB JUMP JUMPDEST SWAP3 POP POP PUSH1 0x20 PUSH2 0x333 DUP6 DUP3 DUP7 ADD PUSH2 0x2EB JUMP JUMPDEST SWAP2 POP POP SWAP3 POP SWAP3 SWAP1 POP JUMP JUMPDEST PUSH2 0x346 DUP2 PUSH2 0x2CC JUMP JUMPDEST DUP3 MSTORE POP POP JUMP JUMPDEST PUSH0 PUSH1 0x20 DUP3 ADD SWAP1 POP PUSH2 0x35F PUSH0 DUP4 ADD DUP5 PUSH2 0x33D JUMP JUMPDEST SWAP3 SWAP2 POP POP JUMP JUMPDEST PUSH32 0x4E487B7100000000000000000000000000000000000000000000000000000000 PUSH0 MSTORE PUSH1 0x11 PUSH1 0x4 MSTORE PUSH1 0x24 PUSH0 REVERT JUMPDEST PUSH0 PUSH2 0x39C DUP3 PUSH2 0x2CC JUMP JUMPDEST SWAP2 POP PUSH2 0x3A7 DUP4 PUSH2 0x2CC JUMP JUMPDEST SWAP3 POP DUP3 DUP3 ADD SWAP1 POP DUP3 DUP2 SLT ISZERO PUSH0 DUP4 SLT AND DUP4 DUP3 SLT PUSH0 DUP5 SLT ISZERO AND OR ISZERO PUSH2 0x3CD JUMPI PUSH2 0x3CC PUSH2 0x365 JUMP JUMPDEST JUMPDEST SWAP3 SWAP2 POP POP JUMP JUMPDEST PUSH0 PUSH2 0x3DD DUP3 PUSH2 0x2CC JUMP JUMPDEST SWAP2 POP PUSH2 0x3E8 DUP4 PUSH2 0x2CC JUMP JUMPDEST SWAP3 POP DUP3 DUP3 SUB SWAP1 POP DUP2 DUP2 SLT PUSH0 DUP5 SLT AND DUP3 DUP3 SGT PUSH0 DUP6 SLT ISZERO AND OR ISZERO PUSH2 0x40D JUMPI PUSH2 0x40C PUSH2 0x365 JUMP JUMPDEST JUMPDEST SWAP3 SWAP2 POP POP JUMP JUMPDEST PUSH0 DUP3 DUP3 MSTORE PUSH1 0x20 DUP3 ADD SWAP1 POP SWAP3 SWAP2 POP POP JUMP JUMPDEST PUSH32 0x6E756D31206F72206E756D32206973205A65726F000000000000000000000000 PUSH0 DUP3 ADD MSTORE POP JUMP JUMPDEST PUSH0 PUSH2 0x457 PUSH1 0x14 DUP4 PUSH2 0x413 JUMP JUMPDEST SWAP2 POP PUSH2 0x462 DUP3 PUSH2 0x423 JUMP JUMPDEST PUSH1 0x20 DUP3 ADD SWAP1 POP SWAP2 SWAP1 POP JUMP JUMPDEST PUSH0 PUSH1 0x20 DUP3 ADD SWAP1 POP DUP2 DUP2 SUB PUSH0 DUP4 ADD MSTORE PUSH2 0x484 DUP2 PUSH2 0x44B JUMP JUMPDEST SWAP1 POP SWAP2 SWAP1 POP JUMP JUMPDEST PUSH32 0x4E487B7100000000000000000000000000000000000000000000000000000000 PUSH0 MSTORE PUSH1 0x12 PUSH1 0x4 MSTORE PUSH1 0x24 PUSH0 REVERT JUMPDEST PUSH0 PUSH2 0x4C2 DUP3 PUSH2 0x2CC JUMP JUMPDEST SWAP2 POP PUSH2 0x4CD DUP4 PUSH2 0x2CC JUMP JUMPDEST SWAP3 POP DUP3 PUSH2 0x4DD JUMPI PUSH2 0x4DC PUSH2 0x48B JUMP JUMPDEST JUMPDEST PUSH1 0x1 PUSH0 SUB DUP4 EQ PUSH32 0x8000000000000000000000000000000000000000000000000000000000000000 DUP4 EQ AND ISZERO PUSH2 0x515 JUMPI PUSH2 0x514 PUSH2 0x365 JUMP JUMPDEST JUMPDEST DUP3 DUP3 SDIV SWAP1 POP SWAP3 SWAP2 POP POP JUMP JUMPDEST PUSH0 PUSH2 0x52A DUP3 PUSH2 0x2CC JUMP JUMPDEST SWAP2 POP PUSH2 0x535 DUP4 PUSH2 0x2CC JUMP JUMPDEST SWAP3 POP DUP3 DUP3 MUL PUSH2 0x543 DUP2 PUSH2 0x2CC JUMP JUMPDEST SWAP2 POP PUSH32 0x8000000000000000000000000000000000000000000000000000000000000000 DUP5 EQ PUSH0 DUP5 SLT AND ISZERO PUSH2 0x57A JUMPI PUSH2 0x579 PUSH2 0x365 JUMP JUMPDEST JUMPDEST DUP3 DUP3 SDIV DUP5 EQ DUP4 ISZERO OR PUSH2 0x58F JUMPI PUSH2 0x58E PUSH2 0x365 JUMP JUMPDEST JUMPDEST POP SWAP3 SWAP2 POP POP JUMP JUMPDEST PUSH32 0x6E756D31206F72206E756D32206973206C657373207468616E205A65726F206F PUSH0 DUP3 ADD MSTORE PUSH32 0x72206E756D31203C206E756D3200000000000000000000000000000000000000 PUSH1 0x20 DUP3 ADD MSTORE POP JUMP JUMPDEST PUSH0 PUSH2 0x5F0 PUSH1 0x2D DUP4 PUSH2 0x413 JUMP JUMPDEST SWAP2 POP PUSH2 0x5FB DUP3 PUSH2 0x596 JUMP JUMPDEST PUSH1 0x40 DUP3 ADD SWAP1 POP SWAP2 SWAP1 POP JUMP JUMPDEST PUSH0 PUSH1 0x20 DUP3 ADD SWAP1 POP DUP2 DUP2 SUB PUSH0 DUP4 ADD MSTORE PUSH2 0x61D DUP2 PUSH2 0x5E4 JUMP JUMPDEST SWAP1 POP SWAP2 SWAP1 POP JUMP JUMPDEST PUSH0 PUSH2 0x62E DUP3 PUSH2 0x2CC JUMP JUMPDEST SWAP2 POP PUSH2 0x639 DUP4 PUSH2 0x2CC JUMP JUMPDEST SWAP3 POP DUP3 PUSH2 0x649 JUMPI PUSH2 0x648 PUSH2 0x48B JUMP JUMPDEST JUMPDEST DUP3 DUP3 SMOD SWAP1 POP SWAP3 SWAP2 POP POP JUMP INVALID LOG2 PUSH5 0x6970667358 0x22 SLT KECCAK256 0xD1 0xE9 0xBD ADD 0xD8 SELFDESTRUCT RETURN JUMP 0xDE SDIV RETURN PUSH7 0x75407F056B6DE3 JUMP 0xE0 0xA8 0xB3 SWAP10 DUP16 0xCC ADD ORIGIN JUMP DUP12 0xB5 0xD4 PUSH5 0x736F6C6343 STOP ADDMOD BYTE STOP CALLER "
		},
		"gasEstimates": {
			"creation": {
				"codeDepositCost": "334800",
				"executionCost": "372",
				"totalCost": "335172"
			},
			"external": {
				"add()": "infinite",
				"divide()": "infinite",
				"inputs(int256,int256)": "infinite",
				"modulus()": "infinite",
				"multiply()": "infinite",
				"num1()": "2469",
				"num2()": "2448",
				"subtract()": "infinite"
			}
		},
		"methodIdentifiers": {
			"add()": "4f2be91f",
			"divide()": "b53b8d7a",
			"inputs(int256,int256)": "09c425e8",
			"modulus()": "ff4b0400",
			"multiply()": "f3593cd0",
			"num1()": "3b9eac4b",
			"num2()": "15d4266c",
			"subtract()": "6deebae3"
		}
	},
	"abi": [
		{
			"inputs": [],
			"name": "add",
			"outputs": [
				{
					"internalType": "int256",
					"name": "",
					"type": "int256"
				}
			],
			"stateMutability": "view",
			"type": "function"
		},
		{
			"inputs": [],
			"name": "divide",
			"outputs": [
				{
					"internalType": "int256",
					"name": "",
					"type": "int256"
				}
			],
			"stateMutability": "view",
			"type": "function"
		},
		{
			"inputs": [
				{
					"internalType": "int256",
					"name": "num_1",
					"type": "int256"
				},
				{
					"internalType": "int256",
					"name": "num_2",
					"type": "int256"
				}
			],
			"name": "inputs",
			"outputs": [],
			"stateMutability": "nonpayable",
			"type": "function"
		},
		{
			"inputs": [],
			"name": "modulus",
			"outputs": [
				{
					"internalType": "int256",
					"name": "",
					"type": "int256"
				}
			],
			"stateMutability": "view",
			"type": "function"
		},
		{
			"inputs": [],
			"name": "multiply",
			"outputs": [
				{
					"internalType": "int256",
					"name": "",
					"type": "int256"
				}
			],
			"stateMutability": "view",
			"type": "function"
		},
		{
			"inputs": [],
			"name": "num1",
			"outputs": [
				{
					"internalType": "int256",
					"name": "",
					"type": "int256"
				}
			],
			"stateMutability": "view",
			"type": "function"
		},
		{
			"inputs": [],
			"name": "num2",
			"outputs": [
				{
					"internalType": "int256",
					"name": "",
					"type": "int256"
				}
			],
			"stateMutability": "view",
			"type": "function"
		},
		{
			"inputs": [],
			"name": "subtract",
			"outputs": [
				{
					"internalType": "int256",
					"name": "",
					"type": "int256"
				}
			],
			"stateMutability": "view",
			"type": "function"
		}
	]
}