{
	"arrays/arrays.sol": {
		"Arrays": {
			"abi": [
				{
					"inputs": [
						{
							"internalType": "uint256",
							"name": "value",
							"type": "uint256"
						}
					],
					"name": "add_to_da",
					"outputs": [],
					"stateMutability": "nonpayable",
					"type": "function"
				},
				{
					"inputs": [],
					"name": "da_size",
					"outputs": [
						{
							"internalType": "uint256",
							"name": "",
							"type": "uint256"
						}
					],
					"stateMutability": "view",
					"type": "function"
				},
				{
					"inputs": [
						{
							"internalType": "uint256",
							"name": "index",
							"type": "uint256"
						}
					],
					"name": "get_from_da",
					"outputs": [
						{
							"internalType": "uint256",
							"name": "",
							"type": "uint256"
						}
					],
					"stateMutability": "view",
					"type": "function"
				},
				{
					"inputs": [],
					"name": "get_last_value_da",
					"outputs": [
						{
							"internalType": "uint256",
							"name": "",
							"type": "uint256"
						}
					],
					"stateMutability": "view",
					"type": "function"
				},
				{
					"inputs": [
						{
							"internalType": "uint256",
							"name": "index",
							"type": "uint256"
						}
					],
					"name": "remove_from_da",
					"outputs": [],
					"stateMutability": "nonpayable",
					"type": "function"
				},
				{
					"inputs": [],
					"name": "remove_last_from_da",
					"outputs": [],
					"stateMutability": "nonpayable",
					"type": "function"
				},
				{
					"inputs": [],
					"name": "sa_size",
					"outputs": [
						{
							"internalType": "uint256",
							"name": "",
							"type": "uint256"
						}
					],
					"stateMutability": "view",
					"type": "function"
				},
				{
					"inputs": [
						{
							"internalType": "uint256",
							"name": "index",
							"type": "uint256"
						},
						{
							"internalType": "uint256",
							"name": "value",
							"type": "uint256"
						}
					],
					"name": "update_da",
					"outputs": [],
					"stateMutability": "nonpayable",
					"type": "function"
				}
			],
			"devdoc": {
				"kind": "dev",
				"methods": {},
				"version": 1
			},
			"evm": {
				"assembly": "    /* \"arrays/arrays.sol\":61:1303  contract Arrays{... */\n  mstore(0x40, 0x80)\n  callvalue\n  dup1\n  iszero\n  tag_1\n  jumpi\n  0x00\n  dup1\n  revert\ntag_1:\n  pop\n  dataSize(sub_0)\n  dup1\n  dataOffset(sub_0)\n  0x00\n  codecopy\n  0x00\n  return\nstop\n\nsub_0: assembly {\n        /* \"arrays/arrays.sol\":61:1303  contract Arrays{... */\n      mstore(0x40, 0x80)\n      callvalue\n      dup1\n      iszero\n      tag_1\n      jumpi\n      0x00\n      dup1\n      revert\n    tag_1:\n      pop\n      jumpi(tag_2, lt(calldatasize, 0x04))\n      shr(0xe0, calldataload(0x00))\n      dup1\n      0x909343bb\n      gt\n      tag_11\n      jumpi\n      dup1\n      0x909343bb\n      eq\n      tag_7\n      jumpi\n      dup1\n      0xc317af8d\n      eq\n      tag_8\n      jumpi\n      dup1\n      0xed663d1e\n      eq\n      tag_9\n      jumpi\n      dup1\n      0xfb039e96\n      eq\n      tag_10\n      jumpi\n      jump(tag_2)\n    tag_11:\n      dup1\n      0x0f9abba4\n      eq\n      tag_3\n      jumpi\n      dup1\n      0x2762552e\n      eq\n      tag_4\n      jumpi\n      dup1\n      0x8163ce67\n      eq\n      tag_5\n      jumpi\n      dup1\n      0x89acbf07\n      eq\n      tag_6\n      jumpi\n    tag_2:\n      0x00\n      dup1\n      revert\n        /* \"arrays/arrays.sol\":173:265  function sa_size() public view returns(uint256){... */\n    tag_3:\n      tag_12\n      tag_13\n      jump\t// in\n    tag_12:\n      mload(0x40)\n      tag_14\n      swap2\n      swap1\n      tag_15\n      jump\t// in\n    tag_14:\n      mload(0x40)\n      dup1\n      swap2\n      sub\n      swap1\n      return\n        /* \"arrays/arrays.sol\":1138:1300  function update_da(uint256 index, uint256 value) public {... */\n    tag_4:\n      tag_16\n      0x04\n      dup1\n      calldatasize\n      sub\n      dup2\n      add\n      swap1\n      tag_17\n      swap2\n      swap1\n      tag_18\n      jump\t// in\n    tag_17:\n      tag_19\n      jump\t// in\n    tag_16:\n      stop\n        /* \"arrays/arrays.sol\":868:1130  function remove_from_da(uint256 index) public {... */\n    tag_5:\n      tag_20\n      0x04\n      dup1\n      calldatasize\n      sub\n      dup2\n      add\n      swap1\n      tag_21\n      swap2\n      swap1\n      tag_22\n      jump\t// in\n    tag_21:\n      tag_23\n      jump\t// in\n    tag_20:\n      stop\n        /* \"arrays/arrays.sol\":737:860  function remove_last_from_da() public {... */\n    tag_6:\n      tag_24\n      tag_25\n      jump\t// in\n    tag_24:\n      stop\n        /* \"arrays/arrays.sol\":567:729  function get_last_value_da() public view returns (uint256){... */\n    tag_7:\n      tag_26\n      tag_27\n      jump\t// in\n    tag_26:\n      mload(0x40)\n      tag_28\n      swap2\n      swap1\n      tag_15\n      jump\t// in\n    tag_28:\n      mload(0x40)\n      dup1\n      swap2\n      sub\n      swap1\n      return\n        /* \"arrays/arrays.sol\":455:559  function get_from_da(uint256 index) public view returns(uint256){... */\n    tag_8:\n      tag_29\n      0x04\n      dup1\n      calldatasize\n      sub\n      dup2\n      add\n      swap1\n      tag_30\n      swap2\n      swap1\n      tag_22\n      jump\t// in\n    tag_30:\n      tag_31\n      jump\t// in\n    tag_29:\n      mload(0x40)\n      tag_32\n      swap2\n      swap1\n      tag_15\n      jump\t// in\n    tag_32:\n      mload(0x40)\n      dup1\n      swap2\n      sub\n      swap1\n      return\n        /* \"arrays/arrays.sol\":273:360  function da_size() public view returns(uint256){... */\n    tag_9:\n      tag_33\n      tag_34\n      jump\t// in\n    tag_33:\n      mload(0x40)\n      tag_35\n      swap2\n      swap1\n      tag_15\n      jump\t// in\n    tag_35:\n      mload(0x40)\n      dup1\n      swap2\n      sub\n      swap1\n      return\n        /* \"arrays/arrays.sol\":368:447  function add_to_da(uint256 value) public {... */\n    tag_10:\n      tag_36\n      0x04\n      dup1\n      calldatasize\n      sub\n      dup2\n      add\n      swap1\n      tag_37\n      swap2\n      swap1\n      tag_22\n      jump\t// in\n    tag_37:\n      tag_38\n      jump\t// in\n    tag_36:\n      stop\n        /* \"arrays/arrays.sol\":173:265  function sa_size() public view returns(uint256){... */\n    tag_13:\n        /* \"arrays/arrays.sol\":212:219  uint256 */\n      0x00\n        /* \"arrays/arrays.sol\":238:257  five_numbers.length */\n      0x05\n        /* \"arrays/arrays.sol\":231:257  return five_numbers.length */\n      swap1\n      pop\n        /* \"arrays/arrays.sol\":173:265  function sa_size() public view returns(uint256){... */\n      swap1\n      jump\t// out\n        /* \"arrays/arrays.sol\":1138:1300  function update_da(uint256 index, uint256 value) public {... */\n    tag_19:\n        /* \"arrays/arrays.sol\":1221:1228  numbers */\n      0x00\n        /* \"arrays/arrays.sol\":1221:1235  numbers.length */\n      dup1\n      sload\n      swap1\n      pop\n        /* \"arrays/arrays.sol\":1213:1218  index */\n      dup3\n        /* \"arrays/arrays.sol\":1213:1235  index < numbers.length */\n      lt\n        /* \"arrays/arrays.sol\":1205:1259  require(index < numbers.length, \"Index out of bounds\") */\n      tag_41\n      jumpi\n      mload(0x40)\n      0x08c379a000000000000000000000000000000000000000000000000000000000\n      dup2\n      mstore\n      0x04\n      add\n      tag_42\n      swap1\n      tag_43\n      jump\t// in\n    tag_42:\n      mload(0x40)\n      dup1\n      swap2\n      sub\n      swap1\n      revert\n    tag_41:\n        /* \"arrays/arrays.sol\":1287:1292  value */\n      dup1\n        /* \"arrays/arrays.sol\":1270:1277  numbers */\n      0x00\n        /* \"arrays/arrays.sol\":1278:1283  index */\n      dup4\n        /* \"arrays/arrays.sol\":1270:1284  numbers[index] */\n      dup2\n      sload\n      dup2\n      lt\n      tag_44\n      jumpi\n      tag_45\n      tag_46\n      jump\t// in\n    tag_45:\n    tag_44:\n      swap1\n      0x00\n      mstore\n      keccak256(0x00, 0x20)\n      add\n        /* \"arrays/arrays.sol\":1270:1292  numbers[index] = value */\n      dup2\n      swap1\n      sstore\n      pop\n        /* \"arrays/arrays.sol\":1138:1300  function update_da(uint256 index, uint256 value) public {... */\n      pop\n      pop\n      jump\t// out\n        /* \"arrays/arrays.sol\":868:1130  function remove_from_da(uint256 index) public {... */\n    tag_23:\n        /* \"arrays/arrays.sol\":941:948  numbers */\n      0x00\n        /* \"arrays/arrays.sol\":941:955  numbers.length */\n      dup1\n      sload\n      swap1\n      pop\n        /* \"arrays/arrays.sol\":933:938  index */\n      dup2\n        /* \"arrays/arrays.sol\":933:955  index < numbers.length */\n      lt\n        /* \"arrays/arrays.sol\":925:979  require(index < numbers.length, \"Index out of bounds\") */\n      tag_49\n      jumpi\n      mload(0x40)\n      0x08c379a000000000000000000000000000000000000000000000000000000000\n      dup2\n      mstore\n      0x04\n      add\n      tag_50\n      swap1\n      tag_43\n      jump\t// in\n    tag_50:\n      mload(0x40)\n      dup1\n      swap2\n      sub\n      swap1\n      revert\n    tag_49:\n        /* \"arrays/arrays.sol\":995:1004  uint256 i */\n      0x00\n        /* \"arrays/arrays.sol\":1007:1012  index */\n      dup2\n        /* \"arrays/arrays.sol\":995:1012  uint256 i = index */\n      swap1\n      pop\n        /* \"arrays/arrays.sol\":990:1097  for (uint256 i = index; i < numbers.length -1 ; i++ ){... */\n    tag_51:\n        /* \"arrays/arrays.sol\":1034:1035  1 */\n      0x01\n        /* \"arrays/arrays.sol\":1018:1025  numbers */\n      0x00\n        /* \"arrays/arrays.sol\":1018:1032  numbers.length */\n      dup1\n      sload\n      swap1\n      pop\n        /* \"arrays/arrays.sol\":1018:1035  numbers.length -1 */\n      tag_54\n      swap2\n      swap1\n      tag_55\n      jump\t// in\n    tag_54:\n        /* \"arrays/arrays.sol\":1014:1015  i */\n      dup2\n        /* \"arrays/arrays.sol\":1014:1035  i < numbers.length -1 */\n      lt\n        /* \"arrays/arrays.sol\":990:1097  for (uint256 i = index; i < numbers.length -1 ; i++ ){... */\n      iszero\n      tag_52\n      jumpi\n        /* \"arrays/arrays.sol\":1071:1078  numbers */\n      0x00\n        /* \"arrays/arrays.sol\":1083:1084  1 */\n      0x01\n        /* \"arrays/arrays.sol\":1079:1080  i */\n      dup3\n        /* \"arrays/arrays.sol\":1079:1084  i + 1 */\n      tag_56\n      swap2\n      swap1\n      tag_57\n      jump\t// in\n    tag_56:\n        /* \"arrays/arrays.sol\":1071:1085  numbers[i + 1] */\n      dup2\n      sload\n      dup2\n      lt\n      tag_58\n      jumpi\n      tag_59\n      tag_46\n      jump\t// in\n    tag_59:\n    tag_58:\n      swap1\n      0x00\n      mstore\n      keccak256(0x00, 0x20)\n      add\n      sload\n        /* \"arrays/arrays.sol\":1058:1065  numbers */\n      0x00\n        /* \"arrays/arrays.sol\":1066:1067  i */\n      dup3\n        /* \"arrays/arrays.sol\":1058:1068  numbers[i] */\n      dup2\n      sload\n      dup2\n      lt\n      tag_61\n      jumpi\n      tag_62\n      tag_46\n      jump\t// in\n    tag_62:\n    tag_61:\n      swap1\n      0x00\n      mstore\n      keccak256(0x00, 0x20)\n      add\n        /* \"arrays/arrays.sol\":1058:1085  numbers[i] = numbers[i + 1] */\n      dup2\n      swap1\n      sstore\n      pop\n        /* \"arrays/arrays.sol\":1038:1041  i++ */\n      dup1\n      dup1\n      0x01\n      add\n      swap2\n      pop\n      pop\n        /* \"arrays/arrays.sol\":990:1097  for (uint256 i = index; i < numbers.length -1 ; i++ ){... */\n      jump(tag_51)\n    tag_52:\n      pop\n        /* \"arrays/arrays.sol\":1109:1116  numbers */\n      0x00\n        /* \"arrays/arrays.sol\":1109:1122  numbers.pop() */\n      dup1\n      sload\n      dup1\n      tag_64\n      jumpi\n      tag_65\n      tag_66\n      jump\t// in\n    tag_65:\n    tag_64:\n      0x01\n      swap1\n      sub\n      dup2\n      dup2\n      swap1\n      0x00\n      mstore\n      keccak256(0x00, 0x20)\n      add\n      0x00\n      swap1\n      sstore\n      swap1\n      sstore\n        /* \"arrays/arrays.sol\":868:1130  function remove_from_da(uint256 index) public {... */\n      pop\n      jump\t// out\n        /* \"arrays/arrays.sol\":737:860  function remove_last_from_da() public {... */\n    tag_25:\n        /* \"arrays/arrays.sol\":811:812  0 */\n      0x00\n        /* \"arrays/arrays.sol\":794:801  numbers */\n      dup1\n        /* \"arrays/arrays.sol\":794:808  numbers.length */\n      dup1\n      sload\n      swap1\n      pop\n        /* \"arrays/arrays.sol\":794:812  numbers.length > 0 */\n      gt\n        /* \"arrays/arrays.sol\":786:828  require(numbers.length > 0, \"empty array\") */\n      tag_69\n      jumpi\n      mload(0x40)\n      0x08c379a000000000000000000000000000000000000000000000000000000000\n      dup2\n      mstore\n      0x04\n      add\n      tag_70\n      swap1\n      tag_71\n      jump\t// in\n    tag_70:\n      mload(0x40)\n      dup1\n      swap2\n      sub\n      swap1\n      revert\n    tag_69:\n        /* \"arrays/arrays.sol\":839:846  numbers */\n      0x00\n        /* \"arrays/arrays.sol\":839:852  numbers.pop() */\n      dup1\n      sload\n      dup1\n      tag_72\n      jumpi\n      tag_73\n      tag_66\n      jump\t// in\n    tag_73:\n    tag_72:\n      0x01\n      swap1\n      sub\n      dup2\n      dup2\n      swap1\n      0x00\n      mstore\n      keccak256(0x00, 0x20)\n      add\n      0x00\n      swap1\n      sstore\n      swap1\n      sstore\n        /* \"arrays/arrays.sol\":737:860  function remove_last_from_da() public {... */\n      jump\t// out\n        /* \"arrays/arrays.sol\":567:729  function get_last_value_da() public view returns (uint256){... */\n    tag_27:\n        /* \"arrays/arrays.sol\":617:624  uint256 */\n      0x00\n        /* \"arrays/arrays.sol\":661:662  0 */\n      dup1\n        /* \"arrays/arrays.sol\":644:651  numbers */\n      0x00\n        /* \"arrays/arrays.sol\":644:658  numbers.length */\n      dup1\n      sload\n      swap1\n      pop\n        /* \"arrays/arrays.sol\":644:662  numbers.length > 0 */\n      gt\n        /* \"arrays/arrays.sol\":636:678  require(numbers.length > 0, \"empty array\") */\n      tag_76\n      jumpi\n      mload(0x40)\n      0x08c379a000000000000000000000000000000000000000000000000000000000\n      dup2\n      mstore\n      0x04\n      add\n      tag_77\n      swap1\n      tag_71\n      jump\t// in\n    tag_77:\n      mload(0x40)\n      dup1\n      swap2\n      sub\n      swap1\n      revert\n    tag_76:\n        /* \"arrays/arrays.sol\":696:703  numbers */\n      0x00\n        /* \"arrays/arrays.sol\":719:720  1 */\n      0x01\n        /* \"arrays/arrays.sol\":704:711  numbers */\n      0x00\n        /* \"arrays/arrays.sol\":704:718  numbers.length */\n      dup1\n      sload\n      swap1\n      pop\n        /* \"arrays/arrays.sol\":704:720  numbers.length-1 */\n      tag_78\n      swap2\n      swap1\n      tag_55\n      jump\t// in\n    tag_78:\n        /* \"arrays/arrays.sol\":696:721  numbers[numbers.length-1] */\n      dup2\n      sload\n      dup2\n      lt\n      tag_79\n      jumpi\n      tag_80\n      tag_46\n      jump\t// in\n    tag_80:\n    tag_79:\n      swap1\n      0x00\n      mstore\n      keccak256(0x00, 0x20)\n      add\n      sload\n        /* \"arrays/arrays.sol\":689:721  return numbers[numbers.length-1] */\n      swap1\n      pop\n        /* \"arrays/arrays.sol\":567:729  function get_last_value_da() public view returns (uint256){... */\n      swap1\n      jump\t// out\n        /* \"arrays/arrays.sol\":455:559  function get_from_da(uint256 index) public view returns(uint256){... */\n    tag_31:\n        /* \"arrays/arrays.sol\":511:518  uint256 */\n      0x00\n        /* \"arrays/arrays.sol\":537:544  numbers */\n      dup1\n        /* \"arrays/arrays.sol\":545:550  index */\n      dup3\n        /* \"arrays/arrays.sol\":537:551  numbers[index] */\n      dup2\n      sload\n      dup2\n      lt\n      tag_83\n      jumpi\n      tag_84\n      tag_46\n      jump\t// in\n    tag_84:\n    tag_83:\n      swap1\n      0x00\n      mstore\n      keccak256(0x00, 0x20)\n      add\n      sload\n        /* \"arrays/arrays.sol\":530:551  return numbers[index] */\n      swap1\n      pop\n        /* \"arrays/arrays.sol\":455:559  function get_from_da(uint256 index) public view returns(uint256){... */\n      swap2\n      swap1\n      pop\n      jump\t// out\n        /* \"arrays/arrays.sol\":273:360  function da_size() public view returns(uint256){... */\n    tag_34:\n        /* \"arrays/arrays.sol\":312:319  uint256 */\n      0x00\n        /* \"arrays/arrays.sol\":338:345  numbers */\n      dup1\n        /* \"arrays/arrays.sol\":338:352  numbers.length */\n      dup1\n      sload\n      swap1\n      pop\n        /* \"arrays/arrays.sol\":331:352  return numbers.length */\n      swap1\n      pop\n        /* \"arrays/arrays.sol\":273:360  function da_size() public view returns(uint256){... */\n      swap1\n      jump\t// out\n        /* \"arrays/arrays.sol\":368:447  function add_to_da(uint256 value) public {... */\n    tag_38:\n        /* \"arrays/arrays.sol\":420:427  numbers */\n      0x00\n        /* \"arrays/arrays.sol\":433:438  value */\n      dup2\n        /* \"arrays/arrays.sol\":420:439  numbers.push(value) */\n      swap1\n      dup1\n      0x01\n      dup2\n      sload\n      add\n      dup1\n      dup3\n      sstore\n      dup1\n      swap2\n      pop\n      pop\n      0x01\n      swap1\n      sub\n      swap1\n      0x00\n      mstore\n      keccak256(0x00, 0x20)\n      add\n      0x00\n      swap1\n      swap2\n      swap1\n      swap2\n      swap1\n      swap2\n      pop\n      sstore\n        /* \"arrays/arrays.sol\":368:447  function add_to_da(uint256 value) public {... */\n      pop\n      jump\t// out\n        /* \"#utility.yul\":7:84   */\n    tag_89:\n        /* \"#utility.yul\":44:51   */\n      0x00\n        /* \"#utility.yul\":73:78   */\n      dup2\n        /* \"#utility.yul\":62:78   */\n      swap1\n      pop\n        /* \"#utility.yul\":7:84   */\n      swap2\n      swap1\n      pop\n      jump\t// out\n        /* \"#utility.yul\":90:208   */\n    tag_90:\n        /* \"#utility.yul\":177:201   */\n      tag_105\n        /* \"#utility.yul\":195:200   */\n      dup2\n        /* \"#utility.yul\":177:201   */\n      tag_89\n      jump\t// in\n    tag_105:\n        /* \"#utility.yul\":172:175   */\n      dup3\n        /* \"#utility.yul\":165:202   */\n      mstore\n        /* \"#utility.yul\":90:208   */\n      pop\n      pop\n      jump\t// out\n        /* \"#utility.yul\":214:436   */\n    tag_15:\n        /* \"#utility.yul\":307:311   */\n      0x00\n        /* \"#utility.yul\":345:347   */\n      0x20\n        /* \"#utility.yul\":334:343   */\n      dup3\n        /* \"#utility.yul\":330:348   */\n      add\n        /* \"#utility.yul\":322:348   */\n      swap1\n      pop\n        /* \"#utility.yul\":358:429   */\n      tag_107\n        /* \"#utility.yul\":426:427   */\n      0x00\n        /* \"#utility.yul\":415:424   */\n      dup4\n        /* \"#utility.yul\":411:428   */\n      add\n        /* \"#utility.yul\":402:408   */\n      dup5\n        /* \"#utility.yul\":358:429   */\n      tag_90\n      jump\t// in\n    tag_107:\n        /* \"#utility.yul\":214:436   */\n      swap3\n      swap2\n      pop\n      pop\n      jump\t// out\n        /* \"#utility.yul\":523:640   */\n    tag_92:\n        /* \"#utility.yul\":632:633   */\n      0x00\n        /* \"#utility.yul\":629:630   */\n      dup1\n        /* \"#utility.yul\":622:634   */\n      revert\n        /* \"#utility.yul\":769:891   */\n    tag_94:\n        /* \"#utility.yul\":842:866   */\n      tag_112\n        /* \"#utility.yul\":860:865   */\n      dup2\n        /* \"#utility.yul\":842:866   */\n      tag_89\n      jump\t// in\n    tag_112:\n        /* \"#utility.yul\":835:840   */\n      dup2\n        /* \"#utility.yul\":832:867   */\n      eq\n        /* \"#utility.yul\":822:885   */\n      tag_113\n      jumpi\n        /* \"#utility.yul\":881:882   */\n      0x00\n        /* \"#utility.yul\":878:879   */\n      dup1\n        /* \"#utility.yul\":871:883   */\n      revert\n        /* \"#utility.yul\":822:885   */\n    tag_113:\n        /* \"#utility.yul\":769:891   */\n      pop\n      jump\t// out\n        /* \"#utility.yul\":897:1036   */\n    tag_95:\n        /* \"#utility.yul\":943:948   */\n      0x00\n        /* \"#utility.yul\":981:987   */\n      dup2\n        /* \"#utility.yul\":968:988   */\n      calldataload\n        /* \"#utility.yul\":959:988   */\n      swap1\n      pop\n        /* \"#utility.yul\":997:1030   */\n      tag_115\n        /* \"#utility.yul\":1024:1029   */\n      dup2\n        /* \"#utility.yul\":997:1030   */\n      tag_94\n      jump\t// in\n    tag_115:\n        /* \"#utility.yul\":897:1036   */\n      swap3\n      swap2\n      pop\n      pop\n      jump\t// out\n        /* \"#utility.yul\":1042:1516   */\n    tag_18:\n        /* \"#utility.yul\":1110:1116   */\n      0x00\n        /* \"#utility.yul\":1118:1124   */\n      dup1\n        /* \"#utility.yul\":1167:1169   */\n      0x40\n        /* \"#utility.yul\":1155:1164   */\n      dup4\n        /* \"#utility.yul\":1146:1153   */\n      dup6\n        /* \"#utility.yul\":1142:1165   */\n      sub\n        /* \"#utility.yul\":1138:1170   */\n      slt\n        /* \"#utility.yul\":1135:1254   */\n      iszero\n      tag_117\n      jumpi\n        /* \"#utility.yul\":1173:1252   */\n      tag_118\n      tag_92\n      jump\t// in\n    tag_118:\n        /* \"#utility.yul\":1135:1254   */\n    tag_117:\n        /* \"#utility.yul\":1293:1294   */\n      0x00\n        /* \"#utility.yul\":1318:1371   */\n      tag_119\n        /* \"#utility.yul\":1363:1370   */\n      dup6\n        /* \"#utility.yul\":1354:1360   */\n      dup3\n        /* \"#utility.yul\":1343:1352   */\n      dup7\n        /* \"#utility.yul\":1339:1361   */\n      add\n        /* \"#utility.yul\":1318:1371   */\n      tag_95\n      jump\t// in\n    tag_119:\n        /* \"#utility.yul\":1308:1371   */\n      swap3\n      pop\n        /* \"#utility.yul\":1264:1381   */\n      pop\n        /* \"#utility.yul\":1420:1422   */\n      0x20\n        /* \"#utility.yul\":1446:1499   */\n      tag_120\n        /* \"#utility.yul\":1491:1498   */\n      dup6\n        /* \"#utility.yul\":1482:1488   */\n      dup3\n        /* \"#utility.yul\":1471:1480   */\n      dup7\n        /* \"#utility.yul\":1467:1489   */\n      add\n        /* \"#utility.yul\":1446:1499   */\n      tag_95\n      jump\t// in\n    tag_120:\n        /* \"#utility.yul\":1436:1499   */\n      swap2\n      pop\n        /* \"#utility.yul\":1391:1509   */\n      pop\n        /* \"#utility.yul\":1042:1516   */\n      swap3\n      pop\n      swap3\n      swap1\n      pop\n      jump\t// out\n        /* \"#utility.yul\":1522:1851   */\n    tag_22:\n        /* \"#utility.yul\":1581:1587   */\n      0x00\n        /* \"#utility.yul\":1630:1632   */\n      0x20\n        /* \"#utility.yul\":1618:1627   */\n      dup3\n        /* \"#utility.yul\":1609:1616   */\n      dup5\n        /* \"#utility.yul\":1605:1628   */\n      sub\n        /* \"#utility.yul\":1601:1633   */\n      slt\n        /* \"#utility.yul\":1598:1717   */\n      iszero\n      tag_122\n      jumpi\n        /* \"#utility.yul\":1636:1715   */\n      tag_123\n      tag_92\n      jump\t// in\n    tag_123:\n        /* \"#utility.yul\":1598:1717   */\n    tag_122:\n        /* \"#utility.yul\":1756:1757   */\n      0x00\n        /* \"#utility.yul\":1781:1834   */\n      tag_124\n        /* \"#utility.yul\":1826:1833   */\n      dup5\n        /* \"#utility.yul\":1817:1823   */\n      dup3\n        /* \"#utility.yul\":1806:1815   */\n      dup6\n        /* \"#utility.yul\":1802:1824   */\n      add\n        /* \"#utility.yul\":1781:1834   */\n      tag_95\n      jump\t// in\n    tag_124:\n        /* \"#utility.yul\":1771:1834   */\n      swap2\n      pop\n        /* \"#utility.yul\":1727:1844   */\n      pop\n        /* \"#utility.yul\":1522:1851   */\n      swap3\n      swap2\n      pop\n      pop\n      jump\t// out\n        /* \"#utility.yul\":1857:2026   */\n    tag_96:\n        /* \"#utility.yul\":1941:1952   */\n      0x00\n        /* \"#utility.yul\":1975:1981   */\n      dup3\n        /* \"#utility.yul\":1970:1973   */\n      dup3\n        /* \"#utility.yul\":1963:1982   */\n      mstore\n        /* \"#utility.yul\":2015:2019   */\n      0x20\n        /* \"#utility.yul\":2010:2013   */\n      dup3\n        /* \"#utility.yul\":2006:2020   */\n      add\n        /* \"#utility.yul\":1991:2020   */\n      swap1\n      pop\n        /* \"#utility.yul\":1857:2026   */\n      swap3\n      swap2\n      pop\n      pop\n      jump\t// out\n        /* \"#utility.yul\":2032:2201   */\n    tag_97:\n        /* \"#utility.yul\":2172:2193   */\n      0x496e646578206f7574206f6620626f756e647300000000000000000000000000\n        /* \"#utility.yul\":2168:2169   */\n      0x00\n        /* \"#utility.yul\":2160:2166   */\n      dup3\n        /* \"#utility.yul\":2156:2170   */\n      add\n        /* \"#utility.yul\":2149:2194   */\n      mstore\n        /* \"#utility.yul\":2032:2201   */\n      pop\n      jump\t// out\n        /* \"#utility.yul\":2207:2573   */\n    tag_98:\n        /* \"#utility.yul\":2349:2352   */\n      0x00\n        /* \"#utility.yul\":2370:2437   */\n      tag_128\n        /* \"#utility.yul\":2434:2436   */\n      0x13\n        /* \"#utility.yul\":2429:2432   */\n      dup4\n        /* \"#utility.yul\":2370:2437   */\n      tag_96\n      jump\t// in\n    tag_128:\n        /* \"#utility.yul\":2363:2437   */\n      swap2\n      pop\n        /* \"#utility.yul\":2446:2539   */\n      tag_129\n        /* \"#utility.yul\":2535:2538   */\n      dup3\n        /* \"#utility.yul\":2446:2539   */\n      tag_97\n      jump\t// in\n    tag_129:\n        /* \"#utility.yul\":2564:2566   */\n      0x20\n        /* \"#utility.yul\":2559:2562   */\n      dup3\n        /* \"#utility.yul\":2555:2567   */\n      add\n        /* \"#utility.yul\":2548:2567   */\n      swap1\n      pop\n        /* \"#utility.yul\":2207:2573   */\n      swap2\n      swap1\n      pop\n      jump\t// out\n        /* \"#utility.yul\":2579:2998   */\n    tag_43:\n        /* \"#utility.yul\":2745:2749   */\n      0x00\n        /* \"#utility.yul\":2783:2785   */\n      0x20\n        /* \"#utility.yul\":2772:2781   */\n      dup3\n        /* \"#utility.yul\":2768:2786   */\n      add\n        /* \"#utility.yul\":2760:2786   */\n      swap1\n      pop\n        /* \"#utility.yul\":2832:2841   */\n      dup2\n        /* \"#utility.yul\":2826:2830   */\n      dup2\n        /* \"#utility.yul\":2822:2842   */\n      sub\n        /* \"#utility.yul\":2818:2819   */\n      0x00\n        /* \"#utility.yul\":2807:2816   */\n      dup4\n        /* \"#utility.yul\":2803:2820   */\n      add\n        /* \"#utility.yul\":2796:2843   */\n      mstore\n        /* \"#utility.yul\":2860:2991   */\n      tag_131\n        /* \"#utility.yul\":2986:2990   */\n      dup2\n        /* \"#utility.yul\":2860:2991   */\n      tag_98\n      jump\t// in\n    tag_131:\n        /* \"#utility.yul\":2852:2991   */\n      swap1\n      pop\n        /* \"#utility.yul\":2579:2998   */\n      swap2\n      swap1\n      pop\n      jump\t// out\n        /* \"#utility.yul\":3004:3184   */\n    tag_46:\n        /* \"#utility.yul\":3052:3129   */\n      0x4e487b7100000000000000000000000000000000000000000000000000000000\n        /* \"#utility.yul\":3049:3050   */\n      0x00\n        /* \"#utility.yul\":3042:3130   */\n      mstore\n        /* \"#utility.yul\":3149:3153   */\n      0x32\n        /* \"#utility.yul\":3146:3147   */\n      0x04\n        /* \"#utility.yul\":3139:3154   */\n      mstore\n        /* \"#utility.yul\":3173:3177   */\n      0x24\n        /* \"#utility.yul\":3170:3171   */\n      0x00\n        /* \"#utility.yul\":3163:3178   */\n      revert\n        /* \"#utility.yul\":3190:3370   */\n    tag_99:\n        /* \"#utility.yul\":3238:3315   */\n      0x4e487b7100000000000000000000000000000000000000000000000000000000\n        /* \"#utility.yul\":3235:3236   */\n      0x00\n        /* \"#utility.yul\":3228:3316   */\n      mstore\n        /* \"#utility.yul\":3335:3339   */\n      0x11\n        /* \"#utility.yul\":3332:3333   */\n      0x04\n        /* \"#utility.yul\":3325:3340   */\n      mstore\n        /* \"#utility.yul\":3359:3363   */\n      0x24\n        /* \"#utility.yul\":3356:3357   */\n      0x00\n        /* \"#utility.yul\":3349:3364   */\n      revert\n        /* \"#utility.yul\":3376:3570   */\n    tag_55:\n        /* \"#utility.yul\":3416:3420   */\n      0x00\n        /* \"#utility.yul\":3436:3456   */\n      tag_135\n        /* \"#utility.yul\":3454:3455   */\n      dup3\n        /* \"#utility.yul\":3436:3456   */\n      tag_89\n      jump\t// in\n    tag_135:\n        /* \"#utility.yul\":3431:3456   */\n      swap2\n      pop\n        /* \"#utility.yul\":3470:3490   */\n      tag_136\n        /* \"#utility.yul\":3488:3489   */\n      dup4\n        /* \"#utility.yul\":3470:3490   */\n      tag_89\n      jump\t// in\n    tag_136:\n        /* \"#utility.yul\":3465:3490   */\n      swap3\n      pop\n        /* \"#utility.yul\":3514:3515   */\n      dup3\n        /* \"#utility.yul\":3511:3512   */\n      dup3\n        /* \"#utility.yul\":3507:3516   */\n      sub\n        /* \"#utility.yul\":3499:3516   */\n      swap1\n      pop\n        /* \"#utility.yul\":3538:3539   */\n      dup2\n        /* \"#utility.yul\":3532:3536   */\n      dup2\n        /* \"#utility.yul\":3529:3540   */\n      gt\n        /* \"#utility.yul\":3526:3563   */\n      iszero\n      tag_137\n      jumpi\n        /* \"#utility.yul\":3543:3561   */\n      tag_138\n      tag_99\n      jump\t// in\n    tag_138:\n        /* \"#utility.yul\":3526:3563   */\n    tag_137:\n        /* \"#utility.yul\":3376:3570   */\n      swap3\n      swap2\n      pop\n      pop\n      jump\t// out\n        /* \"#utility.yul\":3576:3767   */\n    tag_57:\n        /* \"#utility.yul\":3616:3619   */\n      0x00\n        /* \"#utility.yul\":3635:3655   */\n      tag_140\n        /* \"#utility.yul\":3653:3654   */\n      dup3\n        /* \"#utility.yul\":3635:3655   */\n      tag_89\n      jump\t// in\n    tag_140:\n        /* \"#utility.yul\":3630:3655   */\n      swap2\n      pop\n        /* \"#utility.yul\":3669:3689   */\n      tag_141\n        /* \"#utility.yul\":3687:3688   */\n      dup4\n        /* \"#utility.yul\":3669:3689   */\n      tag_89\n      jump\t// in\n    tag_141:\n        /* \"#utility.yul\":3664:3689   */\n      swap3\n      pop\n        /* \"#utility.yul\":3712:3713   */\n      dup3\n        /* \"#utility.yul\":3709:3710   */\n      dup3\n        /* \"#utility.yul\":3705:3714   */\n      add\n        /* \"#utility.yul\":3698:3714   */\n      swap1\n      pop\n        /* \"#utility.yul\":3733:3736   */\n      dup1\n        /* \"#utility.yul\":3730:3731   */\n      dup3\n        /* \"#utility.yul\":3727:3737   */\n      gt\n        /* \"#utility.yul\":3724:3760   */\n      iszero\n      tag_142\n      jumpi\n        /* \"#utility.yul\":3740:3758   */\n      tag_143\n      tag_99\n      jump\t// in\n    tag_143:\n        /* \"#utility.yul\":3724:3760   */\n    tag_142:\n        /* \"#utility.yul\":3576:3767   */\n      swap3\n      swap2\n      pop\n      pop\n      jump\t// out\n        /* \"#utility.yul\":3773:3953   */\n    tag_66:\n        /* \"#utility.yul\":3821:3898   */\n      0x4e487b7100000000000000000000000000000000000000000000000000000000\n        /* \"#utility.yul\":3818:3819   */\n      0x00\n        /* \"#utility.yul\":3811:3899   */\n      mstore\n        /* \"#utility.yul\":3918:3922   */\n      0x31\n        /* \"#utility.yul\":3915:3916   */\n      0x04\n        /* \"#utility.yul\":3908:3923   */\n      mstore\n        /* \"#utility.yul\":3942:3946   */\n      0x24\n        /* \"#utility.yul\":3939:3940   */\n      0x00\n        /* \"#utility.yul\":3932:3947   */\n      revert\n        /* \"#utility.yul\":3959:4120   */\n    tag_100:\n        /* \"#utility.yul\":4099:4112   */\n      0x656d707479206172726179000000000000000000000000000000000000000000\n        /* \"#utility.yul\":4095:4096   */\n      0x00\n        /* \"#utility.yul\":4087:4093   */\n      dup3\n        /* \"#utility.yul\":4083:4097   */\n      add\n        /* \"#utility.yul\":4076:4113   */\n      mstore\n        /* \"#utility.yul\":3959:4120   */\n      pop\n      jump\t// out\n        /* \"#utility.yul\":4126:4492   */\n    tag_101:\n        /* \"#utility.yul\":4268:4271   */\n      0x00\n        /* \"#utility.yul\":4289:4356   */\n      tag_147\n        /* \"#utility.yul\":4353:4355   */\n      0x0b\n        /* \"#utility.yul\":4348:4351   */\n      dup4\n        /* \"#utility.yul\":4289:4356   */\n      tag_96\n      jump\t// in\n    tag_147:\n        /* \"#utility.yul\":4282:4356   */\n      swap2\n      pop\n        /* \"#utility.yul\":4365:4458   */\n      tag_148\n        /* \"#utility.yul\":4454:4457   */\n      dup3\n        /* \"#utility.yul\":4365:4458   */\n      tag_100\n      jump\t// in\n    tag_148:\n        /* \"#utility.yul\":4483:4485   */\n      0x20\n        /* \"#utility.yul\":4478:4481   */\n      dup3\n        /* \"#utility.yul\":4474:4486   */\n      add\n        /* \"#utility.yul\":4467:4486   */\n      swap1\n      pop\n        /* \"#utility.yul\":4126:4492   */\n      swap2\n      swap1\n      pop\n      jump\t// out\n        /* \"#utility.yul\":4498:4917   */\n    tag_71:\n        /* \"#utility.yul\":4664:4668   */\n      0x00\n        /* \"#utility.yul\":4702:4704   */\n      0x20\n        /* \"#utility.yul\":4691:4700   */\n      dup3\n        /* \"#utility.yul\":4687:4705   */\n      add\n        /* \"#utility.yul\":4679:4705   */\n      swap1\n      pop\n        /* \"#utility.yul\":4751:4760   */\n      dup2\n        /* \"#utility.yul\":4745:4749   */\n      dup2\n        /* \"#utility.yul\":4741:4761   */\n      sub\n        /* \"#utility.yul\":4737:4738   */\n      0x00\n        /* \"#utility.yul\":4726:4735   */\n      dup4\n        /* \"#utility.yul\":4722:4739   */\n      add\n        /* \"#utility.yul\":4715:4762   */\n      mstore\n        /* \"#utility.yul\":4779:4910   */\n      tag_150\n        /* \"#utility.yul\":4905:4909   */\n      dup2\n        /* \"#utility.yul\":4779:4910   */\n      tag_101\n      jump\t// in\n    tag_150:\n        /* \"#utility.yul\":4771:4910   */\n      swap1\n      pop\n        /* \"#utility.yul\":4498:4917   */\n      swap2\n      swap1\n      pop\n      jump\t// out\n\n    auxdata: 0xa26469706673582212201fbf0ef9b96dc7e11ea8cc651f5d97393089fe87753e98a90de1fd4a9f891d7564736f6c634300081a0033\n}\n",
				"bytecode": {
					"linkReferences": {},
					"object": "6080604052348015600e575f80fd5b506106c98061001c5f395ff3fe608060405234801561000f575f80fd5b5060043610610086575f3560e01c8063909343bb11610059578063909343bb146100ea578063c317af8d14610108578063ed663d1e14610138578063fb039e961461015657610086565b80630f9abba41461008a5780632762552e146100a85780638163ce67146100c457806389acbf07146100e0575b5f80fd5b610092610172565b60405161009f9190610416565b60405180910390f35b6100c260048036038101906100bd919061045d565b61017a565b005b6100de60048036038101906100d9919061049b565b6101e4565b005b6100e86102c3565b005b6100f261032f565b6040516100ff9190610416565b60405180910390f35b610122600480360381019061011d919061049b565b6103a7565b60405161012f9190610416565b60405180910390f35b6101406103cb565b60405161014d9190610416565b60405180910390f35b610170600480360381019061016b919061049b565b6103d6565b005b5f6005905090565b5f8054905082106101c0576040517f08c379a00000000000000000000000000000000000000000000000000000000081526004016101b790610520565b60405180910390fd5b805f83815481106101d4576101d361053e565b5b905f5260205f2001819055505050565b5f80549050811061022a576040517f08c379a000000000000000000000000000000000000000000000000000000000815260040161022190610520565b60405180910390fd5b5f8190505b60015f805490506102409190610598565b81101561029b575f60018261025591906105cb565b815481106102665761026561053e565b5b905f5260205f2001545f82815481106102825761028161053e565b5b905f5260205f200181905550808060010191505061022f565b505f8054806102ad576102ac6105fe565b5b600190038181905f5260205f20015f9055905550565b5f808054905011610309576040517f08c379a000000000000000000000000000000000000000000000000000000000815260040161030090610675565b60405180910390fd5b5f80548061031a576103196105fe565b5b600190038181905f5260205f20015f90559055565b5f805f8054905011610376576040517f08c379a000000000000000000000000000000000000000000000000000000000815260040161036d90610675565b60405180910390fd5b5f60015f805490506103889190610598565b815481106103995761039861053e565b5b905f5260205f200154905090565b5f8082815481106103bb576103ba61053e565b5b905f5260205f2001549050919050565b5f8080549050905090565b5f81908060018154018082558091505060019003905f5260205f20015f909190919091505550565b5f819050919050565b610410816103fe565b82525050565b5f6020820190506104295f830184610407565b92915050565b5f80fd5b61043c816103fe565b8114610446575f80fd5b50565b5f8135905061045781610433565b92915050565b5f80604083850312156104735761047261042f565b5b5f61048085828601610449565b925050602061049185828601610449565b9150509250929050565b5f602082840312156104b0576104af61042f565b5b5f6104bd84828501610449565b91505092915050565b5f82825260208201905092915050565b7f496e646578206f7574206f6620626f756e6473000000000000000000000000005f82015250565b5f61050a6013836104c6565b9150610515826104d6565b602082019050919050565b5f6020820190508181035f830152610537816104fe565b9050919050565b7f4e487b71000000000000000000000000000000000000000000000000000000005f52603260045260245ffd5b7f4e487b71000000000000000000000000000000000000000000000000000000005f52601160045260245ffd5b5f6105a2826103fe565b91506105ad836103fe565b92508282039050818111156105c5576105c461056b565b5b92915050565b5f6105d5826103fe565b91506105e0836103fe565b92508282019050808211156105f8576105f761056b565b5b92915050565b7f4e487b71000000000000000000000000000000000000000000000000000000005f52603160045260245ffd5b7f656d7074792061727261790000000000000000000000000000000000000000005f82015250565b5f61065f600b836104c6565b915061066a8261062b565b602082019050919050565b5f6020820190508181035f83015261068c81610653565b905091905056fea26469706673582212201fbf0ef9b96dc7e11ea8cc651f5d97393089fe87753e98a90de1fd4a9f891d7564736f6c634300081a0033",
					"opcodes": "PUSH1 0x80 PUSH1 0x40 MSTORE CALLVALUE DUP1 ISZERO PUSH1 0xE JUMPI PUSH0 DUP1 REVERT JUMPDEST POP PUSH2 0x6C9 DUP1 PUSH2 0x1C PUSH0 CODECOPY PUSH0 RETURN INVALID PUSH1 0x80 PUSH1 0x40 MSTORE CALLVALUE DUP1 ISZERO PUSH2 0xF JUMPI PUSH0 DUP1 REVERT JUMPDEST POP PUSH1 0x4 CALLDATASIZE LT PUSH2 0x86 JUMPI PUSH0 CALLDATALOAD PUSH1 0xE0 SHR DUP1 PUSH4 0x909343BB GT PUSH2 0x59 JUMPI DUP1 PUSH4 0x909343BB EQ PUSH2 0xEA JUMPI DUP1 PUSH4 0xC317AF8D EQ PUSH2 0x108 JUMPI DUP1 PUSH4 0xED663D1E EQ PUSH2 0x138 JUMPI DUP1 PUSH4 0xFB039E96 EQ PUSH2 0x156 JUMPI PUSH2 0x86 JUMP JUMPDEST DUP1 PUSH4 0xF9ABBA4 EQ PUSH2 0x8A JUMPI DUP1 PUSH4 0x2762552E EQ PUSH2 0xA8 JUMPI DUP1 PUSH4 0x8163CE67 EQ PUSH2 0xC4 JUMPI DUP1 PUSH4 0x89ACBF07 EQ PUSH2 0xE0 JUMPI JUMPDEST PUSH0 DUP1 REVERT JUMPDEST PUSH2 0x92 PUSH2 0x172 JUMP JUMPDEST PUSH1 0x40 MLOAD PUSH2 0x9F SWAP2 SWAP1 PUSH2 0x416 JUMP JUMPDEST PUSH1 0x40 MLOAD DUP1 SWAP2 SUB SWAP1 RETURN JUMPDEST PUSH2 0xC2 PUSH1 0x4 DUP1 CALLDATASIZE SUB DUP2 ADD SWAP1 PUSH2 0xBD SWAP2 SWAP1 PUSH2 0x45D JUMP JUMPDEST PUSH2 0x17A JUMP JUMPDEST STOP JUMPDEST PUSH2 0xDE PUSH1 0x4 DUP1 CALLDATASIZE SUB DUP2 ADD SWAP1 PUSH2 0xD9 SWAP2 SWAP1 PUSH2 0x49B JUMP JUMPDEST PUSH2 0x1E4 JUMP JUMPDEST STOP JUMPDEST PUSH2 0xE8 PUSH2 0x2C3 JUMP JUMPDEST STOP JUMPDEST PUSH2 0xF2 PUSH2 0x32F JUMP JUMPDEST PUSH1 0x40 MLOAD PUSH2 0xFF SWAP2 SWAP1 PUSH2 0x416 JUMP JUMPDEST PUSH1 0x40 MLOAD DUP1 SWAP2 SUB SWAP1 RETURN JUMPDEST PUSH2 0x122 PUSH1 0x4 DUP1 CALLDATASIZE SUB DUP2 ADD SWAP1 PUSH2 0x11D SWAP2 SWAP1 PUSH2 0x49B JUMP JUMPDEST PUSH2 0x3A7 JUMP JUMPDEST PUSH1 0x40 MLOAD PUSH2 0x12F SWAP2 SWAP1 PUSH2 0x416 JUMP JUMPDEST PUSH1 0x40 MLOAD DUP1 SWAP2 SUB SWAP1 RETURN JUMPDEST PUSH2 0x140 PUSH2 0x3CB JUMP JUMPDEST PUSH1 0x40 MLOAD PUSH2 0x14D SWAP2 SWAP1 PUSH2 0x416 JUMP JUMPDEST PUSH1 0x40 MLOAD DUP1 SWAP2 SUB SWAP1 RETURN JUMPDEST PUSH2 0x170 PUSH1 0x4 DUP1 CALLDATASIZE SUB DUP2 ADD SWAP1 PUSH2 0x16B SWAP2 SWAP1 PUSH2 0x49B JUMP JUMPDEST PUSH2 0x3D6 JUMP JUMPDEST STOP JUMPDEST PUSH0 PUSH1 0x5 SWAP1 POP SWAP1 JUMP JUMPDEST PUSH0 DUP1 SLOAD SWAP1 POP DUP3 LT PUSH2 0x1C0 JUMPI PUSH1 0x40 MLOAD PUSH32 0x8C379A000000000000000000000000000000000000000000000000000000000 DUP2 MSTORE PUSH1 0x4 ADD PUSH2 0x1B7 SWAP1 PUSH2 0x520 JUMP JUMPDEST PUSH1 0x40 MLOAD DUP1 SWAP2 SUB SWAP1 REVERT JUMPDEST DUP1 PUSH0 DUP4 DUP2 SLOAD DUP2 LT PUSH2 0x1D4 JUMPI PUSH2 0x1D3 PUSH2 0x53E JUMP JUMPDEST JUMPDEST SWAP1 PUSH0 MSTORE PUSH1 0x20 PUSH0 KECCAK256 ADD DUP2 SWAP1 SSTORE POP POP POP JUMP JUMPDEST PUSH0 DUP1 SLOAD SWAP1 POP DUP2 LT PUSH2 0x22A JUMPI PUSH1 0x40 MLOAD PUSH32 0x8C379A000000000000000000000000000000000000000000000000000000000 DUP2 MSTORE PUSH1 0x4 ADD PUSH2 0x221 SWAP1 PUSH2 0x520 JUMP JUMPDEST PUSH1 0x40 MLOAD DUP1 SWAP2 SUB SWAP1 REVERT JUMPDEST PUSH0 DUP2 SWAP1 POP JUMPDEST PUSH1 0x1 PUSH0 DUP1 SLOAD SWAP1 POP PUSH2 0x240 SWAP2 SWAP1 PUSH2 0x598 JUMP JUMPDEST DUP2 LT ISZERO PUSH2 0x29B JUMPI PUSH0 PUSH1 0x1 DUP3 PUSH2 0x255 SWAP2 SWAP1 PUSH2 0x5CB JUMP JUMPDEST DUP2 SLOAD DUP2 LT PUSH2 0x266 JUMPI PUSH2 0x265 PUSH2 0x53E JUMP JUMPDEST JUMPDEST SWAP1 PUSH0 MSTORE PUSH1 0x20 PUSH0 KECCAK256 ADD SLOAD PUSH0 DUP3 DUP2 SLOAD DUP2 LT PUSH2 0x282 JUMPI PUSH2 0x281 PUSH2 0x53E JUMP JUMPDEST JUMPDEST SWAP1 PUSH0 MSTORE PUSH1 0x20 PUSH0 KECCAK256 ADD DUP2 SWAP1 SSTORE POP DUP1 DUP1 PUSH1 0x1 ADD SWAP2 POP POP PUSH2 0x22F JUMP JUMPDEST POP PUSH0 DUP1 SLOAD DUP1 PUSH2 0x2AD JUMPI PUSH2 0x2AC PUSH2 0x5FE JUMP JUMPDEST JUMPDEST PUSH1 0x1 SWAP1 SUB DUP2 DUP2 SWAP1 PUSH0 MSTORE PUSH1 0x20 PUSH0 KECCAK256 ADD PUSH0 SWAP1 SSTORE SWAP1 SSTORE POP JUMP JUMPDEST PUSH0 DUP1 DUP1 SLOAD SWAP1 POP GT PUSH2 0x309 JUMPI PUSH1 0x40 MLOAD PUSH32 0x8C379A000000000000000000000000000000000000000000000000000000000 DUP2 MSTORE PUSH1 0x4 ADD PUSH2 0x300 SWAP1 PUSH2 0x675 JUMP JUMPDEST PUSH1 0x40 MLOAD DUP1 SWAP2 SUB SWAP1 REVERT JUMPDEST PUSH0 DUP1 SLOAD DUP1 PUSH2 0x31A JUMPI PUSH2 0x319 PUSH2 0x5FE JUMP JUMPDEST JUMPDEST PUSH1 0x1 SWAP1 SUB DUP2 DUP2 SWAP1 PUSH0 MSTORE PUSH1 0x20 PUSH0 KECCAK256 ADD PUSH0 SWAP1 SSTORE SWAP1 SSTORE JUMP JUMPDEST PUSH0 DUP1 PUSH0 DUP1 SLOAD SWAP1 POP GT PUSH2 0x376 JUMPI PUSH1 0x40 MLOAD PUSH32 0x8C379A000000000000000000000000000000000000000000000000000000000 DUP2 MSTORE PUSH1 0x4 ADD PUSH2 0x36D SWAP1 PUSH2 0x675 JUMP JUMPDEST PUSH1 0x40 MLOAD DUP1 SWAP2 SUB SWAP1 REVERT JUMPDEST PUSH0 PUSH1 0x1 PUSH0 DUP1 SLOAD SWAP1 POP PUSH2 0x388 SWAP2 SWAP1 PUSH2 0x598 JUMP JUMPDEST DUP2 SLOAD DUP2 LT PUSH2 0x399 JUMPI PUSH2 0x398 PUSH2 0x53E JUMP JUMPDEST JUMPDEST SWAP1 PUSH0 MSTORE PUSH1 0x20 PUSH0 KECCAK256 ADD SLOAD SWAP1 POP SWAP1 JUMP JUMPDEST PUSH0 DUP1 DUP3 DUP2 SLOAD DUP2 LT PUSH2 0x3BB JUMPI PUSH2 0x3BA PUSH2 0x53E JUMP JUMPDEST JUMPDEST SWAP1 PUSH0 MSTORE PUSH1 0x20 PUSH0 KECCAK256 ADD SLOAD SWAP1 POP SWAP2 SWAP1 POP JUMP JUMPDEST PUSH0 DUP1 DUP1 SLOAD SWAP1 POP SWAP1 POP SWAP1 JUMP JUMPDEST PUSH0 DUP2 SWAP1 DUP1 PUSH1 0x1 DUP2 SLOAD ADD DUP1 DUP3 SSTORE DUP1 SWAP2 POP POP PUSH1 0x1 SWAP1 SUB SWAP1 PUSH0 MSTORE PUSH1 0x20 PUSH0 KECCAK256 ADD PUSH0 SWAP1 SWAP2 SWAP1 SWAP2 SWAP1 SWAP2 POP SSTORE POP JUMP JUMPDEST PUSH0 DUP2 SWAP1 POP SWAP2 SWAP1 POP JUMP JUMPDEST PUSH2 0x410 DUP2 PUSH2 0x3FE JUMP JUMPDEST DUP3 MSTORE POP POP JUMP JUMPDEST PUSH0 PUSH1 0x20 DUP3 ADD SWAP1 POP PUSH2 0x429 PUSH0 DUP4 ADD DUP5 PUSH2 0x407 JUMP JUMPDEST SWAP3 SWAP2 POP POP JUMP JUMPDEST PUSH0 DUP1 REVERT JUMPDEST PUSH2 0x43C DUP2 PUSH2 0x3FE JUMP JUMPDEST DUP2 EQ PUSH2 0x446 JUMPI PUSH0 DUP1 REVERT JUMPDEST POP JUMP JUMPDEST PUSH0 DUP2 CALLDATALOAD SWAP1 POP PUSH2 0x457 DUP2 PUSH2 0x433 JUMP JUMPDEST SWAP3 SWAP2 POP POP JUMP JUMPDEST PUSH0 DUP1 PUSH1 0x40 DUP4 DUP6 SUB SLT ISZERO PUSH2 0x473 JUMPI PUSH2 0x472 PUSH2 0x42F JUMP JUMPDEST JUMPDEST PUSH0 PUSH2 0x480 DUP6 DUP3 DUP7 ADD PUSH2 0x449 JUMP JUMPDEST SWAP3 POP POP PUSH1 0x20 PUSH2 0x491 DUP6 DUP3 DUP7 ADD PUSH2 0x449 JUMP JUMPDEST SWAP2 POP POP SWAP3 POP SWAP3 SWAP1 POP JUMP JUMPDEST PUSH0 PUSH1 0x20 DUP3 DUP5 SUB SLT ISZERO PUSH2 0x4B0 JUMPI PUSH2 0x4AF PUSH2 0x42F JUMP JUMPDEST JUMPDEST PUSH0 PUSH2 0x4BD DUP5 DUP3 DUP6 ADD PUSH2 0x449 JUMP JUMPDEST SWAP2 POP POP SWAP3 SWAP2 POP POP JUMP JUMPDEST PUSH0 DUP3 DUP3 MSTORE PUSH1 0x20 DUP3 ADD SWAP1 POP SWAP3 SWAP2 POP POP JUMP JUMPDEST PUSH32 0x496E646578206F7574206F6620626F756E647300000000000000000000000000 PUSH0 DUP3 ADD MSTORE POP JUMP JUMPDEST PUSH0 PUSH2 0x50A PUSH1 0x13 DUP4 PUSH2 0x4C6 JUMP JUMPDEST SWAP2 POP PUSH2 0x515 DUP3 PUSH2 0x4D6 JUMP JUMPDEST PUSH1 0x20 DUP3 ADD SWAP1 POP SWAP2 SWAP1 POP JUMP JUMPDEST PUSH0 PUSH1 0x20 DUP3 ADD SWAP1 POP DUP2 DUP2 SUB PUSH0 DUP4 ADD MSTORE PUSH2 0x537 DUP2 PUSH2 0x4FE JUMP JUMPDEST SWAP1 POP SWAP2 SWAP1 POP JUMP JUMPDEST PUSH32 0x4E487B7100000000000000000000000000000000000000000000000000000000 PUSH0 MSTORE PUSH1 0x32 PUSH1 0x4 MSTORE PUSH1 0x24 PUSH0 REVERT JUMPDEST PUSH32 0x4E487B7100000000000000000000000000000000000000000000000000000000 PUSH0 MSTORE PUSH1 0x11 PUSH1 0x4 MSTORE PUSH1 0x24 PUSH0 REVERT JUMPDEST PUSH0 PUSH2 0x5A2 DUP3 PUSH2 0x3FE JUMP JUMPDEST SWAP2 POP PUSH2 0x5AD DUP4 PUSH2 0x3FE JUMP JUMPDEST SWAP3 POP DUP3 DUP3 SUB SWAP1 POP DUP2 DUP2 GT ISZERO PUSH2 0x5C5 JUMPI PUSH2 0x5C4 PUSH2 0x56B JUMP JUMPDEST JUMPDEST SWAP3 SWAP2 POP POP JUMP JUMPDEST PUSH0 PUSH2 0x5D5 DUP3 PUSH2 0x3FE JUMP JUMPDEST SWAP2 POP PUSH2 0x5E0 DUP4 PUSH2 0x3FE JUMP JUMPDEST SWAP3 POP DUP3 DUP3 ADD SWAP1 POP DUP1 DUP3 GT ISZERO PUSH2 0x5F8 JUMPI PUSH2 0x5F7 PUSH2 0x56B JUMP JUMPDEST JUMPDEST SWAP3 SWAP2 POP POP JUMP JUMPDEST PUSH32 0x4E487B7100000000000000000000000000000000000000000000000000000000 PUSH0 MSTORE PUSH1 0x31 PUSH1 0x4 MSTORE PUSH1 0x24 PUSH0 REVERT JUMPDEST PUSH32 0x656D707479206172726179000000000000000000000000000000000000000000 PUSH0 DUP3 ADD MSTORE POP JUMP JUMPDEST PUSH0 PUSH2 0x65F PUSH1 0xB DUP4 PUSH2 0x4C6 JUMP JUMPDEST SWAP2 POP PUSH2 0x66A DUP3 PUSH2 0x62B JUMP JUMPDEST PUSH1 0x20 DUP3 ADD SWAP1 POP SWAP2 SWAP1 POP JUMP JUMPDEST PUSH0 PUSH1 0x20 DUP3 ADD SWAP1 POP DUP2 DUP2 SUB PUSH0 DUP4 ADD MSTORE PUSH2 0x68C DUP2 PUSH2 0x653 JUMP JUMPDEST SWAP1 POP SWAP2 SWAP1 POP JUMP INVALID LOG2 PUSH5 0x6970667358 0x22 SLT KECCAK256 0x1F 0xBF 0xE 0xF9 0xB9 PUSH14 0xC7E11EA8CC651F5D97393089FE87 PUSH22 0x3E98A90DE1FD4A9F891D7564736F6C634300081A0033 "
				},
				"gasEstimates": {
					"creation": {
						"codeDepositCost": "347400",
						"executionCost": "384",
						"totalCost": "347784"
					},
					"external": {
						"add_to_da(uint256)": "46886",
						"da_size()": "2484",
						"get_from_da(uint256)": "infinite",
						"get_last_value_da()": "infinite",
						"remove_from_da(uint256)": "infinite",
						"remove_last_from_da()": "31637",
						"sa_size()": "333",
						"update_da(uint256,uint256)": "infinite"
					}
				},
				"methodIdentifiers": {
					"add_to_da(uint256)": "fb039e96",
					"da_size()": "ed663d1e",
					"get_from_da(uint256)": "c317af8d",
					"get_last_value_da()": "909343bb",
					"remove_from_da(uint256)": "8163ce67",
					"remove_last_from_da()": "89acbf07",
					"sa_size()": "0f9abba4",
					"update_da(uint256,uint256)": "2762552e"
				}
			},
			"storageLayout": {
				"storage": [
					{
						"astId": 4,
						"contract": "arrays/arrays.sol:Arrays",
						"label": "numbers",
						"offset": 0,
						"slot": "0",
						"type": "t_array(t_uint256)dyn_storage"
					},
					{
						"astId": 8,
						"contract": "arrays/arrays.sol:Arrays",
						"label": "five_numbers",
						"offset": 0,
						"slot": "1",
						"type": "t_array(t_uint256)5_storage"
					}
				],
				"types": {
					"t_array(t_uint256)5_storage": {
						"base": "t_uint256",
						"encoding": "inplace",
						"label": "uint256[5]",
						"numberOfBytes": "160"
					},
					"t_array(t_uint256)dyn_storage": {
						"base": "t_uint256",
						"encoding": "dynamic_array",
						"label": "uint256[]",
						"numberOfBytes": "32"
					},
					"t_uint256": {
						"encoding": "inplace",
						"label": "uint256",
						"numberOfBytes": "32"
					}
				}
			},
			"userdoc": {
				"kind": "user",
				"methods": {},
				"version": 1
			}
		}
	}
}