{
	"data": {
		"bytecode": {
			"linkReferences": {},
			"object": "6080604052348015600e575f80fd5b506104508061001c5f395ff3fe608060405234801561000f575f80fd5b506004361061007b575f3560e01c80633b9eac4b116100595780633b9eac4b146100d75780634026896b146100f55780634f2be91f146101135780636deebae3146101315761007b565b806309c425e81461007f57806315d4266c1461009b5780633205f5fc146100b9575b5f80fd5b610099600480360381019061009491906101fb565b61014f565b005b6100a3610160565b6040516100b09190610248565b60405180910390f35b6100c1610166565b6040516100ce9190610248565b60405180910390f35b6100df61017b565b6040516100ec9190610248565b60405180910390f35b6100fd610180565b60405161010a9190610248565b60405180910390f35b61011b610195565b6040516101289190610248565b60405180910390f35b6101396101aa565b6040516101469190610248565b60405180910390f35b815f81905550806001819055505050565b60015481565b5f6001545f5461017691906102bb565b905090565b5f5481565b5f6001545f546101909190610323565b905090565b5f6001545f546101a59190610399565b905090565b5f806001545f546101bb91906103da565b90508091505090565b5f80fd5b5f819050919050565b6101da816101c8565b81146101e4575f80fd5b50565b5f813590506101f5816101d1565b92915050565b5f8060408385031215610211576102106101c4565b5b5f61021e858286016101e7565b925050602061022f858286016101e7565b9150509250929050565b610242816101c8565b82525050565b5f60208201905061025b5f830184610239565b92915050565b7f4e487b71000000000000000000000000000000000000000000000000000000005f52601260045260245ffd5b7f4e487b71000000000000000000000000000000000000000000000000000000005f52601160045260245ffd5b5f6102c5826101c8565b91506102d0836101c8565b9250826102e0576102df610261565b5b60015f0383147f8000000000000000000000000000000000000000000000000000000000000000831416156103185761031761028e565b5b828205905092915050565b5f61032d826101c8565b9150610338836101c8565b9250828202610346816101c8565b91507f800000000000000000000000000000000000000000000000000000000000000084145f8412161561037d5761037c61028e565b5b82820584148315176103925761039161028e565b5b5092915050565b5f6103a3826101c8565b91506103ae836101c8565b92508282019050828112155f8312168382125f8412151617156103d4576103d361028e565b5b92915050565b5f6103e4826101c8565b91506103ef836101c8565b925082820390508181125f8412168282135f8512151617156104145761041361028e565b5b9291505056fea2646970667358221220ac97bf6c57f6553742315f607864a9cc8baf819df8de904b8dd6a532258a195b64736f6c634300081a0033",
			"opcodes": "PUSH1 0x80 PUSH1 0x40 MSTORE CALLVALUE DUP1 ISZERO PUSH1 0xE JUMPI PUSH0 DUP1 REVERT JUMPDEST POP PUSH2 0x450 DUP1 PUSH2 0x1C PUSH0 CODECOPY PUSH0 RETURN INVALID PUSH1 0x80 PUSH1 0x40 MSTORE CALLVALUE DUP1 ISZERO PUSH2 0xF JUMPI PUSH0 DUP1 REVERT JUMPDEST POP PUSH1 0x4 CALLDATASIZE LT PUSH2 0x7B JUMPI PUSH0 CALLDATALOAD PUSH1 0xE0 SHR DUP1 PUSH4 0x3B9EAC4B GT PUSH2 0x59 JUMPI DUP1 PUSH4 0x3B9EAC4B EQ PUSH2 0xD7 JUMPI DUP1 PUSH4 0x4026896B EQ PUSH2 0xF5 JUMPI DUP1 PUSH4 0x4F2BE91F EQ PUSH2 0x113 JUMPI DUP1 PUSH4 0x6DEEBAE3 EQ PUSH2 0x131 JUMPI PUSH2 0x7B JUMP JUMPDEST DUP1 PUSH4 0x9C425E8 EQ PUSH2 0x7F JUMPI DUP1 PUSH4 0x15D4266C EQ PUSH2 0x9B JUMPI DUP1 PUSH4 0x3205F5FC EQ PUSH2 0xB9 JUMPI JUMPDEST PUSH0 DUP1 REVERT JUMPDEST PUSH2 0x99 PUSH1 0x4 DUP1 CALLDATASIZE SUB DUP2 ADD SWAP1 PUSH2 0x94 SWAP2 SWAP1 PUSH2 0x1FB JUMP JUMPDEST PUSH2 0x14F JUMP JUMPDEST STOP JUMPDEST PUSH2 0xA3 PUSH2 0x160 JUMP JUMPDEST PUSH1 0x40 MLOAD PUSH2 0xB0 SWAP2 SWAP1 PUSH2 0x248 JUMP JUMPDEST PUSH1 0x40 MLOAD DUP1 SWAP2 SUB SWAP1 RETURN JUMPDEST PUSH2 0xC1 PUSH2 0x166 JUMP JUMPDEST PUSH1 0x40 MLOAD PUSH2 0xCE SWAP2 SWAP1 PUSH2 0x248 JUMP JUMPDEST PUSH1 0x40 MLOAD DUP1 SWAP2 SUB SWAP1 RETURN JUMPDEST PUSH2 0xDF PUSH2 0x17B JUMP JUMPDEST PUSH1 0x40 MLOAD PUSH2 0xEC SWAP2 SWAP1 PUSH2 0x248 JUMP JUMPDEST PUSH1 0x40 MLOAD DUP1 SWAP2 SUB SWAP1 RETURN JUMPDEST PUSH2 0xFD PUSH2 0x180 JUMP JUMPDEST PUSH1 0x40 MLOAD PUSH2 0x10A SWAP2 SWAP1 PUSH2 0x248 JUMP JUMPDEST PUSH1 0x40 MLOAD DUP1 SWAP2 SUB SWAP1 RETURN JUMPDEST PUSH2 0x11B PUSH2 0x195 JUMP JUMPDEST PUSH1 0x40 MLOAD PUSH2 0x128 SWAP2 SWAP1 PUSH2 0x248 JUMP JUMPDEST PUSH1 0x40 MLOAD DUP1 SWAP2 SUB SWAP1 RETURN JUMPDEST PUSH2 0x139 PUSH2 0x1AA JUMP JUMPDEST PUSH1 0x40 MLOAD PUSH2 0x146 SWAP2 SWAP1 PUSH2 0x248 JUMP JUMPDEST PUSH1 0x40 MLOAD DUP1 SWAP2 SUB SWAP1 RETURN JUMPDEST DUP2 PUSH0 DUP2 SWAP1 SSTORE POP DUP1 PUSH1 0x1 DUP2 SWAP1 SSTORE POP POP POP JUMP JUMPDEST PUSH1 0x1 SLOAD DUP2 JUMP JUMPDEST PUSH0 PUSH1 0x1 SLOAD PUSH0 SLOAD PUSH2 0x176 SWAP2 SWAP1 PUSH2 0x2BB JUMP JUMPDEST SWAP1 POP SWAP1 JUMP JUMPDEST PUSH0 SLOAD DUP2 JUMP JUMPDEST PUSH0 PUSH1 0x1 SLOAD PUSH0 SLOAD PUSH2 0x190 SWAP2 SWAP1 PUSH2 0x323 JUMP JUMPDEST SWAP1 POP SWAP1 JUMP JUMPDEST PUSH0 PUSH1 0x1 SLOAD PUSH0 SLOAD PUSH2 0x1A5 SWAP2 SWAP1 PUSH2 0x399 JUMP JUMPDEST SWAP1 POP SWAP1 JUMP JUMPDEST PUSH0 DUP1 PUSH1 0x1 SLOAD PUSH0 SLOAD PUSH2 0x1BB SWAP2 SWAP1 PUSH2 0x3DA JUMP JUMPDEST SWAP1 POP DUP1 SWAP2 POP POP SWAP1 JUMP JUMPDEST PUSH0 DUP1 REVERT JUMPDEST PUSH0 DUP2 SWAP1 POP SWAP2 SWAP1 POP JUMP JUMPDEST PUSH2 0x1DA DUP2 PUSH2 0x1C8 JUMP JUMPDEST DUP2 EQ PUSH2 0x1E4 JUMPI PUSH0 DUP1 REVERT JUMPDEST POP JUMP JUMPDEST PUSH0 DUP2 CALLDATALOAD SWAP1 POP PUSH2 0x1F5 DUP2 PUSH2 0x1D1 JUMP JUMPDEST SWAP3 SWAP2 POP POP JUMP JUMPDEST PUSH0 DUP1 PUSH1 0x40 DUP4 DUP6 SUB SLT ISZERO PUSH2 0x211 JUMPI PUSH2 0x210 PUSH2 0x1C4 JUMP JUMPDEST JUMPDEST PUSH0 PUSH2 0x21E DUP6 DUP3 DUP7 ADD PUSH2 0x1E7 JUMP JUMPDEST SWAP3 POP POP PUSH1 0x20 PUSH2 0x22F DUP6 DUP3 DUP7 ADD PUSH2 0x1E7 JUMP JUMPDEST SWAP2 POP POP SWAP3 POP SWAP3 SWAP1 POP JUMP JUMPDEST PUSH2 0x242 DUP2 PUSH2 0x1C8 JUMP JUMPDEST DUP3 MSTORE POP POP JUMP JUMPDEST PUSH0 PUSH1 0x20 DUP3 ADD SWAP1 POP PUSH2 0x25B PUSH0 DUP4 ADD DUP5 PUSH2 0x239 JUMP JUMPDEST SWAP3 SWAP2 POP POP JUMP JUMPDEST PUSH32 0x4E487B7100000000000000000000000000000000000000000000000000000000 PUSH0 MSTORE PUSH1 0x12 PUSH1 0x4 MSTORE PUSH1 0x24 PUSH0 REVERT JUMPDEST PUSH32 0x4E487B7100000000000000000000000000000000000000000000000000000000 PUSH0 MSTORE PUSH1 0x11 PUSH1 0x4 MSTORE PUSH1 0x24 PUSH0 REVERT JUMPDEST PUSH0 PUSH2 0x2C5 DUP3 PUSH2 0x1C8 JUMP JUMPDEST SWAP2 POP PUSH2 0x2D0 DUP4 PUSH2 0x1C8 JUMP JUMPDEST SWAP3 POP DUP3 PUSH2 0x2E0 JUMPI PUSH2 0x2DF PUSH2 0x261 JUMP JUMPDEST JUMPDEST PUSH1 0x1 PUSH0 SUB DUP4 EQ PUSH32 0x8000000000000000000000000000000000000000000000000000000000000000 DUP4 EQ AND ISZERO PUSH2 0x318 JUMPI PUSH2 0x317 PUSH2 0x28E JUMP JUMPDEST JUMPDEST DUP3 DUP3 SDIV SWAP1 POP SWAP3 SWAP2 POP POP JUMP JUMPDEST PUSH0 PUSH2 0x32D DUP3 PUSH2 0x1C8 JUMP JUMPDEST SWAP2 POP PUSH2 0x338 DUP4 PUSH2 0x1C8 JUMP JUMPDEST SWAP3 POP DUP3 DUP3 MUL PUSH2 0x346 DUP2 PUSH2 0x1C8 JUMP JUMPDEST SWAP2 POP PUSH32 0x8000000000000000000000000000000000000000000000000000000000000000 DUP5 EQ PUSH0 DUP5 SLT AND ISZERO PUSH2 0x37D JUMPI PUSH2 0x37C PUSH2 0x28E JUMP JUMPDEST JUMPDEST DUP3 DUP3 SDIV DUP5 EQ DUP4 ISZERO OR PUSH2 0x392 JUMPI PUSH2 0x391 PUSH2 0x28E JUMP JUMPDEST JUMPDEST POP SWAP3 SWAP2 POP POP JUMP JUMPDEST PUSH0 PUSH2 0x3A3 DUP3 PUSH2 0x1C8 JUMP JUMPDEST SWAP2 POP PUSH2 0x3AE DUP4 PUSH2 0x1C8 JUMP JUMPDEST SWAP3 POP DUP3 DUP3 ADD SWAP1 POP DUP3 DUP2 SLT ISZERO PUSH0 DUP4 SLT AND DUP4 DUP3 SLT PUSH0 DUP5 SLT ISZERO AND OR ISZERO PUSH2 0x3D4 JUMPI PUSH2 0x3D3 PUSH2 0x28E JUMP JUMPDEST JUMPDEST SWAP3 SWAP2 POP POP JUMP JUMPDEST PUSH0 PUSH2 0x3E4 DUP3 PUSH2 0x1C8 JUMP JUMPDEST SWAP2 POP PUSH2 0x3EF DUP4 PUSH2 0x1C8 JUMP JUMPDEST SWAP3 POP DUP3 DUP3 SUB SWAP1 POP DUP2 DUP2 SLT PUSH0 DUP5 SLT AND DUP3 DUP3 SGT PUSH0 DUP6 SLT ISZERO AND OR ISZERO PUSH2 0x414 JUMPI PUSH2 0x413 PUSH2 0x28E JUMP JUMPDEST JUMPDEST SWAP3 SWAP2 POP POP JUMP INVALID LOG2 PUSH5 0x6970667358 0x22 SLT KECCAK256 0xAC SWAP8 0xBF PUSH13 0x57F6553742315F607864A9CC8B 0xAF DUP2 SWAP14 0xF8 0xDE SWAP1 0x4B DUP14 0xD6 0xA5 ORIGIN 0x25 DUP11 NOT JUMPDEST PUSH5 0x736F6C6343 STOP ADDMOD BYTE STOP CALLER "
		},
		"gasEstimates": {
			"creation": {
				"codeDepositCost": "220800",
				"executionCost": "261",
				"totalCost": "221061"
			},
			"external": {
				"add()": "infinite",
				"division()": "infinite",
				"inputs(int256,int256)": "infinite",
				"multipy()": "infinite",
				"num1()": "2424",
				"num2()": "2448",
				"subtract()": "infinite"
			}
		},
		"methodIdentifiers": {
			"add()": "4f2be91f",
			"division()": "3205f5fc",
			"inputs(int256,int256)": "09c425e8",
			"multipy()": "4026896b",
			"num1()": "3b9eac4b",
			"num2()": "15d4266c",
			"subtract()": "6deebae3"
		}
	},
	"abi": [
		{
			"inputs": [],
			"name": "add",
			"outputs": [
				{
					"internalType": "int256",
					"name": "",
					"type": "int256"
				}
			],
			"stateMutability": "view",
			"type": "function"
		},
		{
			"inputs": [],
			"name": "division",
			"outputs": [
				{
					"internalType": "int256",
					"name": "",
					"type": "int256"
				}
			],
			"stateMutability": "view",
			"type": "function"
		},
		{
			"inputs": [
				{
					"internalType": "int256",
					"name": "num_1",
					"type": "int256"
				},
				{
					"internalType": "int256",
					"name": "num_2",
					"type": "int256"
				}
			],
			"name": "inputs",
			"outputs": [],
			"stateMutability": "nonpayable",
			"type": "function"
		},
		{
			"inputs": [],
			"name": "multipy",
			"outputs": [
				{
					"internalType": "int256",
					"name": "",
					"type": "int256"
				}
			],
			"stateMutability": "view",
			"type": "function"
		},
		{
			"inputs": [],
			"name": "num1",
			"outputs": [
				{
					"internalType": "int256",
					"name": "",
					"type": "int256"
				}
			],
			"stateMutability": "view",
			"type": "function"
		},
		{
			"inputs": [],
			"name": "num2",
			"outputs": [
				{
					"internalType": "int256",
					"name": "",
					"type": "int256"
				}
			],
			"stateMutability": "view",
			"type": "function"
		},
		{
			"inputs": [],
			"name": "subtract",
			"outputs": [
				{
					"internalType": "int256",
					"name": "",
					"type": "int256"
				}
			],
			"stateMutability": "view",
			"type": "function"
		}
	]
}